:020000040800F2
:100000000000042055450008912E0008972E000896
:100010009D2E0008A32E0008A92E00080000000055
:10002000000000000000000000000000218800081F
:10003000AF2E000800000000C1880008BD2E000897
:10004000A5450008A5450008A5450008A5450008E8
:10005000A5450008A5450008A5450008A5450008D8
:10006000A5450008A5450008A5450008A5450008C8
:10007000D92E0008A5450008ED2E0008A54500086A
:10008000A5450008A5450008012F0008A545000862
:10009000A5450008A5450008A5450008A545000898
:1000A000A5450008A5450008A5450008A545000888
:1000B000A5450008A5450008A5450008A545000878
:1000C000A5450008A5450008A5450008A545000868
:1000D000A5450008152F0008A5450008292F000890
:1000E000A5450008A5450008A5450008A545000848
:1000F000A5450008A5450008A5450008A545000838
:10010000A5450008A5450008A5450008A545000827
:10011000A5450008A5450008A54500083D2F000895
:10012000A5450008A5450008512F0008A545000871
:10013000A5450008000000000000000000000000CD
:10014000000000000000000000000000A5450008BD
:10015000A5450008A5450008652F0008A54500082D
:10016000A5450008A5450008A5450008A5450008C7
:10017000A5450008A545000800000000000000009B
:10018000A5450008A5450008A5450008A5450008A7
:10019000A5450008A545000800000000A545000889
:1001A000000000000000000000000000A54500085D
:1001B000A5450008A545000800000000000000005B
:1001C000000000000000000000000000000000002F
:1001D000000000000000000000000000A54500082D
:1001E00010B5054C237833B9044B13B10448AFF371
:1001F00000800123237010BD102A002000000000A1
:1002000048DE000808B5034B1BB103490348AFF3B0
:10021000008008BD00000000142A002048DE00080D
:10022000034613F8012B002AFBD1181A0138704736
:1002300001F0FF01102A2BDB10F0070F08D010F897
:10024000013B013A8B422DD010F0070F42B3F6D19B
:10025000F0B441EA012141EA014122F007047FF0B4
:1002600000070023F0E80256083C85EA010586EA0B
:10027000010685FA47F5A3FA87F586FA47F6A5FA47
:1002800087F68EB9EED1F0BC01F0FF0102F0070253
:1002900032B110F8013B013A83EA010313B1F8D1FE
:1002A0000020704701387047002D06BF35460338DF
:1002B000073815F0010F07D1013015F4807F02BF18
:1002C000013015F4C03F0130F0BC0138704700BF69
:1002D00081F0004102E000BF83F0004330B54FEAF7
:1002E00041044FEA430594EA050F08BF90EA020F64
:1002F0001FBF54EA000C55EA020C7FEA645C7FEAF7
:10030000655C00F0E2804FEA5454D4EB5555B8BF19
:100310006D420CDD2C4480EA020281EA030382EA8A
:10032000000083EA010180EA020281EA0303362D1C
:1003300088BF30BD11F0004F4FEA01314FF4801CEF
:100340004CEA113102D0404261EB410113F0004F01
:100350004FEA03334CEA133302D0524263EB4303B8
:1003600094EA050F00F0A780A4F10104D5F1200E56
:100370000DDB02FA0EFC22FA05F2801841F10001B1
:1003800003FA0EF2801843FA05F359410EE0A5F185
:1003900020050EF1200E012A03FA0EFC28BF4CF0B6
:1003A000020C43FA05F3C01851EBE37101F000456C
:1003B00007D54FF0000EDCF1000C7EEB00006EEB79
:1003C0000101B1F5801F1BD3B1F5001F0CD3490803
:1003D0005FEA30004FEA3C0C04F101044FEA44525A
:1003E00012F5800F80F09A80BCF1004F08BF5FEAE1
:1003F000500C50F1000041EB045141EA050130BDC1
:100400005FEA4C0C404141EB010111F4801FA4F163
:100410000104E9D191F0000F04BF01460020B1FAB8
:1004200081F308BF2033A3F10B03B3F120020CDAF0
:100430000C3208DD02F1140CC2F10C0201FA0CF0CE
:1004400021FA02F10CE002F11402D8BFC2F1200C33
:1004500001FA02F120FA0CFCDCBF41EA0C019040E9
:10046000E41AA2BF01EB0451294330BD6FEA040432
:100470001F3C1CDA0C340EDC04F11404C4F120021D
:1004800020FA04F001FA02F340EA030021FA04F32F
:1004900045EA030130BDC4F10C04C4F1200220FA86
:1004A00002F001FA04F340EA0300294630BD21FAC4
:1004B00004F0294630BD94F0000F83F4801306BF8A
:1004C00081F480110134013D4EE77FEA645C18BF7E
:1004D0007FEA655C29D094EA050F08BF90EA020F15
:1004E00005D054EA000C04BF1946104630BD91EA0D
:1004F000030F1EBF0021002030BD5FEA545C05D110
:100500004000494128BF41F0004130BD14F580044E
:100510003CBF01F5801130BD01F0004545F0FE41C2
:1005200041F470014FF0000030BD7FEA645C1ABFF7
:10053000194610467FEA655C1CBF0B46024650EA2E
:10054000013406BF52EA033591EA030F41F400215A
:1005500030BD00BF90F0000F04BF0021704730B5E0
:100560004FF4806404F132044FF000054FF00001B5
:1005700050E700BF90F0000F04BF0021704730B576
:100580004FF4806404F1320410F0004548BF40424B
:100590004FF000013EE700BF42004FEAE2014FEAA0
:1005A00031014FEA02701FBF12F07F4393F07F4F7B
:1005B00081F06051704732F07F4208BF704793F07E
:1005C0007F4F04BF41F40021704730B54FF4607491
:1005D00001F0004521F000411CE700BF50EA010294
:1005E00008BF704730B54FF000050AE050EA01023D
:1005F00008BF704730B511F0004502D5404261EBAD
:1006000041014FF4806404F132045FEA915C3FF4ED
:10061000D8AE4FF003025FEADC0C18BF03325FEA8A
:10062000DC0C18BF033202EBDC02C2F1200300FA3B
:1006300003FC20FA02F001FA03FE40EA0E0021FA60
:1006400002F11444BDE600BF70B54FF0FF0C4CF44E
:10065000E06C1CEA11541DBF1CEA135594EA0C0F00
:1006600095EA0C0F00F0DEF82C4481EA030621EA3B
:100670004C5123EA4C5350EA013518BF52EA033576
:1006800041F4801143F4801338D0A0FB02CE4FF028
:100690000005E1FB02E506F00042E0FB03E54FF058
:1006A0000006E1FB03569CF0000F18BF4EF0010E50
:1006B000A4F1FF04B6F5007F64F5407404D25FEA4C
:1006C0004E0E6D4146EB060642EAC62141EA5551FF
:1006D0004FEAC52040EA5E504FEACE2EB4F1FD0C41
:1006E00088BFBCF5E06F1ED8BEF1004F08BF5FEABF
:1006F000500E50F1000041EB045170BD06F0004671
:1007000046EA010140EA020081EA0301B4EB5C041D
:10071000C2BFD4EB0C0541EA045170BD41F4801115
:100720004FF0000E013C00F3AB8014F1360FDEBF3A
:10073000002001F0004170BDC4F10004203C35DA16
:100740000C341BDC04F11404C4F1200500FA05F399
:1007500020FA04F001FA05F240EA020001F000423A
:1007600021F0004110EBD37021FA04F642EB0601B0
:100770005EEA430E08BF20EAD37070BDC4F10C04DA
:10078000C4F1200500FA04F320FA05F001FA04F29E
:1007900040EA020001F0004110EBD37041F100018A
:1007A0005EEA430E08BF20EAD37070BDC4F1200595
:1007B00000FA05F24EEA020E20FA04F301FA05F2FD
:1007C00043EA020321FA04F001F0004121FA04F2A5
:1007D00020EA020000EBD3705EEA430E08BF20EA75
:1007E000D37070BD94F0000F0FD101F000464000AF
:1007F00041EB010111F4801F08BF013CF7D041EA31
:10080000060195F0000F18BF704703F00046520034
:1008100043EB030313F4801F08BF013DF7D043EA05
:100820000603704794EA0C0F0CEA135518BF95EABB
:100830000C0F0CD050EA410618BF52EA4306D1D142
:1008400081EA030101F000414FF0000070BD50EA61
:10085000410606BF1046194652EA430619D094EAEB
:100860000C0F02D150EA013613D195EA0C0F05D1D5
:1008700052EA03361CBF104619460AD181EA030129
:1008800001F0004141F0FE4141F470014FF00000E1
:1008900070BD41F0FE4141F4780170BD70B54FF07C
:1008A000FF0C4CF4E06C1CEA11541DBF1CEA1355FC
:1008B00094EA0C0F95EA0C0F00F0A7F8A4EB0504DE
:1008C00081EA030E52EA03354FEA013100F08880D5
:1008D0004FEA03334FF0805545EA131343EA12639E
:1008E0004FEA022245EA111545EA10654FEA002653
:1008F0000EF000419D4208BF964244F1FD0404F50C
:10090000407402D25B084FEA3202B61A65EB030567
:100910005B084FEA32024FF480104FF4002CB6EB24
:10092000020E75EB030E22BFB61A754640EA0C00A4
:100930005B084FEA3202B6EB020E75EB030E22BFE4
:10094000B61A754640EA5C005B084FEA3202B6EB25
:10095000020E75EB030E22BFB61A754640EA9C00E4
:100960005B084FEA3202B6EB020E75EB030E22BFB4
:10097000B61A754640EADC0055EA060E18D04FEA72
:10098000051545EA16754FEA06164FEAC30343EA12
:1009900052734FEAC2025FEA1C1CC0D111F4801FDF
:1009A0000BD141EA00014FF000004FF0004CB6E7D8
:1009B00011F4801F04BF01430020B4F1FD0C88BF77
:1009C000BCF5E06F3FF6AFAEB5EB030C04BFB6EB82
:1009D000020C5FEA500C50F1000041EB045170BD75
:1009E0000EF0004E4EEA113114EB5C04C2BFD4EBA2
:1009F0000C0541EA045170BD41F480114FF0000E26
:100A0000013C90E645EA060E8DE60CEA135594EAA1
:100A10000C0F08BF95EA0C0F3FF43BAF94EA0C0FA4
:100A20000AD150EA01347FF434AF95EA0C0F7FF419
:100A300025AF104619462CE795EA0C0F06D152EA6D
:100A400003353FF4FDAE1046194622E750EA410651
:100A500018BF52EA43067FF4C5AE50EA41047FF462
:100A60000DAF52EA43057FF4EBAE12E74FF0FF3CC7
:100A700006E000BF4FF0010C02E000BF4FF0010C98
:100A80004DF804CD4FEA410C7FEA6C5C4FEA430C11
:100A900018BF7FEA6C5C1BD001B050EA410C0CBF60
:100AA00052EA430C91EA030F02BF90EA020F0020C2
:100AB000704710F1000F91EA030F58BF994208BF29
:100AC00090422CBFD8176FEAE37040F001007047E6
:100AD0004FEA410C7FEA6C5C02D150EA013C07D13D
:100AE0004FEA430C7FEA6C5CD6D152EA033CD3D088
:100AF0005DF8040B704700BF8446104662468C4682
:100B00001946634600E000BF01B5FFF7B7FF0028B4
:100B100048BF10F1000F01BD4DF808EDFFF7F4FFDD
:100B20000CBF012000205DF808FB00BF4DF808ED68
:100B3000FFF7EAFF34BF012000205DF808FB00BF8B
:100B40004DF808EDFFF7E0FF94BF012000205DF8AD
:100B500008FB00BF4DF808EDFFF7CEFF94BF012062
:100B600000205DF808FB00BF4DF808EDFFF7C4FF5B
:100B700034BF012000205DF808FB00BF4FEA410CA4
:100B80007FEA6C5C02D150EA013C0AD14FEA430C87
:100B90007FEA6C5C02D152EA033C02D14FF00000C4
:100BA00070474FF0010070474FEA410212F5001202
:100BB00015D211D56FF47873B3EB625212D94FEAA4
:100BC000C12343F0004343EA505311F0004F23FA8E
:100BD00002F018BF404270474FF00000704750EAE3
:100BE000013005D111F0004008BF6FF000407047A0
:100BF0004FF00000704700BF4A0011D212F50012FA
:100C000011D20DD56FF47873B3EB62520ED44FEA64
:100C1000C12343F0004343EA505323FA02F07047E4
:100C20004FF00000704750EA013002D14FF0FF3022
:100C300070474FF0000070474FEA4102B2F1E043C5
:100C400024BFB3F5001CDCF1FE5C0DD901F0004CB3
:100C50004FEAC0024CEA5070B2F1004F40EB830003
:100C600008BF20F00100704711F0804F21D113F12F
:100C70003872BCBF01F00040704741F480114FEA68
:100C80005252C2F11802C2F1200C10FA0CF320FAF1
:100C900002F018BF40F001004FEAC1234FEAD3230E
:100CA00003FA0CFC40EA0C0023FA02F34FEA430378
:100CB000CCE77FEA625307D150EA01331EBF4FF001
:100CC000FE4040F44000704701F0004040F0FE401C
:100CD00040F40000704700BF53B94AB9002908BF6B
:100CE00000281CBF4FF0FF314FF0FF3000F072B909
:100CF000ADF1080C6DE904CE00F006F8DDF804E073
:100D0000DDE9022304B070472DE9F047089E044650
:100D10008846002B4BD18A42154667D9B2FA82F237
:100D20004AB1C2F1200701FA02F320FA07F7954011
:100D300047EA030894404FEA154E230CB8FBFEF730
:100D40001FFA85FC0EFB178843EA084307FB0CF1EA
:100D5000994209D9EB1807F1FF3080F01B819942C5
:100D600040F21881023F2B445B1AA4B2B3FBFEF0A1
:100D70000EFB103344EA034400FB0CFCA44509D9E4
:100D80002C1900F1FF3380F00781A44540F2048163
:100D900002382C4440EA0740A4EB0C0400271EB1A3
:100DA000D4400023C6E900433946BDE8F0878B42B2
:100DB00009D9002E00F0EB800027C6E90001384673
:100DC0003946BDE8F087B3FA83F7002F47D18B424D
:100DD00002D3824200F2FA80841A61EB03030120FD
:100DE0009846002EE0D0C6E90048DDE702B9FFDEF4
:100DF000B2FA82F2002A40F08F80491B4FEA154E6A
:100E00001FFA85F80127B1FBFEFC230C0EFB1C1119
:100E100043EA014308FB0CF1994207D9EB180CF1A6
:100E2000FF3002D2994200F2CD808446591AA3B213
:100E3000B1FBFEF00EFB101443EA044408FB00F87B
:100E4000A04507D92C1900F1FF3302D2A04500F2CA
:100E5000B6801846A4EB080440EA0C409FE7C7F1AF
:100E6000200CBB4022FA0CFE4EEA030E01FA07F4F6
:100E700020FA0CF521FA0CF34FEA1E482543B3FB88
:100E8000F8F92C0C08FB19331FFA8EFA44EA0343D5
:100E900009FB0AF49C4202FA07F200FA07F10BD9A7
:100EA0001EEB030309F1FF3080F087809C4240F283
:100EB0008480A9F1020973441B1BADB2B3FBF8F0A7
:100EC00008FB103345EA034400FB0AFAA24508D99F
:100ED0001EEB040400F1FF336BD2A24569D902383E
:100EE000744440EA0940A0FB0289A4EB0A044C4583
:100EF000C2464B4654D351D0002E69D0B1EB0A05FF
:100F000064EB030404FA0CFCFD40FC404CEA0505CC
:100F1000C6E90054002747E7C2F1200320FA03F78F
:100F2000954001FA02F021FA03F34FEA154E3843D7
:100F3000010CB3FBFEF71FFA85F80EFB173341EAED
:100F4000034107FB08F38B4204FA02F407D969183E
:100F500007F1FF3C2FD28B422DD9023F2944CB1AF7
:100F600081B2B3FBFEF00EFB103341EA034100FBFC
:100F700008F38B4207D9691800F1FF3C17D28B4266
:100F800015D902382944C91A40EA07473BE73746D2
:100F9000304609E70746E7E61846FBE64145ABD28F
:100FA000B8EB020A69EB0E0201381346A4E760466B
:100FB000E9E7184695E76746D1E781467CE70238BE
:100FC0002C4447E7ACF1020C2B442FE7384608E7E6
:100FD0003746E9E6704700BF80B487B000AF78605D
:100FE00039607B68002B02D03B68002B02D14FF0A8
:100FF000FF3332E07B687B613B683B617B69013397
:101000001B78BB737B6901331A783B6901331B780A
:101010009A4209D17B691A783B691B789A4203D1BD
:1010200097F90E30002B02D16FF0010315E0022377
:10103000FB730AE03A69531C3B617B69591C796177
:1010400012781A70FB7B0133FB73FA7B97F90E3031
:1010500002339A42EEDB97F90E3018461C37BD4634
:101060005DF8047B7047000080B588B002AF7860FF
:101070000123FB750023BB75374B5B6A3B61364B25
:101080005B6AFB60FA7DBB7D9A4202D1012005F0CC
:101090006DFEFB7D012B57D13969F86800F0F8FC33
:1010A00002462E4B9A4252D9FB683B6100F01EFE6D
:1010B00001230093402380220021002000F001FF43
:1010C000274807F053FE274BD3ED007AFDEEE77A71
:1010D00017EE903A244A0421042009F069F807F039
:1010E000EBFD0346191D214BD3ED007AFDEEE77AA7
:1010F00017EE903A1E4A042009F05AF807F0DCFD7A
:101100000346023359001B4BD3ED007AFDEEE77A1C
:1011100017EE903A184A042009F04AF8174807F0E9
:1011200025FE174B174A3521042009F041F8164BCC
:101130001B78DBB2002B04D0144A3521542009F06F
:1011400037F800F047FD02E00123FB7500E000BF27
:10115000FB7DBB7593E700BF000C0040F049020027
:10116000002800202C2A00206CDE0008382A0020ED
:1011700078DE0008302A002088DE000810280020D1
:1011800098DE0008A0DE00083C2A0020B0DE00083F
:1011900080B582B000AF78600B4A00210B4805F0A3
:1011A0008DFD02460A4B1A6002E0012005F0DEFDCB
:1011B00004220849022000F03FF80346002BF4DD2A
:1011C000322005F0D3FDF3E714DF000869100008B2
:1011D000587C00200000002080B584B000AF03469A
:1011E000B9607A60FB73BB681B78022B00D014E0F7
:1011F000B9680C48FFF7F0FE0A4B1B690A4A1360F6
:10120000084BDB68094A1360064B5B68084A1360A9
:10121000044B9B68074A136000BF00BF1037BD46F0
:1012200080BD00BF04000020382A0020302A0020A2
:101230002C2A0020342A002080B586B000AF034657
:10124000B9607A60FB73FB7B7A68B968184602F074
:101250007DF90346FB7597F91730B3F1FF3F03D1D2
:10126000084B01221A7006E097F91730012B02D1C2
:10127000044B00221A7097F9173018461837BD46EC
:1012800080BD00BF3C2A002080B500AF874B1B69A2
:1012900003F48073002B1DD1854B1B78322B12D9A0
:1012A000844B1B68002B03D1834B1B68814A13605E
:1012B000814B1A687F4B1B68D31A804A1360804B9E
:1012C00001221A7010E07A4B1B780133DAB2784BA6
:1012D0001A7009E0774B00221A60754B00221A70D1
:1012E000734B1A78764B1A70704B1B6903F08003AE
:1012F000002B1DD1734B1B78322B12D9724B1B68FC
:10130000002B03D16C4B1B686F4A13606A4B1A6841
:101310006D4B1B68D31A6D4A13606D4B01221A7016
:1013200010E0684B1B780133DAB2664B1A7009E0A3
:10133000654B00221A60634B00221A70614B1A78C9
:10134000634B1A70594B1B6903F04003002B1DD1EE
:10135000604B1B78322B12D95F4B1B68002B03D1DB
:10136000554B1B685C4A1360534B1A685A4B1B68F9
:10137000D31A5A4A13605A4B01221A7010E0554B87
:101380001B780133DAB2534B1A7009E0524B00223A
:101390001A60504B00221A704E4B1A78504B1A703C
:1013A0004F4B1B78DBB2002B00F0EA814D4B1B69E1
:1013B00003F04003002B34D04B4B1B78142B29D95E
:1013C0004A4B1B68002B03D13B4B1B68474A1360F9
:1013D000394B1A68454B1B68D31A454A1360454B75
:1013E0001B78DBB2002B11D1434B1B78DBB2002BF7
:1013F0000CD1424B1B78DBB2002B07D1404B1B7842
:10140000DBB2002B02D13F4B01221A703B4B012271
:101410001A7010E0344B1B780133DAB2324B1A7079
:1014200009E0324B00221A602F4B00221A702E4B1B
:101430001A78324B1A702B4B1B6903F08003002B78
:101440006AD0314B1B78142B29D9304B1B68002BE9
:1014500003D1194B1B682D4A1360174B1A682B4B8D
:101460001B68D31A2A4A1360224B1B78DBB2002B6D
:1014700011D1214B1B78DBB2002B0CD11F4B1B78F9
:10148000DBB2002B07D11E4B1B78DBB2002B02D145
:10149000204B01221A701A4B01221A7046E01A4B97
:1014A0001B780133DAB2184B1A703FE00008024093
:1014B000942A0020902A0020402A00208C2A002014
:1014C000882A0020A02A00209C2A0020982A002098
:1014D000952A0020AC2A0020A82A0020A42A002057
:1014E000A12A0020000402406C2A0020782A002053
:1014F000542A0020442A0020452A0020462A0020A1
:10150000472A0020662A00206D2A00207C2A00201D
:10151000582A0020672A00207D4B00221A607D4B4C
:1015200000221A707B4B1A787B4B1A707B4B1B691D
:1015300003F01003002B34D0794B1B78142B29D9DE
:10154000784B1B68002B03D1774B1B68754A1360DF
:10155000754B1A68734B1B68D31A744A1360744B2B
:101560001B78DBB2002B11D1724B1B78DBB2002B46
:101570000CD1714B1B78DBB2002B07D1664B1B786B
:10158000DBB2002B02D16D4B01221A70684B012295
:101590001A7010E0624B1B780133DAB2604B1A709C
:1015A00009E0604B00221A605D4B00221A705C4B10
:1015B0001A785F4B1A70594B1B6903F02003002BFC
:1015C00034D05F4B1B78142B29D95E4B1B68002B42
:1015D00003D1554B1B685B4A1360534B1A68594B38
:1015E0001B68D31A584A1360514B1B78DBB2002B8F
:1015F00011D1504B1B78DBB2002B0CD14E4B1B781A
:10160000DBB2002B07D1444B1B78DBB2002B02D19D
:101610004E4B01221A70474B01221A7010E0484BC2
:101620001B780133DAB2464B1A7009E0454B0022B1
:101630001A60434B00221A70414B1A783D4B1A70C6
:10164000434B1B6903F48053002B20D0414B1B7884
:10165000142B15D9404B1B68002B03D1324B1B6850
:101660003D4A1360304B1A683B4B1B68D31A3B4A08
:1016700013603B4B01221A703A4B01221A7010E0A2
:10168000344B1B780133DAB2324B1A7009E0324B1B
:1016900000221A602F4B00221A702E4B1A78314B01
:1016A0001A70314B1B6903F00403002B20D02F4B21
:1016B0001B78142B15D92E4B1B68002B03D11A4B0A
:1016C0001B682B4A1360184B1A68294B1B68D31AE6
:1016D000284A1360284B01221A70284B01221A70E5
:1016E00010E0224B1B780133DAB2204B1A7009E06C
:1016F0001F4B00221A601D4B00221A701B4B1A78D8
:101700001E4B1A704FF08043FF22DA6360E000BF87
:101710007C2A00206D2A0020472A00200004024075
:101720006A2A0020702A0020402A00204C2A00202B
:10173000442A0020452A0020462A0020642A00204E
:101740006B2A0020742A0020502A0020652A0020DD
:10175000000802406F2A0020842A0020602A00200E
:10176000692A0020492A0020000C02406E2A00202D
:10177000802A00205C2A0020682A0020482A0020B5
:10178000304B00221A70304B00221A702F4B00226F
:101790001A702F4B00221A702E4B00221A702E4BFB
:1017A00000221A702D4B00221A702D4B00221A7045
:1017B0002C4B00221A702C4B00221A702B4B00224B
:1017C0001A702B4B00221A704FF080430022DA630C
:1017D000244B1B78DBB2002B0CBF01230023DBB2B0
:1017E0001A464FF48071234803F0D2FC1E4B1B783D
:1017F000DBB2002B0CBF01230023DBB21A464FF4EF
:1018000000411C4803F0C4FC184B1B78DBB2002BD2
:101810000CBF01230023DBB21A464FF400511548D8
:1018200003F0B6FC124B1B78DBB2002B0CBF01237C
:101830000023DBB21A464FF480510E4803F0A8FC97
:1018400000BF80BD692A0020682A0020642A002089
:10185000652A0020662A0020672A0020492A0020E5
:10186000482A0020442A0020452A0020462A002039
:10187000472A00200004024080B582B000AF7860A3
:10188000084B1B68002B05D1074805F089FA024672
:10189000044B1A60054A7B68136000BF0837BD46D9
:1018A00080BD00BFB42A002038DF0008B02A002025
:1018B00080B584B000AF786039600023FB81154BA0
:1018C0001B68002B05D1144805F06AFA0246114B3B
:1018D0001A60124B1B68002B17D00E4B1B6800219F
:1018E000184605F09FFAB860BB68002B0DD10B4B72
:1018F0001B683A687968184603F086F90346FB814D
:10190000044B1B68184605F0BDFAFB8918461037D2
:10191000BD4680BDB42A002038DF0008B02A002070
:1019200080B584B000AF786039600023FB81194B2B
:101930001B68002B05D1184805F032FA0246154BFA
:101940001A60164B1B68002B17D0124B1B68002126
:10195000184605F067FAB860BB68002B0DD10F4B35
:101960001B683A687968184603F04EF90346FB8114
:10197000084B1B68184605F085FAFB895AB2FB89AB
:101980001B0A9BB25BB253405BB2DBB21846103706
:10199000BD4680BDB42A002038DF0008B02A0020F0
:1019A00080B588B000AF214B1B6C204A43F0080380
:1019B00013641E4B1B6C03F008033B603B681C4B1D
:1019C0001C4A1A6003F0AAFE03465B001A4AA2FBF7
:1019D00003239B0C194A1360154B00225A60144BC9
:1019E00000229A60124B4FF0FF32DA60104B002257
:1019F0001A610F4804F00EFB4FF480533B6107F16E
:101A0000100319460A4804F025FC00237B600023DC
:101A1000FB603B1D1946064804F0E4FC044804F052
:101A2000AFF900BF2037BD4680BD00BF003802407F
:101A3000B82A0020000C004083DE1B43F82A002057
:101A400080B584B000AF7860084B5B6AFB6000BF74
:101A5000064B5B6AF968184600F01AF802467B6884
:101A60009342F5D800BF1037BD4680BD000C004042
:101A700080B582B000AF78607B684FF47A7202FB69
:101A800003F31846FFF7DCFF00BF0837BD4680BDF3
:101A900080B483B000AF786039607A683B689A425E
:101AA00007D37A683B68D21A094B1B68B2FBF3F381
:101AB00007E07A683B68D31A5A1E054B1B68B2FBD5
:101AC000F3F318460C37BD465DF8047B704700BF42
:101AD000F82A002080B584B000AF0346FB71FA7984
:101AE000FB79DB43DBB21B041343FB6000220221C2
:101AF000154803F04DFB00220421144803F048FB75
:101B000001220221114803F043FB114AFB68936153
:101B10000220FFF795FF06F095FE012202210A48F8
:101B200003F036FB0220FFF78BFF0022022106485C
:101B300003F02EFB06F0ACFE0120FFF781FF00BF93
:101B40001037BD4680BD00BF0004024000080240BF
:101B50000000024080B584B000AF0346FB71FA7903
:101B6000FB79DB43DBB21B041343FB600022022141
:101B7000154803F00DFB00220421144803F008FB74
:101B800000220221114803F003FB114AFB68936114
:101B90000220FFF755FF06F055FE012202210A48F8
:101BA00003F0F6FA0220FFF74BFF0022022106485D
:101BB00003F0EEFA06F06CFE0120FFF741FF00BFD4
:101BC0001037BD4680BD00BF00040240000802403F
:101BD0000000024080B584B000AF0023FB6050E0FD
:101BE000012210212A4803F0D3FA012201212948B9
:101BF00003F0CEFA4020FFF7ADFFFB68DBB2483BB5
:101C0000DBB21846FFF7A6FF01221021204803F09F
:101C1000BFFA002201211F4803F0BAFA0023BB607B
:101C20000CE01D4AFB68DB011A44BB6813441B78B7
:101C30001846FFF74FFFBB680133BB60BB683F2B03
:101C4000EFDD00221021124803F0A2FA0122012147
:101C5000104803F09DFA40237B600CE00E4AFB68BD
:101C6000DB011A447B6813441B781846FFF732FFE8
:101C70007B6801337B607B687F2BEFDDFB68013382
:101C8000FB60FB68072BABDD00BF1037BD4680BD96
:101C900000080240000402405C7C002080B500AFD8
:101CA000012210210F4803F073FA012201210E488E
:101CB00003F06EFA3F20FFF74DFF4020FFF74AFF89
:101CC000B820FFF747FFC020FFF744FF0022102194
:101CD000044803F05DFA00220121034803F058FA9A
:101CE00000BF80BD000802400004024080B483B001
:101CF00000AF00237B6013E000233B600AE00D4A45
:101D00007B68DB011A443B68134400221A703B686D
:101D100001333B603B687F2BF1DD7B6801337B60E7
:101D20007B68072BE8DD00BF0C37BD465DF8047B00
:101D3000704700BF5C7C002080B483B000AF0346D6
:101D40000A46FB711346BB7197F90730002B1FDB66
:101D5000BB793F2B1CD8BB79DB08D8B20246FB7994
:101D60000E49D2010A4413441B785AB2BB7903F0DE
:101D70000703012101FA03F35BB2134359B2024690
:101D8000FB79C8B20549D2010A44134402461A70CD
:101D900000BF0C37BD465DF8047B70475C7C0020BB
:101DA00080B483B000AF03460A46FB711346BB7193
:101DB00097F90730002B21DBBB793F2B1ED8BB796D
:101DC000DB08D8B20246FB790F49D2010A4413441A
:101DD0001B785AB2BB7903F00703012101FA03F320
:101DE0005BB2DB435BB2134059B20246FB79C8B227
:101DF0000549D2010A44134402461A7000BF0C3749
:101E0000BD465DF8047B70475C7C002080B58CB0DB
:101E100000AFF860B9607A603B60BB6B002B26D0E6
:101E2000BB68FB620023BB621CE0FB687B62002393
:101E30003B620DE07B6ADBB2FA6AD2B21146184609
:101E4000FFF77AFF3B6A01333B627B6A01337B62B7
:101E50003A6A7B689A42EDDBBB6A0133BB62FB6A7C
:101E60000133FB62BA6A3B689A42DEDB25E0BB685D
:101E7000FB610023BB611CE0FB687B6100233B61CD
:101E80000DE07B69DBB2FA69D2B211461846FFF762
:101E900087FF3B6901333B617B6901337B613A69B1
:101EA0007B689A42EDDBBB690133BB61FB6901339F
:101EB000FB61BA693B689A42DEDB00BF3037BD4642
:101EC00080BD80B58CB000AFF860B9607A603B60CF
:101ED0007B68002B40F39A803B68002B40F3968090
:101EE000BB6B002B49D0BB68FB620023BB621BE0CD
:101EF000FB68DBB2FA6AD2B211461846FFF71CFF44
:101F0000FB68DAB27B68DBB21344DBB2013BDBB2C5
:101F1000FA6AD2B211461846FFF70EFFBB6A0133C8
:101F2000BB62FB6A0133FB62BA6A3B689A42DFDB41
:101F3000FB687B6200233B621AE07B6ADBB2BA6813
:101F4000D2B211461846FFF7F7FE7B6AD8B2BB68DB
:101F5000DAB23B68DBB21344DBB2013BDBB21946B9
:101F6000FFF7EAFE3B6A01333B627B6A01337B6227
:101F70003A6A7B689A42E0DB48E0BB68FB61002379
:101F8000BB611BE0FB68DBB2FA69D2B211461846AE
:101F9000FFF706FFFB68DAB27B68DBB21344DBB203
:101FA000013BDBB2FA69D2B211461846FFF7F8FEE0
:101FB000BB690133BB61FB690133FB61BA693B68F3
:101FC0009A42DFDBFB687B6100233B611AE07B699F
:101FD000DBB2BA68D2B211461846FFF7E1FE7B6960
:101FE000D8B2BB68DAB23B68DBB21344DBB2013B68
:101FF000DBB21946FFF7D4FE3B6901333B617B69D5
:1020000001337B613A697B689A42E0DB00BF30377D
:10201000BD4680BD80B500AF002204210F4803F00B
:10202000B7F84FF4FA70FFF70BFD012204210B48BB
:1020300003F0AEF80220FFF71BFDFFF72FFEFFF7BE
:1020400055FEFFF7C7FD40228021054806F046FEF9
:10205000002006F021FE00BF80BD00BF000402404A
:102060000D1E000880B400AFBFF34F8FBFF36F8F1A
:102070000B4B0022C3F85022BFF34F8FBFF36F8F7B
:10208000074B5B69064A43F400335361BFF34F8F3C
:10209000BFF36F8F00BFBD465DF8047B704700BF84
:1020A00000ED00E080B485B000AF1D4B0022C3F806
:1020B0008420BFF34F8F1A4BD3F880307B607B684E
:1020C0005B0BC3F30E03FB607B68DB08C3F3090300
:1020D000BB60FB685A0143F6E0731340BA6892078D
:1020E0000F491343C1F86032BB685A1EBA60002B17
:1020F000EFD1FB685A1EFA60002BE5D1BFF34F8F7A
:10210000074B5B69064A43F480335361BFF34F8F3B
:10211000BFF36F8F00BF1437BD465DF8047B704777
:1021200000ED00E080B582B000AF78607B68044AC3
:10213000934201D1FFF7A8F800BF0837BD4680BD24
:10214000D083002080B582B000AF7860786801F05D
:102150008BFD00BF0837BD4680BD80B582B000AFA3
:102160007860786801F0E6FD00BF0837BD4680BDA5
:1021700080B500AF0E4806F0F9FD0E4A04211E207E
:1021800008F036F80C4806F0F1FD0C4A202100203A
:1021900008F02EF80A4A2E210D2008F029F8FFF742
:1021A00019FD4FF47A70FFF763FC00BF80BD00BFDC
:1021B00030280020ECDE000820280020F4DE000893
:1021C00004DF000880B500AFFFF74CFFFFF76AFFA0
:1021D00002F00EFA00F054F800F004FB00F0C0FA30
:1021E00000F076F900F020F900F002FA00F058FA59
:1021F00000F086FA00F0DAF800F0C4F901F0D4FD3E
:102200001548FFF739FB01224FF40041134802F053
:10221000BFFFFFF7C5FB124803F0CAFD08211148B4
:1022200004F0DEF8FFF7F6FEFFF7A2FF04F00CFD66
:102230000D4A00210D4804F041FD02460C4B1A6086
:102240000C4A00210C4804F039FD02460B4B1A6081
:1022500004F014FDFEE700BF808100200000024072
:10226000D08300209083002048DF000891110008EF
:102270005C8000206CDF0008214100088C83002076
:1022800080B5B4B000AF07F1A0033022002118469A
:1022900008F06DF807F18C0300221A605A609A600A
:1022A000DA601A6107F10C0380220021184608F059
:1022B0005EF83C4B1B6C3B4A43F080531364394B34
:1022C0001B6C03F08053BB60BB68374B1B68364AFE
:1022D00043F440431360344B1B6803F440437B607A
:1022E0007B680223C7F8A0300123C7F8AC30102365
:1022F000C7F8B0300223C7F8B8300023C7F8BC30A5
:102300000823C7F8C030D823C7F8C4300223C7F861
:10231000C8300223C7F8CC3007F1A003184602F0FA
:1023200075FF0346002B01D000F068FB02F036FF7A
:102330000346002B01D000F061FB0F23C7F88C305F
:102340000223C7F890300023C7F894304FF4A0530D
:10235000C7F898304FF48053C7F89C3007F18C03CE
:102360000721184603F03CF90346002B01D000F08A
:1023700045FB4FF4A073FB600023BB6400233B6567
:1023800007F10C03184603F0E9F90346002B01D0CE
:1023900000F034FB012002F04FF900BFD037BD46FA
:1023A00080BD00BF003802400070004080B582B0A0
:1023B00000AF1A4B1B6B194A43F480531363174B3E
:1023C0001B6B03F480537B607B68154B154A1A60C6
:1023D000134B01221A71124B01225A71104B4AF20F
:1023E00001029A600E4B0822DA600D4B00221A613E
:1023F0000B4B20225A610A4B80229A61084B012222
:102400001A62074802F0C6FB0346002B01D000F019
:10241000F5FA00BF0837BD4680BD00BF0038024056
:10242000808100200030024080B584B000AF3B4680
:1024300000221A605A609A60DA60214B214A1A60C1
:102440001F4B4FF480325A601D4B00229A601C4B88
:1024500000221A611A4B00229A61194B002283F85C
:102460002020174B0022DA62154B174A9A62144B50
:102470000022DA60124B0122DA61114B002283F84C
:1024800030200F4B01225A610D4802F0E9F8034653
:10249000002B01D000F0B2FA0C4B3B6001237B60B3
:1024A0000023BB603B461946054802F017FA034675
:1024B000002B01D000F0A2FA00BF1037BD4680BD4E
:1024C00064820020002001400100000F1200001073
:1024D00080B58AB000AF07F11C0300221A605A6071
:1024E0009A603B4600221A605A609A60DA601A616C
:1024F0005A619A61224B4FF080421A60204B4FF490
:10250000D3725A601E4B00229A601D4BFF22DA6084
:102510001B4B00221A611A4B00229A61184803F0E3
:1025200093FD0346002B01D000F068FA0023FB6105
:1025300000237B6207F11C031946114803F052FF88
:102540000346002B01D000F059FA60233B600023C2
:102550007B600023BB6000233B613B460822194699
:10256000074803F0E7FD0346002B01D000F046FAD0
:10257000034800F0EDFA00BF2837BD4680BD00BF1C
:102580009083002080B584B000AF3B1D00221A600C
:102590005A609A60144B154A1A60134B6B225A60AA
:1025A000114B00229A60104B40F2E732DA600E4B7A
:1025B00000229A610C4803F02DFD0346002B01D048
:1025C00000F01CFA00237B600023FB603B1D1946D2
:1025D000054803F007FF0346002B01D000F00EFA78
:1025E00000BF1037BD4680BDD083002000140040DE
:1025F00080B588B000AF3B1D00221A605A609A6017
:10260000DA601A615A619A61234B244A1A60224B9C
:1026100042F62F225A60204B00229A601E4B42F253
:102620000F72DA601C4B00221A611B4B00229A6168
:10263000194803F0EFFC0346002B01D000F0DEF94F
:10264000154803F001FD0346002B01D000F0D6F938
:102650000821114803F012FD0346002B01D000F0C1
:10266000CDF960237B604FF47A63BB600023FB608D
:1026700000237B613B1D00221946074803F05AFDE9
:102680000346002B01D000F0B9F9034800F060FACE
:1026900000BF2037BD4680BD40810020004401407E
:1026A00080B500AF134B144A1A60124B134A5A609C
:1026B000104B00229A600F4B0022DA600D4B002273
:1026C0001A610C4B0C225A610A4B00229A61094B89
:1026D0000022DA61074B00221A62064B00225A627E
:1026E000044804F082FA0346002B01D000F086F97A
:1026F00000BF80BD0C83002000100140987F330094
:1027000080B500AF134B144A1A60124B134A5A603B
:10271000104B00229A600F4B0022DA600D4B002212
:102720001A610C4B0C225A610A4B00229A61094B28
:102730000022DA61074B00221A62064B00225A621D
:10274000044804F052FA0346002B01D000F056F979
:1027500000BF80BDC08000200048004000A60E00E1
:1027600080B582B000AF1E4B1B6B1D4A43F40013B3
:1027700013631B4B1B6B03F400137B607B68184BCC
:102780001B6B174A43F480031363154B1B6B03F455
:1027900080033B603B68002209210C2002F056F9BF
:1027A0000C2002F085F9002209210E2002F04EF9DA
:1027B0000E2002F07DF9002208213A2002F046F9AD
:1027C0003A2002F075F900220821462002F03EF975
:1027D000462002F06DF900BF0837BD4680BD00BF3E
:1027E0000038024080B58AB000AF07F11403002220
:1027F0001A605A609A60DA601A617B4B1B6B7A4AE6
:1028000043F001031363784B1B6B03F001033B613F
:102810003B69754B1B6B744A43F002031363724BA5
:102820001B6B03F00203FB60FB686F4B1B6B6E4A74
:1028300043F0040313636C4B1B6B03F00403BB6096
:10284000BB68694B1B6B684A43F008031363664B14
:102850001B6B03F008037B607B6800221621634832
:1028600002F096FC002248F2FF01614802F090FC61
:1028700001224FF400415F4802F08AFC01224FF42C
:1028800080515C4802F084FC01224FF48071594869
:1028900002F07EFC01224FF40051564802F078FC11
:1028A00000220721534802F073FC06237B610123B9
:1028B000BB610023FB6103233B6207F1140319464C
:1028C0004A4802F089FB02237B610123BB6100239C
:1028D000FB6103233B6207F114031946454802F0EC
:1028E0007BFB4FF431437B611123BB610023FB6110
:1028F00000233B6207F1140319463E4802F06CFBCB
:10290000FF237B610123BB610023FB6103233B6247
:1029100007F114031946364802F05EFB10237B6171
:102920000123BB610023FB6103233B6207F1140316
:1029300019462E4802F050FB05237B610123BB6141
:102940000023FB6103233B6207F114031946294866
:1029500002F042FB4FF48E537B610023BB610123E5
:10296000FB6107F114031946204802F035FB4FF4D0
:10297000C0537B610223BB610023FB6103233B62E5
:102980000A237B6207F114031946194802F024FB5D
:102990004FF400437B610123BB610023FB610023F3
:1029A0003B6207F114031946114802F015FB04239A
:1029B0007B610023BB610123FB6107F1140319460E
:1029C0000D4802F009FBF0237B610023BB6101236A
:1029D000FB6107F114031946064802F0FDFA00BF37
:1029E0002837BD4680BD00BF0038024000080240C5
:1029F0000000024000040240000C024080B400AF1E
:102A000072B6FEE780B582B000AF114B1B6C104A66
:102A100043F0805313640E4B1B6C03F080537B60B8
:102A20007B680B4B5B6C0A4A43F480435364084B4E
:102A30005B6C03F480433B603B6800220F216FF026
:102A4000010002F003F800BF0837BD4680BD00BF9B
:102A50000038024080B584B000AF78607B681B68A6
:102A60000D4A934213D10D4B5B6C0C4A43F48073B7
:102A700053640A4B5B6C03F48073FB60FB680022B9
:102A80000521122001F0E2FF122002F011F800BF30
:102A90001037BD4680BD00BF002001400038024015
:102AA00080B485B000AF78607B681B68B3F1804F5D
:102AB0000BD1094B1B6C084A43F001031364064B0E
:102AC0001B6C03F00103FB60FB6800BF1437BD46BD
:102AD0005DF8047B704700BF0038024080B584B0C9
:102AE00000AF78607B681B68164A934214D1164B7E
:102AF0001B6C154A43F020031364134B1B6C03F04B
:102B00002003FB60FB6800220221372001F09EFFBA
:102B1000372001F0CDFF10E07B681B680B4A934221
:102B20000BD1094B5B6C084A43F400335364064BEA
:102B30005B6C03F40033BB60BB6800BF1037BD465D
:102B400080BD00BF00140040003802400044014036
:102B500080B58AB000AF786007F1140300221A60D4
:102B60005A609A60DA601A617B681B68B3F1804F23
:102B70001DD1194B1B6B184A43F002031363164B0C
:102B80001B6B03F002033B613B694FF480637B6185
:102B90000223BB610023FB6100233B6201237B62B4
:102BA00007F1140319460D4802F016FA10E07B688D
:102BB0001B680B4A93420BD1074B1B6B064A43F031
:102BC00002031363044B1B6B03F00203FB60FB68FF
:102BD00000BF2837BD4680BD0038024000040240D7
:102BE0000044014080B58CB000AF786007F11C0351
:102BF00000221A605A609A60DA601A617B681B686A
:102C0000964A934240F09180954B5B6C944A43F016
:102C100010035364924B5B6C03F01003BB61BB6900
:102C20008F4B1B6B8E4A43F0010313638C4B1B6B62
:102C300003F001037B617B694FF4C063FB610223F6
:102C40003B6201237B620323BB620723FB6207F124
:102C50001C031946834802F0BFF9834B834A1A606C
:102C6000814B4FF000625A607F4B00229A607E4B8E
:102C70000022DA607C4B4FF480621A617A4B0022AA
:102C80005A61794B00229A61774B4FF48072DA6176
:102C9000754B4FF400321A62734B00225A6272482D
:102CA00002F00EF80346002B01D0FFF7A7FE7B6869
:102CB0006D4ADA666C4A7B6893636D4B6D4A1A60A5
:102CC0006B4B4FF000625A60694B40229A60684B30
:102CD0000022DA60664B4FF480621A61644B002276
:102CE0005A61634B00229A61614B0022DA61604BAA
:102CF0004FF400321A625E4B00225A625C4801F0C7
:102D0000DFFF0346002B01D0FFF778FE7B68584AAF
:102D10009A66574A7B68936300220521252001F0BB
:102D200095FE252001F0C4FE93E07B681B68524AA3
:102D3000934240F08E804A4B1B6C494A43F48023F7
:102D40001364474B1B6C03F480233B613B69444B8A
:102D50001B6B434A43F004031363414B1B6B03F0AB
:102D60000403FB60FB684FF44063FB6102233B629A
:102D700001237B620323BB620723FB6207F11C0371
:102D800019463E4802F028F93D4B3E4A1A603C4B3A
:102D90004FF000625A603A4B00229A60384B002292
:102DA000DA60374B4FF480621A61354B00225A616A
:102DB000334B00229A61324B4FF48072DA61304B10
:102DC00000221A622E4B00225A622D4801F078FF31
:102DD0000346002B01D0FFF711FE7B68284ADA6614
:102DE000274A7B689363284B284A1A60264B4FF08A
:102DF00000625A60244B40229A60234B0022DA6022
:102E0000214B4FF480621A611F4B00225A611E4B06
:102E100000229A611C4B0022DA611B4B00221A62CD
:102E2000194B00225A62184801F04AFF0346002B52
:102E300001D0FFF7E3FD7B68134A9A66124A7B686C
:102E4000936300220521272001F000FE272001F0D6
:102E50002FFE00BF3037BD4680BD00BF00100140CF
:102E60000038024000000240AC8200204064024072
:102E700004820020B864024000480040000802407C
:102E80006080002028600240A48100205860024039
:102E900080B400AFFEE780B400AFFEE780B400AFBF
:102EA000FEE780B400AFFEE780B400AFFEE780B479
:102EB00000AF00BFBD465DF8047B704780B500AF32
:102EC00001F0A8FB05F052F90346012B01D005F0F3
:102ED00029FD00BF80BD000080B500AF024801F0B1
:102EE000BDFF00BF80BD00BF6080002080B500AF87
:102EF000024801F0B3FF00BF80BD00BFA4810020E5
:102F000080B500AF024801F054FC00BF80BD00BF97
:102F10006482002080B500AF024803F0B7FB00BF19
:102F200080BD00BF0C83002080B500AF024803F0D5
:102F3000ADFB00BF80BD00BFC080002080B500AFEA
:102F4000024802F050FF00BF80BD00BFD0830020C8
:102F500080B500AF024801F081FF00BF80BD00BF17
:102F6000AC82002080B500AF024801F077FF00BFBF
:102F700080BD00BF0482002080B586B000AF7860BD
:102F8000144A154BD31A7B617B693B61134B1B6859
:102F9000002B02D1114B124A1A60104B1A687B6841
:102FA00013443A699A4207D207F0ACF902460C235F
:102FB00013604FF0FF3309E0084B1B68FB60074BC1
:102FC0001A687B681344054A1360FB681846183773
:102FD000BD4680BD0000042000040000FC2A002043
:102FE0005884002080B400AF084BD3F88830074ADB
:102FF00043F47003C2F88830044B4FF000629A60CB
:1030000000BFBD465DF8047B704700BF00ED00E0E7
:1030100080B487B000AF786039603B687B617B68C3
:103020003B612023FB60BFF34F8F0BE00C4A3B69F1
:10303000C2F85C32FB683A6913443B617A69FB6809
:10304000D31A7B617B69002BF0DCBFF34F8FBFF39A
:103050006F8F00BF1C37BD465DF8047B704700BF13
:1030600000ED00E080B487B000AF786039603B6865
:103070007B617B683B612023FB60BFF34F8F0BE0DC
:103080000C4A3B69C2F86832FB683A6913443B61F9
:103090007A69FB68D31A7B617B69002BF0DCBFF394
:1030A0004F8FBFF36F8F00BF1C37BD465DF8047BA9
:1030B000704700BF00ED00E080B483B000AF03466E
:1030C000FB71FB7903F0070318460C37BD465DF82A
:1030D000047B704780B483B000AF0346FB71FB797B
:1030E000DB08DBB203F0070318460C37BD465DF87A
:1030F000047B704780B584B000AF786039607B682E
:1031000003F01F03FB60FB68002B05D13B681946E9
:103110007868FFF77DFF09E07A68FB68D31A1846E4
:103120003A68FB6813441946FFF772FF00BF103777
:10313000BD4680BD80B584B000AF786039607B68E3
:1031400003F01F03FB60FB68002B05D13B681946A9
:103150007868FFF787FF09E07A68FB68D31A18469A
:103160003A68FB6813441946FFF77CFF00BF10372D
:10317000BD4680BD80B584B000AF194B1B880133BC
:103180009AB2174B1A80164B1B88FB81154B5B6A52
:10319000BB60FB891B0A9BB2DBB23B70FB89DBB2D5
:1031A0007B70BB681B0EDBB2BB70BB681B0CDBB259
:1031B000FB70BB681B0ADBB23B71BB68DBB27B7187
:1031C0003B4606211846FEF773FB0346FB80FB884F
:1031D000002BD2D0FB8818461037BD4680BD00BFFB
:1031E000142B0020000C004080B586B000AFF860C2
:1031F000B96011461A460B46FB8013467B71FB688B
:10320000002B00F00681FB88B3F5C07F80F00181C0
:1032100000233B82FB88002B03D0FB880A339BB240
:1032200000E00823BB827B79DB005BB203F03C0348
:103230005BB243F003035BB2FB74FB6803F584539A
:1032400055221A70FA6841F28103134455221A700C
:10325000FA6841F282031344FA7C1A70BB8AD9B22D
:10326000FA6841F2830313440A461A70BB8A1B0AA8
:103270009BB2D9B2FA6841F2840313440A461A7029
:103280003B8CD9B2FA6841F2850313440A461A709E
:103290003B8C1B0A9BB2D9B2FA6841F286031344F5
:1032A0000A461A70FB6803F5845307211846FEF797
:1032B00037FB03461946FA6841F2870313440A466E
:1032C0001A70FB88002B13D0FA6841F2880313446C
:1032D000FA88B968184607F03FF8FB6803F584528E
:1032E000FB88083319461046FEF7E2FA03463B8294
:1032F0000023FB75FA6841F288331344184601F045
:1033000016F90346002B49D105F09CFAFA6841F200
:10331000D03313441B78DBB2002B3DD1FA6841F265
:10332000D033134401221A700123FB7505F0B0FA63
:10333000FB6803F54070FB6803F5845308221946C7
:1033400007F00AF8FB88002B12D0FB6803F54270E7
:10335000FA6841F288031344FA88194606F0FCFF24
:10336000FB88083303F54073FA6813443A8A1A80DD
:10337000FB6803F54073BA8A11461846FFF7DAFE78
:10338000FB6803F59C531868FB6803F54073BA8A21
:10339000194603F087F801E005F07AFAFB7D002B6F
:1033A00037D1FA6841F29C3313441B684FF0FF3168
:1033B000184604F04BF9FA6841F288331344FA686E
:1033C00002F584510822184601F03DF8FB88002BD5
:1033D00015D0FA6841F288331344FA6841F2880143
:1033E0001144FA88184601F02EF8FA6841F2883341
:1033F000134407F110010222184601F024F8FA687C
:1034000041F29C331344186800230022002103F08A
:103410000DFF00BF1837BD4680BD80B586B000AF38
:1034200078600B467B8013467B707B68002B00F036
:1034300089800823BB827B78DB005BB203F03C030E
:103440005BB243F003035BB2FB7455233B7255231D
:103450007B72FB7CBB72BB8ADBB2FB72BB8A1B0A32
:103460009BB2DBB23B737B88DBB27B737B881B0A2E
:103470009BB2DBB2BB7307F1080307211846FEF7C6
:103480004FFA0346FB730023FB757A6841F28833D9
:103490001344184601F04BF80346002B31D105F0D8
:1034A000D1F97A6841F2D03313441B78DBB2002B98
:1034B00025D17A6841F2D033134401221A700123D6
:1034C000FB7505F0E5F97B6803F540731A4607F1D3
:1034D000080303CB106051607B6803F5407308213B
:1034E0001846FFF727FE7B6803F59C5318687B6836
:1034F00003F540730822194602F0D4FF01E005F0FD
:10350000C7F9FB7D002B1DD17A6841F29C3313442F
:103510001B684FF0FF31184604F098F87A6841F2C2
:103520008833134407F108010822184600F08BFF86
:103530007A6841F29C33134418680023002200216A
:1035400003F074FE00BF1837BD4680BD80B58AB059
:1035500002AF0346B9607A60FB734F4B5B6A7B61D5
:103560000023FB610023BB6119E04C4ABB6941F2B7
:10357000D43101FB03F31A4441F2843313441B7822
:10358000FA7B9A4208D1BB6941F2D43202FB03F3C1
:10359000424A1344FB6105E0BB690133BB61BB696F
:1035A000012BE2D9FB69002B70D005F04BF93C4BA5
:1035B0001B889BB2002B45D03A4B1B889BB2002B3B
:1035C00009D0374B00221A80374B00221A8005F0B1
:1035D0005FF901235BE0354B1B6819467869FEF7FC
:1035E00057FA024641F288339A4228D9304B1B8859
:1035F0009BB2142B0AD92A4B00221A802A4B002294
:103600001A8005F045F94FF0FF3340E0274A7B6907
:103610001360274B1B889BB201339AB2244B1A804C
:1036200005F036F97B689AB21F4B1B889BB2F97B79
:1036300000930B46B968F869FFF7D6FD26E005F060
:1036400027F923E0174B00221A80154B01221A801C
:10365000164A7B691360164B00221A8005F018F990
:10366000FFF788FD03461A460F4B1A800A4B5B6A28
:10367000104A13607B689AB20B4B1B889BB2F97B94
:1036800000930B46B968F869FFF7AEFD00231846B2
:103690002037BD4680BD00BF000C00402000002048
:1036A000022B00201C000020042B0020082B0020EF
:1036B000002B00200C2B002080B58CB000AFF860F0
:1036C000B9607A60FB700023BB6200237B6219E063
:1036D000AE4A7B6A41F2D43101FB03F31A4441F252
:1036E000843313441B78FA789A4208D17B6A41F2FA
:1036F000D43202FB03F3A54A1344BB6205E07B6AA4
:1037000001337B627B6A012BE2D997F83830012BB9
:10371000C0F21D81022B40F39980032B40F01781EA
:103720007B68002B4FD000233B620AE007F11002B8
:103730003B6A13441946F86800F0C1FE3B6A013346
:103740003B623B6A072BF1DD0023FB6210E007F1CF
:1037500019031946F86800F0B2FE797EBA6AFB6A6E
:10376000134403F590530A461A70FB6A0133FB6257
:103770007B680A3BFA6A9A42E9D307F119031946B2
:10378000F86800F09CFE07F119031946F86800F08C
:1037900096FEBA6AFB6A134403F5905300221A702E
:1037A000BB6A002B06D0BB689BB2FA781946B86A90
:1037B000FFF733FEBB6A03F59051FB78FA6A1846AF
:1037C000FDF70AFDDDE00023FB6213E00023FB614F
:1037D0000AE007F11002FB6913441946F86800F08B
:1037E0006EFEFB690133FB61FB69072BF1DDFB6AB0
:1037F0000133FB62FB6A072BE8D905F023F8644B21
:103800001B889BB2002B1ED0624B1B889BB2002BE7
:1038100019D0604B1B889BB21A46BB68934212D1E9
:103820005D4B1B889BB2002B0DD15C4B5A6A5C4BE5
:103830001B6819461046FEF72BF90246594B1A60D1
:10384000554B01221A8005F023F89AE07B680A2B79
:1038500002D97B68DBB200E00823BB76BB6A002B91
:1038600075D00023FB76BA6A41F2883313441846B8
:1038700000F05DFE0346002B3DD104F0E3FFBA6A81
:1038800041F2D03313441B78DBB2002B31D1BA6A3A
:1038900041F2D033134401221A700123FB7604F065
:1038A000F7FF0023FB620BE0FB6A03F54073BA6A83
:1038B00013441946F86800F002FEFB6A0133FB620C
:1038C000BB7EFA6A9A42EFD3BB6A03F54073BA7EB5
:1038D00011461846FFF72EFCBB6A03F59C53186887
:1038E000BB6A03F54073BA7E92B2194602F0DAFD64
:1038F00001E004F0CDFFFB7E002B41D1FB685B694A
:103900004FF0FF31184603F0A1FE0023FB6212E0E6
:1039100007F119031946F86800F0D1FDBA6A41F2BF
:103920008833134407F119021146184600F0AAFD26
:10393000FB6A0133FB62BB7EFA6A9A42E8D3FB68FA
:10394000586900230022002103F070FC18E07B6816
:103950000A2B02D97B68DBB200E00823BB76002388
:10396000FB6208E007F119031946F86800F0A7FDAB
:10397000FB6A0133FB62BB7EFA6A9A42F2D300E033
:1039800000BF00BF3037BD4680BD00BF2000002013
:10399000022B0020042B00201C000020000C004003
:1039A0000C2B0020102B002080B584B000AF786075
:1039B000396007F10F031A463968786800F08EFD08
:1039C000FB7B18461037BD4680BD80B584B000AF84
:1039D00078600023FB720023FB6013E07A6841F2F9
:1039E000A4331344F9681846FFF7DEFF034619466F
:1039F0007A68FB68134403F590530A461A70FB6813
:103A00000133FB60FB68062BE8D97B6803F5905314
:103A100007211846FDF784FF0346FB72FB7A184620
:103A20001037BD4680BD80B584B000AF7860396086
:103A30000023BB600023FB6013E07A6841F2A433EB
:103A40001344F9681846FFF7AFFF034619467A6832
:103A5000FB68134403F590530A461A70FB68013360
:103A6000FB603B68023BFA689A42E6D37B6803F549
:103A700090523B68023B19461046FDF719FF03467A
:103A8000BB60BB6818461037BD4680BDB0B58CB072
:103A900002AF786000237B627A6841F2A43313445A
:103AA0007B617B6803F59E533B617A6841F2C433C6
:103AB0001344FB607A6841F2C8331344BB60BB68AF
:103AC0001B887B84FB681B68FB613B691B68BB61CF
:103AD000BB69002B43D0786900F0B4FB0246FB6958
:103AE000934200F2AD80F9697868FFF79CFF0446C5
:103AF000FB69023B19467869FFF756FF03461D46EE
:103B0000FB69013B19467869FFF74EFF03461B022C
:103B10002B449C421CD17C8C02217869FFF744FF26
:103B200003461846FFF7C8FA0346DDB2022178695A
:103B3000FFF73AFF03461846FFF7CCFA0346DBB21D
:103B400000932B46FA6921467869FFF7B5FD01E03D
:103B500001237B620023BB610023FB6170E0786975
:103B600000F070FB0346072B6AD900217869FFF744
:103B70001BFF0346552B61D101217869FFF714FF24
:103B80000346552B5AD17868FFF71FFF03461C46A2
:103B900007217869FFF708FF03469C424AD10321B9
:103BA0007869FFF701FF03461C4604217869FFF797
:103BB000FBFE03461B022344FB6105217869FFF7E6
:103BC000F3FE03469CB206217869FFF7EDFE03463B
:103BD0009BB21B029BB223447B847B8C002B26D0A0
:103BE000FB69B3F5C07F22D2FB690A2B02D90123FE
:103BF000BB6122E07C8C02217869FFF7D5FE034689
:103C00001846FFF759FA0346DDB202217869FFF73B
:103C1000CBFE03461846FFF75DFA0346DBB200937E
:103C20002B46002221467869FFF746FD05E0012377
:103C30007B6205E001237B6202E001E001237B62FD
:103C40007B6A002B03D0796A786900F05FFC3B69DE
:103C5000BA691A60FB68FA691A60BB687A8C1A80C4
:103C600000BF2837BD46B0BD80B586B000AF7860D4
:103C700000237B6100233B6153E03B6941F2D43276
:103C800002FB03F32A4A1344FB60FB6803F59C53D1
:103C90001B687A689A4241D1FA6841F2883313442A
:103CA000184600F044FC0346002B30D0FA6841F27D
:103CB000D033134401221A7000BFFA6841F28833EE
:103CC00013447A69511C796102F54072F9680A441B
:103CD0001146184600F0F3FB0346002B03D07B6926
:103CE000B3F5C07FE9D3FB6803F5407379691846E3
:103CF000FFF720FAFB6803F59C531868FB6803F58F
:103D000040737A6992B2194602F0CCFB0CE0FA6873
:103D100041F2D033134400221A7005E03B690133AD
:103D20003B613B69012BA8D900BF1837BD4680BD58
:103D30002000002080B584B000AF78600023FB60D5
:103D400028E0FB6841F2D43202FB03F3154A134426
:103D5000BB60BB6803F59C531B687A689A4216D116
:103D6000BB6803F59C531B68B9684FF44072184652
:103D700002F0DEFBBB6803F59C531B68B3F85830B8
:103D80001946BA6841F2CC331344196005E0FB6868
:103D90000133FB60FB68012BD3D900BF1037BD4650
:103DA00080BD00BF2000002080B582B000AF00239E
:103DB0007B603FE07B6841F2D43202FB03F241F2C8
:103DC000883313441F4A98187B6841F2D43202FBAF
:103DD00003F303F528631B4A99184FF4C0630122CB
:103DE00000F04EFA7B6841F2D43202FB03F303F594
:103DF0009D53144A1344181D7B6841F2D43202FBD0
:103E000003F303F590630F4A99184FF4C06301223E
:103E100000F036FA0B4A7B6841F2D43101FB03F320
:103E20001A4441F2CC3313444FF0FF321A607B68DE
:103E300001337B607B68012BBCD900BF0837BD46CE
:103E400080BD00BF2000002080B582B000AF0023FD
:103E50007B6026E07B6841F2D43202FB03F3144A14
:103E600013443B603B684FF440711846FFF762F91A
:103E70003B6803F59C531B6839684FF44072184641
:103E800002F056FB3B6803F59C531B68B3F85830AF
:103E900019463A6841F2CC33134419607B68013308
:103EA0007B607B68012BD5D900BF0837BD4680BD3C
:103EB0002000002080B5E6B000AF0023C7F89031A5
:103EC00021E1D7F8903141F2D43202FB03F3934A57
:103ED0001344C7F88C31D7F88C3103F59C531B6819
:103EE000DB6E1B685B68C7F88831D7F88C3103F547
:103EF0009C531B68B3F85830C7F88431D7F88C212D
:103F000041F2CC3313441B68B3F1FF3F07D1D7F81C
:103F10008C2141F2CC331344D7F888211A60D7F8AA
:103F20008C2141F2CC3313441B68D7F888219A4284
:103F30000ED9D7F88421D7F88831D21AD7F88C1146
:103F400041F2CC330B441B681344C7F894310AE0A8
:103F5000D7F88C2141F2CC3313441A68D7F8883152
:103F6000D31AC7F89431D7F89431B3F5C07F03D989
:103F70004FF4C073C7F89431D7F89431002B50D068
:103F8000D7F88C314FF440711846FFF7B3F800238F
:103F9000C7F8903134E0D7F88C2141F2CC33134488
:103FA0001B68D7F88421D31AD7F88C21D15C3A1D2D
:103FB000D7F8903113440A461A70D7F88C2141F291
:103FC000CC3313441B68012B08D1D7F88C2141F264
:103FD000CC331344D7F884211A600CE0D7F88C2135
:103FE00041F2CC3313441B685A1ED7F88C1141F2AE
:103FF000CC330B441A60D7F890310133C7F89031B5
:10400000D7F89031D7F894219A42C4D8D7F88C21A8
:1040100041F2A4331344391DD7F89421184600F017
:1040200012FAD7F89431002B7FF455AFD7F88C21D2
:1040300041F2A4331344184600F079FA0346002BEA
:1040400003D0D7F88C01FFF721FD04F0FBFBD7F874
:104050008C2141F2D03313441B78DBB2002B4BD1BF
:10406000D7F88C2141F288331344184600F05FFAE8
:104070000346002B40D00023C7F89431D7F88C2199
:1040800041F2D033134401221A7004F001FC00BF46
:10409000D7F88C2141F288331344D7F89421511C6E
:1040A000C7F8941102F54072D7F88C110A441146F2
:1040B000184600F004FA0346002B04D0D7F89431D8
:1040C000B3F5C07FE4D3D7F88C3103F54073D7F84C
:1040D00094111846FFF72EF8D7F88C3103F59C534E
:1040E0001868D7F88C3103F54073D7F8942192B251
:1040F000194602F0D7F901E004F0CAFBD7F8903175
:104100000133C7F89031D7F89031012B7FF6D9AE43
:1041100000BF07F5CC77BD4680BD00BF2000002062
:1041200080B582B000AF7860FFF78EFEFFF7C2FE69
:10413000012002F01BFEF9E780B483B000AF786085
:104140007B689A687B685B689A4205D37B689A684B
:104150007B685B68D31A07E07B681A687B685B68DA
:10416000D21A7B689B68134418460C37BD465DF82D
:10417000047B704790B583B000AF78607B681C68A3
:104180007868FFF7D9FF0346E31A18460C37BD4697
:1041900090BD80B485B000AFF860B9607A60BB684C
:1041A0001A687B681344FA681268B3FBF2F102FBE9
:1041B00001F29B1A18461437BD465DF8047B704720
:1041C00080B584B000AFF860B9607A607A68B96889
:1041D000F868FFF7DEFF0246BB681A6000BF1037C1
:1041E000BD4680BD80B483B000AF78607B685A68FC
:1041F0007B689B689A4214BF01230023DBB21846F8
:104200000C37BD465DF8047B704780B584B000AFC5
:10421000F860B9607A60FB68DB684FF0FF311846E0
:1042200003F014FA7A68B968F868FFF7C9FFFB6809
:10423000D86800230022002102F0F8FF00BF1037E9
:10424000BD4680BD80B584B000AF78607B681B69D7
:104250004FF0FF31184603F0F9F97B680433184634
:10426000FFF76AFF0346FB607B68186900230022A2
:10427000002102F0DBFFFB6818461037BD4680BD09
:1042800080B584B000AFF860B9603B601346FB7145
:10429000FB68BA681A603A68FB685A60012003F04C
:1042A000B4F80246FB681A61012003F0AEF802463A
:1042B000FB685A61FB6800229A60FB680022DA60A2
:1042C000FB6800225A76FB68FA791A7600BF10372D
:1042D000BD4680BD80B582B000AF786039607B6834
:1042E0001B6819467B68DB687A68127E02FB03F361
:1042F0000B4418467B681B7E1A46396806F02CF87A
:1043000000BF0837BD4680BD80B582B000AF786081
:1043100039607B681B6819467B689B687A68127EE7
:1043200002FB03F30B4419467B681B7E1A46386870
:1043300006F012F800BF0837BD4680BD80B584B0D6
:1043400000AFF860B9607A60FB681B681A46FB68CA
:104350001B7E1946BB6803FB01F313441946FB6837
:104360001B7E1A46786805F0F7FF00BF1037BD4680
:1043700080BD80B584B000AF786039607B6804335D
:104380001846FFF7F7FEF860FB68002B0CD0396881
:104390007868FFF79FFF7B68181D7B680C3301224C
:1043A0001946FFF70DFF02E07B6801225A76FB6891
:1043B00018461037BD4680BD80B584B000AF786028
:1043C00039607B6804331846FFF70CFF0346FB6037
:1043D000FB68002B0BD039687868FFF795FF7B6886
:1043E000181D7B68083301221946FFF7E9FEFB68B8
:1043F00018461037BD4680BD80B586B000AFF86066
:10440000B9607A6000233B6112E0FB681B7E1A46AC
:104410003B6903FB02F2BB6813441946F868FFF7D7
:10442000A8FF78617B69002B07D03B6901333B61B2
:104430003A697B689A42E8D300E000BF7B6918467E
:104440001837BD4680BD80B586B000AFF860B96052
:104450007A60FB681B694FF0FF31184603F0F6F8ED
:104460007A68B968F868FFF7C7FF7861FB68186970
:1044700000230022002102F0D9FE7B69184618377C
:10448000BD4680BD80B584B000AF786039607B6880
:104490001B694FF0FF31184603F0D8F83968786887
:1044A000FFF767FFF8607B6818690023002200218E
:1044B00002F0BCFEFB6818461037BD4680BD80B5D3
:1044C00084B000AF7860396039687868FFF774FFAE
:1044D000F860FB6818461037BD4680BD80B586B0D1
:1044E00000AFF860B9607A60FB68181DFB6808339C
:1044F000BA681946FFF74DFE78617A687969F868FD
:10450000FFF71CFF00BF1837BD4680BD80B582B0E5
:1045100000AF786039607B68181D7B6808333A68A3
:104520001946FFF772FE00BF0837BD4680BD80B454
:1045300083B000AF78607B689A687B68DB689A42DA
:1045400014BF01230023DBB218460C37BD465DF8CB
:10455000047B7047DFF834D0002103E00C4B5B583C
:10456000435004310B480C4B42189A42F6D30B4A85
:1045700002E0002342F8043B094B9A42F9D3FEF7CC
:1045800031FD05F0C5FEFDF71DFE7047000004205B
:104590002801010800000020102A0020102A002015
:1045A00058840020FEE7000038B50E4B05460E4A41
:1045B000188842F21073B3FBF0F31068B0FBF3F00D
:1045C00000F084FA044658B90F2D09D8024629464E
:1045D0004FF0FF3000F03AFA044B20461D6038BD22
:1045E0000120FCE7E027002018000020E42700203D
:1045F000074A032008B5136843F40073136000F002
:1046000013FA0F20FFF7D0FFFEF7FCF9002008BDDA
:10461000003C0240034A044B11681B880B441360A2
:10462000704700BF10840020E0270020014B18686D
:10463000704700BF1084002038B5074C258885429C
:1046400007D0064B20801868FFF7AEFF00B1258029
:1046500038BD0020FCE700BFE0270020E427002051
:1046600038B50446002800F09B80056C25B9FEF79C
:10467000F1F9656484F83C50236CDB0600F18E8010
:10468000236C23F4885323F0020343F002032364D2
:10469000444B5A6822F440325A605A6861680A43AF
:1046A0005A60236821695A6822F480725A605A68F5
:1046B00042EA0122A1685A605A6822F040725A60A8
:1046C0005A680A43E1685A609A6822F400629A6064
:1046D0009A680A4334499A60A26A8A4252D0996819
:1046E00021F07061996099680A43E16A9A609A685A
:1046F00022F040529A609A680A439A609A68A169C7
:1047000022F002029A609A6842EA41029A6094F8A2
:104710002020002A3ED05A68616A42F400620139C2
:104720005A605A6822F460425A605A6842EA41323A
:104730005A600020DA6AE16922F470020139DA6213
:10474000DA6A42EA015294F83010DA629A6822F486
:1047500000729A609A6842EA412261699A609A6896
:1047600022F480629A609A6842EA81229A606064C8
:10477000236C23F0030343F001032364002384F834
:104780003C3038BD9A6822F070629A609A6822F0D4
:104790004052B2E75A6822F40062C9E70120EDE70F
:1047A0000120EEE7002301400100000F7047704731
:1047B000704738B50368044619685A688D072BD5C9
:1047C000900629D5226CD10603D4226C42F40072E3
:1047D00022649A6812F0405F17D1A269AAB9DA6A16
:1047E00012F4700F02D09A6852050ED45A6822F063
:1047F00020025A60236C23F480732364236CDB044F
:1048000003D4236C43F0010323642046FFF7CEFF5B
:1048100023686FF012021A60236819685A684D07FE
:1048200032D5100630D5226CD10603D4226C42F466
:10483000005222649A6812F4401F1ED19A6B12F43F
:10484000401F02D09A68520517D45A68550514D4EF
:104850009A6812F0405F10D1A26972B95A6822F0CA
:1048600080025A60236C23F480532364236CD805A0
:1048700003D4236C43F001032364204600F0D2F8F4
:1048800023686FF00C021A60236819685A68C90718
:104890000FD555060DD51B68D8070AD5236C2046C1
:1048A00043F480332364FFF782FF23686FF0010233
:1048B0001A60236819685A6889060DD552010BD50C
:1048C000626C6FF02005204642F0020262641D60B7
:1048D000FFF76EFF23681D6038BD00000023F7B5A9
:1048E000019390F83C30012B74D00D6801238A6845
:1048F000AEB2092D80F83C3006EB4604036831D98E
:10490000B5F1004F2ED01E3C4FF0070CDF680CFABB
:1049100004FC27EA0C07DF603D4FBD421DD1DC6877
:1049200044EA0264DC604968062901EB810227D869
:10493000053A1F24596B944006FA02F221EA040159
:104940005963596B0A435A63324A934234D0002365
:1049500080F83C30184603B0F0BDDF6802FA04F47A
:104960003C43DFE74FF0070C1F690CFA04FC02FA26
:1049700004F427EA0C071F611F693C431C61D2E75E
:104980000C294FF01F010BD8233A1C6B914006FAFB
:1049900002F224EA01011963196B0A431A63D3E78F
:1049A000413ADC6A914006FA02F224EA0101D96236
:1049B000D96A0A43DA62C7E7B5F1004F0CD1164A4B
:1049C000536823F440035360C1E7134A536843F428
:1049D0008003F8E70220BEE7122DF6D00C4B9D4273
:1049E00001D0112DB3D10C499D424A6842F4000216
:1049F0004A60ACD1094B0A4A1B68B3FBF2F20A23A6
:104A000053430193019B002BA1D0019B013BF8E78D
:104A10001200001000200140002301401800002077
:104A200040420F0070470000074A0002D36800F4BC
:104A3000E06023F4E0631B041B0C43F0BF6343F40A
:104A400000330343D360704700ED00E0164B70B5B0
:104A5000DC684FF0FF36C4F30224C4F10705231DC0
:104A6000042D28BF0425062B06FA05F38CBF033C52
:104A70000024002821EA030303FA04F306FA04F4ED
:104A800022EA040443EA04034FEA0313DBB206DB21
:104A900000F1604000F5614080F8003370BD00F027
:104AA0000F00024A1354F9E700ED00E014ED00E0B6
:104AB000002808DB4209012300F01F0003FA00F080
:104AC000014B43F82200704700E100E00138B0F1EB
:104AD000807F0AD2064BF021064A5860002082F8F7
:104AE0002310072298601A6070470120704700BFAA
:104AF00010E000E000ED00E0F0B596080B46056818
:104B000001EB8607BB4208D112F003021ED0012A36
:104B100014D111F826302B7018E05C78043313F8A8
:104B200004CC240444EA0C6413F801CC44EA0C04D9
:104B300013F802CC44EA0C242C60E3E7022A08D1E3
:104B400011F826205B7843EA02232B80036818685B
:104B5000F0BD5A7811F8261042EA01222A809B788B
:104B6000D9E770B50068550800239D4206D1D307E8
:104B700002D531F825300380006870BD01EB830455
:104B800031F823600133648844EA06440460ECE7AA
:104B90007047000010B5044608B9012010BD437FDE
:104BA00003F0FF0213B90277FFF7F2FF02236377E6
:104BB0002379E3B92368134A5A619A6822F01802EC
:104BC0009A6062792368D2B94FF0FF321A610020EF
:104BD0009A68616922F060020A43A1699A609A6842
:104BE00022F080020A439A6001236377D6E7D4E972
:104BF0000212204600F02CF80028E2D0CDE722690E
:104C0000E4E700BFB71DC104F8B5022504464577A7
:104C10000568AF6847F00107AF60076A022F12D03E
:104C2000032F04D0012F11D1FFF766FF04E001EB41
:104C30008206B14203D1286801236377F8BD51F899
:104C4000043B2B60F5E7FFF78CFFF5E70020F3E767
:104C50001F2310B513F1FF3306D321FA03F4E40741
:104C6000F8D5082A14D002D83AB101200DE0102A54
:104C70000CD0182AF9D1062BF7D800684161836857
:104C800023F018031A438260002010BD072BF3E7BE
:104C90000F2BF1E703681821DAB223F47F73103A7F
:104CA00023F00303B2FBF1F20449032A895C88BFB5
:104CB0000433C1658365806D704700BFA8DF0008BD
:104CC00070B50446FFF7B2FC0546002C71D00023F6
:104CD000226884F83430022384F83530136823F0D6
:104CE0000103136021680B68D8073CD40B68324D70
:104CF000A0691D40D4E901231343E26813432269EC
:104D0000134362691343E26903431343226A134363
:104D1000626A042A43EA050302BFD4E90B5635430D
:104D20002B43042A0B604B6923F0070343EA020379
:104D30000BD1A26AE56A13433DB1F8B9012A2DD01F
:104D400001D3022A01D1EA012BD44B612046FFF79F
:104D5000A1FFE26D3F239340836000200123606543
:104D600084F8353009E0FFF761FC401B0528B9D90C
:104D700020230320636584F8350070BDB0F5005F23
:104D800013D1032AE1D801A050F822F0A34D000866
:104D9000474D0008A34D00089D4D0008B5F1C07FA8
:104DA000D3D1402301206365E5E7022AF9D9032A1C
:104DB000C8E70120E1E700BF3F8010E070B590F840
:104DC0003440012C35D00124866D002580F8344014
:104DD00090F83540012C4FF0020428D180F835407E
:104DE00004684565256825F480252560636083682F
:104DF000402B19D1A260E160C26D3F239340B360A4
:104E0000236843F016032360636943F08003636102
:104E1000036C1BB1236843F0080323602368002060
:104E200043F00103236070BDA160E260E4E780F815
:104E300034500220F7E790F83530022B03D080235E
:104E40004365012070470268052380F83530002053
:104E5000136823F001031360704700000023F7B5C7
:104E6000019308225B4B0446856D1F68C36D2E6855
:104E70009A4032420CD001680868400708D508689B
:104E800020F004000860AA60626D42F001026265D1
:104E900001229A40324208D021684969090604D5A6
:104EA000AA60626D42F00202626504229A403242B8
:104EB00008D021680968880704D5AA60626D42F0AD
:104EC0000402626510229A40324210D023681968A9
:104ED00009070CD5AA601A68500337D51B68190357
:104EE00001D4236C00E0A36C0BB120469847E16D20
:104EF00020228A4032423AD023681868C60636D546
:104F0000AA6094F83520052A1A6827D122F01602E3
:104F10001A605A6922F080025A61226C0AB9A26CA6
:104F20001AB11A6822F008021A603F238B40AB6066
:104F3000002384F83430012384F83530236D002BAE
:104F400045D0204603B0BDE8F04018471A68D205A6
:104F5000C7D41A6822F008021A60C2E7500327D5A6
:104F60001B68190331D4636C0BB120469847636DFD
:104F70006BB3636DDA0719D50523226884F83530E1
:104F8000136823F0010313604FF41653B7FBF3F7D4
:104F9000019B0133BB42019302D81368DB07F7D4AE
:104FA000002384F83430012384F83530E36CC6E7FD
:104FB0001A6812F4807208D1196821F01001196082
:104FC000012384F8342084F83530E36BCCE703B058
:104FD000F0BD00BF180000202DE9F04F0B6885B030
:104FE000DFF8A48101930023654ADFF8A091012432
:104FF000019D9C402540AC4240F0AC804C684FEA9B
:10500000430E032624F0100C06FA0EF60CF1FF37BF
:10501000F643012F11D8876807EA060ACF6807FA16
:105020000EF747EA0A078760476827EA050AC4F3CC
:1050300000179F4047EA0A074760C768BCF1020FA4
:1050400007EA060A8F6807FA0EF747EA0A07C760F9
:1050500016D14FEAD30A03F0070B4FF00F0C00EB09
:105060008A0A4FEA8B0BDAF820700CFA0BFC27EA5D
:105070000C0C0F6907FA0BF747EA0C07CAF8207007
:1050800007683E4004F0030707FA0EFE4EEA0606E4
:105090000660E6005ED5D8F8446023F0030703F00D
:1050A000030C4FF00F0E46F4804607F180474FEA9D
:1050B0008C0CC8F8446007F59C37D8F8446006F4B7
:1050C00080460396039E0EFA0CF6D7F808A02AEA4B
:1050D000060E2C4EB04244D006F58066B04242D057
:1050E00006F58066B04240D006F58066B0423ED0FC
:1050F00006F58066B0423CD048453CD006F50066D7
:10510000B0423AD006F58066B04214BF08260726A2
:1051100006FA0CF614F4803F46EA0E06BE606FEA0B
:10512000050716680CBF3E402E4314F4003F16607E
:1051300056680CBF3E402E4314F4801F566096689C
:105140000CBF3E402E43A4029660D66854BF3E403A
:105150002E43D6600133102B7FF449AF05B0BDE874
:10516000F08F0026D4E70126D2E70226D0E70326F7
:10517000CEE70426CCE70526CAE70626C8E700BF27
:10518000003C014000000240003802400014024090
:105190000AB1816170470904FBE70000194B37B57C
:1051A0001A6C194C42F080521A641B6C03F0805345
:1051B0000193019B236843F480332360FFF736FAA1
:1051C00005466368DA030CD5236843F40033236093
:1051D000FFF72CFA0C4C054663689B030AD50020A8
:1051E00006E0FFF723FA401BB0F57A7FE9D90320E8
:1051F00003B030BDFFF71AFA401BB0F57A7FEBD948
:10520000F5E700BF00380240007000402DE9F3418F
:10521000044608B901203FE00368D80710D423688A
:10522000990760D42368190700F1A58023685A07FD
:1052300000F1C680A069002840F0308100202BE0FA
:10524000944B9A6802F00C02042A07D09A6802F084
:105250000C02082A0AD15B685A0207D58D4B1B68DD
:105260009B03DCD56368002BD9D1D3E76368894DF4
:10527000B3F5803F13D12B6843F480332B60FFF7E5
:10528000D5F9844D06462B689F03C8D4FFF7CEF9A5
:10529000801B6428F7D9032002B0BDE8F0819BB9D8
:1052A0002B6823F480332B602B6823F480232B603E
:1052B000FFF7BCF906462B689803B0D5FFF7B6F99F
:1052C000801B6428F7D9E6E7B3F5A02F2B6803D13C
:1052D00043F480232B60CEE723F480332B602B68CC
:1052E00023F48023CAE76B4B9A6812F00C0F07D0A7
:1052F0009A6802F00C02082A11D15B6859020ED498
:10530000644B1A68920702D5E268012A82D11A68B2
:10531000216922F0F80242EAC1021A6082E7E368DA
:105320005C4DBBB12B6843F001032B60FFF77EF9A6
:1053300006462B689F0707D52B68226923F0F803E0
:1053400043EAC2032B606DE7FFF770F9801B022868
:10535000EFD9A0E72B6823F001032B60FFF766F974
:1053600006462B6898077FF55DAFFFF75FF9801B56
:105370000228F6D98FE76369464D83B16B6F43F01E
:1053800001036B67FFF752F906466B6F9B073FF50A
:105390004DAFFFF74BF9801B0228F6D97BE76B6F07
:1053A00023F001036B67FFF741F906466B6F9F0718
:1053B0007FF53CAFFFF73AF9801B0228F6D96AE780
:1053C000344B1A6CD00027D41A6C012642F080525C
:1053D0001A641B6C03F080530193019B2E4D2B68C4
:1053E000D9051BD5A3682B4D012B27D12B6F43F07B
:1053F00001032B6741F28835FFF718F9254F8046E6
:105400003B6F9B073FD5002E3FF414AF214A136C2E
:1054100023F0805313640DE70026DFE72B6843F485
:1054200080732B60FFF702F907462B68DA05D9D4A1
:10543000FFF7FCF8C01B6428F7D92CE7ABB92B6F3A
:1054400041F2883823F001032B672B6F23F004030C
:105450002B67FFF7EBF807462B6F9807D3D5FFF7BD
:10546000E5F8C01B4045F7D915E7052B2B6F03D195
:1054700043F004032B67B9E723F001032B672B6F7D
:1054800023F00403B5E7FFF7D1F8A0EB0800A8422A
:10549000B6D900E70038024000700040384DAB68D4
:1054A00003F00C03082B41D02B68022823F08073F3
:1054B0002B602ED1FFF7BAF806462B68990122D44B
:1054C000D4E907321343626A43F0005343EA82137C
:1054D000E26A43EA0263A26A294C5208013A43EAAB
:1054E00002436B602B6843F080732B60FFF79EF8DC
:1054F000054623689A013FF5A1AEFFF797F8401BD8
:105500000228F6D9C7E6FFF791F8801B0228D4D904
:10551000C1E6FFF78BF804462B689B017FF58EAE42
:10552000FFF784F8001B0228F6D9B4E601286B685F
:105530003FF4B2AE03F48002E1698A427FF46AAEBE
:1055400003F03F02216A8A427FF464AE47F6C072DC
:10555000616A1A40B2EB811F7FF45CAEA26A03F469
:1055600040315208013AB1EB024F7FF453AEE26A88
:1055700003F07063B3EB026F14BF012000208BE6D1
:1055800000380240134908B58B6803F00C03042B64
:1055900003D0082B03D0104800E0104808BD4A682B
:1055A0004B68496802F03F0213F48003C1F388118D
:1055B0001ABF0A4800230848A1FB0001FBF78CFB37
:1055C000044B5B68C3F3014301335B00B0FBF3F0B2
:1055D000E4E700BF003802400024F40040787D0179
:1055E0002DE9F0410D46044610B90120BDE8F081D7
:1055F000454A136803F00F038B4228D321688F07B5
:1056000030D4C80743D4404A136803F00F03AB42B9
:1056100066D8226851076FD4130707D53B4A216922
:10562000936823F4604343EAC1039360FFF7AAFF42
:10563000364B374A9B68C3F30313D35CD840354BD2
:105640001860354B1868FEF7AFFF0020CEE71368EF
:1056500023F00F030B431360136803F00F038B4217
:10566000C3D1CBE711F0040F284B03D09A6842F462
:10567000E0529A600E0703D59A6842F460429A603D
:105680009A68A06822F0F00202439A60B9E7616864
:105690001E4B01291A681BD112F4003FA5D09A684D
:1056A00041F28838194E22F003020A439A60FEF74D
:1056B000BDFF0746B368626803F00C03B3EB820FCB
:1056C000A1D0FEF7B3FFC01B4045F3D903208DE7FF
:1056D000022902D112F0007FE0E712F0020FDDE7AD
:1056E000136823F00F032B431360136803F00F03B9
:1056F000AB427FF47AAF8CE70449E0688B6823F40F
:10570000E05303438B6087E7003C024000380240CF
:1057100090DF000818000020E4270020044B054A11
:105720009B68C3F38223D35C034A1068D840704758
:1057300000380240A0DF000818000020044B054A92
:105740009B68C3F34233D35C034A1068D840704768
:1057500000380240A0DF0008180000202DE9F743C0
:105760000268044612F001060BD0B94B996821F487
:1057700000019960C66A99683143B6FA86F67609DF
:10578000996012F4002512D0B149656BD1F88C30C4
:10579000B5F5801F23F4401308BF012643EA050333
:1057A00016BFB5FA85F500256D09C1F88C30D70212
:1057B00010D5A748A16BD0F88C30B1F5800F23F439
:1057C000400343EA0103C0F88C3000F04B8100290C
:1057D00008BF0125900631D59D4B9E4F1A6C42F0B3
:1057E00080521A641B6C03F080530193019B3B6849
:1057F00043F480733B60FEF719FF80463B68D90590
:1058000040F13281924F3B6F13F4407340F0378187
:10581000A36A03F44072B2F5407F8D4A40F055818F
:10582000916823F0704021F4F81120F44070014396
:105830009160C3F30B03116F0B4313672368DF06FB
:105840000CD5834AD2F88C1021F08071C2F88C10EC
:10585000D2F88C10206B0143C2F88C10580408D584
:105860007B49E06DD1F8902022F440320243C1F828
:105870009020190408D57649206ED1F8902022F4A2
:1058800040220243C1F89020DA0308D57049606EC7
:10589000D1F8902022F440120243C1F890205F0614
:1058A00008D56B49E06BD1F8902022F00302024347
:1058B000C1F89020180608D56549206CD1F89020D1
:1058C00022F00C020243C1F89020D90508D56049A6
:1058D000606CD1F8902022F030020243C1F8902091
:1058E0009A0508D55A49A06CD1F8902022F0C00240
:1058F0000243C1F890205F0508D55549E06CD1F806
:10590000902022F440720243C1F89020180508D577
:105910004F49206DD1F8902022F440620243C1F833
:105920009020D90408D54A49606DD1F8902022F41E
:1059300040520243C1F890209A0408D54449A06D12
:10594000D1F8902022F440420243C1F890209F02F7
:105950000CD53F48616FD0F89020B1F1006F22F074
:10596000006208BF01250A43C0F89020580308D5FB
:105970003749E06ED1F8902022F040720243C1F81E
:105980009020190208D53249A06FD1F8902022F05A
:1059900080520243C1F890205A0108D52C49E06F8B
:1059A000D1F8902022F000520243C1F89020002E3E
:1059B00040F08F80B3F1007F00F08B80012D4FD13C
:1059C000234D2B6823F080532B60FEF72FFE0646F5
:1059D0002B689F0000F1E0802068050301D5636B10
:1059E0001BB1C10218D5A36BB3B91949D4E904534B
:1059F000D1F888201B0602F4403243EA8513134392
:105A0000C1F88830D1F88C30226A23F4F853013A77
:105A100043EA0223C1F88C30820210D5636FB3F1E0
:105A2000006F0CD10A49A369D1F8882020691B04B2
:105A300002F0706243EA80131343C1F88830044CCB
:105A4000236843F080532360FEF7F0FD054603E032
:105A5000003802400070004023689B0040F1A380A2
:105A6000002009E00126B5E6FEF7E0FDA0EB080006
:105A700064287FF6C3AE032003B0BDE8F083A26ABA
:105A800002F4407293423FF4C3AE3B6F3A6F23F48B
:105A9000407342F480323A673A6F22F480323A67B8
:105AA0003B673B6FDA077FF5B3AEFEF7BFFD41F210
:105AB000883980463B6F9B073FF5AAAEFEF7B6FDDF
:105AC000A0EB08004845F5D9D5E7916821F4F81115
:105AD000AEE6384E336823F080633360FEF7A6FDF0
