:020000040800F2
:100000000000042045D0000899B900089FB90008F5
:10001000A5B90008ABB90008B1B90008000000009C
:100020000000000000000000000000003113010883
:10003000B7B9000800000000D1130108C5B90008D5
:1000400095D0000895D0000895D0000895D00008FC
:1000500095D0000895D0000895D0000895D00008EC
:1000600095D0000895D0000895D0000895D00008DC
:10007000E1B9000895D00008F5B9000895D000084E
:1000800095D0000895D0000809BA000895D000085E
:1000900095D0000895D0000895D0000895D00008AC
:1000A00095D0000895D0000895D0000895D000089C
:1000B00095D0000895D0000895D0000895D000088C
:1000C00095D0000895D0000895D0000895D000087C
:1000D00095D000081DBA000895D0000831BA000874
:1000E00095D0000895D0000895D0000895D000085C
:1000F00095D0000895D0000895D0000895D000084C
:1001000095D0000895D0000895D0000895D000083B
:1001100095D0000895D0000895D0000845BA000891
:1001200095D0000895D0000859BA000895D000086D
:1001300095D0000800000000000000000000000052
:1001400000000000000000000000000095D0000842
:1001500095D0000895D000086DBA000895D0000829
:1001600095D0000895D0000895D0000895D00008DB
:1001700095D0000895D000080000000000000000A5
:1001800095D0000895D0000895D0000895D00008BB
:1001900095D0000895D000080000000095D0000818
:1001A00000000000000000000000000095D00008E2
:1001B00095D0000895D00008000000000000000065
:1001C000000000000000000000000000000000002F
:1001D00000000000000000000000000095D00008B2
:1001E00010B5054C237833B9044B13B10448AFF371
:1001F00000800123237010BD002F002000000000AC
:100200003C6D010808B5034B1BB103490348AFF32C
:10021000008008BD00000000042F00203C6D010894
:10022000034613F8012B002AFBD1181A0138704736
:1002300001F0FF01102A2BDB10F0070F08D010F897
:10024000013B013A8B422DD010F0070F42B3F6D19B
:10025000F0B441EA012141EA014122F007047FF0B4
:1002600000070023F0E80256083C85EA010586EA0B
:10027000010685FA47F5A3FA87F586FA47F6A5FA47
:1002800087F68EB9EED1F0BC01F0FF0102F0070253
:1002900032B110F8013B013A83EA010313B1F8D1FE
:1002A0000020704701387047002D06BF35460338DF
:1002B000073815F0010F07D1013015F4807F02BF18
:1002C000013015F4C03F0130F0BC0138704700BF69
:1002D00081F0004102E000BF83F0004330B54FEAF7
:1002E00041044FEA430594EA050F08BF90EA020F64
:1002F0001FBF54EA000C55EA020C7FEA645C7FEAF7
:10030000655C00F0E2804FEA5454D4EB5555B8BF19
:100310006D420CDD2C4480EA020281EA030382EA8A
:10032000000083EA010180EA020281EA0303362D1C
:1003300088BF30BD11F0004F4FEA01314FF4801CEF
:100340004CEA113102D0404261EB410113F0004F01
:100350004FEA03334CEA133302D0524263EB4303B8
:1003600094EA050F00F0A780A4F10104D5F1200E56
:100370000DDB02FA0EFC22FA05F2801841F10001B1
:1003800003FA0EF2801843FA05F359410EE0A5F185
:1003900020050EF1200E012A03FA0EFC28BF4CF0B6
:1003A000020C43FA05F3C01851EBE37101F000456C
:1003B00007D54FF0000EDCF1000C7EEB00006EEB79
:1003C0000101B1F5801F1BD3B1F5001F0CD3490803
:1003D0005FEA30004FEA3C0C04F101044FEA44525A
:1003E00012F5800F80F09A80BCF1004F08BF5FEAE1
:1003F000500C50F1000041EB045141EA050130BDC1
:100400005FEA4C0C404141EB010111F4801FA4F163
:100410000104E9D191F0000F04BF01460020B1FAB8
:1004200081F308BF2033A3F10B03B3F120020CDAF0
:100430000C3208DD02F1140CC2F10C0201FA0CF0CE
:1004400021FA02F10CE002F11402D8BFC2F1200C33
:1004500001FA02F120FA0CFCDCBF41EA0C019040E9
:10046000E41AA2BF01EB0451294330BD6FEA040432
:100470001F3C1CDA0C340EDC04F11404C4F120021D
:1004800020FA04F001FA02F340EA030021FA04F32F
:1004900045EA030130BDC4F10C04C4F1200220FA86
:1004A00002F001FA04F340EA0300294630BD21FAC4
:1004B00004F0294630BD94F0000F83F4801306BF8A
:1004C00081F480110134013D4EE77FEA645C18BF7E
:1004D0007FEA655C29D094EA050F08BF90EA020F15
:1004E00005D054EA000C04BF1946104630BD91EA0D
:1004F000030F1EBF0021002030BD5FEA545C05D110
:100500004000494128BF41F0004130BD14F580044E
:100510003CBF01F5801130BD01F0004545F0FE41C2
:1005200041F470014FF0000030BD7FEA645C1ABFF7
:10053000194610467FEA655C1CBF0B46024650EA2E
:10054000013406BF52EA033591EA030F41F400215A
:1005500030BD00BF90F0000F04BF0021704730B5E0
:100560004FF4806404F132044FF000054FF00001B5
:1005700050E700BF90F0000F04BF0021704730B576
:100580004FF4806404F1320410F0004548BF40424B
:100590004FF000013EE700BF42004FEAE2014FEAA0
:1005A00031014FEA02701FBF12F07F4393F07F4F7B
:1005B00081F06051704732F07F4208BF704793F07E
:1005C0007F4F04BF41F40021704730B54FF4607491
:1005D00001F0004521F000411CE700BF50EA010294
:1005E00008BF704730B54FF000050AE050EA01023D
:1005F00008BF704730B511F0004502D5404261EBAD
:1006000041014FF4806404F132045FEA915C3FF4ED
:10061000D8AE4FF003025FEADC0C18BF03325FEA8A
:10062000DC0C18BF033202EBDC02C2F1200300FA3B
:1006300003FC20FA02F001FA03FE40EA0E0021FA60
:1006400002F11444BDE600BF70B54FF0FF0C4CF44E
:10065000E06C1CEA11541DBF1CEA135594EA0C0F00
:1006600095EA0C0F00F0DEF82C4481EA030621EA3B
:100670004C5123EA4C5350EA013518BF52EA033576
:1006800041F4801143F4801338D0A0FB02CE4FF028
:100690000005E1FB02E506F00042E0FB03E54FF058
:1006A0000006E1FB03569CF0000F18BF4EF0010E50
:1006B000A4F1FF04B6F5007F64F5407404D25FEA4C
:1006C0004E0E6D4146EB060642EAC62141EA5551FF
:1006D0004FEAC52040EA5E504FEACE2EB4F1FD0C41
:1006E00088BFBCF5E06F1ED8BEF1004F08BF5FEABF
:1006F000500E50F1000041EB045170BD06F0004671
:1007000046EA010140EA020081EA0301B4EB5C041D
:10071000C2BFD4EB0C0541EA045170BD41F4801115
:100720004FF0000E013C00F3AB8014F1360FDEBF3A
:10073000002001F0004170BDC4F10004203C35DA16
:100740000C341BDC04F11404C4F1200500FA05F399
:1007500020FA04F001FA05F240EA020001F000423A
:1007600021F0004110EBD37021FA04F642EB0601B0
:100770005EEA430E08BF20EAD37070BDC4F10C04DA
:10078000C4F1200500FA04F320FA05F001FA04F29E
:1007900040EA020001F0004110EBD37041F100018A
:1007A0005EEA430E08BF20EAD37070BDC4F1200595
:1007B00000FA05F24EEA020E20FA04F301FA05F2FD
:1007C00043EA020321FA04F001F0004121FA04F2A5
:1007D00020EA020000EBD3705EEA430E08BF20EA75
:1007E000D37070BD94F0000F0FD101F000464000AF
:1007F00041EB010111F4801F08BF013CF7D041EA31
:10080000060195F0000F18BF704703F00046520034
:1008100043EB030313F4801F08BF013DF7D043EA05
:100820000603704794EA0C0F0CEA135518BF95EABB
:100830000C0F0CD050EA410618BF52EA4306D1D142
:1008400081EA030101F000414FF0000070BD50EA61
:10085000410606BF1046194652EA430619D094EAEB
:100860000C0F02D150EA013613D195EA0C0F05D1D5
:1008700052EA03361CBF104619460AD181EA030129
:1008800001F0004141F0FE4141F470014FF00000E1
:1008900070BD41F0FE4141F4780170BD70B54FF07C
:1008A000FF0C4CF4E06C1CEA11541DBF1CEA1355FC
:1008B00094EA0C0F95EA0C0F00F0A7F8A4EB0504DE
:1008C00081EA030E52EA03354FEA013100F08880D5
:1008D0004FEA03334FF0805545EA131343EA12639E
:1008E0004FEA022245EA111545EA10654FEA002653
:1008F0000EF000419D4208BF964244F1FD0404F50C
:10090000407402D25B084FEA3202B61A65EB030567
:100910005B084FEA32024FF480104FF4002CB6EB24
:10092000020E75EB030E22BFB61A754640EA0C00A4
:100930005B084FEA3202B6EB020E75EB030E22BFE4
:10094000B61A754640EA5C005B084FEA3202B6EB25
:10095000020E75EB030E22BFB61A754640EA9C00E4
:100960005B084FEA3202B6EB020E75EB030E22BFB4
:10097000B61A754640EADC0055EA060E18D04FEA72
:10098000051545EA16754FEA06164FEAC30343EA12
:1009900052734FEAC2025FEA1C1CC0D111F4801FDF
:1009A0000BD141EA00014FF000004FF0004CB6E7D8
:1009B00011F4801F04BF01430020B4F1FD0C88BF77
:1009C000BCF5E06F3FF6AFAEB5EB030C04BFB6EB82
:1009D000020C5FEA500C50F1000041EB045170BD75
:1009E0000EF0004E4EEA113114EB5C04C2BFD4EBA2
:1009F0000C0541EA045170BD41F480114FF0000E26
:100A0000013C90E645EA060E8DE60CEA135594EAA1
:100A10000C0F08BF95EA0C0F3FF43BAF94EA0C0FA4
:100A20000AD150EA01347FF434AF95EA0C0F7FF419
:100A300025AF104619462CE795EA0C0F06D152EA6D
:100A400003353FF4FDAE1046194622E750EA410651
:100A500018BF52EA43067FF4C5AE50EA41047FF462
:100A60000DAF52EA43057FF4EBAE12E74FF0FF3CC7
:100A700006E000BF4FF0010C02E000BF4FF0010C98
:100A80004DF804CD4FEA410C7FEA6C5C4FEA430C11
:100A900018BF7FEA6C5C1BD001B050EA410C0CBF60
:100AA00052EA430C91EA030F02BF90EA020F0020C2
:100AB000704710F1000F91EA030F58BF994208BF29
:100AC00090422CBFD8176FEAE37040F001007047E6
:100AD0004FEA410C7FEA6C5C02D150EA013C07D13D
:100AE0004FEA430C7FEA6C5CD6D152EA033CD3D088
:100AF0005DF8040B704700BF8446104662468C4682
:100B00001946634600E000BF01B5FFF7B7FF0028B4
:100B100048BF10F1000F01BD4DF808EDFFF7F4FFDD
:100B20000CBF012000205DF808FB00BF4DF808ED68
:100B3000FFF7EAFF34BF012000205DF808FB00BF8B
:100B40004DF808EDFFF7E0FF94BF012000205DF8AD
:100B500008FB00BF4DF808EDFFF7CEFF94BF012062
:100B600000205DF808FB00BF4DF808EDFFF7C4FF5B
:100B700034BF012000205DF808FB00BF4FEA410CA4
:100B80007FEA6C5C02D150EA013C0AD14FEA430C87
:100B90007FEA6C5C02D152EA033C02D14FF00000C4
:100BA00070474FF0010070474FEA410212F5001202
:100BB00015D211D56FF47873B3EB625212D94FEAA4
:100BC000C12343F0004343EA505311F0004F23FA8E
:100BD00002F018BF404270474FF00000704750EAE3
:100BE000013005D111F0004008BF6FF000407047A0
:100BF0004FF00000704700BF4A0011D212F50012FA
:100C000011D20DD56FF47873B3EB62520ED44FEA64
:100C1000C12343F0004343EA505323FA02F07047E4
:100C20004FF00000704750EA013002D14FF0FF3022
:100C300070474FF0000070474FEA4102B2F1E043C5
:100C400024BFB3F5001CDCF1FE5C0DD901F0004CB3
:100C50004FEAC0024CEA5070B2F1004F40EB830003
:100C600008BF20F00100704711F0804F21D113F12F
:100C70003872BCBF01F00040704741F480114FEA68
:100C80005252C2F11802C2F1200C10FA0CF320FAF1
:100C900002F018BF40F001004FEAC1234FEAD3230E
:100CA00003FA0CFC40EA0C0023FA02F34FEA430378
:100CB000CCE77FEA625307D150EA01331EBF4FF001
:100CC000FE4040F44000704701F0004040F0FE401C
:100CD00040F40000704700BF53B94AB9002908BF6B
:100CE00000281CBF4FF0FF314FF0FF3000F072B909
:100CF000ADF1080C6DE904CE00F006F8DDF804E073
:100D0000DDE9022304B070472DE9F047089E044650
:100D10008846002B4BD18A42154667D9B2FA82F237
:100D20004AB1C2F1200701FA02F320FA07F7954011
:100D300047EA030894404FEA154E230CB8FBFEF730
:100D40001FFA85FC0EFB178843EA084307FB0CF1EA
:100D5000994209D9EB1807F1FF3080F01B819942C5
:100D600040F21881023F2B445B1AA4B2B3FBFEF0A1
:100D70000EFB103344EA034400FB0CFCA44509D9E4
:100D80002C1900F1FF3380F00781A44540F2048163
:100D900002382C4440EA0740A4EB0C0400271EB1A3
:100DA000D4400023C6E900433946BDE8F0878B42B2
:100DB00009D9002E00F0EB800027C6E90001384673
:100DC0003946BDE8F087B3FA83F7002F47D18B424D
:100DD00002D3824200F2FA80841A61EB03030120FD
:100DE0009846002EE0D0C6E90048DDE702B9FFDEF4
:100DF000B2FA82F2002A40F08F80491B4FEA154E6A
:100E00001FFA85F80127B1FBFEFC230C0EFB1C1119
:100E100043EA014308FB0CF1994207D9EB180CF1A6
:100E2000FF3002D2994200F2CD808446591AA3B213
:100E3000B1FBFEF00EFB101443EA044408FB00F87B
:100E4000A04507D92C1900F1FF3302D2A04500F2CA
:100E5000B6801846A4EB080440EA0C409FE7C7F1AF
:100E6000200CBB4022FA0CFE4EEA030E01FA07F4F6
:100E700020FA0CF521FA0CF34FEA1E482543B3FB88
:100E8000F8F92C0C08FB19331FFA8EFA44EA0343D5
:100E900009FB0AF49C4202FA07F200FA07F10BD9A7
:100EA0001EEB030309F1FF3080F087809C4240F283
:100EB0008480A9F1020973441B1BADB2B3FBF8F0A7
:100EC00008FB103345EA034400FB0AFAA24508D99F
:100ED0001EEB040400F1FF336BD2A24569D902383E
:100EE000744440EA0940A0FB0289A4EB0A044C4583
:100EF000C2464B4654D351D0002E69D0B1EB0A05FF
:100F000064EB030404FA0CFCFD40FC404CEA0505CC
:100F1000C6E90054002747E7C2F1200320FA03F78F
:100F2000954001FA02F021FA03F34FEA154E3843D7
:100F3000010CB3FBFEF71FFA85F80EFB173341EAED
:100F4000034107FB08F38B4204FA02F407D969183E
:100F500007F1FF3C2FD28B422DD9023F2944CB1AF7
:100F600081B2B3FBFEF00EFB103341EA034100FBFC
:100F700008F38B4207D9691800F1FF3C17D28B4266
:100F800015D902382944C91A40EA07473BE73746D2
:100F9000304609E70746E7E61846FBE64145ABD28F
:100FA000B8EB020A69EB0E0201381346A4E760466B
:100FB000E9E7184695E76746D1E781467CE70238BE
:100FC0002C4447E7ACF1020C2B442FE7384608E7E6
:100FD0003746E9E6704700BF80B487B000AF78605D
:100FE00039607B68002B02D03B68002B02D14FF0A8
:100FF000FF3337E07B687B613B683B617B69013392
:101000001B78BB817B6901331A783B6901331B78FC
:101010009A420ED17B691A783B691B789A4208D1B3
:10102000B7F90C30002B04D0B7F90C30B3F5C07F02
:1010300002DD6FF0010315E00223FB730AE03A6959
:10104000531C3B617B69591C796112781A70FB7BD8
:101050000133FB73FA7BB7F90C3002339A42EEDBB3
:10106000B7F90C3018461C37BD465DF8047B704755
:1010700080B592B000AF78603960012387F84730BF
:101080007B68BB63714B7B63714B3B633A6B7B6BE0
:10109000D31AFB6240F66C43BB6200233B6423E03F
:1010A0003B6C40F66C4202FB03F3C033674A1344C7
:1010B0001A463B6C9B0007F148010B4443F8302C67
:1010C0003B6C40F66C4202FB03F3C0335F4A1344AF
:1010D00003F66C423B6C9B0007F148010B4443F85C
:1010E000402C3B6C01333B643B6C032BD8DDBA6B6B
:1010F0007B6B9A423DD3BA6B3B6B9A4239D2554BCC
:1011000002229A70534AFB6A9360BA6B7B6BD31AC4
:10111000504AD3604F4B04221A614E4BDB684B4A56
:1011200099184C4B1B691A464B4811F09BFE494BD2
:101130001B691033474A1344981D464B1B69C3F182
:10114000E0031A46002111F098FEE021424808F021
:101150008BFC03461A463F4B9A82404B01221A7081
:10116000F8223C493E480BF0E5FE002387F8473063
:1011700066E00023FB6360E0FB6B9B0007F1480225
:10118000134453F8303CBA6B9A4253D3FB6B9B0029
:1011900007F14802134453F8403CBA6B9A4249D2D3
:1011A000304B02229A702F4ABB6AD360FB6B2D4AE8
:1011B0009360FB6B9B0007F14802134453F8303CEB
:1011C000BA6BD31A274A13613B68264A5361FB6BFB
:1011D00040F66C4202FB03F3C0331C4A1A44214B15
:1011E0001B69D1181F4B5B691A461F4811F03AFE64
:1011F0001C4B5B6918331B4A1344981C194B5B69E1
:10120000C3F1E0031A46002111F037FEE021164831
:1012100008F02AFC03461A46124B1A830F4B012290
:101220001A70FC220F490E480BF084FE002387F849
:10123000473005E0FB6B0133FB63FB6B032B9BDD4E
:1012400097F8473018464837BD4680BD202F00200C
:10125000E02F002000020020160200209A690020E2
:1012600040690020C0000020DA0000202DE9F04194
:10127000FCB002AF3B1D1860002387F8E331002368
:10128000C7F8DC31C44B5B6AC7F8D8310023C7F814
:10129000D4310023C7F8D031BF4B5B6AC7F8CC31DB
:1012A000002387F8C7310023C7F8C0310023C7F8EF
:1012B000BC310023C7F8B8310023C7F8B43100238C
:1012C000C7F8B0310023C7F8AC310023C7F8A83104
:1012D0000023C7F8A4310023C7F8A0310023C7F8C2
:1012E0009C3107F1A40300221A60AC4B1B6818461E
:1012F000FEF796FF024607F1A2031A800023C7F803
:1013000098310023C7F894314FF00003C7F89031AB
:101310004FF00003C7F88C314FF00003C7F8883155
:101320009F4B1B78DBB2012B0CD100224FF4807154
:101330009C480CF0A5FC01224FF4004199480CF0A8
:101340009FFC1DE0964B1B78DBB2022B0CD10122D7
:101350004FF4807193480CF093FC00224FF400414D
:1013600090480CF08DFC0BE001224FF480718D4809
:101370000CF086FC01224FF400418A480CF080FCFE
:10138000894B1B78DBB2012B3ED1D7F8DC11D7F8A3
:10139000C80108F063FC0246844B9A420CD8012233
:1013A0004FF400517F480CF06BFC00224FF4805149
:1013B0007C480CF065FC3FE1D7F8DC11D7F8C80198
:1013C00008F04CFC02467A4B9A420CD801224FF4AA
:1013D000005174480CF054FC01224FF480517148C4
:1013E0000CF04EFC28E1D7F8C831C7F8DC310122F7
:1013F0004FF400516B480CF043FC00224FF4805135
:1014000068480CF03DFC17E1674B1B78DBB2022B00
:101410003ED1D7F8DC11D7F8C80108F01FFC02460E
:10142000644B9A420CD801224FF400515D480CF0F5
:1014300027FC00224FF480515A480CF021FCFBE0BD
:10144000D7F8DC11D7F8C80108F008FC0246574B62
:101450009A420CD801224FF4005152480CF010FC73
:1014600001224FF480514F480CF00AFCE4E0D7F819
:10147000C831C7F8DC3101224FF4005149480CF063
:10148000FFFB00224FF4805146480CF0F9FBD3E0FB
:10149000454B1B78DBB2032B0CD101224FF40051DA
:1014A00040480CF0EDFB00224FF480513D480CF019
:1014B000E7FBC1E03C4B1B78DBB2042B0CD10022D4
:1014C0004FF4005137480CF0DBFB00224FF4805101
:1014D00034480CF0D5FBAFE0374B1B78DBB2002B68
:1014E0003ED0D7F8DC11D7F8C80108F0B7FB0246A8
:1014F000324B9A420CD800224FF4005129480CF08C
:10150000BFFB01224FF4805126480CF0B9FB93E059
:10151000D7F8DC11D7F8C80108F0A0FB0246284B29
:101520009A420CD801224FF400511E480CF0A8FB3F
:1015300001224FF480511B480CF0A2FB7CE0D7F84D
:10154000C831C7F8DC3100224FF4005115480CF0C7
:1015500097FB01224FF4805112480CF091FB6BE095
:10156000184B1B78DBB2002B56D1D7F8DC11D7F81B
:10157000C80108F073FB0246104B9A4224D800229F
:101580004FF4005107480CF07BFB00224FF48051D0
:1015900004480CF075FB4FE0000C0040D004002024
:1015A0007C69002000040240A06900207F1A060028
:1015B000FF340C003F0D03007D6900203F420F0007
:1015C0007F841E007E690020D7F8DC11D7F8C8019F
:1015D00008F044FB02469A4B9A420CD801224FF481
:1015E000005198480CF04CFB01224FF48051954873
:1015F0000CF046FB20E0D7F8C831C7F8DC310022F8
:101600004FF400518F480CF03BFB00224FF4805107
:101610008C480CF035FB0FE001224FF40051894853
:101620000CF02EFB01224FF4805186480CF028FB71
:10163000D7F8C831C7F8DC31834B5B6AC7F8C831CB
:10164000824B1B78DBB2002B0FD0814B1B68B3F5AC
:101650007A7F0AD37F4B1B78DBB2042B05D97C4BF6
:1016600000221A607B4B04221A707B4B1B78DBB282
:10167000002B03D0774B03221A702DE0774B1B7899
:10168000DBB2002B03D0734B01221A7024E0744BA1
:101690001B78DBB2002B03D06E4B02221A7007E0DE
:1016A0006C4B1B78DBB2012B02D16A4B04221A70FF
:1016B000684B1B78DBB2032B0ED1664B01221A70EC
:1016C000664B01221A70674B00221A70644B00228D
:1016D0001A70654B00221A605E4B1B78DBB297F8DC
:1016E000E3219A4210D05B4B1B78DBB2152B0BD158
:1016F0005B4B00221A705D4B00221A705C4B00227B
:101700001A705C4B01221A70524B1B78DBB297F8AF
:10171000E3219A4210D04F4B1B78DBB2142B0BD134
:101720004F4B00221A70514B00221A70504B00226E
:101730001A70514B01221A70464B1B78DBB297F896
:10174000E3219A4240D097F8E331092B3CD8414B32
:101750001B78DBB2082B37D8D7F8C831C7F8CC31A3
:101760000023C7F8D831454B00221A70444B0022A1
:101770001A70444B00221A70434B00221A70434BDC
:1017800000221A70424B00221A70424B00221A604B
:10179000414B00221A60414B00221A60404B00224C
:1017A0001A60404B00221A60294B00221A60002365
:1017B000C7F89C310023C7F8BC310023C7F8C031FB
:1017C000394B00221A7002E00A200EF047F8214B34
:1017D0001B7887F8E3311F4B1B78DBB2013B142BDE
:1017E00006F2C48301A252F823F000BF197D00085D
:1017F000EF7E0008D17C0008AD180008331A0008FD
:10180000D7280008B7340008B7400008455400083E
:101810006D7F0008975800089758000897580008EF
:1018200097580008975800089758000897580008DC
:10183000836800087D700008557E0008A37E0008BC
:101840007F841E0000040240000C0040C9590120A2
:10185000E05901205C690020846900207F69002034
:1018600098690020876900208C6900208869002021
:10187000896900208669002085690020E6590120D9
:10188000E7590120E4590120E5590120E8590120D8
:10189000E9590120D4590120D8590120CC590120FF
:1018A000D0590120DC590120A0690020D7F8D811B7
:1018B000D7F8C80108F0D2F90246C24B9A4240F26A
:1018C0009980D7F8C831C7F8D83108F0F7FA012362
:1018D0000093402380220021002008F0DAFBBA4860
:1018E0000FF0CCFFB94A0421042011F0E9F9B84BFC
:1018F0001B681846FEF750FE03460C46CDE900343F
:10190000B44A04216FF07C0011F0DAF90FF05CFFAB
:1019100003460433B04A1946042011F0D1F90FF000
:1019200053FF03461D1DAD4B1B681846FEF734FEE2
:1019300003460C46CDE90034A94A29466FF07C00E5
:1019400011F0BEF90FF040FF034602335B00A54AD9
:101950001946042011F0B4F90FF036FF03460233A4
:101960005D00A14B1B681846FEF716FE03460C46A9
:10197000CDE900349D4A29466FF07C0011F0A0F9B2
:101980009B480FF07BFF9B4B1B685A1C9A4B0093A4
:1019900013469A4A3521042011F092F9984B1B788E
:1019A000DBB2002B06D0974A35216FF07C0011F096
:1019B00087F91DE0944B1B681846FEF7EDFD0346C2
:1019C0000C46CDE90034914A35216FF07C0011F0CE
:1019D00077F98F4B1B681846FEF7DEFD03460C4671
:1019E000CDE900348B4A35216FF05E0011F068F9C3
:1019F00008F0D8F9884B1B78DBB2002B0BD0864B54
:101A000000221A70854B1B78DBB20133DAB2834BAC
:101A10001A7006F0AFBA824B1B78DBB2002B06F0CF
:101A2000A9827F4B00221A707C4B09221A7006F0A3
:101A3000A1BAD7F8D811D7F8C80108F00FF90246B3
:101A400047F230539A4240F2A283D7F8C831C7F820
:101A5000D83108F033FA012300934023802200217B
:101A6000002008F016FB6F480FF008FF6E4A0221B5
:101A7000002011F025F901230093012380220F217A
:101A8000002008F006FB694B1B78DBB2022B00F24A
:101A90004D8157480FF0F2FE0023C7F8843140E132
:101AA0000FF092FE0246D7F8843103FB02F303F1F4
:101AB00012005F49D7F8842113465B0013441B01D1
:101AC0000B441B685B4A0146032011F0F9F85849A2
:101AD000D7F8842113465B0013441B010B440C33DD
:101AE0001B68002B00F0AE80D7F89C31002B05D08E
:101AF000D7F8C021D7F884319A4221D00FF064FE84
:101B00000246D7F8843103FB02F303F1120548497A
:101B1000D7F8842113465B0013441B010B440C339C
:101B20001B681B681846FEF737FD03460C46CDE9D7
:101B30000034284A29466FF07C0011F0C1F8EBE030
:101B4000D7F8C021D7F884319A422BD1D7F8D011D9
:101B5000D7F8C80108F082F80246374B9A4221D8DC
:101B60000FF032FE0246D7F8843103FB02F303F193
:101B700012052F49D7F8842113465B0013441B013B
:101B80000B440C331B681B681846FEF705FD034623
:101B90000C46CDE90034294A29466FF07C0011F04B
:101BA0008FF8B9E0D7F8D011D7F8C80108F056F887
:101BB0000246234B9A4240F2AF80D7F8C831C7F8AB
:101BC000D031A9E0F0490200C02C00208470010847
:101BD000606900208C700108947001086869002019
:101BE0009C700108A47001086C690020AC700108A9
:101BF000D02C002078690020B0590120B470010871
:101C0000BC590120C070010870690020CC70010827
:101C100074690020D4700108E55901205C69002036
:101C2000E4590120E02C0020DC700108A0690020AC
:101C3000CC720108EC7001081FA10700F0700108C8
:101C400000350C00BF49D7F8842113465B001344CC
:101C50001B010B4408331B68002B5DD0D7F89C3167
:101C6000002B05D0D7F8C021D7F884319A421AD07A
:101C70000FF0AAFD0246D7F8843103FB02F303F10B
:101C80001200B049D7F8842113465B0013441B01AE
:101C90000B4408331B681B68AB4A01466FF07C009D
:101CA00011F00EF838E0D7F8C021D7F884319A4205
:101CB00024D1D7F8D011D7F8C80107F0CFFF0246DA
:101CC000A24B9A421AD80FF07FFD0246D7F8843112
:101CD00003FB02F303F112009A49D7F8842113465B
:101CE0005B0013441B010B4408331B681B68984AB4
:101CF00001466FF07C0010F0E3FF0DE0D7F8D01143
:101D0000D7F8C80107F0AAFF0246924B9A4203D9BE
:101D1000D7F8C831C7F8D031D7F884310133C7F8C4
:101D20008431D7F88431012B7FF6BAAE8A480FF0A0
:101D3000A5FD8A4B1B78DBB2002B00F0A180884BFD
:101D40001B78DBB2002B06D1864A35216FF07C0070
:101D500010F0B6FFB3E0824B1B78DBB2012B20D131
:101D6000D7F8D011D7F8C80107F078FF0246774BB3
:101D70009A4206D87C4A35216FF07C0010F0A0FF13
:101D80009DE0D7F8D011D7F8C80107F067FF0246E9
:101D9000704B9A4240F29380D7F8C831C7F8D031DF
:101DA0008DE06F4B1B78DBB2022B1FD1D7F8D0111F
:101DB000D7F8C80107F052FF0246644B9A4206D892
:101DC0006A4A35216FF07C0010F07AFF77E0D7F88F
:101DD000D011D7F8C80107F041FF02465D4B9A4287
:101DE0006DD9D7F8C831C7F8D03168E05C4B1B78A3
:101DF000DBB2032B1FD1D7F8D011D7F8C80107F0F9
:101E00002DFF0246514B9A4206D8594A35216FF0B0
:101E10007C0010F055FF52E0D7F8D011D7F8C80178
:101E200007F01CFF02464B4B9A4248D9D7F8C831FD
:101E3000C7F8D03143E04A4B1B78DBB2042B3ED1CC
:101E4000D7F8D011D7F8C80107F008FF02463F4B7A
:101E50009A4206D8474A35216FF07C0010F030FFD7
:101E60002DE0D7F8D011D7F8C80107F0F7FE0246E9
:101E7000384B9A4223D9D7F8C831C7F8D0311EE081
:101E8000D7F8D011D7F8C80107F0E8FE02462F4B6B
:101E90009A4206D8384A35216FF07C0010F010FFC6
:101EA0000DE0D7F8D011D7F8C80107F0D7FE0246E9
:101EB000284B9A4203D9D7F8C831C7F8D031D7F8A0
:101EC000D411D7F8C80107F0C9FE02462B4B9A423D
:101ED00007D9D7F8C831C7F8D431294B1B68C7F8E0
:101EE000903128480FF0CAFC274B1B681846FEF7B4
:101EF00053FB03460C46CDE90034244A30210A2026
:101F000010F0DEFE224A30216FF04F0010F0D8FEB4
:101F1000134B1B78DBB2022B40D8D7F89001FEF7A9
:101F20003BFB03460C46CDE900341A4A22210A2025
:101F300010F0C6FE184A22216FF0590010F0C0FEC2
:101F400023E100BFCC720108FC7001081FA107004B
:101F50000071010800350C00002D00207E69002072
:101F6000A0690020087101081071010814710108AE
:101F7000187101082071010828710108F049020058
:101F800060690020F02C00209C690020307101085D
:101F9000387101088C7001083C710108A34B1B7853
:101FA000DBB2002B00F0EC80A14B1A6807F1500364
:101FB0001A6007F14C039F4A1A6007F148039D4AD3
:101FC0001A609C4BC7F880319A4BC7F87C3107F1F7
:101FD0004403994A12681A6007F14003974A12684D
:101FE0001A6007F13C034FF000021A60944BD3EDE6
:101FF000007A07F138039FED937A67EE877AC3ED95
:10200000007A0023C7F87831B1E08F49D7F87821FA
:1020100013469B0013449B000B4410331A6807F1CE
:10202000340307EE902AF8EE677AC3ED007A07F1E1
:1020300030018548D7F8782113469B0013449B0054
:1020400003441B680B6007F1340207F13C0392ED77
:10205000007AD3ED007A77EE677A9FED7C7A67EEAF
:10206000876A07F1380207F13C0392ED007AD3ED5D
:10207000007A37EE677AC6EE877A07F14C03B7EE3F
:10208000007A77EE877AC3ED007A07F1300207F124
:10209000400392ED007AD3ED007A77EE676A07F19C
:1020A000440207F1400392ED007AD3ED007A37EE57
:1020B000677AC6EE877A9FED667A67EE877A07F1D0
:1020C00048039FED647A77EE677AC3ED007AD7ED27
:1020D000607ABFEE007AF4EE477AF1EE10FA12D190
:1020E000D7ED5F7ABFEE007AF4EE477AF1EE10FAA0
:1020F00009D107F14C031B68C7F8803107F1480389
:102100001B68C7F87C31D7ED607AFCEEE77A17EEF2
:10211000903A98B2D7ED5F7AFCEEE77A17EE903AF4
:1021200099B207F14C03D3ED007AFCEEE77A17EE93
:10213000903A9AB207F14803D3ED007AFCEEE77AC1
:1021400017EE903A9CB201230093234608F04AF818
:1021500007F14C031B68C7F8803107F148031B687F
:10216000C7F87C31D7F878310133C7F8783107F1F7
:102170005003D7F878211B689A42FFF646AF04E077
:10218000354A1E21002010F09BFD07F00BFE334B5B
:102190001B78DBB2002B23D0314B1B78DBB2002B3A
:1021A0007AD0304B1B78DBB2002B75D12E4B1B68DD
:1021B000B3F5FA7F70D9D7F8C831C7F8D0312B4BB7
:1021C0001B78DBB2002B04D0284B1B78DBB2022B30
:1021D00062D90023C7F89C31244B01221A705BE0BE
:1021E000234B1B78DBB2002B56D00023C7F8D83125
:1021F0001E4B1B78DBB2022B03D91C4B00221A703A
:102200003BE0D7F89C31002B34D1184B1B78DBB264
:10221000002B2FD10123C7F89C310023C7F8C03110
:10222000D7F8C831C7F8D03127E000BFA169002036
:10223000A8690020000080BFCC040020C804002052
:102240009C69002000247449AC6900200000FC4215
:1022500000003C4200007C4240710108C859012046
:102260007E690020C9590120DC590120A0690020A5
:10227000E85901200023C7F89C31914B00221A70C5
:10228000904B00221A70904B00221A708F4B002244
:102290001A708F4B00221A708E4B1B78DBB2002B0A
:1022A0001BD00023C7F8D831D7F89C31002B02D0BF
:1022B0000023C7F89C31884B00221A70804B002203
:1022C0001A70804B00221A707F4B00221A707F4BCD
:1022D00000221A707F4B00221A707B4B1B78DBB2F6
:1022E000002B0BD17D4B1B78DBB2002B00F0308133
:1022F0007B4B1B68B3F5C87F40F22A810023C7F8E7
:10230000D831774B1B68642B04D9754B1B68643B31
:10231000734A1360D7F89C31002B00F01981714B80
:102320001B78DBB2002B00F013816F49D7F8C02176
:1023300013465B0013441B010B440C331B68002B3A
:102340006CD06949D7F8C02113465B0013441B01C8
:102350000B440C331B6893ED007A6349D7F8C02116
:1023600013465B0013441B010B441833D3ED007A72
:1023700037EE677A5C49D7F8C02113465B001344F7
:102380001B010B4410331B6807EE903AF8EEE77A16
:10239000B4EEE77AF1EE10FA1AD55349D7F8C02116
:1023A00013465B0013441B010B44103318684E495D
:1023B000D7F8C02113465B0013441B010B440C33B8
:1023C0001B6807EE900AF8EEE77AC3ED007AB8E0F2
:1023D0004549D7F8C02113465B0013441B010B4449
:1023E0000C331B6893ED007A3F49D7F8C0211346A0
:1023F0005B0013441B010B441833D3ED007A3A49B8
:10240000D7F8C02113465B0013441B010B440C3367
:102410001B6877EE677AC3ED007A92E03249D7F80D
:10242000C02113465B0013441B010B4408331B6897
:10243000002B00F086802C49D7F8C02113465B00A2
:1024400013441B010B4408331B681B6807EE903ACA
:10245000B8EEE77A2449D7F8C02113465B0013444D
:102460001B010B441833D3ED007A37EE677A1E490F
:10247000D7F8C02113465B0013441B010B441033F3
:102480001B6807EE903AF8EEE77AB4EEE77AF1EEE1
:1024900010FA2BD51449D7F8C02113465B0013441A
:1024A0001B010B44083319680F48D7F8C0211346A5
:1024B0005B0013441B01034410331B680B6040E0B6
:1024C000E6590120E7590120E4590120E55901208E
:1024D000E8590120E9590120A0690020C4590120D0
:1024E000CC5901207E690020CC7201089149D7F8AF
:1024F000C02113465B0013441B010B4408331B68C7
:102500001B6807EE903AB8EEE77A8A49D7F8C021FF
:1025100013465B0013441B010B441833D3ED007AC0
:1025200077EE677A8349D7F8C02113465B001344DE
:102530001B010B4408331B68FDEEE77A17EE902A67
:102540001A60D7F8C831C7F8D0317B4B00221A7017
:102550007A4B1B78DBB2002B0BD1794B1B78DBB2AB
:10256000002B00F02581774B1B68B3F5C87F40F244
:102570001F810023C7F8D831724B1B68642B04D924
:10258000704B1B68643B6F4A1360D7F89C31002B7B
:1025900000F00E816C4B1B78DBB2002B00F0088141
:1025A0006449D7F8C02113465B0013441B010B4458
:1025B0000C331B68002B6CD05E49D7F8C021134642
:1025C0005B0013441B010B440C331B6893ED007A32
:1025D0005849D7F8C02113465B0013441B010B4434
:1025E0001833D3ED007A37EE277A5249D7F8C02155
:1025F00013465B0013441B010B4414331B6807EEA6
:10260000903AF8EEE77AB4EEE77AF1EE10FA1ADDD6
:102610004849D7F8C02113465B0013441B010B4403
:10262000143318684349D7F8C02113465B0013449C
:102630001B010B440C331B6807EE900AF8EEE77A97
:10264000C3ED007AADE03B49D7F8C02113465B00EB
:1026500013441B010B440C331B6893ED007A35497E
:10266000D7F8C02113465B0013441B010B441833F9
:10267000D3ED007A2F49D7F8C02113465B001344ED
:102680001B010B440C331B6877EE277AC3ED007AED
:1026900087E02849D7F8C02113465B0013441B018B
:1026A0000B4408331B68002B7BD02249D7F8C0218C
:1026B00013465B0013441B010B4408331B681B6863
:1026C00007EE903AB8EEE77A1A49D7F8C0211346D8
:1026D0005B0013441B010B441833D3ED007A37EE33
:1026E000277A1449D7F8C02113465B0013441B0115
:1026F0000B4414331B6807EE903AF8EEE77AB4EE19
:10270000E77AF1EE10FA21DD0A49D7F8C021134625
:102710005B0013441B010B44083319680548D7F8C4
:10272000C02113465B0013441B01034414331B6890
:102730000B6036E0CC720108E4590120E559012014
:10274000C5590120D05901207E690020B449D7F82D
:10275000C02113465B0013441B010B4408331B6864
:102760001B6807EE903AB8EEE77AAD49D7F8C0217A
:1027700013465B0013441B010B441833D3ED007A5E
:1027800077EE277AA649D7F8C02113465B00134499
:102790001B010B4408331B68FDEEE77A17EE902A05
:1027A0001A60D7F8C831C7F8D0319E4B00221A7092
:1027B0009D4B1B78DBB2002B19D00023C7F8D83112
:1027C000D7F89C31002B0FD0D7F8C0310133C7F8B0
:1027D000C031D7F8C031012B02D90123C7F8C0316D
:1027E000D7F8C831C7F8D0318F4B00221A708F4B01
:1027F0001B78DBB2002B19D00023C7F8D831D7F8EB
:102800009C31002B0FD0D7F8C031013BC7F8C03145
:10281000D7F8C031002B02DA0023C7F8C031D7F84F
:10282000C831C7F8D031814B00221A70804B1B7819
:10283000DBB2002B14D17F4B1B78DBB2002B0FD007
:102840007D4B1B68B3F5967F0AD90023C7F8D831B2
:102850007A4B1B78DBB2002B02D0784B00221A7027
:10286000704B1B78DBB2002B16D0D7F89C31002BB5
:1028700012D1724B1B78DBB2002B04D06F4B1B784C
:10288000DBB2032B08D16E4B1B78DBB20133DAB21B
:102890006B4B1A7005F071BB6A4B1B78DBB2002BD7
:1028A00005F06B83D7F89C31002B45F06683634BB2
:1028B0001B78DBB2002B05D0604B1B78DBB2032BFF
:1028C00045F05B835E4B1B78DBB2013BDAB25C4BBD
:1028D0001A7005F052BBD7F8D811D7F8C80107F025
:1028E000BDF90246584B9A4240F27D82D7F8C83172
:1028F000C7F8D83107F0E2FA012300934023802281
:102900000021002007F0C5FB50480EF0B7FF504AE9
:102910000221002010F0D4F901230093012380222A
:102920000F21002007F0B5FB4A480EF0A7FF002357
:10293000C7F8743150E2D7F8742107F1A403D7F82F
:10294000BC110A441A6007F1A4031B680E2B00F2A5
:102950003E820EF039FF0246D7F8743103FB02F3D2
:1029600003F112003C4907F1A4031A6813465B0007
:1029700013441B010B441B68384A0146032010F026
:102980009FF9354907F1A4031A6813465B00134405
:102990001B010B440C331B68002B00F0BA80D7F8E6
:1029A0009C31002B06D0D7F8C03107F1A402126881
:1029B0009A4257D00EF008FF0246D7F8743103FB55
:1029C00002F303F11205244907F1A4031A68134620
:1029D0005B0013441B010B440C331B6893ED007A1E
:1029E0001D4907F1A4031A6813465B0013441B0139
:1029F0000B441C331B6807EE903AF8EEE77A77EE4B
:102A0000277A17EE900AFDF7C7FD03460C46CDE97D
:102A10000034134A29466FF07C0010F051F9D6E1DA
:102A2000CC720108E5590120E7590120E65901203F
:102A3000C8590120C9590120E0590120A06900208E
:102A40005C690020E4590120F0490200E02C0020DC
:102A500050710108D02C00202C730108EC70010883
:102A600060710108D7F8C03107F1A40212689A42D8
:102A70003FD1D7F8D011D7F8C80107F0EFF80246D8
:102A8000C84B9A4235D80EF09FFE0246D7F87431F3
:102A900003FB02F303F11205C34907F1A4031A680B
:102AA00013465B0013441B010B440C331B6893ED6E
:102AB000007ABD4907F1A4031A6813465B0013446A
:102AC0001B010B441C331B6807EE903AF8EEE77AC3
:102AD00077EE277A17EE900AFDF75EFD03460C4667
:102AE000CDE90034B14A29466FF07C0010F0E8F8D7
:102AF0006DE1D7F8D011D7F8C80107F0AFF802465A
:102B0000AB4B9A4240F26381D7F8C831C7F8D03155
:102B10005DE1A54907F1A4031A6813465B0013445D
:102B20001B010B4408331B68002B00F050819E49A9
:102B300007F1A4031A6813465B0013441B010B44FE
:102B400010331B68002B40F0B280974907F1A403B3
:102B50001A6813465B0013441B010B4414331B68B3
:102B6000012B40F0A480904907F1A4031A68134692
:102B70005B0013441B010B441833D3ED007AB7EE0E
:102B8000007AF4EE477AF1EE10FA40F09080864930
:102B900007F1A4031A6813465B0013441B010B449E
:102BA0001C331B68002B40F082807F4907F1A4038F
:102BB0001A6813465B0013441B010B442033D3ED0A
:102BC000007AB7EE007AF4EE477AF1EE10FA6ED1A1
:102BD000D7F89C31002B06D0D7F8C03107F1A402FA
:102BE00012689A4220D00EF0EFFD0246D7F87431F9
:102BF00003FB02F303F112006B4907F1A4031A6807
:102C000013465B0013441B010B4408331B681B680D
:102C1000002B01D0674B00E0674B684A01466FF01C
:102C20007C0010F04DF841E0D7F8C03107F1A40264
:102C300012689A422AD1D7F8D011D7F8C80107F004
:102C40000DF80246574B9A4220D80EF0BDFD0246C1
:102C5000D7F8743103FB02F303F11200524907F174
:102C6000A4031A6813465B0013441B010B4408338A
:102C70001B681B68002B01D04E4B00E04E4B504AA6
:102C800001466FF07C0010F01BF80FE0D7F8D01170
:102C9000D7F8C80106F0E2FF0246454B9A4240F2DF
:102CA0009580D7F8C831C7F8D0318FE08EE0D7F8DB
:102CB0009C31002B06D0D7F8C03107F1A40212686E
:102CC0009A4227D00EF080FD0246D7F8743103FBFC
:102CD00002F303F11204344907F1A4031A681346FE
:102CE0005B0013441B010B4408331B6819682E4812
:102CF00007F1A4031A6813465B0013441B01034445
:102D00001C331B680B442F4A21466FF07C000FF0E8
:102D1000D7FF5CE0D7F8C03107F1A40212689A42ED
:102D200031D1D7F8D011D7F8C80106F097FF024685
:102D30001C4B9A4227D80EF047FD0246D7F8743153
:102D400003FB02F303F11204174907F1A4031A6805
:102D500013465B0013441B010B4408331B681968BE
:102D6000114807F1A4031A6813465B0013441B01C2
:102D700003441C331B680B44134A21466FF07C004C
:102D80000FF09EFF23E0D7F8D011D7F8C80106F066
:102D900065FF0246064B9A4219D9D7F8C831C7F8E1
:102DA000D03114E01FA107002C73010868710108DD
:102DB00000350C0070710108747101087871010808
:102DC0007C710108FC7001080071010800BFD7F890
:102DD00074310133C7F87431D7F87431052B7FF79C
:102DE000AAAD06F0DFFFA24B1B78DBB2002B20D090
:102DF0000023C7F8D831D7F89C31002B07D1012325
:102E0000C7F89C31D7F8C831C7F8D03102E00023A9
:102E1000C7F89C31974B00221A70974B00221A700A
:102E2000964B00221A70964B00221A70904B00228B
:102E30001A70944B1B78DBB2002B18D00023C7F814
:102E4000D831D7F89C31002B02D00023C7F89C3131
:102E5000884B00221A70884B00221A70874B002280
:102E60001A70874B00221A70864B00221A70834B0F
:102E70001B78DBB2002B0BD1834B1B78DBB2002B12
:102E800000F04A81814B1B68B3F5C87F40F2448152
:102E90000023C7F8D8317D4B1B68642B04D97B4BCA
:102EA0001B68643B794A1360D7F89C31002B00F013
:102EB0003381774B1B78DBB2002B00F026817549FC
:102EC000D7F8C02113465B0013441B010B440C339D
:102ED0001B68002B7AD06F49D7F8C02113465B00DE
:102EE00013441B010B440C331B6893ED007A6949B2
:102EF000D7F8C02113465B0013441B010B44183361
:102F0000D3ED007A37EE677A6249D7F8C0211346CD
:102F10005B0013441B010B4410331B6807EE903A0F
:102F2000F8EEE77AB4EEE77AF1EE10FA1AD55949DD
:102F3000D7F8C02113465B0013441B010B44103328
:102F400018685449D7F8C02113465B0013441B018D
:102F50000B440C331B6807EE900AF8EEE77AC3EDDA
:102F6000007A24E04B49D7F8C02113465B00134494
:102F70001B010B440C331B6893ED007A4549D7F8CD
:102F8000C02113465B0013441B010B441833D3EDDF
:102F9000007A4049D7F8C02113465B0013441B0157
:102FA0000B440C331B6877EE677AC3ED007A39491E
:102FB000D7F8C02113465B0013441B010B440C33AC
:102FC0001B6804211846FEF753F89EE03149D7F8F4
:102FD000C02113465B0013441B010B4408331B68DC
:102FE000002B00F092802B49D7F8C02113465B00DC
:102FF00013441B010B4408331B681B6807EE903A0F
:10300000B8EEE77A2349D7F8C02113465B00134492
:103010001B010B441833D3ED007A37EE677A1D4954
:10302000D7F8C02113465B0013441B010B44103337
:103030001B6807EE903AF8EEE77AB4EEE77AF1EE25
:1030400010FA29D51349D7F8C02113465B00134461
:103050001B010B44083319680E48D7F8C0211346EA
:103060005B0013441B01034410331B680B603EE0FC
:10307000E8590120E6590120E7590120E4590120CF
:10308000E5590120E9590120C4590120CC590120FA
:103090007E6900202C730108A049D7F8C02113468F
:1030A0005B0013441B010B4408331B681B6807EECD
:1030B000903AB8EEE77A9949D7F8C02113465B00F9
:1030C00013441B010B441833D3ED007A77EE677A73
:1030D0009249D7F8C02113465B0013441B010B44EF
:1030E00008331B68FDEEE77A17EE902A1A608B49C9
:1030F000D7F8C02113465B0013441B010B4408336F
:103100001B6804211846FDF7B3FFD7F8C831C7F88C
:10311000D031834B00221A70824B1B78DBB2002B1C
:103120000BD1814B1B78DBB2002B00F043817F4B2E
:103130001B68B3F5C87F40F23D810023C7F8D83142
:103140007A4B1B68642B04D9784B1B68643B774A25
:103150001360D7F89C31002B00F02C81744B1B7846
:10316000DBB2002B00F01F816C49D7F8C021134659
:103170005B0013441B010B440C331B68002B7AD0FB
:103180006649D7F8C02113465B0013441B010B446A
:103190000C331B6893ED007A6049D7F8C0211346C1
:1031A0005B0013441B010B441833D3ED007A37EE58
:1031B000277A5A49D7F8C02113465B0013441B01F4
:1031C0000B4414331B6807EE903AF8EEE77AB4EE3E
:1031D000E77AF1EE10FA1ADD5049D7F8C02113460C
:1031E0005B0013441B010B44143318684B49D7F898
:1031F000C02113465B0013441B010B440C331B68B6
:1032000007EE900AF8EEE77AC3ED007A24E043492E
:10321000D7F8C02113465B0013441B010B440C3349
:103220001B6893ED007A3D49D7F8C02113465B0037
:1032300013441B010B441833D3ED007A3749D7F8F8
:10324000C02113465B0013441B010B440C331B6865
:1032500077EE277AC3ED007A3049D7F8C0211346BC
:103260005B0013441B010B440C331B6804211846FC
:10327000FDF7FEFE97E02949D7F8C02113465B0011
:1032800013441B010B4408331B68002B00F08B8098
:103290002249D7F8C02113465B0013441B010B449D
:1032A00008331B681B6807EE903AB8EEE77A1B49B3
:1032B000D7F8C02113465B0013441B010B4418339D
:1032C000D3ED007A37EE277A1449D7F8C021134698
:1032D0005B0013441B010B4414331B6807EE903A48
:1032E000F8EEE77AB4EEE77AF1EE10FA22DD0B4958
:1032F000D7F8C02113465B0013441B010B4408336D
:1033000019680648D7F8C02113465B0013441B0117
:10331000034414331B680B6037E000BF2C730108B3
:10332000E4590120E5590120C5590120D059012057
:103330007E690020B249D7F8C02113465B001344D0
:103340001B010B4408331B681B6807EE903AB8EE6C
:10335000E77AAB49D7F8C02113465B0013441B0141
:103360000B441833D3ED007A77EE277AA449D7F8C7
:10337000C02113465B0013441B010B4408331B6838
:10338000FDEEE77A17EE902A1A609D49D7F8C02122
:1033900013465B0013441B010B4408331B680421D4
:1033A0001846FDF765FED7F8C831C7F8D031954B00
:1033B00000221A70944B1B78DBB2002B25D000231F
:1033C000C7F8D831D7F89C31002B1BD0D7F8C031C3
:1033D0000133C7F8C031D7F8C0310E2B02D90E2304
:1033E000C7F8C031D7F8BC311A1DD7F8C0319A429E
:1033F00004D2D7F8C031043BC7F8BC31D7F8C83184
:10340000C7F8D031804B00221A70804B1B78DBB29A
:10341000002B23D00023C7F8D831D7F89C31002BDC
:1034200019D0D7F8C031013BC7F8C031D7F8C03147
:10343000002B02DA0023C7F8C031D7F8C031D7F823
:10344000BC219A4203D9D7F8C031C7F8BC31D7F8AC
:10345000C831C7F8D0316D4B00221A70694B1B7808
:10346000DBB2002B10D0D7F89C31002B0CD1654B70
:1034700000221A70664B1B78DBB20133DAB2644B60
:103480001A7000BF04F07CBD624B1B78DBB2002BCE
:1034900004F07685D7F89C31002B44F071855D4BA4
:1034A00000221A705A4B1B78DBB2013BDAB2584B40
:1034B0001A7004F065BDD7F8D811D7F8C80106F026
:1034C000CDFB0246544B9A4240F22282D7F8C831D3
:1034D000C7F8D83106F0F2FC012300934023802284
:1034E0000021002006F0D5FD4C480EF0C7F94C4AEB
:1034F000022100200FF0E4FB01230093012380222E
:103500000F21002006F0C5FD46480EF0B7F9002354
:10351000C7F87031F5E1D7F8702107F1A403D7F8A7
:10352000BC110A441A6007F1A4031B68042B00F2C3
:10353000E3813D4907F1A4031A6813465B00134475
:103540001B010B440C331B68002B00F0CA800EF0EB
:103550003BF90246D7F8703103FB02F303F1120086
:10356000314907F1A4031A6813465B0013441B0199
:103570000B441B682D4A014603200FF0A1FBD7F82E
:103580009C31002B06D0D7F8C03107F1A402126895
:103590009A424FD00EF018F90246D7F8703103FB6B
:1035A00002F303F11205204907F1A4031A68134638
:1035B0005B0013441B010B440C331B6893ED007A32
:1035C000194907F1A4031A6813465B0013441B0151
:1035D0000B441C331B6807EE903AF8EEE77A77EE5F
:1035E000277A17EE900AFCF7D7FF03460C46CDE981
:1035F00000340F4A29466FF07C000FF061FB7BE13D
:103600002C730108E5590120E7590120E6590120F2
:103610005C690020E4590120F0490200E02C002000
:1036200084710108D02C0020FC750108EC700108A1
:1036300060710108D7F8C03107F1A40212689A42FC
:103640003FD1D7F8D011D7F8C80106F007FB0246E2
:10365000B94B9A4235D80EF0B7F80246D7F8703118
:1036600003FB02F303F11205B44907F1A4031A683E
:1036700013465B0013441B010B440C331B6893ED92
:10368000007AAE4907F1A4031A6813465B0013449D
:103690001B010B441C331B6807EE903AF8EEE77AE7
:1036A00077EE277A17EE900AFCF776FF03460C4672
:1036B000CDE90034A24A29466FF07C000FF000FBF0
:1036C0001AE1D7F8D011D7F8C80106F0C7FA0246B8
:1036D0009C4B9A4240F21081D7F8C831C7F8D031DC
:1036E0000AE1964907F1A4031A6813465B001344E4
:1036F0001B010B4408331B68002B00F093800EF075
:1037000063F80246D7F8703103FB02F303F11200AD
:103710008A4907F1A4031A6813465B0013441B018E
:103720000B441B68884A014603200FF0C9FAD7F8FA
:103730009C31002B06D0D7F8C03107F1A4021268E3
:103740009A4227D00EF040F80246D7F8703103FBBA
:1037500002F303F11204794907F1A4031A6813462E
:103760005B0013441B010B4408331B681968734842
:1037700007F1A4031A6813465B0013441B010344BA
:103780001C331B680B44714A21466FF07C000FF01C
:1037900097FAB1E0D7F8C03107F1A40212689A4253
:1037A00031D1D7F8D011D7F8C80106F057FA024640
:1037B000614B9A4227D80EF007F80246D7F87031CD
:1037C00003FB02F303F112045C4907F1A4031A6836
:1037D00013465B0013441B010B4408331B68196834
:1037E000564807F1A4031A6813465B0013441B01F3
:1037F00003441C331B680B44554A21466FF07C0080
:103800000FF05EFA78E0D7F8D011D7F8C80106F0CB
:1038100025FA02464B4B9A426ED9D7F8C831C7F801
:10382000D03169E0D7F89C31002B06D0D7F8C031F1
:1038300007F1A40212689A4218D00DF0C5FF0246A3
:10384000D7F8703103FB02F303F112003B4907F193
:10385000A4031A6813465B0013441B010B441B6846
:103860003C4A014603200FF02BFA45E0D7F8C0315F
:1038700007F1A40212689A4230D1D7F8D011D7F8D4
:10388000C80106F0EBF902462B4B9A4226D80DF000
:103890009BFF0246D7F8703103FB02F303F11200DD
:1038A000264907F1A4031A6813465B0013441B0161
:1038B0000B441B68274A014603200FF001FA0DF064
:1038C00083FF0246D7F8703103FB02F31233224A1A
:1038D00019466FF07C000FF0F3F90DE0D7F8D01126
:1038E000D7F8C80106F0BAF90246164B9A4203D936
:1038F000D7F8C831C7F8D031D7F870310133C7F8DD
:103900007031D7F87031052B7FF705AE06F04AFA13
:10391000124B1B78DBB2002B67D00023C7F8D831DD
:10392000D7F89C31002B1BD10123C7F89C31D7F865
:10393000C831C7F8D03146E01FA10700FC75010867
:103940006871010800350C00EC700108FC7001087A
:10395000007101087871010894710108E85901208B
:10396000BA49D7F8C02113465B0013441B010B442E
:103970000C331B68002B23D1B449D7F8C021134660
:103980005B0013441B010B4408331B68002B17D149
:10399000AE49D7F8C02113465B0013441B010B440A
:1039A00024331B78002B0BD0A849D7F8C02113462D
:1039B0005B0013441B010B4424331A78A44B1A7088
:1039C0000023C7F89C31A34B00221A70A24B00229F
:1039D0001A70A24B00221A70A14B00221A70A14B40
:1039E00000221A70A04B00221A709F4B1B78DBB28A
:1039F000002B18D00023C7F8D831D7F89C31002B02
:103A000002D00023C7F89C31924B00221A70924BCF
:103A100000221A70914B00221A70914B00221A70EA
:103A2000914B00221A708D4B1B78DBB2002B0BD10F
:103A30008E4B1B78DBB2002B00F05E818C4B1B6839
:103A4000B3F5C87F40F258810023C7F8D831884BBE
:103A50001B68642B04D9864B1B68643B844A136043
:103A6000D7F89C31002B00F04781824B1B78DBB2EA
:103A7000002B00F03A817549D7F8C02113465B004E
:103A800013441B010B441833D3ED007AF5EEC07AD2
:103A9000F1EE10FA40F329816C49D7F8C0211346A2
:103AA0005B0013441B010B440C331B68002B7AD0C2
:103AB0006649D7F8C02113465B0013441B010B4431
:103AC0000C331B6893ED007A6049D7F8C021134688
:103AD0005B0013441B010B441833D3ED007A37EE1F
:103AE000677A5A49D7F8C02113465B0013441B017B
:103AF0000B4410331B6807EE903AF8EEE77AB4EE09
:103B0000E77AF1EE10FA1AD55049D7F8C0211346DA
:103B10005B0013441B010B44103318684B49D7F862
:103B2000C02113465B0013441B010B440C331B687C
:103B300007EE900AF8EEE77AC3ED007A24E04349F5
:103B4000D7F8C02113465B0013441B010B440C3310
:103B50001B6893ED007A3D49D7F8C02113465B00FE
:103B600013441B010B441833D3ED007A3749D7F8BF
:103B7000C02113465B0013441B010B440C331B682C
:103B800077EE677AC3ED007A3049D7F8C021134643
:103B90005B0013441B010B440C331B6804211846C3
:103BA000FDF766FAA1E02949D7F8C02113465B006A
:103BB00013441B010B4408331B68002B00F0958055
:103BC0002249D7F8C02113465B0013441B010B4464
:103BD00008331B681B6807EE903AB8EEE77A1B497A
:103BE000D7F8C02113465B0013441B010B44183364
:103BF000D3ED007A37EE677A1449D7F8C02113461F
:103C00005B0013441B010B4410331B6807EE903A12
:103C1000F8EEE77AB4EEE77AF1EE10FA2CD50B491C
:103C2000D7F8C02113465B0013441B010B44083333
:103C300019680648D7F8C02113465B0013441B01DE
:103C4000034410331B680B6041E000BFFC750108A2
:103C50005C690020E6590120E7590120E459012060
:103C6000E5590120E8590120E9590120C4590120F2
:103C7000CC5901207E690020A849D7F8C0211346FD
:103C80005B0013441B010B4408331B681B6807EEE1
:103C9000903AB8EEE77AA149D7F8C02113465B0005
:103CA00013441B010B441833D3ED007A77EE677A87
:103CB0009A49D7F8C02113465B0013441B010B44FB
:103CC00008331B68FDEEE77A17EE902A1A609349D5
:103CD000D7F8C02113465B0013441B010B44083383
:103CE0001B6804211846FDF7C3F9D7F8C831C7F897
:103CF000D0318B4B00221A708A4B1B78DBB2002B21
:103D00000BD1894B1B78DBB2002B00F05381874B22
:103D10001B68B3F5C87F40F24D810023C7F8D83146
:103D2000824B1B68642B04D9804B1B68643B7F4A21
:103D30001360D7F89C31002B00F03C817C4B1B7842
:103D4000DBB2002B00F02F817449D7F8C021134655
:103D50005B0013441B010B441833D3ED007AF5EEDE
:103D6000C07AF1EE10FA40F31E816C49D7F8C021F9
:103D700013465B0013441B010B440C331B68002BE0
:103D80007AD06649D7F8C02113465B0013441B0163
:103D90000B440C331B6893ED007A6049D7F8C021BF
:103DA00013465B0013441B010B441833D3ED007A18
:103DB00037EE277A5949D7F8C02113465B001344E0
:103DC0001B010B4414331B6807EE903AF8EEE77AB8
:103DD000B4EEE77AF1EE10FA1ADD5049D7F8C021B7
:103DE00013465B0013441B010B44143318684B4902
:103DF000D7F8C02113465B0013441B010B440C335E
:103E00001B6807EE900AF8EEE77AC3ED007A24E02B
:103E10004249D7F8C02113465B0013441B010B44F1
:103E20000C331B6893ED007A3C49D7F8C021134648
:103E30005B0013441B010B441833D3ED007A374960
:103E4000D7F8C02113465B0013441B010B440C330D
:103E50001B6877EE277AC3ED007A3049D7F8C02186
:103E600013465B0013441B010B440C331B680421F5
:103E70001846FDF7FDF896E02849D7F8C02113460B
:103E80005B0013441B010B4408331B68002B00F03C
:103E90008A802249D7F8C02113465B0013441B01D6
:103EA0000B4408331B681B6807EE903AB8EEE77ABC
:103EB0001A49D7F8C02113465B0013441B010B4479
:103EC0001833D3ED007A37EE277A1449D7F8C0219A
:103ED00013465B0013441B010B4414331B6807EEAD
:103EE000903AF8EEE77AB4EEE77AF1EE10FA21DDD7
:103EF0000A49D7F8C02113465B0013441B010B4449
:103F0000083319680548D7F8C02113465B001344ED
:103F10001B01034414331B680B6036E0FC75010879
:103F2000E4590120E5590120C5590120D05901204B
:103F30007E690020BE49D7F8C02113465B001344B8
:103F40001B010B4408331B681B6807EE903AB8EE60
:103F5000E77AB749D7F8C02113465B0013441B0129
:103F60000B441833D3ED007A77EE277AB049D7F8AF
:103F7000C02113465B0013441B010B4408331B682C
:103F8000FDEEE77A17EE902A1A60A949D7F8C0210A
:103F900013465B0013441B010B4408331B680421C8
:103FA0001846FDF765F8D7F8C831C7F8D031A14BEE
:103FB00000221A70A04B1B78DBB2002B25D0002307
:103FC000C7F8D831D7F89C31002B1BD0D7F8C031B7
:103FD0000133C7F8C031D7F8C031042B02D904230C
:103FE000C7F8C031D7F8BC311A1DD7F8C0319A4292
:103FF00004D2D7F8C031043BC7F8BC31D7F8C83178
:10400000C7F8D0318C4B00221A708C4B1B78DBB276
:10401000002B23D00023C7F8D831D7F89C31002BD0
:1040200019D0D7F8C031013BC7F8C031D7F8C0313B
:10403000002B02DA0023C7F8C031D7F8C031D7F817
:10404000BC219A4203D9D7F8C031C7F8BC31D7F8A0
:10405000C831C7F8D031794B00221A70754B1B78E4
:10406000DBB2002B10D0D7F89C31002B0CD1714B58
:1040700000221A70724B1B78DBB20133DAB2704B3C
:104080001A7000BF03F07FBF6E4B1B78DBB2002BB2
:1040900003F07987D7F89C31002B43F07487694B84
:1040A00000221A70664B1B78DBB2013BDAB2644B1C
:1040B0001A7003F068BFD7F8D811D7F8C80105F017
:1040C000CDFD0246604B9A4240F27883D7F8C83162
:1040D000C7F8D83105F0F2FE012300934023802277
:1040E0000021002005F0D5FF58480DF0C7FB584AC5
:1040F000022100200EF0E4FD012300930123802221
:104100000F21002005F0C5FF52480DF0B7FB00233A
:10411000C7F86C314BE3D7F86C2107F1A403D7F84B
:10412000BC110A441A6007F1A4031B68082B00F2B3
:1041300039830DF049FB0246D7F86C3103FB02F3DB
:1041400003F11200444907F1A4031A6813465B0007
:1041500013441B010B441B68404A014603200EF028
:10416000AFFD3D4907F1A4031A6813465B001344F1
:104170001B010B440C331B68002B00F0E380D7F8C5
:104180009C31002B06D0D7F8C03107F1A402126889
:104190009A4269D00DF018FB0246D7F86C3103FB48
:1041A00002F303F112052C4907F1A4031A68134620
:1041B0005B0013441B010B440C331B681A46284B4D
:1041C0001B68194640F66C4303FB01F3134493ED5F
:1041D000007A214907F1A4031A6813465B001344CF
:1041E0001B010B441C331B6807EE903AF8EEE77A8C
:1041F00037EE277A184907F1A4031A6813465B00C3
:1042000013441B010B442033D3ED007A67EE277A69
:1042100017EE900AFCF7C0F903460C46CDE90034CE
:10422000104A29466FF07C000EF04AFDBAE200BF4A
:10423000FC750108E5590120E7590120E6590120E4
:104240005C690020E4590120F0490200E02C0020C4
:1042500098710108D02C00206C780108EC700108DE
:10426000AC590120A8710108D7F8C03107F1A402A8
:1042700012689A4256D1D7F8D011D7F8C80105F084
:10428000EDFC0246CD4B9A424CD80DF09DFA024609
:10429000D7F86C3103FB02F303F11205C84907F1AB
:1042A000A4031A6813465B0013441B010B440C3330
:1042B0001B681A46C34B1B68194640F66C4303FB48
:1042C00001F3134493ED007ABD4907F1A4031A6882
:1042D00013465B0013441B010B441C331B6807EEA1
:1042E000903AF8EEE77A37EE277AB54907F1A4035A
:1042F0001A6813465B0013441B010B442033D3EDB3
:10430000007A67EE277A17EE900AFCF745F9034624
:104310000C46CDE90034AC4A29466FF07C000EF023
:10432000CFFC3FE2D7F8D011D7F8C80105F096FCD2
:104330000246A64B9A4240F23582D7F8C831C7F8F8
:10434000D0312FE29E4907F1A4031A6813465B009F
:1043500013441B010B4408331B68002B00F0C6807C
:10436000D7F89C31002B06D0D7F8C03107F1A40252
:1043700012689A424CD00DF027FA0246D7F86C31F9
:1043800003FB02F303F112048D4907F1A4031A6839
:1043900013465B0013441B010B4408331B681A4689
:1043A000884B1B68194640F66C4303FB01F313442A
:1043B0001968834807F1A4031A6813465B00134485
:1043C0001B0103441C331B680B4407EE903AB8EE04
:1043D000E77A7B4907F1A4031A6813465B0013448C
:1043E0001B010B442033D3ED007A67EE277AB0EE41
:1043F000670A12F0B9FAF0EE407AFDEEE77A17EEAE
:10440000903A734A21466FF07C000EF059FCC9E1E6
:10441000D7F8C03107F1A40212689A4256D1D7F8F2
:10442000D011D7F8C80105F019FC0246634B9A4237
:104430004CD80DF0C9F90246D7F86C3103FB02F3F2
:1044400003F112045E4907F1A4031A6813465B00E6
:1044500013441B010B4408331B681A46594B1B6855
:10446000194640F66C4303FB01F3134419685448A2
:1044700007F1A4031A6813465B0013441B010344AD
:104480001C331B680B4407EE903AB8EEE77A4C49B0
:1044900007F1A4031A6813465B0013441B010B4485
:1044A0002033D3ED007A67EE277AB0EE670A12F078
:1044B0005BFAF0EE407AFDEEE77A17EE903A454A65
:1044C00021466FF07C000EF0FBFB6BE1D7F8D011BA
:1044D000D7F8C80105F0C2FB02463C4B9A4240F2B5
:1044E0006181D7F8C831C7F8D0315BE1D7F89C318A
:1044F000002B06D0D7F8C03107F1A40212689A4207
:1045000023D00DF061F90246D7F86C3103FB02F3BA
:1045100003F112002A4907F1A4031A6813465B004D
:1045200013441B010B4404331B681A46254B1B68BC
:10453000194640F66C4303FB01F31344264A014637
:104540006FF07C000EF0BCFB2CE1D7F89C31012B06
:1045500046D1D7F8C03107F1A40212689A423FD180
:10456000D7F8D011D7F8C80105F078FB0246134BF5
:104570009A4235D80DF028F90246D7F86C3103FB82
:1045800002F303F112000E4907F1A4031A6813465F
:104590005B0013441B010B4404331B681A46094B90
:1045A0001B68194640F66C4303FB01F313440B4AA6
:1045B00001466FF07C000EF083FBF3E01FA10700C3
:1045C0006C780108AC590120B071010800350C006D
:1045D000FC70010800710108787101087C71010804
:1045E000D7F8C03107F1A40212689A425FD1D7F818
:1045F000D011D7F8C80105F031FB0246CF4B9A42E3
:1046000055D80023C7F868310023C7F86431002368
:10461000C7F8603146E007F1570307F12401D7F8E6
:1046200060210A4412781A70D7F86831A3F17D042A
:104630000DF0CAF80246D7F86C3103FB02F303F120
:10464000120107F157031B78BD4A20460EF038FBD4
:104650000246D7F868311344C7F86831D7F86021AB
:10466000D7F8A0319A4214D1D7F86831C3F17D044C
:104670000DF0AAF8034603F11101D7F86821D7F825
:104680006431D31A5A1E012300930123204605F0FA
:10469000A5FCD7F86831C7F86431D7F86031013329
:1046A000C7F86031D7F860310B2BB4DD7AE0D7F86A
:1046B0009C31022B68D10023C7F85C310023C7F876
:1046C00058310023C7F854315AE007F1560307F177
:1046D0002401D7F854210A4412781A70D7F85831B7
:1046E000A3F17D040DF070F80246D7F86C3103FB9E
:1046F00002F303F1120107F156031B78904A20469A
:104700000EF0DEFA0246D7F85C311344C7F85C318C
:10471000D7F85421D7F8A0319A4228D1D7F85C3184
:10472000C3F17D04D7F85C21D7F85831D51A0DF0C4
:104730004BF802460023009313462A4612212046D6
:1047400005F04CFCD7F85C31C3F17D040DF03CF86A
:10475000034603F11101D7F85C21D7F85831D31A79
:104760005A1E012300930123204605F037FCD7F899
:104770005C31C7F85831D7F854310133C7F8543198
:10478000D7F854310B2BA0DDD7F8D011D7F8C801DA
:1047900005F064FA02466B4B9A4203D9D7F8C83148
:1047A000C7F8D031D7F86C310133C7F86C31D7F87E
:1047B0006C31052B7FF7AFAC05F0F4FA624B1B7838
:1047C000DBB2002B00F0DE800023C7F8D831D7F829
:1047D0009C31002B07D10123C7F89C31D7F8C83191
:1047E000C7F8D031BFE0D7F89C31012B40F0B4803E
:1047F000D7F8C831C7F8D0310223C7F89C3107F188
:1048000024030C22202118460EF037FB07F10C037D
:104810001822002118460EF030FB0023C7F8503153
:1048200083E04A49D7F8C02113465B0013441B01BB
:104830000B4404331B681A46454B1B68194640F667
:104840006C4303FB01F31A44D7F85031D31A0B33EE
:104850001B78002B64D0D7F85031C7F84C315AE0A0
:104860003A49D7F8C02113465B0013441B010B449F
:1048700004331B681A46364B1B68194640F66C43D6
:1048800003FB01F31A44D7F84C31D31A0B331A4601
:1048900007F1550312781A70002387F84B31002373
:1048A000C7F8443114E02B4B1A68D7F8443113444D
:1048B0001B7807F1550212789A4204D1D7F8443197
:1048C00087F84B310BE0D7F844310133C7F8443156
:1048D00007F1A2031B88D7F844219A42E3DBD7F8FB
:1048E0004C21D7F85031D31A07F1240207F15501B2
:1048F0000978D154D7F84C21D7F85031D21A97F80B
:104900004B3119B207F10C0323F81210D7F84C31D0
:104910000133C7F84C31D7F84C310B2BA0DD09E03F
:10492000D7F850310133C7F85031D7F850310B2B3D
:104930007FF777AF0023C7F8A03114E01FA107006D
:10494000B871010800350C00E85901206C780108A5
:10495000AC590120D0040020D7F89C31022B02D1A1
:104960000123C7F89C31D04B00221A70CF4B002294
:104970001A70CF4B00221A70CE4B00221A70CE4B09
:1049800000221A70CD4B1B78DBB2002B00F09B800D
:104990000023C7F8D831D7F89C31002B00F0848071
:1049A000D7F89C31022B76D1C549D7F8C0211346E0
:1049B0005B0013441B010B4404331B681A46C14BB4
:1049C0001B68194640F66C4303FB01F313440C22A9
:1049D000002118460EF051FA0023C7F840313FE09D
:1049E000D7F84031C3F10B0307F12402D35C202B2D
:1049F00031D0D7F84031C7F83C3127E0D7F83C3107
:104A0000C3F10B01D7F83C21D7F84031D31A1C462B
:104A1000AB48D7F8C02113465B0013441B01034485
:104A200004331B681A46A74B1B68184640F66C43B4
:104A300003FB00F3134423441A4607F124035B5C91
:104A40001370D7F83C310133C7F83C31D7F83C310B
:104A50000B2BD3DD08E0D7F840310133C7F84031E4
:104A6000D7F840310B2BBBDD9549D7F8C021134651
:104A70005B0013441B010B4404331B681A46914B23
:104A80001B68194640F66C4303FB01F313440C21E9
:104A90001846FCF7EDFAD7F8C831C7F8D031D7F887
:104AA0009C31013BC7F89C317F4B00221A707F4B31
:104AB00000221A707E4B00221A707E4B00221A7060
:104AC0007E4B00221A707A4B1B78DBB2002B0BD185
:104AD0007D4B1B78DBB2002B00F0CB817B4B1B683E
:104AE000B3F5C87F40F2C5810023C7F8D831774BB2
:104AF0001B68642B04D9754B1B68643B734A1360B5
:104B0000D7F89C31002B00F0B481D7F89C31012BF1
:104B100040F098816E4B1B78DBB2002B00F0A28135
:104B20006749D7F8C02113465B0013441B010B44AF
:104B30001833D3ED007AF5EE407AF1EE10FA00F07A
:104B400091815F49D7F8C02113465B0013441B01D4
:104B50000B440C331B68002B00F0BC805849D7F87D
:104B6000C02113465B0013441B010B440C331B682C
:104B70001A46544B1B68194640F66C4303FB01F37D
:104B8000134493ED007A4E49D7F8C02113465B00D9
:104B900013441B010B441833D3ED007A37EE677AC8
:104BA0004749D7F8C02113465B0013441B010B444F
:104BB00010331B6807EE903AF8EEE77AB4EEE77A26
:104BC000F1EE10FA23D53E49D7F8C02113465B0019
:104BD00013441B010B44103318683949D7F8C0211E
:104BE00013465B0013441B010B440C331B681A462D
:104BF000344B1B68194640F66C4303FB01F3134426
:104C000007EE900AF8EEE77AC3ED007A34E02C491B
:104C1000D7F8C02113465B0013441B010B440C332F
:104C20001B681A46274B1868014640F66C4303FB85
:104C300001F3134493ED007A2149D7F8C0211346BC
:104C40005B0013441B010B441833D3ED007A1C495D
:104C5000D7F8C02113465B0013441B010B440C33EF
:104C60001B681A46014640F66C4303FB01F31344EC
:104C700077EE677AC3ED007A1149D7F8C021134661
:104C80005B0013441B010B440C331B681A460D4B8D
:104C90001B68194640F66C4303FB01F313440421DF
:104CA0001846FCF7E5F9DDE0E6590120E759012057
:104CB000E4590120E5590120E8590120E959012072
:104CC0006C780108AC590120C4590120CC5901204D
:104CD0007E690020B949D7F8C02113465B00134410
:104CE0001B010B4408331B68002B00F0BB80B34949
:104CF000D7F8C02113465B0013441B010B44083353
:104D00001B681A46AE4B1B68194640F66C4303FB02
:104D100001F313441B6807EE903AB8EEE77AA7490F
:104D2000D7F8C02113465B0013441B010B44183312
:104D3000D3ED007A37EE677AA049D7F8C021134641
:104D40005B0013441B010B4410331B6807EE903AC1
:104D5000F8EEE77AB4EEE77AF1EE10FA1FD597494C
:104D6000D7F8C02113465B0013441B010B440833E2
:104D70001B681A46924B1B68194640F66C4303FBAE
:104D800001F3134418468D49D7F8C02113465B0040
:104D900013441B010B4410331B6803603AE087493E
:104DA000D7F8C02113465B0013441B010B440833A2
:104DB0001B681A46824B1868014640F66C4303FB99
:104DC00001F313441B6807EE903AB8EEE77A7B498B
:104DD000D7F8C02113465B0013441B010B44183362
:104DE000D3ED007A77EE677A7449D7F8C02113467D
:104DF0005B0013441B010B4408331B681A46014631
:104E000040F66C4303FB01F31344FDEEE77A17EE23
:104E1000902A1A606949D7F8C02113465B001344F1
:104E20001B010B4408331B681A46654B1B68194667
:104E300040F66C4303FB01F3134404211846FCF7CE
:104E400017F90FE0D7F89C31022B0BD1D7F8A0311E
:104E50000133C7F8A031D7F8A0310A2B02DD0A23AD
:104E6000C7F8A031D7F8C831C7F8D031554B002268
:104E70001A70554B1B78DBB2002B0BD1534B1B78B0
:104E8000DBB2002B00F0C481514B1B68B3F5C87F27
:104E900040F2BE810023C7F8D8314D4B1B68642B0C
:104EA00004D94B4B1B68643B494A1360D7F89C31CB
:104EB000002B00F0AD81D7F89C31012B40F091819F
:104EC000444B1B78DBB2002B00F09B813B49D7F8A9
:104ED000C02113465B0013441B010B441833D3ED70
:104EE000007AF5EE407AF1EE10FA00F08A8133494B
:104EF000D7F8C02113465B0013441B010B440C334D
:104F00001B68002B00F0B5802C49D7F8C021134650
:104F10005B0013441B010B440C331B681A46284BDF
:104F20001B68194640F66C4303FB01F3134493EDF1
:104F3000007A2249D7F8C02113465B0013441B01B5
:104F40000B441833D3ED007A37EE277A1B49D7F894
:104F5000C02113465B0013441B010B4414331B6830
:104F600007EE903AF8EEE77AB4EEE77AF1EE10FA4F
:104F700032DD1249D7F8C02113465B0013441B01F0
:104F80000B44143318680D49D7F8C02113465B0051
:104F900013441B010B440C331B681A46084B1B6857
:104FA000194640F66C4303FB01F3134407EE900AE5
:104FB000F8EEE77AC3ED007A43E000BF6C780108B1
:104FC000AC590120E4590120E5590120C5590120BF
:104FD000D05901207E690020D749D7F8C021134657
:104FE0005B0013441B010B440C331B681A46D34B64
:104FF0001868014640F66C4303FB01F3134493ED3C
:10500000007ACD49D7F8C02113465B0013441B0139
:105010000B441833D3ED007AC749D7F8C0211346A3
:105020005B0013441B010B440C331B681A460146FA
:1050300040F66C4303FB01F3134477EE277AC3ED8C
:10504000007ABD49D7F8C02113465B0013441B0109
:105050000B440C331B681A46B84B1B68194640F6C4
:105060006C4303FB01F3134404211846FCF700F8DA
:10507000C7E0B149D7F8C02113465B0013441B01B8
:105080000B4408331B68002B00F0BB80AA49D7F8FB
:10509000C02113465B0013441B010B4408331B68FB
:1050A0001A46A64B1B68194640F66C4303FB01F3F6
:1050B00013441B6807EE903AB8EEE77A9E49D7F89A
:1050C000C02113465B0013441B010B441833D3ED7E
:1050D000007A37EE277A9849D7F8C02113465B004B
:1050E00013441B010B4414331B6807EE903AF8EE8F
:1050F000E77AB4EEE77AF1EE10FA1FDD8E49D7F8C1
:10510000C02113465B0013441B010B4408331B688A
:105110001A468A4B1B68194640F66C4303FB01F3A1
:10512000134418468449D7F8C02113465B00134442
:105130001B010B4414331B6803603AE07E49D7F827
:10514000C02113465B0013441B010B4408331B684A
:105150001A467A4B1868014640F66C4303FB01F38C
:1051600013441B6807EE903AB8EEE77A7249D7F815
:10517000C02113465B0013441B010B441833D3EDCD
:10518000007A77EE277A6C49D7F8C02113465B0086
:1051900013441B010B4408331B681A46014640F6B2
:1051A0006C4303FB01F31344FDEEE77A17EE902AFC
:1051B0001A606149D7F8C02113465B0013441B01F4
:1051C0000B4408331B681A465C4B1B68194640F6B3
:1051D0006C4303FB01F3134404211846FBF748FF1B
:1051E0000FE0D7F89C31022B0BD1D7F8A031013B4F
:1051F000C7F8A031D7F8A031002B02DA0023C7F896
:10520000A031D7F8C831C7F8D0314D4B00221A7001
:105210004C4B1B78DBB2002B67D00023C7F8D8318A
:10522000D7F89C31012B1CD1D7F8C0310133C7F816
:10523000C031D7F8C031082B02D90823C7F8C031D4
:10524000D7F8BC311A1DD7F8C0319A4204D2D7F82A
:10525000C031043BC7F8BC31D7F8C831C7F8D031EA
:1052600040E0D7F89C31022B3CD1374B1B78DBB2A6
:10527000002B33D007F10C03D7F8A02133F91230FB
:105280009BB201339BB219B207F10C03D7F8A021EE
:1052900023F8121007F10C03D7F8A02133F91230CC
:1052A0001A4607F1A2031B889A4206DB07F10C039A
:1052B000D7F8A021002123F81210244B1B6807F116
:1052C0000C02D7F8A01132F911201344197807F114
:1052D0002402D7F8A03113440A461A70D7F8C8310F
:1052E000C7F8D031174B00221A70194B1B78DBB26C
:1052F000002B74D00023C7F8D831D7F89C31012B8C
:1053000028D1D7F8C031013BC7F8C031D7F8C03138
:10531000002B02DA0023C7F8C031D7F8C031D7F824
:10532000BC219A4203D9D7F8C031C7F8BC31D7F8AD
:10533000C831C7F8D0314FE06C780108AC59012072
:10534000E5590120E75901207E690020D0040020A2
:10535000E6590120D7F89C31022B3DD1C24B1B7876
:10536000DBB2002B34D007F10C03D7F8A02133F9BE
:1053700012309BB2013B9BB219B207F10C03D7F874
:10538000A02123F8121007F10C03D7F8A02133F95C
:105390001230002B0BDA07F1A2031B88013B9BB2F2
:1053A00019B207F10C03D7F8A02123F81210AF4B64
:1053B0001B6807F10C02D7F8A01132F91120134431
:1053C000197807F12402D7F8A03113440A461A705D
:1053D000D7F8C831C7F8D031A54B00221A70A54BB9
:1053E0001B78DBB2002B13D0D7F89C31002B0FD1E8
:1053F000A04B00221A70A04B1B78DBB20133DAB24B
:105400009D4B1A700023C7F8C03100BF02F0BEBD2B
:105410009A4B1B78DBB2002B02F0B885D7F89C3191
:10542000002B42F0B385954B00221A70924B1B78EB
:10543000DBB2013BDAB2904B1A700023C7F8C031DF
:1054400002F0A4BDD7F8D811D7F8C80104F006FCC3
:1054500002468B4B9A4240F23D81D7F8C831C7F8DB
:10546000D83104F02BFD012300934023802200213A
:10547000002004F00EFE83480CF000FA824A02215C
:1054800000200DF01DFC01230093012380220F2139
:10549000002004F0FEFD7D480CF0F0F90023C7F871
:1054A000383110E1D7F8382107F1A403D7F8BC113F
:1054B0000A441A6007F1A4031B68072B00F2FE8060
:1054C000D7F89C31002B06D0D7F8C03107F1A402E1
:1054D00012689A4253D06E4907F1A4031A68134622
:1054E0005B0013441B010B4408331B68002B2DD0B9
:1054F0000CF06AF90246D7F8383103FB02F303F1E6
:105500001200634907F1A4031A6813465B001344B1
:105510001B010B441C685E4907F1A4031A6813467B
:105520005B0013441B010B4408331B681A46594B9C
:105530001B68194640F66C4303FB01F313441B68D8
:105540002246014603200DF0BBFBB7E00CF03CF90E
:105550000246D7F8383103FB02F303F112004C493D
:1055600007F1A4031A6813465B0013441B010B44A4
:105570001B681A46014603200DF0A2FB9EE0D7F8F7
:10558000C03107F1A40212689A4240F08980D7F82E
:10559000D011D7F8C80104F061FB02463E4B9A4295
:1055A0007ED80CF011F90246D7F8383103FB02F32C
:1055B00012333A4A19466FF07C000DF081FB3449F2
:1055C00007F1A4031A6813465B0013441B010B4444
:1055D00008331B68002B2DD00CF0F6F80246D7F8E4
:1055E000383103FB02F303F11200294907F1A40348
:1055F0001A6813465B0013441B010B441C682449C2
:1056000007F1A4031A6813465B0013441B010B4403
:1056100008331B681A461F4B1B68194640F66C433B
:1056200003FB01F313441B682246014603200DF0DF
:1056300047FB43E00CF0C8F80246D7F8383103FBCB
:1056400002F303F11200124907F1A4031A6813468A
:105650005B0013441B010B441B681A4601460320E0
:105660000DF02EFB2AE000BF7E690020D004002050
:10567000E6590120E55901205C690020E459012028
:10568000F0490200E02C0020BC710108D02C002061
:10569000EC760108AC5901201FA1070094710108A4
:1056A000D7F8D011D7F8C80104F0D8FA0246C24B97
:1056B0009A4203D9D7F8C831C7F8D031D7F8383172
:1056C0000133C7F83831D7F83831052B7FF7EAAE08
:1056D00004F068FBB94B1B78DBB2002B3CD00023F5
:1056E000C7F8D831D7F89C31002B07D10123C7F870
:1056F0009C31D7F8C831C7F8D0311EE0D7F8C8318F
:10570000C7F8D031D7F8C02113465B0013441B0102
:10571000AB4A1344C7F89831D7F8983193F824204E
:10572000A84B1A70D7F898311B68C7F8943100233A
:10573000C7F8B4310023C7F8B831A34B00221A7060
:10574000A24B00221A70A24B00221A70A14B002219
:105750001A709A4B00221A709F4B1B78DBB2002BF9
:1057600018D00023C7F8D831D7F89C31002B02D0CD
:105770000023C7F89C31944B00221A70934B0022EF
:105780001A70934B00221A70924B00221A70924B9F
:1057900000221A708D4B1B78DBB2002B25D0002322
:1057A000C7F8D831D7F89C31002B1BD0D7F8C031BF
:1057B0000133C7F8C031D7F8C031072B02D907230E
:1057C000C7F8C031D7F8BC311A1DD7F8C0319A429A
:1057D00004D2D7F8C031043BC7F8BC31D7F8C83180
:1057E000C7F8D031794B00221A70774B1B78DBB2A7
:1057F000002B23D00023C7F8D831D7F89C31002BD9
:1058000019D0D7F8C031013BC7F8C031D7F8C03143
:10581000002B02DA0023C7F8C031D7F8C031D7F81F
:10582000BC219A4203D9D7F8C031C7F8BC31D7F8A8
:10583000C831C7F8D031644B00221A70654B1B7811
:10584000DBB2002B10D0D7F89C31002B0CD1614B70
:1058500000221A705B4B1B78DBB20133DAB2594B72
:105860001A7000BF02F095BB594B1B78DBB2002BBE
:1058700002F08F83D7F89C31002B42F08A83544B7F
:1058800000221A704F4B1B78DBB2013BDAB24D4B52
:105890001A7002F07EBBD7F8D811D7F8C80104F00F
:1058A000DDF902464D4B9A4240F20184D7F8C831E7
:1058B000C7F8D83104F002FB012300934023802273
:1058C0000021002004F0E5FB45480BF0D7FFD7F896
:1058D00098319B681A46434B1B68194640F66C4347
:1058E00003FB01F313441B68D7F894210221002025
:1058F0000DF0E6F901230093012380220F210020FF
:1059000004F0C7FB38480BF0B9FF0023C7F8343167
:1059100018E1D7F8342107F1A403D7F8B4110A44E9
:105920001A60D7F898319B681A462E4B1B681946A7
:1059300040F66C4303FB01F313441B681A4607F15E
:10594000A4031B68934280F0F880D7F89831DB6A93
:10595000002B4BD00BF038FF0246D7F8343103FB55
:1059600002F303F11205D7F898319E6A07F1A403F8
:105970001B6803F10108D7F89831DB6A1946194B07
:105980001B681A4640F21B3303FB02F207F1A40323
:105990001B6813449B000B441B681846FAF7FCFD78
:1059A00003460C46CDE900344346324629460320DF
:1059B0000DF086F92DE000BF00350C00E8590120FC
:1059C000EC7601085C690020E6590120E7590120C6
:1059D000E4590120E5590120E9590120F04902006C
:1059E000E02C0020AC590120D02C00200BF0ECFE64
:1059F0000246D7F8343103FB02F303F11201D7F862
:105A000098319A6A07F1A4031B68013303200DF053
:105A100057F9D7F8B83107F1A40212689A4236D084
:105A20000BF0D2FE0246D7F8343103FB02F303F148
:105A30001205D7F89831D3ED067AB7EE007AF4EE76
:105A4000C77AF1EE10FA01DBAA4E00E0AA4ED7F8B1
:105A50009831DB681946A94B1B681A4640F21B3384
:105A600003FB02F207F1A4031B6813449B000B44E1
:105A70001B681846FAF790FD03460C46CDE9003442
:105A8000324629466FF07C000DF01AF955E0D7F840
:105A9000B83107F1A40212689A4240D1D7F8D01168
:105AA000D7F8C80104F0DAF80246954B9A4236D886
:105AB0000BF08AFE0246D7F8343103FB02F303F100
:105AC0001205D7F89831D3ED067AB7EE007AF4EEE6
:105AD000C77AF1EE10FA01DB8A4E00E08A4ED7F861
