:020000040800F2
:10000000000004204DAC0008A1950008A795000849
:10001000AD950008B3950008B995000800000000F0
:1000200000000000000000000000000041EF000898
:10003000BF95000800000000E1EF0008CD95000822
:100040009DAC00089DAC00089DAC00089DAC00086C
:100050009DAC00089DAC00089DAC00089DAC00085C
:100060009DAC00089DAC00089DAC00089DAC00084C
:10007000E99500089DAC0008FD9500089DAC0008BE
:100080009DAC00089DAC0008119600089DAC0008CE
:100090009DAC00089DAC00089DAC00089DAC00081C
:1000A0009DAC00089DAC00089DAC00089DAC00080C
:1000B0009DAC00089DAC00089DAC00089DAC0008FC
:1000C0009DAC00089DAC00089DAC00089DAC0008EC
:1000D0009DAC0008259600089DAC000839960008E4
:1000E0009DAC00089DAC00089DAC00089DAC0008CC
:1000F0009DAC00089DAC00089DAC00089DAC0008BC
:100100009DAC00089DAC00089DAC00089DAC0008AB
:100110009DAC00089DAC00089DAC00084D96000801
:100120009DAC00089DAC0008619600089DAC0008DD
:100130009DAC00080000000000000000000000006E
:100140000000000000000000000000009DAC00085E
:100150009DAC00089DAC0008759600089DAC000899
:100160009DAC00089DAC00089DAC00089DAC00084B
:100170009DAC00089DAC00080000000000000000DD
:100180009DAC00089DAC00089DAC00089DAC00082B
:100190009DAC00089DAC0008000000009DAC00086C
:1001A0000000000000000000000000009DAC0008FE
:1001B0009DAC00089DAC000800000000000000009D
:1001C000000000000000000000000000000000002F
:1001D0000000000000000000000000009DAC0008CE
:1001E00010B5054C237833B9044B13B10448AFF371
:1001F00000800123237010BD002E002000000000AD
:10020000C445010808B5034B1BB103490348AFF3CC
:10021000008008BD00000000042E0020C445010835
:10022000034613F8012B002AFBD1181A0138704736
:1002300001F0FF01102A2BDB10F0070F08D010F897
:10024000013B013A8B422DD010F0070F42B3F6D19B
:10025000F0B441EA012141EA014122F007047FF0B4
:1002600000070023F0E80256083C85EA010586EA0B
:10027000010685FA47F5A3FA87F586FA47F6A5FA47
:1002800087F68EB9EED1F0BC01F0FF0102F0070253
:1002900032B110F8013B013A83EA010313B1F8D1FE
:1002A0000020704701387047002D06BF35460338DF
:1002B000073815F0010F07D1013015F4807F02BF18
:1002C000013015F4C03F0130F0BC0138704700BF69
:1002D00081F0004102E000BF83F0004330B54FEAF7
:1002E00041044FEA430594EA050F08BF90EA020F64
:1002F0001FBF54EA000C55EA020C7FEA645C7FEAF7
:10030000655C00F0E2804FEA5454D4EB5555B8BF19
:100310006D420CDD2C4480EA020281EA030382EA8A
:10032000000083EA010180EA020281EA0303362D1C
:1003300088BF30BD11F0004F4FEA01314FF4801CEF
:100340004CEA113102D0404261EB410113F0004F01
:100350004FEA03334CEA133302D0524263EB4303B8
:1003600094EA050F00F0A780A4F10104D5F1200E56
:100370000DDB02FA0EFC22FA05F2801841F10001B1
:1003800003FA0EF2801843FA05F359410EE0A5F185
:1003900020050EF1200E012A03FA0EFC28BF4CF0B6
:1003A000020C43FA05F3C01851EBE37101F000456C
:1003B00007D54FF0000EDCF1000C7EEB00006EEB79
:1003C0000101B1F5801F1BD3B1F5001F0CD3490803
:1003D0005FEA30004FEA3C0C04F101044FEA44525A
:1003E00012F5800F80F09A80BCF1004F08BF5FEAE1
:1003F000500C50F1000041EB045141EA050130BDC1
:100400005FEA4C0C404141EB010111F4801FA4F163
:100410000104E9D191F0000F04BF01460020B1FAB8
:1004200081F308BF2033A3F10B03B3F120020CDAF0
:100430000C3208DD02F1140CC2F10C0201FA0CF0CE
:1004400021FA02F10CE002F11402D8BFC2F1200C33
:1004500001FA02F120FA0CFCDCBF41EA0C019040E9
:10046000E41AA2BF01EB0451294330BD6FEA040432
:100470001F3C1CDA0C340EDC04F11404C4F120021D
:1004800020FA04F001FA02F340EA030021FA04F32F
:1004900045EA030130BDC4F10C04C4F1200220FA86
:1004A00002F001FA04F340EA0300294630BD21FAC4
:1004B00004F0294630BD94F0000F83F4801306BF8A
:1004C00081F480110134013D4EE77FEA645C18BF7E
:1004D0007FEA655C29D094EA050F08BF90EA020F15
:1004E00005D054EA000C04BF1946104630BD91EA0D
:1004F000030F1EBF0021002030BD5FEA545C05D110
:100500004000494128BF41F0004130BD14F580044E
:100510003CBF01F5801130BD01F0004545F0FE41C2
:1005200041F470014FF0000030BD7FEA645C1ABFF7
:10053000194610467FEA655C1CBF0B46024650EA2E
:10054000013406BF52EA033591EA030F41F400215A
:1005500030BD00BF90F0000F04BF0021704730B5E0
:100560004FF4806404F132044FF000054FF00001B5
:1005700050E700BF90F0000F04BF0021704730B576
:100580004FF4806404F1320410F0004548BF40424B
:100590004FF000013EE700BF42004FEAE2014FEAA0
:1005A00031014FEA02701FBF12F07F4393F07F4F7B
:1005B00081F06051704732F07F4208BF704793F07E
:1005C0007F4F04BF41F40021704730B54FF4607491
:1005D00001F0004521F000411CE700BF50EA010294
:1005E00008BF704730B54FF000050AE050EA01023D
:1005F00008BF704730B511F0004502D5404261EBAD
:1006000041014FF4806404F132045FEA915C3FF4ED
:10061000D8AE4FF003025FEADC0C18BF03325FEA8A
:10062000DC0C18BF033202EBDC02C2F1200300FA3B
:1006300003FC20FA02F001FA03FE40EA0E0021FA60
:1006400002F11444BDE600BF70B54FF0FF0C4CF44E
:10065000E06C1CEA11541DBF1CEA135594EA0C0F00
:1006600095EA0C0F00F0DEF82C4481EA030621EA3B
:100670004C5123EA4C5350EA013518BF52EA033576
:1006800041F4801143F4801338D0A0FB02CE4FF028
:100690000005E1FB02E506F00042E0FB03E54FF058
:1006A0000006E1FB03569CF0000F18BF4EF0010E50
:1006B000A4F1FF04B6F5007F64F5407404D25FEA4C
:1006C0004E0E6D4146EB060642EAC62141EA5551FF
:1006D0004FEAC52040EA5E504FEACE2EB4F1FD0C41
:1006E00088BFBCF5E06F1ED8BEF1004F08BF5FEABF
:1006F000500E50F1000041EB045170BD06F0004671
:1007000046EA010140EA020081EA0301B4EB5C041D
:10071000C2BFD4EB0C0541EA045170BD41F4801115
:100720004FF0000E013C00F3AB8014F1360FDEBF3A
:10073000002001F0004170BDC4F10004203C35DA16
:100740000C341BDC04F11404C4F1200500FA05F399
:1007500020FA04F001FA05F240EA020001F000423A
:1007600021F0004110EBD37021FA04F642EB0601B0
:100770005EEA430E08BF20EAD37070BDC4F10C04DA
:10078000C4F1200500FA04F320FA05F001FA04F29E
:1007900040EA020001F0004110EBD37041F100018A
:1007A0005EEA430E08BF20EAD37070BDC4F1200595
:1007B00000FA05F24EEA020E20FA04F301FA05F2FD
:1007C00043EA020321FA04F001F0004121FA04F2A5
:1007D00020EA020000EBD3705EEA430E08BF20EA75
:1007E000D37070BD94F0000F0FD101F000464000AF
:1007F00041EB010111F4801F08BF013CF7D041EA31
:10080000060195F0000F18BF704703F00046520034
:1008100043EB030313F4801F08BF013DF7D043EA05
:100820000603704794EA0C0F0CEA135518BF95EABB
:100830000C0F0CD050EA410618BF52EA4306D1D142
:1008400081EA030101F000414FF0000070BD50EA61
:10085000410606BF1046194652EA430619D094EAEB
:100860000C0F02D150EA013613D195EA0C0F05D1D5
:1008700052EA03361CBF104619460AD181EA030129
:1008800001F0004141F0FE4141F470014FF00000E1
:1008900070BD41F0FE4141F4780170BD70B54FF07C
:1008A000FF0C4CF4E06C1CEA11541DBF1CEA1355FC
:1008B00094EA0C0F95EA0C0F00F0A7F8A4EB0504DE
:1008C00081EA030E52EA03354FEA013100F08880D5
:1008D0004FEA03334FF0805545EA131343EA12639E
:1008E0004FEA022245EA111545EA10654FEA002653
:1008F0000EF000419D4208BF964244F1FD0404F50C
:10090000407402D25B084FEA3202B61A65EB030567
:100910005B084FEA32024FF480104FF4002CB6EB24
:10092000020E75EB030E22BFB61A754640EA0C00A4
:100930005B084FEA3202B6EB020E75EB030E22BFE4
:10094000B61A754640EA5C005B084FEA3202B6EB25
:10095000020E75EB030E22BFB61A754640EA9C00E4
:100960005B084FEA3202B6EB020E75EB030E22BFB4
:10097000B61A754640EADC0055EA060E18D04FEA72
:10098000051545EA16754FEA06164FEAC30343EA12
:1009900052734FEAC2025FEA1C1CC0D111F4801FDF
:1009A0000BD141EA00014FF000004FF0004CB6E7D8
:1009B00011F4801F04BF01430020B4F1FD0C88BF77
:1009C000BCF5E06F3FF6AFAEB5EB030C04BFB6EB82
:1009D000020C5FEA500C50F1000041EB045170BD75
:1009E0000EF0004E4EEA113114EB5C04C2BFD4EBA2
:1009F0000C0541EA045170BD41F480114FF0000E26
:100A0000013C90E645EA060E8DE60CEA135594EAA1
:100A10000C0F08BF95EA0C0F3FF43BAF94EA0C0FA4
:100A20000AD150EA01347FF434AF95EA0C0F7FF419
:100A300025AF104619462CE795EA0C0F06D152EA6D
:100A400003353FF4FDAE1046194622E750EA410651
:100A500018BF52EA43067FF4C5AE50EA41047FF462
:100A60000DAF52EA43057FF4EBAE12E74FF0FF3CC7
:100A700006E000BF4FF0010C02E000BF4FF0010C98
:100A80004DF804CD4FEA410C7FEA6C5C4FEA430C11
:100A900018BF7FEA6C5C1BD001B050EA410C0CBF60
:100AA00052EA430C91EA030F02BF90EA020F0020C2
:100AB000704710F1000F91EA030F58BF994208BF29
:100AC00090422CBFD8176FEAE37040F001007047E6
:100AD0004FEA410C7FEA6C5C02D150EA013C07D13D
:100AE0004FEA430C7FEA6C5CD6D152EA033CD3D088
:100AF0005DF8040B704700BF8446104662468C4682
:100B00001946634600E000BF01B5FFF7B7FF0028B4
:100B100048BF10F1000F01BD4DF808EDFFF7F4FFDD
:100B20000CBF012000205DF808FB00BF4DF808ED68
:100B3000FFF7EAFF34BF012000205DF808FB00BF8B
:100B40004DF808EDFFF7E0FF94BF012000205DF8AD
:100B500008FB00BF4DF808EDFFF7CEFF94BF012062
:100B600000205DF808FB00BF4DF808EDFFF7C4FF5B
:100B700034BF012000205DF808FB00BF4FEA410CA4
:100B80007FEA6C5C02D150EA013C0AD14FEA430C87
:100B90007FEA6C5C02D152EA033C02D14FF00000C4
:100BA00070474FF0010070474FEA410212F5001202
:100BB00015D211D56FF47873B3EB625212D94FEAA4
:100BC000C12343F0004343EA505311F0004F23FA8E
:100BD00002F018BF404270474FF00000704750EAE3
:100BE000013005D111F0004008BF6FF000407047A0
:100BF0004FF00000704700BF4A0011D212F50012FA
:100C000011D20DD56FF47873B3EB62520ED44FEA64
:100C1000C12343F0004343EA505323FA02F07047E4
:100C20004FF00000704750EA013002D14FF0FF3022
:100C300070474FF0000070474FEA4102B2F1E043C5
:100C400024BFB3F5001CDCF1FE5C0DD901F0004CB3
:100C50004FEAC0024CEA5070B2F1004F40EB830003
:100C600008BF20F00100704711F0804F21D113F12F
:100C70003872BCBF01F00040704741F480114FEA68
:100C80005252C2F11802C2F1200C10FA0CF320FAF1
:100C900002F018BF40F001004FEAC1234FEAD3230E
:100CA00003FA0CFC40EA0C0023FA02F34FEA430378
:100CB000CCE77FEA625307D150EA01331EBF4FF001
:100CC000FE4040F44000704701F0004040F0FE401C
:100CD00040F40000704700BF53B94AB9002908BF6B
:100CE00000281CBF4FF0FF314FF0FF3000F072B909
:100CF000ADF1080C6DE904CE00F006F8DDF804E073
:100D0000DDE9022304B070472DE9F047089E044650
:100D10008846002B4BD18A42154667D9B2FA82F237
:100D20004AB1C2F1200701FA02F320FA07F7954011
:100D300047EA030894404FEA154E230CB8FBFEF730
:100D40001FFA85FC0EFB178843EA084307FB0CF1EA
:100D5000994209D9EB1807F1FF3080F01B819942C5
:100D600040F21881023F2B445B1AA4B2B3FBFEF0A1
:100D70000EFB103344EA034400FB0CFCA44509D9E4
:100D80002C1900F1FF3380F00781A44540F2048163
:100D900002382C4440EA0740A4EB0C0400271EB1A3
:100DA000D4400023C6E900433946BDE8F0878B42B2
:100DB00009D9002E00F0EB800027C6E90001384673
:100DC0003946BDE8F087B3FA83F7002F47D18B424D
:100DD00002D3824200F2FA80841A61EB03030120FD
:100DE0009846002EE0D0C6E90048DDE702B9FFDEF4
:100DF000B2FA82F2002A40F08F80491B4FEA154E6A
:100E00001FFA85F80127B1FBFEFC230C0EFB1C1119
:100E100043EA014308FB0CF1994207D9EB180CF1A6
:100E2000FF3002D2994200F2CD808446591AA3B213
:100E3000B1FBFEF00EFB101443EA044408FB00F87B
:100E4000A04507D92C1900F1FF3302D2A04500F2CA
:100E5000B6801846A4EB080440EA0C409FE7C7F1AF
:100E6000200CBB4022FA0CFE4EEA030E01FA07F4F6
:100E700020FA0CF521FA0CF34FEA1E482543B3FB88
:100E8000F8F92C0C08FB19331FFA8EFA44EA0343D5
:100E900009FB0AF49C4202FA07F200FA07F10BD9A7
:100EA0001EEB030309F1FF3080F087809C4240F283
:100EB0008480A9F1020973441B1BADB2B3FBF8F0A7
:100EC00008FB103345EA034400FB0AFAA24508D99F
:100ED0001EEB040400F1FF336BD2A24569D902383E
:100EE000744440EA0940A0FB0289A4EB0A044C4583
:100EF000C2464B4654D351D0002E69D0B1EB0A05FF
:100F000064EB030404FA0CFCFD40FC404CEA0505CC
:100F1000C6E90054002747E7C2F1200320FA03F78F
:100F2000954001FA02F021FA03F34FEA154E3843D7
:100F3000010CB3FBFEF71FFA85F80EFB173341EAED
:100F4000034107FB08F38B4204FA02F407D969183E
:100F500007F1FF3C2FD28B422DD9023F2944CB1AF7
:100F600081B2B3FBFEF00EFB103341EA034100FBFC
:100F700008F38B4207D9691800F1FF3C17D28B4266
:100F800015D902382944C91A40EA07473BE73746D2
:100F9000304609E70746E7E61846FBE64145ABD28F
:100FA000B8EB020A69EB0E0201381346A4E760466B
:100FB000E9E7184695E76746D1E781467CE70238BE
:100FC0002C4447E7ACF1020C2B442FE7384608E7E6
:100FD0003746E9E6704700BF80B487B000AF78605D
:100FE00039607B68002B02D03B68002B02D14FF0A8
:100FF000FF3337E07B687B613B683B617B69013392
:101000001B78BB817B6901331A783B6901331B78FC
:101010009A420ED17B691A783B691B789A4208D1B3
:10102000B7F90C30002B04D0B7F90C30B3F5C07F02
:1010300002DD6FF0010315E00223FB730AE03A6959
:10104000531C3B617B69591C796112781A70FB7BD8
:101050000133FB73FA7BB7F90C3002339A42EEDBB3
:10106000B7F90C3018461C37BD465DF8047B704755
:1010700080B592B000AF78603960012387F84730BF
:101080007B68BB63714B7B63714B3B633A6B7B6BE0
:10109000D31AFB6240F66C43BB6200233B6423E03F
:1010A0003B6C40F66C4202FB03F3E033674A1344A7
:1010B0001A463B6C9B0007F148010B4443F8302C67
:1010C0003B6C40F66C4202FB03F3E0335F4A13448F
:1010D00003F66C423B6C9B0007F148010B4443F85C
:1010E000402C3B6C01333B643B6C032BD8DDBA6B6B
:1010F0007B6B9A423DD3BA6B3B6B9A4239D2554BCC
:1011000002229A70534AFB6A9360BA6B7B6BD31AC4
:10111000504AD3604F4B04221A614E4BDB684B4A56
:1011200099184C4B1B691A464B480FF0A3FC494BCE
:101130001B691033474A1344981D464B1B69C3F182
:10114000D4031A4600210FF0A0FCD421424806F037
:1011500051FB03461A463F4B9A82404B01221A70BC
:10116000EC223C493E4809F0E9FC002387F847306F
:1011700066E00023FB6360E0FB6B9B0007F1480225
:10118000134453F8303CBA6B9A4253D3FB6B9B0029
:1011900007F14802134453F8403CBA6B9A4249D2D3
:1011A000304B02229A702F4ABB6AD360FB6B2D4AE8
:1011B0009360FB6B9B0007F14802134453F8303CEB
:1011C000BA6BD31A274A13613B68264A5361FB6BFB
:1011D00040F66C4202FB03F3E0331C4A1A44214BF5
:1011E0001B69D1181F4B5B691A461F480FF042FC60
:1011F0001C4B5B6918331B4A1344981C194B5B69E1
:10120000C3F1E0031A4600210FF03FFCE02116482D
:1012100006F0F0FA03461A46124B1A830F4B0122CE
:101220001A70FC220F490E4809F088FC002387F849
:10123000473005E0FB6B0133FB63FB6B032B9BDD4E
:1012400097F8473018464837BD4680BD202E00200D
:10125000002F00200002002016020020BA680020A3
:1012600060680020C0000020DA0000202DE9F04175
:10127000C2B002AF7860002387F8FF300023C7F8C0
:10128000F830CA4B5B6AC7F8F4300023C7F8F03077
:10129000C64B5B6AC7F8EC30002387F8E7300023C1
:1012A000C7F8E0300023C7F8DC300023C7F8D83097
:1012B0000023C7F8D4300023C7F8D0300023BB6424
:1012C0000023C7F8CC30BA4B1B681846FEF7A8FFBE
:1012D0000346A7F846300023C7F8C8300023C7F8F4
:1012E000C430B44B1B78DBB2012B0CD100224FF47D
:1012F0008071B1480AF0C8FA01224FF40041AE48AB
:101300000AF0C2FA1DE0AB4B1B78DBB2022B0CD10A
:1013100001224FF48071A8480AF0B6FA00224FF477
:101320000041A5480AF0B0FA0BE001224FF48071A9
:10133000A1480AF0A9FA01224FF400419E480AF0A0
:10134000A3FA9E4B1B78DBB2012B3ED1D7F8F810E5
:10135000D7F8E80006F048FB0246994B9A420CD8B1
:1013600001224FF4005194480AF08EFA00224FF403
:10137000805191480AF088FA40E1D7F8F810D7F880
:10138000E80006F031FB02468E4B9A420CD801224F
:101390004FF4005188480AF077FA01224FF4805147
:1013A00085480AF071FA29E1D7F8E830C7F8F83033
:1013B00001224FF4005180480AF066FA00224FF4EF
:1013C00080517D480AF060FA18E17C4B1B78DBB253
:1013D000022B3ED1D7F8F810D7F8E80006F004FB4E
:1013E0000246794B9A420CD801224FF400517248C0
:1013F0000AF04AFA00224FF480516F480AF044FA8A
:10140000FCE0D7F8F810D7F8E80006F0EDFA02464D
:101410006B4B9A420CD801224FF4005166480AF0F7
:1014200033FA01224FF4805163480AF02DFAE5E0C7
:10143000D7F8E830C7F8F83001224FF400515E4881
:101440000AF022FA00224FF480515B480AF01CFA9D
:10145000D4E05A4B1B78DBB2032B0CD101224FF4A2
:10146000005155480AF010FA00224FF480515248BA
:101470000AF00AFAC2E0514B1B78DBB2042B0CD104
:1014800000224FF400514C480AF0FEF900224FF4BC
:10149000805149480AF0F8F9B0E04C4B1B78DBB2B8
:1014A000002B3ED0D7F8F810D7F8E80006F09CFAE9
:1014B0000246474B9A420CD800224FF400513E4856
:1014C0000AF0E2F901224FF480513B480AF0DCF9BE
:1014D00094E0D7F8F810D7F8E80006F085FA02464D
:1014E0003C4B9A420CD801224FF4005132480AF08A
:1014F000CBF901224FF480512F480AF0C5F97DE065
:10150000D7F8E830C7F8F83000224FF400512A48E5
:101510000AF0BAF901224FF4805127480AF0B4F9D1
:101520006CE02D4B1B78DBB2002B57D1D7F8F810AD
:10153000D7F8E80006F058FA0246254B9A420CD834
:1015400000224FF400511C480AF09EF900224FF48B
:10155000805119480AF098F950E0D7F8F810D7F8F8
:10156000E80006F041FA02461A4B9A420CD80122D2
:101570004FF4005110480AF087F901224FF48051CE
:101580000D480AF081F939E0D7F8E830C7F8F830AB
:1015900000224FF4005108480AF076F900224FF477
:1015A000805105480AF070F928E000BF000C0040A7
:1015B000D00300209C68002000040240C468002082
:1015C0007F1A0600FF340C003F0D03009D680020C9
:1015D0003F420F007F841E009E68002001224FF4CE
:1015E0000051B2480AF050F901224FF48051AF483F
:1015F0000AF04AF9D7F8E830C7F8F830AC4B5B6A24
:10160000C7F8E830AB4B1B78DBB2002B0FD0AA4BEE
:101610001B68B3F57A7F0AD3A84B1B78DBB2042B87
:1016200005D9A54B00221A60A44B04221A70A44BC2
:101630001B78DBB2002B03D0A04B03221A7030E0E2
:10164000A04B1B78DBB2002B03D09C4B01221A70FD
:1016500027E09D4B1B78DBB2002B06D0974B022274
:101660001A70994B00221A7007E0944B1B78DBB27A
:10167000012B02D1914B04221A70904B1B78DBB2E4
:10168000032B0ED18D4B01221A708E4B01221A7042
:101690008E4B00221A708C4B00221A708C4B002249
:1016A0001A60864B1B78DBB297F8FF209A4240D035
:1016B00097F8FF30092B3CD8804B1B78DBB2082B06
:1016C00037D8D7F8E830C7F8EC300023C7F8F43043
:1016D000804B00221A70804B00221A707F4B002230
:1016E0001A707F4B00221A707E4B00221A707E4BBC
:1016F00000221A707D4B00221A607D4B00221A6076
:101700007C4B00221A607C4B00221A607B4B00222B
:101710001A60694B00221A600023C7F8D0300023FA
:10172000C7F8CC300023C7F8E030754B00221A70A0
:1017300002E00A200BF096FE724B01221A705F4BFA
:101740001B7887F8FF305D4B1B78DBB2013B112B18
:1017500004F2448401A252F823F000BF695E00083D
:10176000655F0008035E0008A5170008AD190008B2
:10177000FF230008012E000837380008874B0008B7
:10178000DD5F0008A14F0008A14F0008DD5F0008E1
:10179000A14F0008A14F0008A14F0008A14F000869
:1017A000A14F0008D7F8F410D7F8E80006F01CF9AC
:1017B0000246554B9A4240F2DA80D7F8E830C7F833
:1017C000F43006F041FA01230093402380220021E7
:1017D000002006F024FB4D480DF058FE4C4A042131
:1017E00004200FF075F84B4B1B681846FEF7D4FE2B
:1017F00003460C46CDE90034474A04216FF07C00D3
:101800000FF066F80DF0E8FD03460433434A19462D
:1018100004200FF05DF80DF0DFFD03461D1D404B69
:101820001B681846FEF7B8FE03460C46CDE90034A7
:101830003C4A29466FF07C000FF04AF80DF0CCFDD1
:10184000034602335B00384A194604200FF040F883
:101850000DF0C2FD034602335D00344B1B68184691
:10186000FEF79AFE03460C46CDE90034304A29467D
:101870006FF07C000FF02CF82E480DF007FE2E4B79
:101880001B685A1C2D4B009313462D4A352104200A
:101890000FF01EF82B4B1B78DBB2002B56D02A4AD8
:1018A00035216FF07C000FF013F85EE00004024079
:1018B000000C0040E5680020FC6800207C680020E7
:1018C000A46800209F680020B8680020A768002056
:1018D000AC68002002690020036900200069002034
:1018E000016900200469002005690020F0680020DB
:1018F000F4680020E8680020EC680020F868002008
:10190000C46800209E680020F0490200C02B00201F
:10191000F048010880680020F848010800490108E3
:101920008468002008490108144901088C680020D7
:101930001C490108D02B002098680020CC680020AA
:1019400024490108D868002030490108C44B1B68AD
:101950001846FEF721FE03460C46CDE90034C14A85
:1019600035216FF07C000EF0B3FF06F0E1F8BE4BBE
:101970001B78DBB2002B0BD0BB4B00221A70BB4B89
:101980001B78DBB20133DAB2B84B1A7004F02ABB11
:10199000B74B1B78DBB2002B04F02483B44B00223E
:1019A0001A70B24B09221A7004F01CBBD7F8F4105D
:1019B000D7F8E80006F018F80246AE4B9A4240F21B
:1019C000AA81D7F8E830C7F8F43006F03DF90123D2
:1019D0000093402380220021002006F020FAA64830
:1019E0000DF054FDA54A022100200EF071FF0123E5
:1019F0000093012380220F21002006F010FAA04856
:101A00000DF044FD0023C7F8C030FEE00DF0E4FC0B
:101A10000246D7F8C03003FB02F303F112009949E4
:101A2000D7F8C02013465B0013441B010B441B680E
:101A3000954A014603200EF04BFF9249D7F8C0208B
:101A400013465B0013441B010B440C331B68002B33
:101A50006CD0D7F8D030002B05D0D7F8E020D7F8DD
:101A6000C0309A4221D00DF0B7FC0246D7F8C03002
:101A700003FB02F303F112058249D7F8C020134695
:101A80005B0013441B010B440C331B681B68184696
:101A9000FEF782FD03460C46CDE900347B4A294619
:101AA0006FF07C000EF014FFAAE0D7F8E020D7F822
:101AB000C0309A422BD1D7F8F010D7F8E80005F0E3
:101AC00093FF0246724B9A4221D80DF085FC0246E4
:101AD000D7F8C03003FB02F303F112056949D7F8C8
:101AE000C02013465B0013441B010B440C331B68DE
:101AF0001B681846FEF750FD03460C46CDE900343E
:101B0000644A29466FF07C000EF0E2FE78E0D7F8D8
:101B1000F010D7F8E80005F067FF02465E4B9A42E6
:101B20006ED9D7F8E830C7F8F03069E05549D7F8F2
:101B3000C02013465B0013441B010B4408331B6891
:101B4000002B5DD0D7F8D030002B05D0D7F8E0209F
:101B5000D7F8C0309A421AD00DF03EFC0246D7F8B2
:101B6000C03003FB02F303F112004649D7F8C0204E
:101B700013465B0013441B010B4408331B681B68AE
:101B8000464A01466FF07C000EF0A2FE38E0D7F81E
:101B9000E020D7F8C0309A4224D1D7F8F010D7F817
:101BA000E80005F021FF0246394B9A421AD80DF0A1
:101BB00013FC0246D7F8C03003FB02F303F1120016
:101BC0003049D7F8C02013465B0013441B010B4477
:101BD00008331B681B68324A01466FF07C000EF028
:101BE00077FE0DE0D7F8F010D7F8E80005F0FCFE1E
:101BF0000246294B9A4203D9D7F8E830C7F8F030AB
:101C0000D7F8C0300133C7F8C030D7F8C030012B47
:101C10007FF6FCAE23480DF039FC234B1B78DBB27A
:101C2000002B06D1214A35216FF07C000EF050FECA
:101C30004EE01D4B1B78DBB2012B49D1D7F8F010D9
:101C4000D7F8E80005F0D0FE0246114B9A4231D891
:101C5000174A35216FF07C000EF03AFE38E000BFE5
:101C6000906800203C490108016900207C68002040
:101C700000690020F0490200E02B002044490108DF
:101C8000D02B0020C04A010854490108F848010837
:101C90001FA107005849010800350C0064490108DC
:101CA00068490108002C0020C46800207049010820
:101CB00078490108D7F8F010D7F8E80005F094FE4D
:101CC0000246C54B9A4203D9D7F8E830C7F8F0303E
:101CD000C2480DF0DBFBC24B1B681846FEF75CFCEC
:101CE00003460C46CDE90034BE4A22216FF059006C
:101CF0000EF0EEFDBC4B1B681846FEF74DFC03468C
:101D00000C46CDE90034B94A30216FF04F000EF097
:101D1000DFFD05F00DFFB64B1B78DBB2002B19D0B1
:101D2000B44B1B78DBB2002B47D1B34B1B68B3F528
:101D3000FA7F42D9D7F8E830C7F8F030AF4B1B78BC
:101D4000DBB2002B39D10023C7F8D030AB4B0122D6
:101D50001A7032E0AA4B1B78DBB2002B2DD0002387
:101D6000C7F8F430D7F8D030002B14D1A34B1B7830
:101D7000DBB2002B04D0A14B1B78DBB2032B0DD1BF
:101D80000123C7F8D0300023C7F8E030D7F8E83097
:101D9000C7F8F03002E00023C7F8D030994B00229A
:101DA0001A70994B00221A70984B00221A70984BA7
:101DB00000221A70924B00221A70964B1B78DBB2ED
:101DC000002B1BD00023C7F8F430D7F8D030002BFD
:101DD00002D00023C7F8D030884B00221A70894BFC
:101DE00000221A70884B00221A70884B00221A7049
:101DF000874B00221A70874B00221A70834B1B7886
:101E0000DBB2002B0BD1844B1B78DBB2002B00F034
:101E10003B81824B1B68B3F5C87F40F235810023BC
:101E2000C7F8F4307D4B1B68642B04D97B4B1B68CF
:101E3000643B7A4A1360D7F8D030002B00F024813D
:101E40007749D7F8E02013465B0013441B010B448D
:101E50000C331B68002B6CD07149D7F8E020134677
:101E60005B0013441B010B440C331B6893ED007A99
:101E70006B49D7F8E02013465B0013441B010B4469
:101E80001833D3ED007A37EE677A6549D7F8E0204A
:101E900013465B0013441B010B4410331B6807EE11
:101EA000903AF8EEE77AB4EEE77AF1EE10FA1AD546
:101EB0005B49D7F8E02013465B0013441B010B4439
:101EC000103318685649D7F8E02013465B001344D6
:101ED0001B010B440C331B6807EE900AF8EEE77AFF
:101EE000C3ED007AC9E04E49D7F8E02013465B0005
:101EF00013441B010B440C331B6893ED007A4849D3
:101F0000D7F8E02013465B0013441B010B44183341
:101F1000D3ED007A4249D7F8E02013465B00134422
:101F20001B010B440C331B6877EE677AC3ED007A14
:101F3000A3E03B49D7F8E02013465B0013441B01A4
:101F40000B4408331B68002B00F097803449D7F806
:101F5000E02013465B0013441B010B4408331B684D
:101F60001B6807EE903AB8EEE77A2D49D7F8E020E3
:101F700013465B0013441B010B441833D3ED007A66
:101F800037EE677A2649D7F8E02013465B00134402
:101F90001B010B4410331B6807EE903AF8EEE77A0A
:101FA000B4EEE77AF1EE10FA3CD51D49D7F8E020FF
:101FB00013465B0013441B010B440833196818488F
:101FC000D7F8E02013465B0013441B010344103391
:101FD0001B680B6051E000BF00350C00F02B0020A7
:101FE000C06800207C490108BC68002088490108BD
:101FF000E4680020E5680020F8680020C46800203C
:1020000004690020026900200369002000690020A3
:102010000169002005690020E0680020E8680020D0
:10202000C04A01088E49D7F8E02013465B001344EC
:102030001B010B4408331B681B6807EE903AB8EE8F
:10204000E77A8749D7F8E02013465B0013441B0169
:102050000B441833D3ED007A77EE677A8049D7F8CE
:10206000E02013465B0013441B010B4408331B683C
:10207000FDEEE77A17EE902A1A60D7F8E830C7F835
:10208000F030784B00221A70774B1B78DBB2002BB4
:102090000BD1764B1B78DBB2002B00F01D81744B0B
:1020A0001B68B3F5C87F40F217810023C7F8F430EE
:1020B0006F4B1B68642B04D96D4B1B68643B6C4AE7
:1020C0001360D7F8D030002B00F006816449D7F8B0
:1020D000E02013465B0013441B010B440C331B68C8
:1020E000002B6CD05E49D7F8E02013465B00134408
:1020F0001B010B440C331B6893ED007A5849D7F849
:10210000E02013465B0013441B010B441833D3ED4E
:10211000007A37EE277A5249D7F8E02013465B0061
:1021200013441B010B4414331B6807EE903AF8EE7E
:10213000E77AB4EEE77AF1EE10FA1ADD4849D7F8FB
:10214000E02013465B0013441B010B441433186852
:102150004349D7F8E02013465B0013441B010B44AE
:102160000C331B6807EE900AF8EEE77AC3ED007AAD
:10217000ABE03B49D7F8E02013465B0013441B015A
:102180000B440C331B6893ED007A3549D7F8E020F7
:1021900013465B0013441B010B441833D3ED007A44
:1021A0002F49D7F8E02013465B0013441B010B4472
:1021B0000C331B6877EE277AC3ED007A85E0284957
:1021C000D7F8E02013465B0013441B010B4408338F
:1021D0001B68002B79D02249D7F8E02013465B001A
:1021E00013441B010B4408331B681B6807EE903A2D
:1021F000B8EEE77A1A49D7F8E02013465B0013449B
:102200001B010B441833D3ED007A37EE277A1449BB
:10221000D7F8E02013465B0013441B010B44143332
:102220001B6807EE903AF8EEE77AB4EEE77AF1EE43
:1022300010FA1FDD0A49D7F8E02013465B0013446B
:102240001B010B44083319680548D7F8E0201346F2
:102250005B0013441B01034414331B680B6034E020
:10226000C04A01080069002001690020E1680020DF
:10227000EC680020AD49D7F8E02013465B0013441A
:102280001B010B4408331B681B6807EE903AB8EE3D
:10229000E77AA649D7F8E02013465B0013441B01F8
:1022A0000B441833D3ED007A77EE277A9F49D7F89D
:1022B000E02013465B0013441B010B4408331B68EA
:1022C000FDEEE77A17EE902A1A60D7F8E830C7F8E3
:1022D000F030974B00221A70964B1B78DBB2002B24
:1022E00019D00023C7F8F430D7F8D030002B0FD026
:1022F000D7F8E0300133C7F8E030D7F8E030012BF1
:1023000002D90123C7F8E030D7F8E830C7F8F03039
:10231000884B00221A70884B1B78DBB2002B19D037
:102320000023C7F8F430D7F8D030002B0FD0D7F8FF
:10233000E030013BC7F8E030D7F8E030002B02DA9C
:102340000023C7F8E030D7F8E830C7F8F0307A4B10
:1023500000221A70794B1B78DBB2002B14D1784B1A
:102360001B78DBB2002B0FD0764B1B68B3F5967F42
:102370000AD90023C7F8F430734B1B78DBB2002B6B
:1023800002D0714B00221A70694B1B78DBB2002B14
:1023900016D0D7F8D030002B12D16B4B1B78DBB2A4
:1023A000002B04D0684B1B78DBB2032B08D1674BA2
:1023B0001B78DBB20133DAB2644B1A7003F015BE3E
:1023C000634B1B78DBB2002B03F00F86D7F8D030BD
:1023D000002B43F00A865C4B1B78DBB2002B05D048
:1023E000594B1B78DBB2032B43F0FF85574B1B780F
:1023F000DBB2013BDAB2554B1A7003F0F6BDD7F8E9
:10240000F410D7F8E80005F0EFFA0246514B9A4273
:1024100040F28381D7F8E830C7F8F43005F014FCB7
:1024200001230093402380220021002005F0F7FCC7
:1024300049480DF02BF8494A022100200EF048FAD5
:1024400001230093012380220F21002005F0E7FCE7
:1024500043480DF01BF80023C7F8BC3056E1D7F80D
:10246000BC30D7F8CC201344BB64BB6C0D2B00F2FE
:1024700048810CF0B1FF0246D7F8BC3003FB02F3F1
:1024800003F112003749BA6C13465B0013441B0179
:102490000B441B68344A014603200EF019FA3149F7
:1024A000BA6C13465B0013441B010B440C331B68CE
:1024B000002B00F0AD80D7F8D030002B04D0D7F837
:1024C000E030BA6C9A4253D00CF086FF0246D7F83F
:1024D000BC3003FB02F303F112052249BA6C134628
:1024E0005B0013441B010B440C331B6893ED007A13
:1024F0001C49BA6C13465B0013441B010B441C338C
:102500001B6807EE903AF8EEE77A77EE277A17EE37
:10251000900AFEF741F803460C46CDE90034134A11
:1025200029466FF07C000EF0D3F9EAE0C04A0108BA
:10253000016900200369002002690020E46800208E
:10254000E5680020FC680020C46800207C6800204A
:1025500000690020F0490200E02B002094490108A6
:10256000D02B0020204B010854490108A449010840
:10257000D7F8E030BA6C9A423BD1D7F8F010D7F8D0
:10258000E80005F031FA0246C44B9A4231D80CF00B
:1025900023FF0246D7F8BC3003FB02F303F1120518
:1025A000BF49BA6C13465B0013441B010B440C3348
:1025B0001B6893ED007ABA49BA6C13465B0013446A
:1025C0001B010B441C331B6807EE903AF8EEE77AC8
:1025D00077EE277A17EE900AFDF7DEFF03460C46EA
:1025E000CDE90034AF4A29466FF07C000EF070F957
:1025F00087E0D7F8F010D7F8E80005F0F5F90246C3
:10260000A94B9A427DD9D7F8E830C7F8F03078E086
:10261000A349BA6C13465B0013441B010B440833F7
:102620001B68002B6DD0D7F8D030002B04D0D7F822
:10263000E030BA6C9A4223D00CF0CEFE0246D7F8B6
:10264000BC3003FB02F303F112049549BA6C134644
:102650005B0013441B010B4408331B681968904846
:10266000BA6C13465B0013441B0103441C331B6804
:102670000B448E4A21466FF07C000EF029F940E0B1
:10268000D7F8E030BA6C9A422DD1D7F8F010D7F8CD
:10269000E80005F0A9F90246804B9A4223D80CF0D5
:1026A0009BFE0246D7F8BC3003FB02F303F1120491
:1026B0007B49BA6C13465B0013441B010B4408337F
:1026C0001B6819687648BA6C13465B0013441B01FB
:1026D00003441C331B680B44754A21466FF07C0091
:1026E0000EF0F6F80DE0D7F8F010D7F8E80005F096
:1026F0007BF902466C4B9A4203D9D7F8E830C7F809
:10270000F030D7F8BC300133C7F8BC30D7F8BC3054
:10271000052B7FF7A4AE05F00BFA664B1B78DBB2F6
:10272000002B20D00023C7F8F430D7F8D030002B8E
:1027300007D10123C7F8D030D7F8E830C7F8F03018
:1027400002E00023C7F8D0305B4B00221A705B4BCD
:1027500000221A705A4B00221A705A4B00221A702B
:10276000544B00221A70584B1B78DBB2002B18D048
:102770000023C7F8F430D7F8D030002B02D0002364
:10278000C7F8D0304C4B00221A704C4B00221A7004
:102790004B4B00221A704B4B00221A704A4B0022FE
:1027A0001A70474B1B78DBB2002B0BD1474B1B78C1
:1027B000DBB2002B00F05581454B1B68B3F5C87F99
:1027C00040F24F810023C7F8F430414B1B68642B63
:1027D00004D93F4B1B68643B3D4A1360D7F8D030A7
:1027E000002B00F03E813B4B1B78DBB2002B00F04E
:1027F00031812B49D7F8E02013465B0013441B01BD
:102800000B440C331B68002B00F09A802449D7F846
:10281000E02013465B0013441B010B440C331B6880
:1028200093ED007A1E49D7F8E02013465B0013446D
:102830001B010B441833D3ED007A37EE677A184941
:10284000D7F8E02013465B0013441B010B44103300
:102850001B6807EE903AF8EEE77AB4EEE77AF1EE0D
:1028600010FA39D50E49D7F8E02013465B0013441F
:102870001B010B44103318680949D7F8E0201346B0
:102880005B0013441B010B440C331B6807EE900ADA
:10289000F8EEE77AC3ED007A43E000BF1FA107001E
:1028A000204B0108AC49010800350C0064490108BF
:1028B00068490108046900200269002003690020BA
:1028C000006900200169002005690020E0680020FF
:1028D000E86800209E680020BA49D7F8E020134637
:1028E0005B0013441B010B440C331B6893ED007A0F
:1028F000B449D7F8E02013465B0013441B010B4496
:102900001833D3ED007AAF49D7F8E02013465B00C7
:1029100013441B010B440C331B6877EE677AC3ED3D
:10292000007AA849D7F8E02013465B0013441B0146
:102930000B440C331B6804211846FEF799FB89E011
:10294000A049D7F8E02013465B0013441B010B4459
:1029500008331B68002B7DD09A49D7F8E020134636
:102960005B0013441B010B4408331B681B6807EE14
:10297000903AB8EEE77A9349D7F8E02013465B0027
:1029800013441B010B441833D3ED007A37EE677AFA
:102990008C49D7F8E02013465B0013441B010B441D
:1029A00010331B6807EE903AF8EEE77AB4EEE77A58
:1029B000F1EE10FA15D58349D7F8E02013465B00F5
:1029C00013441B010B44083319687E48D7F8E020F4
:1029D00013465B0013441B01034410331B680B6058
:1029E0002AE07849D7F8E02013465B0013441B0126
:1029F0000B4408331B681B6807EE903AB8EEE77A81
:102A00007049D7F8E02013465B0013441B010B44C8
:102A10001833D3ED007A77EE677A6A49D7F8E02069
:102A200013465B0013441B010B4408331B68FDEE87
:102A3000E77A17EE902A1A606249D7F8E020134629
:102A40005B0013441B010B4408331B680421184628
:102A5000FEF70EFBD7F8E830C7F8F0305A4B0022EB
:102A60001A705A4B1B78DBB2002B0BD1584B1B78DA
:102A7000DBB2002B00F04381564B1B68B3F5C87FD7
:102A800040F23D810023C7F8F430524B1B68642BA1
:102A900004D9504B1B68643B4E4A1360D7F8D030C2
:102AA000002B00F02C814C4B1B78DBB2002B00F08C
:102AB0001F814449D7F8E02013465B0013441B01F3
:102AC0000B440C331B68002B00F088803D49D7F87D
:102AD000E02013465B0013441B010B440C331B68BE
:102AE00093ED007A3749D7F8E02013465B00134492
:102AF0001B010B441833D3ED007A37EE277A3149A6
:102B0000D7F8E02013465B0013441B010B44143339
:102B10001B6807EE903AF8EEE77AB4EEE77AF1EE4A
:102B200010FA1ADD2749D7F8E02013465B0013445A
:102B30001B010B44143318682249D7F8E0201346D0
:102B40005B0013441B010B440C331B6807EE900A17
:102B5000F8EEE77AC3ED007A24E01A49D7F8E020CE
:102B600013465B0013441B010B440C331B6893EDAD
:102B7000007A1449D7F8E02013465B0013441B0188
:102B80000B441833D3ED007A0E49D7F8E0201346F2
:102B90005B0013441B010B440C331B6877EE277A50
:102BA000C3ED007A0749D7F8E02013465B001344D1
:102BB0001B010B440C331B6804211846FEF758FA1E
:102BC00096E000BF204B0108006900200169002049
:102BD000E1680020EC6800209E680020A049D7F83A
:102BE000E02013465B0013441B010B4408331B68B1
:102BF000002B7DD09A49D7F8E02013465B001344A0
:102C00001B010B4408331B681B6807EE903AB8EEB3
:102C1000E77A9349D7F8E02013465B0013441B0181
:102C20000B441833D3ED007A37EE277A8C49D7F866
:102C3000E02013465B0013441B010B4414331B6854
:102C400007EE903AF8EEE77AB4EEE77AF1EE10FA92
:102C500015DD8349D7F8E02013465B0013441B01C0
:102C60000B44083319687E48D7F8E02013465B0010
:102C700013441B01034414331B680B602AE078499A
:102C8000D7F8E02013465B0013441B010B440833C4
:102C90001B681B6807EE903AB8EEE77A7049D7F8E0
:102CA000E02013465B0013441B010B441833D3EDA3
:102CB000007A77EE277A6A49D7F8E02013465B005E
:102CC00013441B010B4408331B68FDEEE77A17EE33
:102CD000902A1A606249D7F8E02013465B0013443B
:102CE0001B010B4408331B6804211846FEF7C0F98A
:102CF000D7F8E830C7F8F0305A4B00221A705A4B18
:102D00001B78DBB2002B25D00023C7F8F430D7F8AE
:102D1000D030002B1BD0D7F8E0300133C7F8E030BB
:102D2000D7F8E0300D2B02D90D23C7F8E030D7F8E3
:102D3000CC301A1DD7F8E0309A4204D2D7F8E030F0
:102D4000043BC7F8CC30D7F8E830C7F8F030464B32
:102D500000221A70454B1B78DBB2002B23D00023D6
:102D6000C7F8F430D7F8D030002B19D0D7F8E030BE
:102D7000013BC7F8E030D7F8E030002B02DA00233F
:102D8000C7F8E030D7F8E030D7F8CC209A4203D922
:102D9000D7F8E030C7F8CC30D7F8E830C7F8F030D3
:102DA000324B00221A702F4B1B78DBB2002B10D055
:102DB000D7F8D030002B0CD12A4B00221A702C4BA4
:102DC0001B78DBB20133DAB2294B1A7000BF03F073
:102DD0000FB9284B1B78DBB2002B03F00981D7F821
:102DE000D030002B43F00481224B00221A70204B7C
:102DF0001B78DBB2013BDAB21D4B1A7003F0F8B856
:102E0000D7F8F410D7F8E80004F0EEFD02461A4BAC
:102E10009A4240F27581D7F8E830C7F8F43004F0F0
:102E200013FF01230093402380220021002004F09F
:102E3000F6FF12480CF02AFB114A022100200DF087
:102E400047FD01230093012380220F21002004F07D
:102E5000E6FF0C480CF01AFB0023C7F8B83048E135
:102E6000204B01080169002003690020026900204D
:102E70007C68002000690020F0490200E02B00205F
:102E8000B4490108D02B0020D7F8B830D7F8CC20AF
:102E90001344BB64BB6C022B00F226810CF09CFA3D
:102EA0000246D7F8B83003FB02F303F112009E4943
:102EB000BA6C13465B0013441B010B441B689B4A0E
:102EC000014603200DF004FD9749BA6C13465B00E0
:102ED00013441B010B440C331B68002B00F08B8048
:102EE000D7F8D030002B04D0D7F8E030BA6C9A4233
:102EF00031D00CF071FA0246D7F8B83003FB02F378
:102F000003F112058849BA6C13465B0013441B0198
:102F10000B440C331B6893ED007A8349BA6C13465B
:102F20005B0013441B010B441C331B6807EE903AF3
:102F3000F8EEE77A77EE277A17EE900AFDF72CFB8A
:102F400003460C46CDE90034794A29466FF07C00EF
:102F50000DF0BEFCC8E0D7F8E030BA6C9A423BD125
:102F6000D7F8F010D7F8E80004F03EFD0246714BA8
:102F70009A4231D80CF030FA0246D7F8B83003FB49
:102F800002F303F112056849BA6C13465B0013445F
:102F90001B010B440C331B6893ED007A6249BA6C39
:102FA00013465B0013441B010B441C331B6807EEE4
:102FB000903AF8EEE77A77EE277A17EE900AFDF767
:102FC000EBFA03460C46CDE900345B4A29466FF024
:102FD0007C000DF07DFC87E0D7F8F010D7F8E80012
:102FE00004F002FD0246554B9A427DD9D7F8E830ED
:102FF000C7F8F03078E04C49BA6C13465B001344D4
:103000001B010B4408331B68002B6DD0D7F8D03060
:10301000002B04D0D7F8E030BA6C9A4223D00CF0E1
:10302000DBF90246D7F8B83003FB02F303F11204D0
:103030003D49BA6C13465B0013441B010B44083333
:103040001B6819683848BA6C13465B0013441B01AF
:1030500003441C331B680B44394A21466FF07C0043
:103060000DF036FC40E0D7F8E030BA6C9A422DD132
:10307000D7F8F010D7F8E80004F0B6FC02462D4B64
:103080009A4223D80CF0A8F90246D7F8B83003FBCF
:1030900002F303F112042449BA6C13465B00134493
:1030A0001B010B4408331B6819681F48BA6C134690
:1030B0005B0013441B0103441C331B680B44214A6F
:1030C00021466FF07C000DF003FC0DE0D7F8F01006
:1030D000D7F8E80004F088FC0246184B9A4203D95E
:1030E000D7F8E830C7F8F030D7F8B8300133C7F870
:1030F000B830D7F8B830052B7FF7C6AE04F018FD0E
:10310000114B1B78DBB2002B32D00023C7F8F43010
:10311000D7F8D030002B19D10123C7F8D030D7F819
:10312000E830C7F8F03014E0C04D010854490108F8
:10313000A44901081FA10700AC49010800350C0093
:103140006449010868490108046900200023C7F8A0
:10315000D0309F4B00221A709E4B00221A709E4B5B
:1031600000221A709D4B00221A709D4B00221A708B
:103170009C4B1B78DBB2002B18D00023C7F8F4302F
:10318000D7F8D030002B02D00023C7F8D030904BB6
:1031900000221A708F4B00221A708F4B00221A7077
:1031A0008E4B00221A708F4B00221A708A4B1B78AC
:1031B000DBB2002B0BD18C4B1B78DBB2002B00F069
:1031C0005B818A4B1B68B3F5C87F40F255810023B1
:1031D000C7F8F430854B1B68642B04D9834B1B68FC
:1031E000643B824A1360D7F8D030002B00F0448152
:1031F0007F4B1B78DBB2002B00F037817D49D7F87D
:10320000E02013465B0013441B010B441833D3ED3D
:10321000007AF5EEC07AF1EE10FA40F32681754996
:10322000D7F8E02013465B0013441B010B440C331A
:103230001B68002B7AD06F49D7F8E02013465B005B
:1032400013441B010B440C331B6893ED007A69494E
:10325000D7F8E02013465B0013441B010B441833DE
:10326000D3ED007A37EE677A6249D7F8E02013464B
:103270005B0013441B010B4410331B6807EE903AAC
:10328000F8EEE77AB4EEE77AF1EE10FA1AD559497A
:10329000D7F8E02013465B0013441B010B441033A6
:1032A00018685449D7F8E02013465B0013441B010B
:1032B0000B440C331B6807EE900AF8EEE77AC3ED77
:1032C000007A24E04B49D7F8E02013465B00134412
:1032D0001B010B440C331B6893ED007A4549D7F86A
:1032E000E02013465B0013441B010B441833D3ED5D
:1032F000007A4049D7F8E02013465B0013441B01D5
:103300000B440C331B6877EE677AC3ED007A3949BA
:10331000D7F8E02013465B0013441B010B440C3329
:103320001B6804211846FDF7A3FE9EE03149D7F83B
:10333000E02013465B0013441B010B4408331B6859
:10334000002B00F092802B49D7F8E02013465B0059
:1033500013441B010B4408331B681B6807EE903AAB
:10336000B8EEE77A2349D7F8E02013465B00134410
:103370001B010B441833D3ED007A37EE677A1D49F1
:10338000D7F8E02013465B0013441B010B441033B5
:103390001B6807EE903AF8EEE77AB4EEE77AF1EEC2
:1033A00010FA29D51349D7F8E02013465B001344DF
:1033B0001B010B44083319680E48D7F8E020134668
:1033C0005B0013441B01034410331B680B603EE099
:1033D00002690020036900200069002001690020C3
:1033E0000469002005690020E0680020E8680020EA
:1033F0009E680020C04D0108A849D7F8E020134678
:103400005B0013441B010B4408331B681B6807EE69
:10341000903AB8EEE77AA149D7F8E02013465B006E
:1034200013441B010B441833D3ED007A77EE677A0F
:103430009A49D7F8E02013465B0013441B010B4464
:1034400008331B68FDEEE77A17EE902A1A6093495D
:10345000D7F8E02013465B0013441B010B440833EC
:103460001B6804211846FDF703FED7F8E830C7F8BB
:10347000F0308B4B00221A708A4B1B78DBB2002B8A
:103480000BD1894B1B78DBB2002B00F05381874BAB
:103490001B68B3F5C87F40F24D810023C7F8F430B4
:1034A000824B1B68642B04D9804B1B68643B7F4AAA
:1034B0001360D7F8D030002B00F03C817C4B1B7898
:1034C000DBB2002B00F02F817449D7F8E0201346BF
:1034D0005B0013441B010B441833D3ED007AF5EE67
:1034E000C07AF1EE10FA40F31E816C49D7F8E02063
:1034F00013465B0013441B010B440C331B68002B69
:103500007AD06649D7F8E02013465B0013441B01CC
:103510000B440C331B6893ED007A6049D7F8E02028
:1035200013465B0013441B010B441833D3ED007AA0
:1035300037EE277A5949D7F8E02013465B00134449
:103540001B010B4414331B6807EE903AF8EEE77A40
:10355000B4EEE77AF1EE10FA1ADD5049D7F8E02020
:1035600013465B0013441B010B44143318684B498A
:10357000D7F8E02013465B0013441B010B440C33C7
:103580001B6807EE900AF8EEE77AC3ED007A24E0B4
:103590004249D7F8E02013465B0013441B010B445B
:1035A0000C331B6893ED007A3C49D7F8E0201346B2
:1035B0005B0013441B010B441833D3ED007A3749E9
:1035C000D7F8E02013465B0013441B010B440C3377
:1035D0001B6877EE277AC3ED007A3049D7F8E020F0
:1035E00013465B0013441B010B440C331B6804217E
:1035F0001846FDF73DFD96E02849D7F8E020134630
:103600005B0013441B010B4408331B68002B00F0C4
:103610008A802249D7F8E02013465B0013441B013F
:103620000B4408331B681B6807EE903AB8EEE77A44
:103630001A49D7F8E02013465B0013441B010B44E2
:103640001833D3ED007A37EE277A1449D7F8E02003
:1036500013465B0013441B010B4414331B6807EE35
:10366000903AF8EEE77AB4EEE77AF1EE10FA21DD5F
:103670000A49D7F8E02013465B0013441B010B44B2
:10368000083319680548D7F8E02013465B00134457
:103690001B01034414331B680B6036E0C04D010866
:1036A0000069002001690020E1680020EC6800202A
:1036B0009E680020B649D7F8E02013465B0013440B
:1036C0001B010B4408331B681B6807EE903AB8EEE9
:1036D000E77AAF49D7F8E02013465B0013441B019B
:1036E0000B441833D3ED007A77EE277AA849D7F840
:1036F000E02013465B0013441B010B4408331B6896
:10370000FDEEE77A17EE902A1A60A149D7F8E0207B
:1037100013465B0013441B010B4408331B68042150
:103720001846FDF7A5FCD7F8E830C7F8F030994BFC
:1037300000221A70984B1B78DBB2002B25D0002397
:10374000C7F8F430D7F8D030002B1BD0D7F8E030D2
:103750000133C7F8E030D7F8E030022B02D902235A
:10376000C7F8E030D7F8CC301A1DD7F8E0309A42CD
:1037700004D2D7F8E030043BC7F8CC30D7F8E830B3
:10378000C7F8F030844B00221A70844B1B78DBB2F0
:10379000002B23D00023C7F8F430D7F8D030002B0B
:1037A00019D0D7F8E030013BC7F8E030D7F8E03067
:1037B000002B02DA0023C7F8E030D7F8E030D7F862
:1037C000CC209A4203D9D7F8E030C7F8CC30D7F8EC
:1037D000E830C7F8F030714B00221A706D4B1B783F
:1037E000DBB2002B10D0D7F8D030002B0CD1694BB6
:1037F00000221A706A4B1B78DBB20133DAB2684BD5
:103800001A7000BF02F0F7BB664B1B78DBB2002BCF
:1038100002F0F183D7F8D030002B42F0EC83614BFB
:1038200000221A705E4B1B78DBB2013BDAB25C4BB4
:103830001A7002F0E0BBD7F8F410D7F8E80004F0F3
:10384000D3F80246584B9A4240F24183D7F8E83009
:10385000C7F8F43004F0F8F90123009340238022E4
:103860000021002004F0DBFA50480BF00FFE504A14
:10387000022100200DF02CF8012300930123802267
:103880000F21002004F0CBFA4A480BF0FFFD002383
:10389000C7F8B43014E3D7F8B430D7F8CC201344C9
:1038A000BB64BB6C082B00F206830BF095FD02464F
:1038B000D7F8B43003FB02F303F112003E49BA6CAF
:1038C00013465B0013441B010B441B683B4A014633
:1038D00003200CF0FDFF3849BA6C13465B0013441B
:1038E0001B010B440C331B68002B00F0D380D7F86E
:1038F000D030002B04D0D7F8E030BA6C9A4263D0B5
:103900000BF06AFD0246D7F8B43003FB02F303F173
:1039100012052949BA6C13465B0013441B010B4482
:103920000C331B681A46264B1B68194640F66C433D
:1039300003FB01F3134493ED007A1F49BA6C13465D
:103940005B0013441B010B441C331B6807EE903AC9
:10395000F8EEE77A37EE277A1749BA6C13465B0020
:1039600013441B010B442033D3ED007A67EE277A12
:1039700017EE900AFCF710FE03460C46CDE9003422
:10398000104A29466FF07C000CF0A2FF93E200BFC2
:10399000C04D010801690020036900200269002070
:1039A0007C68002000690020F0490200E02B002024
:1039B000C4490108D02B0020D04F01085449010808
:1039C000C8680020D4490108D7F8E030BA6C9A42A0
:1039D00050D1D7F8F010D7F8E80004F005F8024607
:1039E000CA4B9A4246D80BF0F7FC0246D7F8B430DF
:1039F00003FB02F303F11205C549BA6C13465B00E1
:103A000013441B010B440C331B681A46C14B1B6843
:103A1000194640F66C4303FB01F3134493ED007A1F
:103A2000BB49BA6C13465B0013441B010B441C33A7
:103A30001B6807EE903AF8EEE77A37EE277AB4493A
:103A4000BA6C13465B0013441B010B442033D3EDC7
:103A5000007A67EE277A17EE900AFCF79DFD034681
:103A60000C46CDE90034AC4A29466FF07C000CF0DE
:103A70002FFF20E2D7F8F010D7F8E80003F0B4FFEA
:103A80000246A64B9A4240F21682D7F8E830C7F8B1
:103A9000F03010E29E49BA6C13465B0013441B01E0
:103AA0000B4408331B68002B00F0B680D7F8D030E9
:103AB000002B04D0D7F8E030BA6C9A4246D00BF015
:103AC0008BFC0246D7F8B43003FB02F303F1120477
:103AD0008F49BA6C13465B0013441B010B44083337
:103AE0001B681A468B4B1B68194640F66C4303FB58
:103AF00001F3134419688648BA6C13465B001344FB
:103B00001B0103441C331B680B4407EE903AB8EECC
:103B1000E77A7F49BA6C13465B0013441B010B44E0
:103B20002033D3ED007A67EE277AB0EE670A10F003
:103B300023FDF0EE407AFDEEE77A17EE903A784AF0
:103B400021466FF07C000CF0C3FEB4E1D7F8E03002
:103B5000BA6C9A4250D1D7F8F010D7F8E80003F0C9
:103B600043FF0246694B9A4246D80BF035FC0246A9
:103B7000D7F8B43003FB02F303F112046449BA6CC2
:103B800013465B0013441B010B4408331B681A46A1
:103B9000604B1B68194640F66C4303FB01F313446A
:103BA00019685B48BA6C13465B0013441B0103445D
:103BB0001C331B680B4407EE903AB8EEE77A544981
:103BC000BA6C13465B0013441B010B442033D3ED46
:103BD000007A67EE277AB0EE670A10F0CDFCF0EEBF
:103BE000407AFDEEE77A17EE903A4E4A21466FF0A2
:103BF0007C000CF06DFE5EE1D7F8F010D7F8E8001D
:103C000003F0F2FE0246454B9A4240F25481D7F847
:103C1000E830C7F8F0304EE1D7F8D030002B04D0B0
:103C2000D7F8E030BA6C9A4221D00BF0D5FB0246AF
:103C3000D7F8B43003FB02F303F112003449BA6C35
:103C400013465B0013441B010B4404331B681A46E4
:103C5000304B1B68194640F66C4303FB01F31344D9
:103C6000314A01466FF07C000CF032FE23E1D7F8B8
:103C7000D030012B30D1D7F8E030BA6C9A422BD13A
:103C8000D7F8F010D7F8E80003F0AEFE02461F4B5D
:103C90009A4221D80BF0A0FB0246D7F8B43003FBC0
:103CA00002F303F112001A49BA6C13465B00134485
:103CB0001B010B4404331B681A46164B1B6819463C
:103CC00040F66C4303FB01F31344184A01466FF0BE
:103CD0007C000CF0FDFDEEE0D7F8E030BA6C9A42C3
:103CE00070D1D7F8F010D7F8E80003F07DFE024657
:103CF000064B9A4266D80023C7F8B0300023C7F8B5
:103D0000AC300023C7F8A83057E000BF1FA1070060
:103D1000D04F0108C8680020DC49010800350C00BC
:103D20006449010868490108E4490108E8490108B3
:103D300007F12002D7F8A83013441B7887F82F30FA
:103D4000D7F8B030A3F17D040BF046FB0246D7F85C
:103D5000B43003FB02F303F1120197F82F30DE4A6F
:103D600020460CF0B5FD0246D7F8B0301344C7F832
:103D7000B030D7F8A820D7F8D4309A4214D1D7F869
:103D8000B030C3F17D040BF027FB034603F11101B2
:103D9000D7F8B020D7F8AC30D31A5A1E01230093BD
:103DA0000123204603F0E0FFD7F8B030C7F8AC306D
:103DB000D7F8A8300133C7F8A830D7F8A8300B2BB4
:103DC000B6DD78E0D7F8D030022B66D10023C7F8F3
:103DD000A4300023C7F8A0300023C7F89C3058E077
:103DE00007F12002D7F89C3013441B7887F82E3057
:103DF000D7F8A030A3F17D040BF0EEFA0246D7F815
:103E0000B43003FB02F303F1120197F82E30B24AEB
:103E100020460CF05DFD0246D7F8A4301344C7F8E5
:103E2000A430D7F89C20D7F8D4309A4228D1D7F8BC
:103E3000A430C3F17D04D7F8A420D7F8A030D51A58
:103E40000BF0CAFA02460023009313462A461221B9
:103E5000204603F089FFD7F8A430C3F17D040BF0AE
:103E6000BBFA034603F11101D7F8A420D7F8A0301C
:103E7000D31A5A1E012300930123204603F074FF36
:103E8000D7F8A430C7F8A030D7F89C300133C7F872
:103E90009C30D7F89C300B2BA2DDD7F8F010D7F868
:103EA000E80003F0A1FD02468C4B9A4203D9D7F8F3
:103EB000E830C7F8F030D7F8B4300133C7F8B43081
:103EC000D7F8B430052B7FF7E6AC03F031FE844B16
:103ED0001B78DBB2002B00F0CF800023C7F8F43052
:103EE000D7F8D030002B07D10123C7F8D030D7F84E
:103EF000E830C7F8F030B0E0D7F8D030012B40F010
:103F0000A580D7F8E830C7F8F0300223C7F8D030E2
:103F100007F120030C22202118460CF0B6FD07F112
:103F200008031822002118460CF0AFFD0023C7F843
:103F3000983082E06B49D7F8E02013465B001344C9
:103F40001B010B4404331B681A46674B1B68194658
:103F500040F66C4303FB01F31A44D7F89830D31AA8
:103F60000B331B78002B63D0D7F89830C7F8943008
:103F700059E05C49D7F8E02013465B0013441B016D
:103F80000B4404331B681A46574B1B68194640F60E
:103F90006C4303FB01F31A44D7F89430D31A0B3364
:103FA0001B7887F82D30002387F893300023C7F85B
:103FB0008C3013E04D4B1A68D7F88C3013441B78C3
:103FC00097F82D209A4204D1D7F88C3087F8933097
:103FD0000AE0D7F88C300133C7F88C30B7F8463098
:103FE000D7F88C209A42E5DBD7F89420D7F89830A0
:103FF000D31A07F58072134497F82D2003F8E02CAC
:10400000D7F89420D7F89830D31A97F8932012B2A3
:104010005B0007F580710B4423F8F82CD7F8943037
:104020000133C7F89430D7F894300B2BA1DD09E0A9
:10403000D7F898300133C7F89830D7F898300B2B61
:104040007FF778AF0023C7F8D43006E0D7F8D03038
:10405000022B02D10123C7F8D030254B00221A7061
:10406000244B00221A70244B00221A70234B00228A
:104070001A701B4B00221A70214B1B78DBB2002BED
:1040800000F0B7800023C7F8F430D7F8D030002B09
:1040900000F0A080D7F8D030022B40F09280114978
:1040A000D7F8E02013465B0013441B010B44043394
:1040B0001B681A460C4B1B68194640F66C4303FB01
:1040C00001F313440C22002118460CF0DEFC0023FF
:1040D000C7F888305AE000BFF049010800350C00ED
:1040E00004690020D04F0108C8680020D0030020D8
:1040F0000269002003690020006900200169002096
:1041000005690020D7F88830C3F10B0307F58072EA
:10411000134413F8E03C202B33D0D7F88830C7F88D
:10412000843029E0D7F88430C3F10B01D7F884201C
:10413000D7F88830D31A1C46A648D7F8E020134693
:104140005B0013441B01034404331B681A46A24B53
:104150001B68184640F66C4303FB00F313442344EA
:104160001A4607F580730B4413F8E03C1370D7F838
:1041700084300133C7F88430D7F884300B2BD1DD7D
:1041800008E0D7F888300133C7F88830D7F888308E
:104190000B2BB7DD8F49D7F8E02013465B001344A3
:1041A0001B010B4404331B681A468B4B1B681946D2
:1041B00040F66C4303FB01F313440C211846FCF753
:1041C00057FFD7F8E830C7F8F030D7F8D030013BC8
:1041D000C7F8D030814B00221A70814B00221A7030
:1041E000804B00221A70804B00221A707F4B0022F5
:1041F0001A707C4B1B78DBB2002B0BD17C4B1B78ED
:10420000DBB2002B00F0C9817A4B1B68B3F5C87F85
:1042100040F2C3810023C7F8F430764B1B68642B4F
:1042200004D9744B1B68643B724A1360D7F8D030D2
:10423000002B00F0B281D7F8D030012B40F09681EE
:104240006D4B1B78DBB2002B00F0A0816149D7F8E1
:10425000E02013465B0013441B010B441833D3EDDD
:10426000007AF5EE407AF1EE10FA00F08F815949AC
:10427000D7F8E02013465B0013441B010B440C33BA
:104280001B68002B00F0BA805249D7F8E020134693
:104290005B0013441B010B440C331B681A464E4B46
:1042A0001B68194640F66C4303FB01F3134493ED7E
:1042B000007A4849D7F8E02013465B0013441B01FD
:1042C0000B441833D3ED007A37EE677A4149D7F8BB
:1042D000E02013465B0013441B010B4410331B68A2
:1042E00007EE903AF8EEE77AB4EEE77AF1EE10FADC
:1042F00023D53849D7F8E02013465B0013441B014F
:104300000B44103318683349D7F8E02013465B009C
:1043100013441B010B440C331B681A462E4B1B68BD
:10432000194640F66C4303FB01F3134407EE900A71
:10433000F8EEE77AC3ED007A34E02649D7F8E020BA
:1043400013465B0013441B010B440C331B681A46D5
:10435000214B1868014640F66C4303FB01F31344FC
:1043600093ED007A1B49D7F8E02013465B00134415
:104370001B010B441833D3ED007A1649D7F8E0201F
:1043800013465B0013441B010B440C331B681A4695
:10439000014640F66C4303FB01F3134477EE677A62
:1043A000C3ED007A0B49D7F8E02013465B001344B5
:1043B0001B010B440C331B681A46074B1B6819463C
:1043C00040F66C4303FB01F3134404211846FCF749
:1043D0004FFEDBE0D04F0108C868002002690020D2
:1043E00003690020006900200169002005690020A0
:1043F000E0680020E86800209E680020B949D7F8EE
:10440000E02013465B0013441B010B4408331B6878
:10441000002B00F0BB80B349D7F8E02013465B00C7
:1044200013441B010B4408331B681A46AE4B1B6830
:10443000194640F66C4303FB01F313441B6807EE77
:10444000903AB8EEE77AA749D7F8E02013465B0028
:1044500013441B010B441833D3ED007A37EE677A0F
:10446000A049D7F8E02013465B0013441B010B441E
:1044700010331B6807EE903AF8EEE77AB4EEE77A6D
:10448000F1EE10FA1FD59749D7F8E02013465B00EC
:1044900013441B010B4408331B681A46924B1B68DC
:1044A000194640F66C4303FB01F3134418468D494B
:1044B000D7F8E02013465B0013441B010B44103374
:1044C0001B6803603AE08749D7F8E02013465B0099
:1044D00013441B010B4408331B681A46824B1868AF
:1044E000014640F66C4303FB01F313441B6807EEDF
:1044F000903AB8EEE77A7B49D7F8E02013465B00A4
:1045000013441B010B441833D3ED007A77EE677A1E
:104510007449D7F8E02013465B0013441B010B4499
:1045200008331B681A46014640F66C4303FB01F34F
:104530001344FDEEE77A17EE902A1A606949D7F81E
:10454000E02013465B0013441B010B4408331B6837
:104550001A46654B1B68194640F66C4303FB01F392
:10456000134404211846FCF783FD0FE0D7F8D03040
:10457000022B0BD1D7F8D4300133C7F8D430D7F899
:10458000D4300A2B02DD0A23C7F8D430D7F8E8303C
:10459000C7F8F030554B00221A70554B1B78DBB230
:1045A000002B0BD1534B1B78DBB2002B00F0C481E6
:1045B000514B1B68B3F5C87F40F2BE810023C7F89A
:1045C000F4304D4B1B68642B04D94B4B1B68643B88
:1045D000494A1360D7F8D030002B00F0AD81D7F8EE
:1045E000D030012B40F09181444B1B78DBB2002B83
:1045F00000F09B813B49D7F8E02013465B00134451
:104600001B010B441833D3ED007AF5EE407AF1EE3E
:1046100010FA00F08A813349D7F8E02013465B0096
:1046200013441B010B440C331B68002B00F0B580B6
:104630002C49D7F8E02013465B0013441B010B44C0
:104640000C331B681A46284B1B68194640F66C430E
:1046500003FB01F3134493ED007A2249D7F8E020DD
:1046600013465B0013441B010B441833D3ED007A4F
:1046700037EE277A1B49D7F8E02013465B00134436
:104680001B010B4414331B6807EE903AF8EEE77AEF
:10469000B4EEE77AF1EE10FA32DD1249D7F8E020F5
:1046A00013465B0013441B010B44143318680D4977
:1046B000D7F8E02013465B0013441B010B440C3376
:1046C0001B681A46084B1B68194640F66C4303FBEF
:1046D00001F3134407EE900AF8EEE77AC3ED007A8F
:1046E00043E000BFD04F0108C868002000690020E7
:1046F00001690020E1680020EC6800209E6800202D
:10470000A249D7F8E02013465B0013441B010B4479
:104710000C331B681A469E4B1868014640F66C43E2
:1047200003FB01F3134493ED007A9849D7F8E02096
:1047300013465B0013441B010B441833D3ED007A7E
:104740009249D7F8E02013465B0013441B010B4449
:104750000C331B681A46014640F66C4303FB01F319
:10476000134477EE277AC3ED007A8849D7F8E02022
:1047700013465B0013441B010B440C331B681A46A1
:10478000834B1B68194640F66C4303FB01F313444B
:1047900004211846FCF76CFCC7E07C49D7F8E02000
:1047A00013465B0013441B010B4408331B68002BAA
:1047B00000F0BB807549D7F8E02013465B00134436
:1047C0001B010B4408331B681A46714B1B681946C2
:1047D00040F66C4303FB01F313441B6807EE903A69
:1047E000B8EEE77A6949D7F8E02013465B00134436
:1047F0001B010B441833D3ED007A37EE277A634957
:10480000D7F8E02013465B0013441B010B4414331C
:104810001B6807EE903AF8EEE77AB4EEE77AF1EE2D
:1048200010FA1FDD5949D7F8E02013465B00134406
:104830001B010B4408331B681A46554B1B6819466D
:1048400040F66C4303FB01F3134418464F49D7F875
:10485000E02013465B0013441B010B4414331B6818
:1048600003603AE04949D7F8E02013465B0013445F
:104870001B010B4408331B681A46454B1868014658
:1048800040F66C4303FB01F313441B6807EE903AB8
:10489000B8EEE77A3D49D7F8E02013465B001344B1
:1048A0001B010B441833D3ED007A77EE277A374992
:1048B000D7F8E02013465B0013441B010B44083378
:1048C0001B681A46014640F66C4303FB01F3134490
:1048D000FDEEE77A17EE902A1A602C49D7F8E0200F
:1048E00013465B0013441B010B4408331B681A4634
:1048F000274B1B68194640F66C4303FB01F3134436
:1049000004211846FCF7B4FB0FE0D7F8D030022B97
:104910000BD1D7F8D430013BC7F8D430D7F8D43016
:10492000002B02DA0023C7F8D430D7F8E830C7F8F4
:10493000F030184B00221A70174B1B78DBB2002B9B
:1049400079D00023C7F8F430D7F8D030012B25D127
:10495000D7F8E0300133C7F8E030D7F8E030082B63
:1049600002D90823C7F8E030D7F8CC301A1DD7F8A1
:10497000E0309A4204D2D7F8E030043BC7F8CC309C
:10498000D7F8E830C7F8F03052E000BFD04F010848
:10499000C86800200169002003690020D7F8D030E2
:1049A000022B45D1BF4B1B78DBB2002B3CD0D7F894
:1049B000D4305B0007F58072134433F9F83C9BB2A6
:1049C00001339BB21AB2D7F8D4305B0007F580717F
:1049D0000B4423F8F82CD7F8D4305B0007F580722D
:1049E000134433F9F83C1A46B7F846309A4208DBCC
:1049F000D7F8D4305B0007F580721344002223F807
:104A0000F82CA94B1A68D7F8D4305B0007F58071F1
:104A10000B4433F9F83C1344197807F12002D7F816
:104A2000D43013440A461A70D7F8E830C7F8F0308B
:104A30009E4B00221A709E4B1B78DBB2002B6FD06E
:104A40000023C7F8F430D7F8D030012B1AD1D7F8AB
:104A5000E030013BC7F8E030D7F8E030002B02DA55
:104A60000023C7F8E030D7F8E030D7F8CC209A42DE
:104A700003D9D7F8E030C7F8CC30D7F8E830C7F81A
:104A8000F0304AE0D7F8D030022B46D1854B1B7866
:104A9000DBB2002B3DD0D7F8D4305B0007F5807235
:104AA000134433F9F83C9BB2013B9BB21AB2D7F8DE
:104AB000D4305B0007F580710B4423F8F82CD7F84D
:104AC000D4305B0007F58072134433F9F83C002BB7
:104AD0000CDAB7F84630013B9BB21AB2D7F8D430A3
:104AE0005B0007F580710B4423F8F82C6E4B1A68B5
:104AF000D7F8D4305B0007F580710B4433F9F83CEC
:104B00001344197807F12002D7F8D43013440A4629
:104B10001A70D7F8E830C7F8F030654B00221A70E9
:104B2000644B1B78DBB2002B13D0D7F8D030002BAE
:104B30000FD1604B00221A705F4B1B78DBB2013340
:104B4000DAB25D4B1A700023C7F8E03000BF01F005
:104B500055BA5A4B1B78DBB2002B01F04F82D7F8C5
:104B6000D030002B41F04A82544B00221A70524B35
:104B70001B78DBB2013BDAB24F4B1A700023C7F847
:104B8000E03001F03BBAD7F8F410D7F8E80002F0B3
:104B90002BFF02464A4B9A4240F22181D7F8E83077
:104BA000C7F8F43003F050F801230093402380222B
:104BB0000021002003F033F942480AF067FC424A22
:104BC000022100200BF084FE0123009301238022A8
:104BD0000F21002003F023F93C480AF057FC002382
:104BE000C7F88030F4E0D7F88030D7F8CC201344F1
:104BF000BB64BB6C072B00F2E680D7F8D030002BEB
:104C000004D0D7F8E030BA6C9A4265D03049BA6C1B
:104C100013465B0013441B010B4408331B68002B35
:104C200029D00AF0D9FB0246D7F8803003FB02F303
:104C300003F112002649BA6C13465B0013441B01B2
:104C40000B441C682249BA6C13465B0013441B01D9
:104C50000B4408331B681A461E4B1B68194640F666
:104C60006C4303FB01F313441B68224601460320F7
:104C70000BF02EFEA7E00AF0AFFB0246D7F880301B
:104C800003FB02F303F112001149BA6C13465B00F7
:104C900013441B010B441B681A46014603200BF00A
:104CA00017FE90E09E680020D003002003690020DA
:104CB00002690020016900207C6800200069002052
:104CC000F0490200E02B0020F4490108D02B00201D
:104CD000504E0108C8680020D7F8E030BA6C9A42FC
:104CE00063D1D7F8F010D7F8E80002F07DFE024655
:104CF000CA4B9A4259D80AF06FFB0246D7F8803067
:104D000003FB02F31233C64A19466FF07C000BF026
:104D1000DFFDC449BA6C13465B0013441B010B440E
:104D200008331B68002B29D00AF056FB0246D7F83F
:104D3000803003FB02F303F11200BA49BA6C134648
:104D40005B0013441B010B441C68B649BA6C134644
:104D50005B0013441B010B4408331B681A46B24B1B
:104D60001B68194640F66C4303FB01F313441B68B0
:104D70002246014603200BF0ABFD24E00AF02CFB99
:104D80000246D7F8803003FB02F303F11200A54975
:104D9000BA6C13465B0013441B010B441B681A4694
:104DA000014603200BF094FD0DE0D7F8F010D7F882
:104DB000E80002F019FE02469C4B9A4203D9D7F84C
:104DC000E830C7F8F030D7F880300133C7F88030CA
:104DD000D7F88030052B7FF706AF02F0A9FE944B81
:104DE0001B78DBB2002B3CD00023C7F8F430D7F897
:104DF000D030002B07D10123C7F8D030D7F8E830E6
:104E0000C7F8F0301EE0D7F8E830C7F8F030D7F830
:104E1000E02013465B0013441B01824A1344C7F889
:104E2000C830D7F8C83093F82420824B1A70D7F8CE
:104E3000C8301B68C7F8C4300023C7F8D830002337
:104E4000C7F8DC307C4B00221A707C4B00221A70B1
:104E50007B4B00221A707B4B00221A70744B00228D
:104E60001A70794B1B78DBB2002B18D00023C7F8DF
:104E7000F430D7F8D030002B02D00023C7F8D03060
:104E80006D4B00221A706D4B00221A706C4B002281
:104E90001A706C4B00221A706B4B00221A70674B11
:104EA0001B78DBB2002B25D00023C7F8F430D7F8ED
:104EB000D030002B1BD0D7F8E0300133C7F8E030FA
:104EC000D7F8E030072B02D90723C7F8E030D7F82E
:104ED000CC301A1DD7F8E0309A4204D2D7F8E0302F
:104EE000043BC7F8CC30D7F8E830C7F8F030534B64
:104EF00000221A70504B1B78DBB2002B23D000230A
:104F0000C7F8F430D7F8D030002B19D0D7F8E030FC
:104F1000013BC7F8E030D7F8E030002B02DA00237D
:104F2000C7F8E030D7F8E030D7F8CC209A4203D960
:104F3000D7F8E030C7F8CC30D7F8E830C7F8F03011
:104F40003D4B00221A703F4B1B78DBB2002B10D078
:104F5000D7F8D030002B0CD13A4B00221A70354BC9
:104F60001B78DBB20133DAB2324B1A7000BF01F0AA
:104F700048B8334B1B78DBB2002B01F04280D7F8E6
:104F8000D030002B41F03D802D4B00221A70294B70
:104F90001B78DBB2013BDAB2264B1A7001F031B854
:104FA000D7F8F410D7F8E80002F01EFD0246274BB0
:104FB0009A4240F23E83D7F8E830C7F8F43002F066
:104FC00043FE01230093402380220021002002F0B1
:104FD00026FF1F480AF05AFAD7F8C8309B681A46CD
:104FE000114B1B68194640F66C4303FB01F3134455
:104FF0001B68D7F8C420022100200BF069FC0123B4
:105000000093012380220F21002002F008FF1148A5
:105010000AF03CFA0023FB6703E100BF1FA1070071
:10502000044A0108504E0108C868002000350C00F1
:10503000046900207C6800200269002003690020C8
:10504000006900200169002005690020F049020084
:10505000E02B0020D02B0020FB6FD7F8D820134482
:10506000BB64D7F8C8309B681A46BF4B1B6819460B
:1050700040F66C4303FB01F313441B681A46BB6CF8
:10508000934280F0CB80D7F8C830DB6A002B2BD05E
:105090000AF0A2F90246FB6F03FB02F303F11205CB
:1050A000D7F8C8309E6ABB6C03F10108D7F8C83046
:1050B000DB6A1946AC4B1B681A4640F21B3303FBF4
:1050C00002F2BB6C13449B000B441B681846FBF7B1
:1050D00063FA03460C46CDE900344346324629467E
:1050E00003200BF0F5FB0FE00AF076F90246FB6FA8
:1050F00003FB02F303F11201D7F8C8309A6ABB6CC4
:10510000013303200BF0E4FBD7F8DC30BA6C9A4291
:1051100033D00AF061F90246FB6F03FB02F303F19F
:105120001205D7F8C830D3ED067AB7EE007AF4EE60
:10513000C77AF1EE10FA01DB8C4E00E08C4ED7F806
:10514000C830DB681946884B1B681A4640F21B338F
:1051500003FB02F2BB6C13449B000B441B68184614
:10516000FBF71AFA03460C46CDE9003432462946CD
:105170006FF07C000BF0ACFB50E0D7F8DC30BA6C81
:105180009A423DD1D7F8F010D7F8E80002F02CFC95
:105190000246784B9A4233D80AF01EF90246FB6F5A
:1051A00003FB02F303F11205D7F8C830D3ED067AFA
:1051B000B7EE007AF4EEC77AF1EE10FA01DB6E4E2C
:1051C00000E06E4ED7F8C830DB681946664B1B68A6
:1051D0001A4640F21B3303FB02F2BB6C13449B00E4
:1051E0000B441B681846FBF7D7F903460C46CDE97C
:1051F0000034324629466FF07C000BF069FB0DE06D
:10520000D7F8F010D7F8E80002F0EEFB02465C4B4E
:105210009A4203D9D7F8E830C7F8F030FB6F013372
:10522000FB67FB6F012B7FF717AF0123009301236F
:105230007E221E21012002F0F2FD0AF0CDF8024686
:105240000023009313467E221F21012002F08CFDD3
:10525000D7F8C8309B681A46434B1B68194640F67E
:105260006C4303FB01F313441B683B64454BFB6336
:10527000444BBB63434BBB67424B7B67424BBB66B4
:105280004FF000037B664FF0FF433B663E4BFB65F0
:105290000023BB6529E0D7F8C830DB681946324BDC
:1052A0001B681A4640F21B3303FB02F2BB6D13442A
:1052B0009B000B441B687B6397ED0D7AD7ED1A7A40
:1052C000B4EEE77AF1EE10FA01DD7B6BBB6697ED89
:1052D0000D7AD7ED197AB4EEE77AF1EE10FA01D52E
:1052E0007B6B7B66BB6D0133BB65BA6D3B6C9A42D1
:1052F000D1DBD7F8C830DB6A002B00F0E680002352
:105300007B6529E0D7F8C830DB6A1946164B1B6865
:105310001A4640F21B3303FB02F27B6D13449B00E1
:105320000B441B683B6397ED0C7AD7ED177AB4EE0C
:10533000E77AF1EE10FA01DD3B6BFB6597ED0C7A35
:10534000D7ED187AB4EEE77AF1EE10FA01D53B6B9F
:105350003B667B6D01337B657A6D3B6C9A42D1DB9A
:1053600000233B65ABE000BFC8680020A4490108EA
:10537000D44901081FA10700AC490108DC49010814
:1053800000350C00000080BF000080FFD7F8C83057
:10539000DB6A19464E4B1B681A4640F21B3303FB6F
:1053A00002F23B6D13449B000B441B683B63D7F830
:1053B000C830DB681946464B1B681A4640F21B335F
:1053C00003FB02F23B6D13449B000B441B687B63A1
:1053D00097ED0C7AD7ED187A77EE677A9FED3D7AE4
:1053E00067EE876A97ED177AD7ED187A37EE677A06
:1053F000C6EE877AB7EE007A77EE877AC7ED0F7A36
:1054000097ED0D7AD7ED197A77EE676A97ED1A7AEC
:10541000D7ED197A37EE677AC6EE877A9FED2E7A46
:1054200067EE877A9FED2D7A77EE677AC7ED0E7A71
:10543000D7ED1E7ABFEE007AF4EE477AF1EE10FA5D
:105440000CD1D7ED1D7ABFEE007AF4EE477AF1EE7B
:1054500010FA03D1FB6BBB67BB6B7B673A6DD7F868
:10546000DC309A4203D1FB6B3B67BB6BFB66D7ED2D
:105470001E7AFCEEE77A17EE903A98B2D7ED1D7AD5
:10548000FCEEE77A17EE903A99B2D7ED0F7AFCEE80
:10549000E77A17EE903A9AB2D7ED0E7AFCEEE77AF9
:1054A00017EE903A9CB201230093234602F060FD70
:1054B000FB6BBB67BB6B7B673B6D01333B653A6D39
:1054C0003B6C9A42FFF662AF96E00023FB648EE0ED
:1054D000C86800200000FC420000004200007C423E
:1054E000D7F8C830DB681946BA4B1B681A4640F239
:1054F0001B3303FB02F2FB6C13449B000B441B6841
:105500007B63FB6C07EE903AF8EEE76A3B6C013B7D
:1055100007EE903AB8EEE77AC6EE877A9FEDAE7A5C
:1055200067EE877AB7EE007A77EE877AC7ED0F7A63
:1055300097ED0D7AD7ED197A77EE676A97ED1A7ABB
:10554000D7ED197A37EE677AC6EE877A9FEDA37AA0
:1055500067EE877A9FEDA27A77EE677AC7ED0E7ACB
:10556000D7ED1E7ABFEE007AF4EE477AF1EE10FA2C
:105570000CD1D7ED1D7ABFEE007AF4EE477AF1EE4A
:1055800010FA03D1FB6BBB67BB6B7B67D7ED1E7A51
:10559000FCEEE77A17EE903A98B2D7ED1D7AFCEE62
:1055A000E77A17EE903A99B2D7ED0F7AFCEEE77AE8
:1055B00017EE903A9AB2D7ED0E7AFCEEE77A17EE34
:1055C000903A9CB201230093234602F0D1FCFA6C7E
:1055D000D7F8DC309A4203D1FB6B3B67BB6BFB66B1
:1055E000FB6BBB67BB6B7B67FB6C0133FB64FA6CCB
:1055F0003B6C9A42FFF674AFD7ED1B7AB3EE0C7A90
:10560000F4EEC77AF1EE10FA11DDD7ED1C7AFDEE5B
:10561000E77A17EE903A1BB2D7ED1B7AFDEEE77AE8
:1056200017EE902A12B21146184602F0C2FF02F09D
:105630007FFA6C4B1B78DBB2002B17D00023C7F826
:10564000F430694B09221A70684B00221A70684BBB
:1056500000221A70674B00221A70674B00221A70E2
:10566000604B00221A70654B00221A70614B1B7848
:10567000DBB2002B0BD1624B1B78DBB2002B00F0AE
:10568000B481604B1B68B3F5C87F40F2AE81002344
:10569000C7F8F4305B4B1B68642B04D9594B1B686B
:1056A000283B584A1360584B1B78DBB2002B00F0A4
:1056B0009581D7F8C830D3ED067AF5EE407AF1EE51
:1056C00010FA00F08B81D7F8C830DB6A002B00F0AD
:1056D0009D80D7F8C830DB68002B00F07F81D7F8B9
:1056E000C830DB6819463B4B1B681A4640F21B3337
:1056F00003FB02F2D7F8DC3013449B000B4493ED1C
:10570000007AD7F8C830D3ED067A37EE677AD7F843
:10571000C8301B6907EE903AF8EEE77AB4EEE77A04
:10572000F1EE10FA19D5D7F8C8301869D7F8C83093
:10573000DB681946274B1B681A4640F21B3303FBF4
:1057400002F2D7F8DC3013449B000B4407EE900ABA
:10575000F8EEE77AC3ED007A27E0D7F8C830DB68C7
:1057600018461C4B19680A4640F21B3303FB02F231
:10577000D7F8DC3013449B00034493ED007AD7F84C
:10578000C830D3ED067AD7F8C830DB6818460A4629
:1057900040F21B3303FB02F2D7F8DC3013449B00CA
:1057A000034477EE677AC3ED007AD7F8C830DB6838
:1057B0001946084B1B681A4640F21B3303FB02F2E2
:1057C000D7F8DC3013449B000B4404211846FBF748
:1057D0004FFC03E1C86800200000FC4200000042CA
:1057E00000007C42056900207C68002002690020DE
:1057F000036900200069002001690020046900207D
:10580000E0680020E86800209E680020D7F8C830D3
:10581000DB681946CF4B1B681A4640F21B3303FB6B
:1058200002F2D7F8DC3013449B000B4493ED007A6E
:10583000D7F8C830D3ED067A37EE677AD7F8C83094
:105840001B6907EE903AF8EEE77AB4EEE77AF1EEEC
:1058500010FA19D5D7F8C8301869D7F8C830DB68FE
:105860001946BC4B1B681A4640F21B3303FB02F27D
:10587000D7F8DC3013449B000B4407EE900AF8EE97
:10588000E77AC3ED007A27E0D7F8C830DB6818461E
:10589000B04B19680A4640F21B3303FB02F2D7F8FB
:1058A000DC3013449B00034493ED007AD7F8C830F2
:1058B000D3ED067AD7F8C830DB6818460A4640F2BE
:1058C0001B3303FB02F2D7F8DC3013449B00034484
:1058D00077EE677AC3ED007AD7F8C8309B681A462E
:1058E0009C4B1B68194640F66C4303FB01F31344C1
:1058F0001B68012B5EDDD7F8DC30002B5ADDD7F8B2
:10590000C830DB681946934B1B681A4640F21B33BC
:1059100003FB02F2D7F8DC3013449B000B4493EDF9
:10592000007AD7F8C830D3ED067A37EE677AD7F821
:10593000C830DB681946874B1B681A4640F21B3398
:1059400003FB02F2D7F8DC3013449B000B44043B0A
:10595000D3ED007AB4EEE77AF1EE10FA2AD8D7F850
:10596000C830DB6819467B4B1B681A4640F21B3374
:1059700003FB02F2D7F8DC3013449B000B44043BDA
:1059800093ED007AD7F8C830D3ED067AD7F8C8304F
:10599000DB6819466F4B1B681A4640F21B3303FB4A
:1059A00002F2D7F8DC3013449B000B4477EE277AE1
:1059B000C3ED007AD7F8C830DB681946654B1B6821
:1059C0001A4640F21B3303FB02F2D7F8DC301344D3
:1059D0009B000B4404211846FBF74AFBD7F8E8303C
:1059E000C7F8F0305C4B00221A705C4B1B78DBB2BE
:1059F000002B0BD15A4B1B78DBB2002B00F0B98186
:105A0000584B1B68B3F5C87F40F2B3810023C7F839
:105A1000F430544B1B68642B04D9524B1B68283B51
:105A2000504A1360504B1B78DBB2002B00F09A8178
:105A3000D7F8C830D3ED067AF5EE407AF1EE10FAD9
:105A400000F09081D7F8C830DB6A002B00F08E8020
:105A5000D7F8C830DB68002B00F08481D7F8C83055
:105A6000DB6819463B4B1B681A4640F21B3303FBAD
:105A700002F2D7F8DC3013449B000B4493ED007A1C
:105A8000D7F8C830D3ED067A37EE277AD7F8C83082
:105A90005B6907EE903AF8EEE77AB4EEE77AF1EE5A
:105AA00010FA19DDD7F8C8305869D7F8C830DB6864
:105AB0001946284B1B681A4640F21B3303FB02F2BF
:105AC000D7F8DC3013449B000B4407EE900AF8EE45
:105AD000E77AC3ED007A27E0D7F8C830DB681846CC
