:020000040800F2
:1000000000000420DD420008292D00082F2D0008E3
:10001000352D00083B2D0008412D00080000000090
:10002000000000000000000000000000A1850008A2
:10003000472D00080000000041860008552D0008EB
:100040002D4300082D4300082D4300082D430008D0
:100050002D4300082D4300082D4300082D430008C0
:100060002D4300082D4300082D4300082D430008B0
:10007000712D00082D430008852D00082D43000830
:100080002D4300082D430008992D00082D4300083A
:100090002D4300082D4300082D4300082D43000880
:1000A0002D4300082D4300082D4300082D43000870
:1000B0002D4300082D4300082D4300082D43000860
:1000C0002D4300082D4300082D4300082D43000850
:1000D0002D430008AD2D00082D430008C12D000858
:1000E0002D4300082D4300082D4300082D43000830
:1000F0002D4300082D4300082D4300082D43000820
:100100002D4300082D4300082D4300082D4300080F
:100110002D4300082D4300082D430008D52D00086D
:100120002D4300082D430008E92D00082D43000849
:100130002D43000800000000000000000000000047
:100140000000000000000000000000002D43000837
:100150002D4300082D430008FD2D00082D43000805
:100160002D4300082D4300082D4300082D430008AF
:100170002D4300082D43000800000000000000008F
:100180002D4300082D4300082D4300082D4300088F
:100190002D4300082D430008000000002D430008F7
:1001A0000000000000000000000000002D430008D7
:1001B0002D4300082D43000800000000000000004F
:1001C000000000000000000000000000000000002F
:1001D0000000000000000000000000002D430008A7
:1001E00010B5054C237833B9044B13B10448AFF371
:1001F00000800123237010BD1018002000000000B3
:10020000C8DB000808B5034B1BB103490348AFF333
:10021000008008BD0000000014180020C8DB0008A2
:10022000034613F8012B002AFBD1181A0138704736
:1002300001F0FF01102A2BDB10F0070F08D010F897
:10024000013B013A8B422DD010F0070F42B3F6D19B
:10025000F0B441EA012141EA014122F007047FF0B4
:1002600000070023F0E80256083C85EA010586EA0B
:10027000010685FA47F5A3FA87F586FA47F6A5FA47
:1002800087F68EB9EED1F0BC01F0FF0102F0070253
:1002900032B110F8013B013A83EA010313B1F8D1FE
:1002A0000020704701387047002D06BF35460338DF
:1002B000073815F0010F07D1013015F4807F02BF18
:1002C000013015F4C03F0130F0BC0138704700BF69
:1002D00081F0004102E000BF83F0004330B54FEAF7
:1002E00041044FEA430594EA050F08BF90EA020F64
:1002F0001FBF54EA000C55EA020C7FEA645C7FEAF7
:10030000655C00F0E2804FEA5454D4EB5555B8BF19
:100310006D420CDD2C4480EA020281EA030382EA8A
:10032000000083EA010180EA020281EA0303362D1C
:1003300088BF30BD11F0004F4FEA01314FF4801CEF
:100340004CEA113102D0404261EB410113F0004F01
:100350004FEA03334CEA133302D0524263EB4303B8
:1003600094EA050F00F0A780A4F10104D5F1200E56
:100370000DDB02FA0EFC22FA05F2801841F10001B1
:1003800003FA0EF2801843FA05F359410EE0A5F185
:1003900020050EF1200E012A03FA0EFC28BF4CF0B6
:1003A000020C43FA05F3C01851EBE37101F000456C
:1003B00007D54FF0000EDCF1000C7EEB00006EEB79
:1003C0000101B1F5801F1BD3B1F5001F0CD3490803
:1003D0005FEA30004FEA3C0C04F101044FEA44525A
:1003E00012F5800F80F09A80BCF1004F08BF5FEAE1
:1003F000500C50F1000041EB045141EA050130BDC1
:100400005FEA4C0C404141EB010111F4801FA4F163
:100410000104E9D191F0000F04BF01460020B1FAB8
:1004200081F308BF2033A3F10B03B3F120020CDAF0
:100430000C3208DD02F1140CC2F10C0201FA0CF0CE
:1004400021FA02F10CE002F11402D8BFC2F1200C33
:1004500001FA02F120FA0CFCDCBF41EA0C019040E9
:10046000E41AA2BF01EB0451294330BD6FEA040432
:100470001F3C1CDA0C340EDC04F11404C4F120021D
:1004800020FA04F001FA02F340EA030021FA04F32F
:1004900045EA030130BDC4F10C04C4F1200220FA86
:1004A00002F001FA04F340EA0300294630BD21FAC4
:1004B00004F0294630BD94F0000F83F4801306BF8A
:1004C00081F480110134013D4EE77FEA645C18BF7E
:1004D0007FEA655C29D094EA050F08BF90EA020F15
:1004E00005D054EA000C04BF1946104630BD91EA0D
:1004F000030F1EBF0021002030BD5FEA545C05D110
:100500004000494128BF41F0004130BD14F580044E
:100510003CBF01F5801130BD01F0004545F0FE41C2
:1005200041F470014FF0000030BD7FEA645C1ABFF7
:10053000194610467FEA655C1CBF0B46024650EA2E
:10054000013406BF52EA033591EA030F41F400215A
:1005500030BD00BF90F0000F04BF0021704730B5E0
:100560004FF4806404F132044FF000054FF00001B5
:1005700050E700BF90F0000F04BF0021704730B576
:100580004FF4806404F1320410F0004548BF40424B
:100590004FF000013EE700BF42004FEAE2014FEAA0
:1005A00031014FEA02701FBF12F07F4393F07F4F7B
:1005B00081F06051704732F07F4208BF704793F07E
:1005C0007F4F04BF41F40021704730B54FF4607491
:1005D00001F0004521F000411CE700BF50EA010294
:1005E00008BF704730B54FF000050AE050EA01023D
:1005F00008BF704730B511F0004502D5404261EBAD
:1006000041014FF4806404F132045FEA915C3FF4ED
:10061000D8AE4FF003025FEADC0C18BF03325FEA8A
:10062000DC0C18BF033202EBDC02C2F1200300FA3B
:1006300003FC20FA02F001FA03FE40EA0E0021FA60
:1006400002F11444BDE600BF70B54FF0FF0C4CF44E
:10065000E06C1CEA11541DBF1CEA135594EA0C0F00
:1006600095EA0C0F00F0DEF82C4481EA030621EA3B
:100670004C5123EA4C5350EA013518BF52EA033576
:1006800041F4801143F4801338D0A0FB02CE4FF028
:100690000005E1FB02E506F00042E0FB03E54FF058
:1006A0000006E1FB03569CF0000F18BF4EF0010E50
:1006B000A4F1FF04B6F5007F64F5407404D25FEA4C
:1006C0004E0E6D4146EB060642EAC62141EA5551FF
:1006D0004FEAC52040EA5E504FEACE2EB4F1FD0C41
:1006E00088BFBCF5E06F1ED8BEF1004F08BF5FEABF
:1006F000500E50F1000041EB045170BD06F0004671
:1007000046EA010140EA020081EA0301B4EB5C041D
:10071000C2BFD4EB0C0541EA045170BD41F4801115
:100720004FF0000E013C00F3AB8014F1360FDEBF3A
:10073000002001F0004170BDC4F10004203C35DA16
:100740000C341BDC04F11404C4F1200500FA05F399
:1007500020FA04F001FA05F240EA020001F000423A
:1007600021F0004110EBD37021FA04F642EB0601B0
:100770005EEA430E08BF20EAD37070BDC4F10C04DA
:10078000C4F1200500FA04F320FA05F001FA04F29E
:1007900040EA020001F0004110EBD37041F100018A
:1007A0005EEA430E08BF20EAD37070BDC4F1200595
:1007B00000FA05F24EEA020E20FA04F301FA05F2FD
:1007C00043EA020321FA04F001F0004121FA04F2A5
:1007D00020EA020000EBD3705EEA430E08BF20EA75
:1007E000D37070BD94F0000F0FD101F000464000AF
:1007F00041EB010111F4801F08BF013CF7D041EA31
:10080000060195F0000F18BF704703F00046520034
:1008100043EB030313F4801F08BF013DF7D043EA05
:100820000603704794EA0C0F0CEA135518BF95EABB
:100830000C0F0CD050EA410618BF52EA4306D1D142
:1008400081EA030101F000414FF0000070BD50EA61
:10085000410606BF1046194652EA430619D094EAEB
:100860000C0F02D150EA013613D195EA0C0F05D1D5
:1008700052EA03361CBF104619460AD181EA030129
:1008800001F0004141F0FE4141F470014FF00000E1
:1008900070BD41F0FE4141F4780170BD70B54FF07C
:1008A000FF0C4CF4E06C1CEA11541DBF1CEA1355FC
:1008B00094EA0C0F95EA0C0F00F0A7F8A4EB0504DE
:1008C00081EA030E52EA03354FEA013100F08880D5
:1008D0004FEA03334FF0805545EA131343EA12639E
:1008E0004FEA022245EA111545EA10654FEA002653
:1008F0000EF000419D4208BF964244F1FD0404F50C
:10090000407402D25B084FEA3202B61A65EB030567
:100910005B084FEA32024FF480104FF4002CB6EB24
:10092000020E75EB030E22BFB61A754640EA0C00A4
:100930005B084FEA3202B6EB020E75EB030E22BFE4
:10094000B61A754640EA5C005B084FEA3202B6EB25
:10095000020E75EB030E22BFB61A754640EA9C00E4
:100960005B084FEA3202B6EB020E75EB030E22BFB4
:10097000B61A754640EADC0055EA060E18D04FEA72
:10098000051545EA16754FEA06164FEAC30343EA12
:1009900052734FEAC2025FEA1C1CC0D111F4801FDF
:1009A0000BD141EA00014FF000004FF0004CB6E7D8
:1009B00011F4801F04BF01430020B4F1FD0C88BF77
:1009C000BCF5E06F3FF6AFAEB5EB030C04BFB6EB82
:1009D000020C5FEA500C50F1000041EB045170BD75
:1009E0000EF0004E4EEA113114EB5C04C2BFD4EBA2
:1009F0000C0541EA045170BD41F480114FF0000E26
:100A0000013C90E645EA060E8DE60CEA135594EAA1
:100A10000C0F08BF95EA0C0F3FF43BAF94EA0C0FA4
:100A20000AD150EA01347FF434AF95EA0C0F7FF419
:100A300025AF104619462CE795EA0C0F06D152EA6D
:100A400003353FF4FDAE1046194622E750EA410651
:100A500018BF52EA43067FF4C5AE50EA41047FF462
:100A60000DAF52EA43057FF4EBAE12E74FF0FF3CC7
:100A700006E000BF4FF0010C02E000BF4FF0010C98
:100A80004DF804CD4FEA410C7FEA6C5C4FEA430C11
:100A900018BF7FEA6C5C1BD001B050EA410C0CBF60
:100AA00052EA430C91EA030F02BF90EA020F0020C2
:100AB000704710F1000F91EA030F58BF994208BF29
:100AC00090422CBFD8176FEAE37040F001007047E6
:100AD0004FEA410C7FEA6C5C02D150EA013C07D13D
:100AE0004FEA430C7FEA6C5CD6D152EA033CD3D088
:100AF0005DF8040B704700BF8446104662468C4682
:100B00001946634600E000BF01B5FFF7B7FF0028B4
:100B100048BF10F1000F01BD4DF808EDFFF7F4FFDD
:100B20000CBF012000205DF808FB00BF4DF808ED68
:100B3000FFF7EAFF34BF012000205DF808FB00BF8B
:100B40004DF808EDFFF7E0FF94BF012000205DF8AD
:100B500008FB00BF4DF808EDFFF7CEFF94BF012062
:100B600000205DF808FB00BF4DF808EDFFF7C4FF5B
:100B700034BF012000205DF808FB00BF4FEA410CA4
:100B80007FEA6C5C02D150EA013C0AD14FEA430C87
:100B90007FEA6C5C02D152EA033C02D14FF00000C4
:100BA00070474FF0010070474FEA410212F5001202
:100BB00015D211D56FF47873B3EB625212D94FEAA4
:100BC000C12343F0004343EA505311F0004F23FA8E
:100BD00002F018BF404270474FF00000704750EAE3
:100BE000013005D111F0004008BF6FF000407047A0
:100BF0004FF00000704700BF4A0011D212F50012FA
:100C000011D20DD56FF47873B3EB62520ED44FEA64
:100C1000C12343F0004343EA505323FA02F07047E4
:100C20004FF00000704750EA013002D14FF0FF3022
:100C300070474FF0000070474FEA4102B2F1E043C5
:100C400024BFB3F5001CDCF1FE5C0DD901F0004CB3
:100C50004FEAC0024CEA5070B2F1004F40EB830003
:100C600008BF20F00100704711F0804F21D113F12F
:100C70003872BCBF01F00040704741F480114FEA68
:100C80005252C2F11802C2F1200C10FA0CF320FAF1
:100C900002F018BF40F001004FEAC1234FEAD3230E
:100CA00003FA0CFC40EA0C0023FA02F34FEA430378
:100CB000CCE77FEA625307D150EA01331EBF4FF001
:100CC000FE4040F44000704701F0004040F0FE401C
:100CD00040F40000704700BF53B94AB9002908BF6B
:100CE00000281CBF4FF0FF314FF0FF3000F072B909
:100CF000ADF1080C6DE904CE00F006F8DDF804E073
:100D0000DDE9022304B070472DE9F047089E044650
:100D10008846002B4BD18A42154667D9B2FA82F237
:100D20004AB1C2F1200701FA02F320FA07F7954011
:100D300047EA030894404FEA154E230CB8FBFEF730
:100D40001FFA85FC0EFB178843EA084307FB0CF1EA
:100D5000994209D9EB1807F1FF3080F01B819942C5
:100D600040F21881023F2B445B1AA4B2B3FBFEF0A1
:100D70000EFB103344EA034400FB0CFCA44509D9E4
:100D80002C1900F1FF3380F00781A44540F2048163
:100D900002382C4440EA0740A4EB0C0400271EB1A3
:100DA000D4400023C6E900433946BDE8F0878B42B2
:100DB00009D9002E00F0EB800027C6E90001384673
:100DC0003946BDE8F087B3FA83F7002F47D18B424D
:100DD00002D3824200F2FA80841A61EB03030120FD
:100DE0009846002EE0D0C6E90048DDE702B9FFDEF4
:100DF000B2FA82F2002A40F08F80491B4FEA154E6A
:100E00001FFA85F80127B1FBFEFC230C0EFB1C1119
:100E100043EA014308FB0CF1994207D9EB180CF1A6
:100E2000FF3002D2994200F2CD808446591AA3B213
:100E3000B1FBFEF00EFB101443EA044408FB00F87B
:100E4000A04507D92C1900F1FF3302D2A04500F2CA
:100E5000B6801846A4EB080440EA0C409FE7C7F1AF
:100E6000200CBB4022FA0CFE4EEA030E01FA07F4F6
:100E700020FA0CF521FA0CF34FEA1E482543B3FB88
:100E8000F8F92C0C08FB19331FFA8EFA44EA0343D5
:100E900009FB0AF49C4202FA07F200FA07F10BD9A7
:100EA0001EEB030309F1FF3080F087809C4240F283
:100EB0008480A9F1020973441B1BADB2B3FBF8F0A7
:100EC00008FB103345EA034400FB0AFAA24508D99F
:100ED0001EEB040400F1FF336BD2A24569D902383E
:100EE000744440EA0940A0FB0289A4EB0A044C4583
:100EF000C2464B4654D351D0002E69D0B1EB0A05FF
:100F000064EB030404FA0CFCFD40FC404CEA0505CC
:100F1000C6E90054002747E7C2F1200320FA03F78F
:100F2000954001FA02F021FA03F34FEA154E3843D7
:100F3000010CB3FBFEF71FFA85F80EFB173341EAED
:100F4000034107FB08F38B4204FA02F407D969183E
:100F500007F1FF3C2FD28B422DD9023F2944CB1AF7
:100F600081B2B3FBFEF00EFB103341EA034100FBFC
:100F700008F38B4207D9691800F1FF3C17D28B4266
:100F800015D902382944C91A40EA07473BE73746D2
:100F9000304609E70746E7E61846FBE64145ABD28F
:100FA000B8EB020A69EB0E0201381346A4E760466B
:100FB000E9E7184695E76746D1E781467CE70238BE
:100FC0002C4447E7ACF1020C2B442FE7384608E7E6
:100FD0003746E9E6704700BF80B588B002AF786059
:100FE0000123FB750023BB752B4B5B6A3B6140F211
:100FF000DE33FB81284B5B6ABB60FA7DBB7D9A4286
:1010000002D1012005F076FDFB7D012B3DD1396930
:10101000B86800F089FC0246204B9A4238D9BB6878
:101020003B6100F0AFFD01230093402380220021AB
:10103000002000F092FE1A4807F058FDFB895A1C68
:10104000FA81184A0421042008F072FF07F0F4FC2A
:101050000346191DB423144A042008F069FF07F061
:10106000EBFC0346023359006423104A042008F0C5
:101070005FFF0F4807F03AFD0E4B0F4A3521042061
:1010800008F056FF00F0F2FC02E00123FB7500E0DF
:1010900000BFFB7DBB75ADE7000C0040E093040092
:1010A00000160020ECDB0008F8DB000808DC000874
:1010B0001016002018DC000820DC000880B584B081
:1010C00000AF78600B4A00210B4805F0BBFC0246DC
:1010D0000A4B1A600A4BFB60F868FFF7A1F8034659
:1010E0001A46F968022002F04DF94FF47A7005F0C3
:1010F00001FDEFE798DC0008D90F0008446A0020E2
:1011000030DC000880B485B000AF0346B9607A6077
:10111000FB7300BF1437BD465DF8047B70470000C9
:1011200080B500AF874B1B6903F48073002B1DD182
:10113000854B1B78322B12D9844B1B68002B03D1B3
:10114000834B1B68814A1360814B1A687F4B1B6875
:10115000D31A804A1360804B01221A7010E07A4B38
:101160001B780133DAB2784B1A7009E0774B002212
:101170001A60754B00221A70734B1A78764B1A70EE
:10118000704B1B6903F08003002B1DD1734B1B7840
:10119000322B12D9724B1B68002B03D16C4B1B688E
:1011A0006F4A13606A4B1A686D4B1B68D31A6D4AFD
:1011B00013606D4B01221A7010E0684B1B780133ED
:1011C000DAB2664B1A7009E0654B00221A60634B75
:1011D00000221A70614B1A78634B1A70594B1B69C5
:1011E00003F04003002B1DD1604B1B78322B12D92A
:1011F0005F4B1B68002B03D1554B1B685C4A136087
:10120000534B1A685A4B1B68D31A5A4A13605A4BED
:1012100001221A7010E0554B1B780133DAB2534BA0
:101220001A7009E0524B00221A60504B00221A70CB
:101230004E4B1A78504B1A704F4B1B78DBB2002B79
:1012400000F0EA814D4B1B6903F04003002B34D0C2
:101250004B4B1B78142B29D94A4B1B68002B03D10D
:101260003B4B1B68474A1360394B1A68454B1B6858
:10127000D31A454A1360454B1B78DBB2002B11D1C2
:10128000434B1B78DBB2002B0CD1424B1B78DBB2FB
:10129000002B07D1404B1B78DBB2002B02D13F4B18
:1012A00001221A703B4B01221A7010E0344B1B785C
:1012B0000133DAB2324B1A7009E0324B00221A6065
:1012C0002F4B00221A702E4B1A78324B1A702B4B70
:1012D0001B6903F08003002B6AD0314B1B78142B61
:1012E00029D9304B1B68002B03D1194B1B682D4AA1
:1012F0001360174B1A682B4B1B68D31A2A4A1360CA
:10130000224B1B78DBB2002B11D1214B1B78DBB2B7
:10131000002B0CD11F4B1B78DBB2002B07D11E4BCF
:101320001B78DBB2002B02D1204B01221A701A4B22
:1013300001221A7046E01A4B1B780133DAB2184BBF
:101340001A703FE000080240801800207C1800203E
:101350002C18002078180020741800208C18002009
:101360008818002084180020811800209818002078
:1013700094180020901800208D18002000040240CE
:101380005818002064180020401800203018002051
:101390003118002032180020331800205218002085
:1013A0005918002068180020441800205318002005
:1013B0007D4B00221A607D4B00221A707B4B1A78FD
:1013C0007B4B1A707B4B1B6903F01003002B34D04E
:1013D000794B1B78142B29D9784B1B68002B03D130
:1013E000774B1B68754A1360754B1A68734B1B6803
:1013F000D31A744A1360744B1B78DBB2002B11D1E3
:10140000724B1B78DBB2002B0CD1714B1B78DBB21B
:10141000002B07D1664B1B78DBB2002B02D16D4B42
:1014200001221A70684B01221A7010E0624B1B787F
:101430000133DAB2604B1A7009E0604B00221A6087
:101440005D4B00221A705C4B1A785F4B1A70594B37
:101450001B6903F02003002B34D05F4B1B78142B47
:1014600029D95E4B1B68002B03D1554B1B685B4A87
:101470001360534B1A68594B1B68D31A584A1360B0
:10148000514B1B78DBB2002B11D1504B1B78DBB2D8
:10149000002B0CD14E4B1B78DBB2002B07D1444BF9
:1014A0001B78DBB2002B02D14E4B01221A70474B46
:1014B00001221A7010E0484B1B780133DAB2464B18
:1014C0001A7009E0454B00221A60434B00221A7043
:1014D000414B1A783D4B1A70434B1B6903F4805300
:1014E000002B20D0414B1B78142B15D9404B1B6887
:1014F000002B03D1324B1B683D4A1360304B1A68F6
:101500003B4B1B68D31A3B4A13603B4B01221A70BA
:101510003A4B01221A7010E0344B1B780133DAB2D7
:10152000324B1A7009E0324B00221A602F4B002216
:101530001A702E4B1A78314B1A70314B1B6903F01D
:101540000403002B20D02F4B1B78142B15D92E4BC6
:101550001B68002B03D11A4B1B682B4A1360184BD6
:101560001A68294B1B68D31A284A1360284B01229A
:101570001A70284B01221A7010E0224B1B7801339D
:10158000DAB2204B1A7009E01F4B00221A601D4B83
:1015900000221A701B4B1A781E4B1A704FF08043B2
:1015A000FF22DA6360E000BF6818002059180020AD
:1015B0003318002000040240561800205C18002058
:1015C0002C18002038180020301800203118002076
:1015D00032180020501800205718002060180020F2
:1015E0003C18002051180020000802405B18002021
:1015F000701800204C1800205518002035180020C5
:10160000000C02405A1800206C18002048180020D6
:101610005418002034180020304B00221A70304B30
:1016200000221A702F4B00221A702F4B00221A70C2
:101630002E4B00221A702E4B00221A702D4B0022C6
:101640001A702D4B00221A702C4B00221A702C4B52
:1016500000221A702B4B00221A702B4B00221A709A
:101660004FF080430022DA63244B1B78DBB2002B5F
:101670000CBF01230023DBB21A464FF480712348CC
:1016800003F04AFC1E4B1B78DBB2002B0CBF01237E
:101690000023DBB21A464FF400411C4803F03CFC27
:1016A000184B1B78DBB2002B0CBF01230023DBB2ED
:1016B0001A464FF40051154803F02EFC124B1B78CC
:1016C000DBB2002B0CBF01230023DBB21A464FF420
:1016D00080510E4803F020FC00BF80BD551800204B
:1016E00054180020501800205118002052180020D3
:1016F000531800203518002034180020301800201E
:101700003118002032180020331800200004024055
:1017100080B582B000AF7860084B1B68002B05D104
:10172000074805F001FA0246044B1A60054A7B6837
:10173000136000BF0837BD4680BD00BFA018002061
:10174000BCDC00089C18002080B584B000AF786035
:1017500039600023FB81154B1B68002B05D1144811
:1017600005F0E2F90246114B1A60124B1B68002B80
:1017700017D00E4B1B680021184605F017FAB86009
:10178000BB68002B0DD10B4B1B683A687968184673
:1017900003F0FEF80346FB81044B1B68184605F076
:1017A00035FAFB8918461037BD4680BDA0180020C9
:1017B000BCDC00089C18002080B584B000AF7860C5
:1017C00039600023FB81194B1B68002B05D1184899
:1017D00005F0AAF90246154B1A60164B1B68002B40
:1017E00017D0124B1B680021184605F0DFF9B860CE
:1017F000BB68002B0DD10F4B1B683A6879681846FF
:1018000003F0C6F80346FB81084B1B68184605F039
:10181000FDF9FB895AB2FB891B0A9BB25BB25340AC
:101820005BB2DBB218461037BD4680BDA018002061
:10183000BCDC00089C18002080B588B000AF214BAC
:101840001B6C204A43F0080313641E4B1B6C03F00F
:1018500008033B603B681C4B1C4A1A6003F022FEE5
:1018600003465B001A4AA2FB03239B0C194A136030
:10187000154B00225A60144B00229A60124B4FF015
:10188000FF32DA60104B00221A610F4804F086FA2A
:101890004FF480533B6107F1100319460A4804F0E6
:1018A0009DFB00237B600023FB603B1D194606481F
:1018B00004F05CFC044804F027F900BF2037BD4663
:1018C00080BD00BF00380240A4180020000C00407A
:1018D00083DE1B43E418002080B584B000AF78603D
:1018E000084B5B6AFB6000BF064B5B6AF9681846F1
:1018F00000F01AF802467B689342F5D800BF103713
:10190000BD4680BD000C004080B582B000AF78605D
:101910007B684FF47A7202FB03F31846FFF7DCFF93
:1019200000BF0837BD4680BD80B483B000AF78608B
:1019300039607A683B689A4207D37A683B68D21A62
:10194000094B1B68B2FBF3F307E07A683B68D31AD4
:101950005A1E054B1B68B2FBF3F318460C37BD4605
:101960005DF8047B704700BFE418002080B584B0A8
:1019700000AF0346FB71FA79FB79DB43DBB21B0452
:101980001343FB6000220221154803F0C5FA002230
:101990000421144803F0C0FA01220221114803F087
:1019A000BBFA114AFB6893610220FFF795FF06F02E
:1019B00009FE012202210A4803F0AEFA0220FFF7D5
:1019C0008BFF00220221064803F0A6FA06F020FE53
:1019D0000120FFF781FF00BF1037BD4680BD00BF6B
:1019E00000040240000802400000024080B584B0BC
:1019F00000AF0346FB71FA79FB79DB43DBB21B04D2
:101A00001343FB6000220221154803F085FA0022EF
:101A10000421144803F080FA00220221114803F047
:101A20007BFA114AFB6893610220FFF755FF06F02D
:101A3000C9FD012202210A4803F06EFA0220FFF7D5
:101A40004BFF00220221064803F066FA06F0E0FD93
:101A50000120FFF741FF00BF1037BD4680BD00BF2A
:101A600000040240000802400000024080B584B03B
:101A700000AF0023FB6050E0012210212A4803F050
:101A80004BFA01220121294803F046FA4020FFF7D2
:101A9000ADFFFB68DBB2483BDBB21846FFF7A6FFA1
:101AA00001221021204803F037FA002201211F48AB
:101AB00003F032FA0023BB600CE01D4AFB68DB0137
:101AC0001A44BB6813441B781846FFF74FFFBB68E6
:101AD0000133BB60BB683F2BEFDD002210211248B1
:101AE00003F01AFA01220121104803F015FA4023ED
:101AF0007B600CE00E4AFB68DB011A447B681344F0
:101B00001B781846FFF732FF7B6801337B607B68E8
:101B10007F2BEFDDFB680133FB60FB68072BABDD40
:101B200000BF1037BD4680BD0008024000040240DF
:101B3000486A002080B500AF012210210F4803F051
:101B4000EBF9012201210E4803F0E6F93F20FFF7EF
:101B50004DFF4020FFF74AFFB820FFF747FFC020A6
:101B6000FFF744FF00221021044803F0D5F90022BA
:101B70000121034803F0D0F900BF80BD00080240F6
:101B80000004024080B483B000AF00237B6013E008
:101B900000233B600AE00D4A7B68DB011A443B6886
:101BA000134400221A703B6801333B603B687F2B73
:101BB000F1DD7B6801337B607B68072BE8DD00BFCC
:101BC0000C37BD465DF8047B704700BF486A0020B3
:101BD00080B483B000AF03460A46FB711346BB7165
:101BE00097F90730002B1FDBBB793F2B1CD8BB7943
:101BF000DB08D8B20246FB790E49D2010A441344ED
:101C00001B785AB2BB7903F00703012101FA03F3F1
:101C10005BB2134359B20246FB79C8B20549D201FF
:101C20000A44134402461A7000BF0C37BD465DF8E3
:101C3000047B7047486A002080B483B000AF03463D
:101C40000A46FB711346BB7197F90730002B21DB65
:101C5000BB793F2B1ED8BB79DB08D8B20246FB7993
:101C60000F49D2010A4413441B785AB2BB7903F0DE
:101C70000703012101FA03F35BB2DB435BB21340BC
:101C800059B20246FB79C8B20549D2010A4413444D
:101C900002461A7000BF0C37BD465DF8047B7047E2
:101CA000486A002080B58CB000AFF860B9607A60F7
:101CB0003B60BB6B002B26D0BB68FB620023BB6282
:101CC0001CE0FB687B6200233B620DE07B6ADBB2B9
:101CD000FA6AD2B211461846FFF77AFF3B6A01331F
:101CE0003B627B6A01337B623A6A7B689A42EDDB36
:101CF000BB6A0133BB62FB6A0133FB62BA6A3B68B1
:101D00009A42DEDB25E0BB68FB610023BB611CE07F
:101D1000FB687B6100233B610DE07B69DBB2FA6904
:101D2000D2B211461846FFF787FF3B6901333B618A
:101D30007B6901337B613A697B689A42EDDBBB6961
:101D40000133BB61FB690133FB61BA693B689A42AD
:101D5000DEDB00BF3037BD4680BD80B58CB000AF44
:101D6000F860B9607A603B607B68002B40F39A8032
:101D70003B68002B40F39680BB6B002B49D0BB68BF
:101D8000FB620023BB621BE0FB68DBB2FA6AD2B2E3
:101D900011461846FFF71CFFFB68DAB27B68DBB21E
:101DA0001344DBB2013BDBB2FA6AD2B211461846E9
:101DB000FFF70EFFBB6A0133BB62FB6A0133FB62B4
:101DC000BA6A3B689A42DFDBFB687B6200233B62B6
:101DD0001AE07B6ADBB2BA68D2B211461846FFF746
:101DE000F7FE7B6AD8B2BB68DAB23B68DBB2134459
:101DF000DBB2013BDBB21946FFF7EAFE3B6A013377
:101E00003B627B6A01337B623A6A7B689A42E0DB21
:101E100048E0BB68FB610023BB611BE0FB68DBB2F1
:101E2000FA69D2B211461846FFF706FFFB68DAB22C
:101E30007B68DBB21344DBB2013BDBB2FA69D2B29E
:101E400011461846FFF7F8FEBB690133BB61FB6919
:101E50000133FB61BA693B689A42DFDBFB687B6157
:101E600000233B611AE07B69DBB2BA68D2B211464B
:101E70001846FFF7E1FE7B69D8B2BB68DAB23B686F
:101E8000DBB21344DBB2013BDBB21946FFF7D4FEF1
:101E90003B6901333B617B6901337B613A697B6854
:101EA0009A42E0DB00BF3037BD4680BD80B500AF51
:101EB000002204210F4803F02FF84FF4FA70FFF7C7
:101EC0000BFD012204210B4803F026F80220FFF746
:101ED0001BFDFFF72FFEFFF755FEFFF7C7FD402262
:101EE0008021054806F0BAFD002006F095FD00BFF0
:101EF00080BD00BF00040240A51C000880B400AFF4
:101F0000BFF34F8FBFF36F8F0B4B0022C3F85022EC
:101F1000BFF34F8FBFF36F8F074B5B69064A43F4E4
:101F200000335361BFF34F8FBFF36F8F00BFBD46C8
:101F30005DF8047B704700BF00ED00E080B485B021
:101F400000AF1D4B0022C3F88420BFF34F8F1A4B04
:101F5000D3F880307B607B685B0BC3F30E03FB60C0
:101F60007B68DB08C3F30903BB60FB685A0143F6D7
:101F7000E0731340BA6892070F491343C1F8603207
:101F8000BB685A1EBA60002BEFD1FB685A1EFA607C
:101F9000002BE5D1BFF34F8F074B5B69064A43F433
:101FA00080335361BFF34F8FBFF36F8F00BF143780
:101FB000BD465DF8047B704700ED00E080B582B05F
:101FC00000AF78607B68044A934201D1FFF7A8F81C
:101FD00000BF0837BD4680BDBC71002080B582B00F
:101FE00000AF7860786801F04DFD00BF0837BD464E
:101FF00080BD80B582B000AF7860786801F0A0FD48
:1020000000BF0837BD4680BD80B500AF0E4806F062
:102010006DFD0E4A04211E2007F0AAFF0C4806F0B1
:1020200065FD0C4A2021002007F0A2FF0A4A2E215C
:102030000D2007F09DFFFFF719FD4FF47A70FFF7B1
:1020400063FC00BF80BD00BF3016002070DC0008BC
:102050002016002078DC000888DC000880B500AF7E
:10206000FFF74CFFFFF76AFF02F086F900F054F823
:1020700000F004FB00F0C0FA00F076F900F020F95F
:1020800000F002FA00F058FA00F086FA00F0DAF8F0
:1020900000F0C4F901F088FD1548FFF739FB012273
:1020A0004FF40041134802F037FFFFF7C5FB124819
:1020B00003F042FD0821114804F056F8FFF7F6FE40
:1020C000FFF7A2FF04F084FC0D4A00210D4804F044
:1020D000B9FC02460C4B1A600C4A00210C4804F073
:1020E000B1FC02460B4B1A6004F08CFCFEE700BF0B
:1020F0006C6F002000000240BC7100207C71002049
:10210000CCDC0008BD100008486E0020F0DC0008A0
:102110009D3E00087871002080B5B4B000AF07F193
:10212000A00330220021184607F0E1FF07F18C03DD
:1021300000221A605A609A60DA601A6107F10C0393
:1021400080220021184607F0D2FF3C4B1B6C3B4A13
:1021500043F080531364394B1B6C03F08053BB6016
:10216000BB68374B1B68364A43F440431360344B1B
:102170001B6803F440437B607B680223C7F8A030F0
:102180000123C7F8AC301023C7F8B0300223C7F8DA
:10219000B8300023C7F8BC300823C7F8C030D823B4
:1021A000C7F8C4300223C7F8C8300223C7F8CC30C0
:1021B00007F1A003184602F0EDFE0346002B01D004
:1021C00000F068FB02F0AEFE0346002B01D000F0E9
:1021D00061FB0F23C7F88C300223C7F8903000232F
:1021E000C7F894304FF4A053C7F898304FF4805399
:1021F000C7F89C3007F18C030721184603F0B4F8A8
:102200000346002B01D000F045FB4FF4A073FB60A8
:102210000023BB6400233B6507F10C03184603F061
:1022200061F90346002B01D000F034FB012002F0DD
:10223000C7F800BFD037BD4680BD00BF00380240A0
:102240000070004080B582B000AF1A4B1B6B194A7A
:1022500043F480531363174B1B6B03F480537B6071
:102260007B68154B154A1A60134B01221A71124BE9
:1022700001225A71104B4AF201029A600E4B082259
:10228000DA600D4B00221A610B4B20225A610A4B77
:1022900080229A61084B01221A62074802F03EFB35
:1022A0000346002B01D000F0F5FA00BF0837BD4609
:1022B00080BD00BF003802406C6F0020003002403B
:1022C00080B584B000AF3B4600221A605A609A6025
:1022D000DA60214B214A1A601F4B4FF480325A605A
:1022E0001D4B00229A601C4B00221A611A4B0022DF
:1022F0009A61194B002283F82020174B0022DA62E2
:10230000154B174A9A62144B0022DA60124B0122D5
:10231000DA61114B002283F830200F4B01225A6101
:102320000D4802F061F80346002B01D000F0B2FA2C
:102330000C4B3B6001237B600023BB603B4619468E
:10234000054802F08FF90346002B01D000F0A2FAF5
:1023500000BF1037BD4680BD5070002000200140F6
:102360000100000F1200001080B58AB000AF07F125
:102370001C0300221A605A609A603B4600221A60D1
:102380005A609A60DA601A615A619A61224B4FF082
:1023900080421A60204B4FF4D3725A601E4B0022C9
:1023A0009A601D4BFF22DA601B4B00221A611A4B08
:1023B00000229A61184803F00BFD0346002B01D060
:1023C00000F068FA0023FB6100237B6207F11C0325
:1023D0001946114803F0CAFE0346002B01D000F055
:1023E00059FA60233B6000237B600023BB6000231D
:1023F0003B613B4608221946074803F05FFD034650
:10240000002B01D000F046FA034800F0EDFA00BFBF
:102410002837BD4680BD00BF7C71002080B584B0E8
:1024200000AF3B1D00221A605A609A60144B154A97
:102430001A60134B6B225A60114B00229A60104BAA
:1024400040F2E732DA600E4B00229A610C4803F04A
:10245000A5FC0346002B01D000F01CFA00237B6092
:102460000023FB603B1D1946054803F07FFE034631
:10247000002B01D000F00EFA00BF1037BD4680BD22
:10248000BC7100200014004080B588B000AF3B1D37
:1024900000221A605A609A60DA601A615A619A6181
:1024A000234B244A1A60224B42F62F225A60204BBB
:1024B00000229A601E4B42F20F72DA601C4B00221F
:1024C0001A611B4B00229A61194803F067FC03460E
:1024D000002B01D000F0DEF9154803F079FC03462B
:1024E000002B01D000F0D6F90821114803F08AFC36
:1024F0000346002B01D000F0CDF960237B604FF440
:102500007A63BB600023FB6000237B613B1D0022DC
:102510001946074803F0D2FC0346002B01D000F017
:10252000B9F9034800F060FA00BF2037BD4680BD0E
:102530002C6F00200044014080B500AF134B144ABB
:102540001A60124B134A5A60104B00229A600F4BCC
:102550000022DA600D4B00221A610C4B0C225A61EA
:102560000A4B00229A61094B0022DA61074B0022D4
:102570001A62064B00225A62044804F0FAF9034634
:10258000002B01D000F086F900BF80BDF87000205C
:1025900000100140987F330080B500AF134B144A00
:1025A0001A60124B134A5A60104B00229A600F4B6C
:1025B0000022DA600D4B00221A610C4B0C225A618A
:1025C0000A4B00229A61094B0022DA61074B002274
:1025D0001A62064B00225A62044804F0CAF9034604
:1025E000002B01D000F056F900BF80BDAC6E00207A
:1025F0000048004000A60E0080B582B000AF1E4B20
:102600001B6B1D4A43F4001313631B4B1B6B03F43A
:1026100000137B607B68184B1B6B174A43F48003E5
:102620001363154B1B6B03F480033B603B68002274
:1026300009210C2002F0CEF80C2002F0FDF8002257
:1026400009210E2002F0C6F80E2002F0F5F8002253
:1026500008213A2002F0BEF83A2002F0EDF80022FC
:102660000821462002F0B6F8462002F0E5F800BF47
:102670000837BD4680BD00BF0038024080B58AB033
:1026800000AF07F1140300221A605A609A60DA6002
:102690001A617B4B1B6B7A4A43F001031363784B3F
:1026A0001B6B03F001033B613B69754B1B6B744A69
:1026B00043F002031363724B1B6B03F00203FB60D6
:1026C000FB686F4B1B6B6E4A43F0040313636C4B48
:1026D0001B6B03F00403BB60BB68694B1B6B684A50
:1026E00043F008031363664B1B6B03F008037B6026
:1026F0007B6800221621634802F00EFC002248F29B
:10270000FF01614802F008FC01224FF400415F48DC
:1027100002F002FC01224FF480515C4802F0FCFB05
:1027200001224FF48071594802F0F6FB01224FF468
:102730000051564802F0F0FB00220721534802F0F6
:10274000EBFB06237B610123BB610023FB610323B9
:102750003B6207F1140319464A4802F001FB0223C9
:102760007B610123BB610023FB6103233B6207F113
:1027700014031946454802F0F3FA4FF431437B61E4
:102780001123BB610023FB6100233B6207F11403AB
:1027900019463E4802F0E4FAFF237B610123BB6146
:1027A0000023FB6103233B6207F1140319463648FB
:1027B00002F0D6FA10237B610123BB610023FB6189
:1027C00003233B6207F1140319462E4802F0C8FAAE
:1027D00005237B610123BB610023FB6103233B6273
:1027E00007F114031946294802F0BAFA4FF48E5340
:1027F0007B610023BB610123FB6107F114031946D0
:10280000204802F0ADFA4FF4C0537B610223BB6154
:102810000023FB6103233B620A237B6207F114035D
:102820001946194802F09CFA4FF400437B610123DA
:10283000BB610023FB6100233B6207F114031946CF
:10284000114802F08DFA04237B610023BB61012350
:10285000FB6107F1140319460D4802F081FAF023D9
:102860007B610023BB610123FB6107F1140319465F
:10287000064802F075FA00BF2837BD4680BD00BF8C
:1028800000380240000802400000024000040240FC
:10289000000C024080B400AF72B6FEE780B582B093
:1028A00000AF114B1B6C104A43F0805313640E4B66
:1028B0001B6C03F080537B607B680B4B5B6C0A4A9C
:1028C00043F480435364084B5B6C03F480433B60E8
:1028D0003B6800220F216FF0010001F07BFF00BF79
:1028E0000837BD4680BD00BF0038024080B584B0C7
:1028F00000AF78607B681B680D4A934213D10D4B83
:102900005B6C0C4A43F4807353640A4B5B6C03F4B6
:102910008073FB60FB6800220521122001F05AFF42
:10292000122001F089FF00BF1037BD4680BD00BFF7
:10293000002001400038024080B485B000AF7860CC
:102940007B681B68B3F1804F0BD1094B1B6C084AA5
:1029500043F001031364064B1B6C03F00103FB609F
:10296000FB6800BF1437BD465DF8047B704700BFAD
:102970000038024080B584B000AF78607B681B6887
:10298000164A934214D1164B1B6C154A43F0200390
:102990001364134B1B6C03F02003FB60FB680022E5
:1029A0000221372001F016FF372001F045FF10E02B
:1029B0007B681B680B4A93420BD1094B5B6C084A3E
:1029C00043F400335364064B5B6C03F40033BB6089
:1029D000BB6800BF1037BD4680BD00BF001400407B
:1029E000003802400044014080B58AB000AF7860F2
:1029F00007F1140300221A605A609A60DA601A61C3
:102A00007B681B68B3F1804F1DD1194B1B6B184AB3
:102A100043F002031363164B1B6B03F002033B618D
:102A20003B694FF480637B610223BB610023FB6140
:102A300000233B6201237B6207F1140319460D4812
:102A400002F08EF910E07B681B680B4A93420BD1B1
:102A5000074B1B6B064A43F002031363044B1B6BCB
:102A600003F00203FB60FB6800BF2837BD4680BD52
:102A700000380240000402400044014080B58CB0A0
:102A800000AF786007F11C0300221A605A609A6058
:102A9000DA601A617B681B68964A934240F0918025
:102AA000954B5B6C944A43F010035364924B5B6C00
:102AB00003F01003BB61BB698F4B1B6B8E4A43F065
:102AC000010313638C4B1B6B03F001037B617B6978
:102AD0004FF4C063FB6102233B6201237B6203234B
:102AE000BB620723FB6207F11C031946834802F00F
:102AF00037F9834B834A1A60814B4FF000625A606A
:102B00007F4B00229A607E4B0022DA607C4B4FF4B0
:102B100080621A617A4B00225A61794B00229A61D5
:102B2000774B4FF48072DA61754B4FF400321A62C2
:102B3000734B00225A62724801F086FF0346002B55
:102B400001D0FFF7A7FE7B686D4ADA666C4A7B68A6
:102B500093636D4B6D4A1A606B4B4FF000625A6085
:102B6000694B40229A60684B0022DA60664B4FF452
:102B700080621A61644B00225A61634B00229A61A1
:102B8000614B0022DA61604B4FF400321A625E4BF7
:102B900000225A625C4801F057FF0346002B01D027
:102BA000FFF778FE7B68584A9A66574A7B689363BA
:102BB00000220521252001F00DFE252001F03CFE1C
:102BC00093E07B681B68524A934240F08E804A4BE8
:102BD0001B6C494A43F480231364474B1B6C03F47A
:102BE00080233B613B69444B1B6B434A43F0040326
:102BF0001363414B1B6B03F00403FB60FB684FF452
:102C00004063FB6102233B6201237B620323BB62BF
:102C10000723FB6207F11C0319463E4802F0A0F8A7
:102C20003D4B3E4A1A603C4B4FF000625A603A4BB3
:102C300000229A60384B0022DA60374B4FF48062F2
:102C40001A61354B00225A61334B00229A61324B94
:102C50004FF48072DA61304B00221A622E4B002250
:102C60005A622D4801F0F0FE0346002B01D0FFF719
:102C700011FE7B68284ADA66274A7B689363284BF3
:102C8000284A1A60264B4FF000625A60244B4022BB
:102C90009A60234B0022DA60214B4FF480621A6164
:102CA0001F4B00225A611E4B00229A611C4B0022CE
:102CB000DA611B4B00221A62194B00225A62184833
:102CC00001F0C2FE0346002B01D0FFF7E3FD7B6855
:102CD000134A9A66124A7B689363002205212720D3
:102CE00001F078FD272001F0A7FD00BF3037BD4679
:102CF00080BD00BF001001400038024000000240CB
:102D00009870002040640240F06F0020B8640240D8
:102D100000480040000802404C6E0020286002403D
:102D2000906F00205860024080B400AFFEE780B48E
:102D300000AFFEE780B400AFFEE780B400AFFEE76F
:102D400080B400AFFEE780B400AF00BFBD465DF8C1
:102D5000047B704780B500AF01F020FB05F0CAF896
:102D60000346012B01D005F09DFC00BF80BD000093
:102D700080B500AF024801F035FF00BF80BD00BF45
:102D80004C6E002080B500AF024801F02BFF00BF61
:102D900080BD00BF906F002080B500AF024801F0F9
:102DA000CCFB00BF80BD00BF5070002080B500AFDD
:102DB000024803F02FFB00BF80BD00BFF870002069
:102DC00080B500AF024803F025FB00BF80BD00BF07
:102DD000AC6E002080B500AF024802F0C8FE00BF14
:102DE00080BD00BFBC71002080B500AF024801F07B
:102DF000F9FE00BF80BD00BF9870002080B500AF15
:102E0000024801F0EFFE00BF80BD00BFF06F002060
:102E100080B586B000AF7860144A154BD31A7B6139
:102E20007B693B61134B1B68002B02D1114B124A8B
:102E30001A60104B1A687B6813443A699A4207D2A9
:102E400007F020F902460C2313604FF0FF3309E02E
:102E5000084B1B68FB60074B1A687B681344054AE4
:102E60001360FB6818461837BD4680BD000004207B
:102E700000040000E81800204872002080B400AF71
:102E8000084BD3F88830074A43F47003C2F88830FF
:102E9000044B4FF000629A6000BFBD465DF8047BB2
:102EA000704700BF00ED00E080B487B000AF7860ED
:102EB00039603B687B617B683B612023FB60BFF32B
:102EC0004F8F0BE00C4A3B69C2F85C32FB683A69F1
:102ED00013443B617A69FB68D31A7B617B69002BE1
:102EE000F0DCBFF34F8FBFF36F8F00BF1C37BD46C1
:102EF0005DF8047B704700BF00ED00E080B487B050
:102F000000AF786039603B687B617B683B61202360
:102F1000FB60BFF34F8F0BE00C4A3B69C2F868328D
:102F2000FB683A6913443B617A69FB68D31A7B6199
:102F30007B69002BF0DCBFF34F8FBFF36F8F00BFB7
:102F40001C37BD465DF8047B704700BF00ED00E014
:102F500080B483B000AF0346FB71FB7903F0070335
:102F600018460C37BD465DF8047B704780B483B0CB
:102F700000AF0346FB71FB79DB08DBB203F007030C
:102F800018460C37BD465DF8047B704780B584B0A9
:102F900000AF786039607B6803F01F03FB60FB685B
:102FA000002B05D13B6819467868FFF77DFF09E0E3
:102FB0007A68FB68D31A18463A68FB6813441946C6
:102FC000FFF772FF00BF1037BD4680BD80B584B0EB
:102FD00000AF786039607B6803F01F03FB60FB681B
:102FE000002B05D13B6819467868FFF787FF09E099
:102FF0007A68FB68D31A18463A68FB681344194686
:10300000FFF77CFF00BF1037BD4680BD80B584B0A0
:1030100000AF194B1B8801339AB2174B1A80164B1D
:103020001B88FB81154B5B6ABB60FB891B0A9BB24B
:10303000DBB23B70FB89DBB27B70BB681B0EDBB283
:10304000BB70BB681B0CDBB2FB70BB681B0ADBB23E
:103050003B71BB68DBB27B713B4606211846FEF72D
:1030600073FB0346FB80FB88002BD2D0FB881846FD
:103070001037BD4680BD00BF00190020000C004085
:1030800080B586B000AFF860B96011461A460B46AD
:10309000FB8013467B71FB68002B00F0E280FB880D
:1030A000B3F5C07F80F0DD8000233B82FB88002BDE
:1030B00003D0FB880A339BB200E00823BB827B79F4
:1030C000DB005BB203F03C035BB243F003035BB293
:1030D000FB74FB68552283F88027FB68552283F830
:1030E0008127FB68FA7C83F88227BB8ADAB2FB6807
:1030F00083F88327BB8A1B0A9BB2DAB2FB6883F88A
:1031000084273B8CDAB2FB6883F885273B8C1B0A4B
:103110009BB2DAB2FB6883F88627FB6803F5F0639D
:1031200007211846FEF748FB03461A46FB6883F85A
:103130008727FB88002B12D0FB6803F5F163FA8820
:10314000B968184606F0C8FFFB6803F5F062FB8813
:10315000083319461046FEF7F7FA03463B82002370
:10316000FB75FB6803F68823184601F0A3F80346B5
:10317000002B43D105F026FAFB6893F8D03ADBB276
:10318000002B39D1FB68012283F8D02A0123FB757B
:1031900005F03EFAFB6803F54070FB6803F5F06349
:1031A0000822194606F098FFFB88002B11D0FB6817
:1031B00003F54270FB6803F5F163FA88194606F0DF
:1031C0008BFFFB88083303F54073FA6813443A8A8F
:1031D0001A80FB6803F54073BA8A11461846FFF758
:1031E000F5FEFB68D3F8800AFB6803F54073BA8AE2
:1031F000194603F01BF801E005F00AFAFB7D002BED
:103200002FD1FB68D3F89C3A4FF0FF31184604F0F9
:10321000E1F8FB6803F68820FB6803F5F0630822F9
:10322000194600F0D0FFFB88002B12D0FB6803F694
:103230008820FB6803F5F163FA88194600F0C3FFA4
:10324000FB6803F6882307F110010222184600F0FC
:10325000BAFFFB68D3F89C0A00230022002103F088
:10326000A9FE00BF1837BD4680BD80B586B000AF4F
:1032700078600B467B8013467B707B68002B7DD08B
:103280000823BB827B78DB005BB203F03C035BB2BC
:1032900043F003035BB2FB7455233B7255237B72EF
:1032A000FB7CBB72BB8ADBB2FB72BB8A1B0A9BB284
:1032B000DBB23B737B88DBB27B737B881B0A9BB2E0
:1032C000DBB2BB7307F1080307211846FEF774FA57
:1032D0000346FB730023FB757B6803F688231846BF
:1032E00000F0E8FF0346002B2CD105F06BF97B685A
:1032F00093F8D03ADBB2002B22D17B68012283F80D
:10330000D02A0123FB7505F083F97B6803F5407330
:103310001A4607F1080303CB106051607B6803F580
:10332000407308211846FFF751FE7B68D3F8800AE6
:103330007B6803F540730822194602F077FF01E02D
:1033400005F066F9FB7D002B18D17B68D3F89C3A19
:103350004FF0FF31184604F03DF87B6803F68823F0
:1033600007F108010822184600F02DFF7B68D3F80A
:103370009C0A00230022002103F01CFE00BF183726
:10338000BD4680BD80B58AB002AF0346B9607A60A1
:10339000FB734E4B5B6A7B610023FB610023BB61C7
:1033A00018E04B4ABB6940F6D42101FB03F31344F8
:1033B00003F684231B78FA7B9A4208D1BB6940F656
:1033C000D42202FB03F3424A1344FB6105E0BB69CC
:1033D0000133BB61BB69012BE3D9FB69002B70D0C2
:1033E00005F0F0F83B4B1B889BB2002B45D03A4BC5
:1033F0001B889BB2002B09D0364B00221A80374B1A
:1034000000221A8005F004F901235BE0344B1B68AD
:1034100019467869FEF788FA024641F288339A42E3
:1034200028D9304B1B889BB2142B0AD9294B002278
:103430001A802A4B00221A8005F0EAF84FF0FF3379
:1034400040E0274A7B691360264B1B889BB20133FF
:103450009AB2244B1A8005F0DBF87B689AB21F4BB6
:103460001B889BB2F97B00930B46B968F869FFF79C
:1034700007FE26E005F0CCF823E0174B00221A8067
:10348000144B01221A80164A7B691360154B0022E7
:103490001A8005F0BDF8FFF7B9FD03461A460F4B39
:1034A0001A800A4B5B6A104A13607B689AB20B4B16
:1034B0001B889BB2F97B00930B46B968F869FFF74C
:1034C000DFFD002318462037BD4680BD000C0040BC
:1034D00020000020EE18002004000020F01800203A
:1034E000F4180020EC180020F818002080B58CB0EB
:1034F00000AFF860B9607A60FB700023BB62002304
:103500007B6218E0AA4A7B6A40F6D42101FB03F3F0
:10351000134403F684231B78FA789A4208D17B6A15
:1035200040F6D42202FB03F3A14A1344BB6205E038
:103530007B6A01337B627B6A012BE3D997F83830D1
:10354000012BC0F21681022B40F39980032B40F02F
:1035500010817B68002B4FD000233B620AE007F10B
:1035600010023B6A13441946F86800F06AFE3B6A91
:1035700001333B623B6A072BF1DD0023FB6210E065
:1035800007F119031946F86800F05BFE797EBA6A04
:10359000FB6A134403F510630A461A70FB6A013391
:1035A000FB627B680A3BFA6A9A42E9D307F1190386
:1035B0001946F86800F045FE07F119031946F86846
:1035C00000F03FFEBA6AFB6A134403F51063002261
:1035D0001A70BB6A002B06D0BB689BB2FA781946FA
:1035E000B86AFFF742FEBB6A03F51061FB78FA6A1E
:1035F0001846FDF787FDD6E00023FB6213E00023A9
:10360000FB610AE007F11002FB6913441946F868F0
:1036100000F017FEFB690133FB61FB69072BF1DD4D
:10362000FB6A0133FB62FB6A072BE8D904F0CAFF8F
:10363000604B1B889BB2002B1ED05F4B1B889BB23C
:10364000002B19D05C4B1B889BB21A46BB68934277
:1036500012D15A4B1B889BB2002B0DD1584B5A6A82
:10366000584B1B6819461046FEF75EF90246564B4A
:103670001A60524B01221A8004F0CAFF93E07B6863
:103680000A2B02D97B68DBB200E00823BB76BB6A59
:10369000002B6ED00023FB76BB6A03F68823184606
:1036A00000F008FE0346002B38D104F08BFFBB6A04
:1036B00093F8D03ADBB2002B2ED1BB6A012283F8FB
:1036C000D02A0123FB7604F0A3FF0023FB620BE06A
:1036D000FB6A03F54073BA6A13441946F86800F0B0
:1036E000B0FDFB6A0133FB62BB7EFA6A9A42EFD3FC
:1036F000BB6A03F54073BA7E11461846FFF766FCB5
:10370000BB6AD3F8800ABB6A03F54073BA7E92B2F3
:10371000194602F08BFD01E004F07AFFFB7E002BDE
:1037200040D1FB685B694FF0FF31184603F052FE51
:103730000023FB6211E007F119031946F86800F055
:1037400080FDBB6A03F6882307F11902114618466B
:1037500000F059FDFB6A0133FB62BB7EFA6A9A42B4
:10376000E9D3FB68586900230022002103F022FC02
:1037700018E07B680A2B02D97B68DBB200E00823E3
:10378000BB760023FB6208E007F119031946F868CD
:1037900000F057FDFB6A0133FB62BB7EFA6A9A4276
:1037A000F2D300E000BF00BF3037BD4680BD00BF90
:1037B00020000020EE180020F01800200400002057
:1037C000000C0040F8180020FC18002080B584B0E0
:1037D00000AF7860396007F10F031A4639687868DE
:1037E00000F03FFDFB7B18461037BD4680BD80B51D
:1037F00084B000AF78600023FB720023FB6012E00E
:103800007B6803F6A423F9681846FFF7DFFF034639
:1038100019467A68FB68134403F510630A461A7068
:10382000FB680133FB60FB68062BE9D97B6803F575
:10383000106307211846FDF7BFFF0346FB72FB7AB2
:1038400018461037BD4680BD80B584B000AF7860A3
:1038500039600023BB600023FB6012E07B6803F645
:10386000A423F9681846FFF7B1FF034619467A68A2
:10387000FB68134403F510630A461A70FB680133B2
:10388000FB603B68023BFA689A42E7D37B6803F52A
:1038900010623B68023B19461046FDF755FF034690
:1038A000BB60BB6818461037BD4680BDB0B58CB054
:1038B00002AF786000237B627B6803F6A4237B6100
:1038C0007B6803F52C633B617B6803F6C423FB60D4
:1038D0007B6803F6C823BB60BB681B887B84FB68DE
:1038E0001B68FB613B691B68BB61BB69002B43D054
:1038F000786900F065FB0246FB69934200F2AD80F7
:10390000F9697868FFF7A0FF0446FB69023B194696
:103910007869FFF75BFF03461D46FB69013B1946CB
:103920007869FFF753FF03461B022B449C421CD1CE
:103930007C8C02217869FFF749FF03461846FFF7A0
:1039400007FB0346DDB202217869FFF73FFF03461C
:103950001846FFF70BFB0346DBB200932B46FA69D0
:1039600021467869FFF7C2FD01E001237B62002355
:10397000BB610023FB6170E0786900F021FB034626
:10398000072B6AD900217869FFF720FF0346552BE2
:1039900061D101217869FFF719FF0346552B5AD1F0
:1039A0007868FFF724FF03461C4607217869FFF774
:1039B0000DFF03469C424AD103217869FFF706FFB9
:1039C00003461C4604217869FFF700FF03461B02EB
:1039D0002344FB6105217869FFF7F8FE03469CB29A
:1039E00006217869FFF7F2FE03469BB21B029BB2E9
:1039F00023447B847B8C002B26D0FB69B3F5C07FEE
:103A000022D2FB690A2B02D90123BB6122E07C8C04
:103A100002217869FFF7DAFE03461846FFF798FAA5
:103A20000346DDB202217869FFF7D0FE034618464F
:103A3000FFF79CFA0346DBB200932B460022214697
:103A40007869FFF753FD05E001237B6205E0012360
:103A50007B6202E001E001237B627B6A002B03D0E2
:103A6000796A786900F015FC3B69BA691A60FB68ED
:103A7000FA691A60BB687A8C1A8000BF2837BD4685
:103A8000B0BD000080B586B000AF786000237B61D8
:103A900000233B614AE03B6940F6D42202FB03F37A
:103AA000264A1344FB60FB68D3F8803A7A689A424E
:103AB00039D1FB6803F68823184600F0FBFB034668
:103AC000002B2BD0FB68012283F8D02A00BFFB68B3
:103AD00003F688207B695A1C7A6103F54073FA6803
:103AE0001344194600F0ADFB0346002B03D07B695D
:103AF000B3F5C07FEBD3FB6803F5407379691846D3
:103B0000FFF764FAFB68D3F8800AFB6803F540739B
:103B10007A6992B2194602F089FB0AE0FB6800223A
:103B200083F8D02A05E03B6901333B613B69012BF7
:103B3000B1D900BF1837BD4680BD00BF20000020AE
:103B400080B584B000AF78600023FB6023E0FB68A1
:103B500040F6D42202FB03F3124A1344BB60BB6855
:103B6000D3F8803A7A689A4212D1BB68D3F8803A87
:103B7000B9684FF44072184602F09EFBBB68D3F858
:103B8000803AB3F858301A46BB68C3F8CC2A05E02F
:103B9000FB680133FB60FB68012BD8D900BF1037ED
:103BA000BD4680BD2000002080B582B000AF00235C
:103BB0007B6031E07B6840F6D42202FB03F303F61E
:103BC0008823194A98187B6840F6D42202FB03F335
:103BD00003F5C063144A99184FF4C073012200F032
:103BE0000DFA7B6840F6D42202FB03F303F52A6347
:103BF0000D4A1344181D7B6840F6D42202FB03F3E0
:103C000003F59063084A99184FF4C073012200F03D
:103C1000F5F97B6801337B607B68012BCAD900BF53
:103C20000837BD4680BD00BF2000002080B582B0AF
:103C300000AF00237B6022E07B6840F6D42202FBC9
:103C400003F3124A13443B603B684FF4407118463B
:103C5000FFF7BCF93B68D3F8803A39684FF44072FB
:103C6000184602F029FB3B68D3F8803AB3F8583085
:103C70001A463B68C3F8CC2A7B6801337B607B68BB
:103C8000012BD9D900BF0837BD4680BD20000020D8
:103C900080B5B6B000AF0023C7F8D030F2E0D7F857
:103CA000D03040F6D42202FB03F37B4A1344C7F81A
:103CB000CC30D7F8CC30D3F8803ADB6E1B685B6829
:103CC000C7F8C830D7F8CC30D3F8803AB3F85830BA
:103CD000C7F8C430D7F8CC30D3F8CC3AD7F8C820DE
:103CE0009A420CD9D7F8C420D7F8C830D21AD7F8DE
:103CF000CC30D3F8CC3A1344C7F8D43008E0D7F826
:103D0000CC30D3F8CC2AD7F8C830D31AC7F8D4307F
:103D1000D7F8D430C02B02D9C023C7F8D430D7F895
:103D2000D430002B45D0D7F8CC304FF44071184632
:103D3000FFF72CF90023C7F8D0302AE0D7F8CC30B1
:103D4000D3F8CC3AD7F8C420D31AD7F8CC20D15C1A
:103D50003A1DD7F8D03013440A461A70D7F8CC3041
:103D6000D3F8CC3A012B06D1D7F8CC30D7F8C42001
:103D7000C3F8CC2A08E0D7F8CC30D3F8CC3A5A1E96
:103D8000D7F8CC30C3F8CC2AD7F8D0300133C7F8F5
:103D9000D030D7F8D030D7F8D4209A42CED8D7F840
:103DA000CC3003F6A423391DD7F8D420184600F0F0
:103DB0000AFAD7F8D430002B7FF47BAFD7F8CC3099
:103DC00003F6A423184600F075FA0346002B03D02F
:103DD000D7F8CC00FFF76AFD04F0F4FBD7F8CC303D
:103DE00093F8D03ADBB2002B45D1D7F8CC3003F6AC
:103DF0008823184600F05EFA0346002B3BD00023D0
:103E0000C7F8D430D7F8CC30012283F8D02A04F098
:103E1000FFFB00BFD7F8CC3003F68820D7F8D430AA
:103E20005A1CC7F8D42003F54073D7F8CC201344AC
:103E3000194600F006FA0346002B04D0D7F8D43018
:103E4000B3F5C07FE6D3D7F8CC3003F54073D7F88D
:103E5000D4101846FFF7BAF8D7F8CC30D3F8800A58
:103E6000D7F8CC3003F54073D7F8D42092B2194676
:103E700002F0DCF901E004F0CBFBD7F8D0300133DD
:103E8000C7F8D030D7F8D030012B7FF608AF00BF8D
:103E9000D837BD4680BD00BF2000002080B582B06D
:103EA00000AF7860FFF7C2FEFFF7F2FE012002F0DC
:103EB00021FEF9E780B483B000AF78607B689A6830
:103EC0007B685B689A4205D37B689A687B685B680D
:103ED000D31A07E07B681A687B685B68D21A7B6834
:103EE0009B68134418460C37BD465DF8047B704749
:103EF00090B583B000AF78607B681C687868FFF786
:103F0000D9FF0346E31A18460C37BD4690BD80B46E
:103F100085B000AFF860B9607A60BB681A687B68EA
:103F20001344FA681268B3FBF2F102FB01F29B1A28
:103F300018461437BD465DF8047B704780B584B0E1
:103F400000AFF860B9607A607A68B968F868FFF71E
:103F5000DEFF0246BB681A6000BF1037BD4680BD59
:103F600080B483B000AF78607B685A687B689B68D8
:103F70009A4214BF01230023DBB218460C37BD461A
:103F80005DF8047B704780B584B000AFF860B9601D
:103F90007A60FB68DB684FF0FF31184603F01AFACD
:103FA0007A68B968F868FFF7C9FFFB68D86800232A
:103FB0000022002102F0FEFF00BF1037BD4680BD89
:103FC00080B584B000AF78607B681B694FF0FF312B
:103FD000184603F0FFF97B6804331846FFF76AFFC1
:103FE0000346FB607B68186900230022002102F071
:103FF000E1FFFB6818461037BD4680BD80B584B030
:1040000000AFF860B9603B601346FB71FB68BA68AB
:104010001A603A68FB685A60012003F0BAF8024659
:10402000FB681A61012003F0B4F80246FB685A618C
:10403000FB6800229A60FB680022DA60FB680022BD
:104040005A76FB68FA791A7600BF1037BD4680BDF4
:1040500080B582B000AF786039607B681B68194614
:104060007B68DB687A68127E02FB03F30B44184618
:104070007B681B7E1A46396806F02EF800BF0837A9
:10408000BD4680BD80B582B000AF786039607B6886
:104090001B6819467B689B687A68127E02FB03F3F3
:1040A0000B4419467B681B7E1A46386806F014F8E4
:1040B00000BF0837BD4680BD80B584B000AFF86052
:1040C000B9607A60FB681B681A46FB681B7E19465C
:1040D000BB6803FB01F313441946FB681B7E1A46B9
:1040E000786805F0F9FF00BF1037BD4680BD80B588
:1040F00084B000AF786039607B6804331846FFF7FE
:10410000F7FE0346FB73FB7B002B0CD03968786805
:10411000FFF79EFF7B68181D7B680C330122194650
:10412000FFF70CFF02E07B6801225A76FB7B184602
:104130001037BD4680BD80B584B000AF786039606F
:104140007B6804331846FFF70BFF0346FB73FB7BCA
:10415000002B0BD039687868FFF794FF7B68181D37
:104160007B68083301221946FFF7E8FEFB7B1846FF
:104170001037BD4680BD80B586B000AFF860B9602D
:104180007A6000233B6113E0FB681B7E1A463B69A3
:1041900003FB02F2BB6813441946F868FFF7A7FF58
:1041A0000346FB75FB7D002B07D03B6901333B6168
:1041B0003A697B689A42E7D300E000BFFB7D18466E
:1041C0001837BD4680BD80B586B000AFF860B960D5
:1041D0007A60FB681B694FF0FF31184603F0FAF86C
:1041E0007A68B968F868FFF7C6FF0346FB75FB6895
:1041F000186900230022002102F0DCFEFB7D184636
:104200001837BD4680BD80B584B000AF7860396096
:104210007B681B694FF0FF31184603F0DBF8396803
:104220007868FFF764FF0346FB737B681869002317
:104230000022002102F0BEFEFB7B18461037BD466F
:1042400080BD80B584B000AF786039603968786827
:10425000FFF771FF0346FB73FB7B18461037BD4623
:1042600080BD80B586B000AFF860B9607A60FB6849
:10427000181DFB680833BA681946FFF748FE7861D5
:104280007A687969F868FFF717FF00BF1837BD46ED
:1042900080BD80B582B000AF786039607B68181D42
:1042A0007B6808333A681946FFF76DFE00BF083790
:1042B000BD4680BD80B483B000AF78607B689A68EB
:1042C0007B68DB689A4214BF01230023DBB21846E7
:1042D0000C37BD465DF8047B70470000DFF834D032
:1042E000002103E00C4B5B58435004310B480C4B4E
:1042F00042189A42F6D30B4A02E0002342F8043BEC
:10430000094B9A42F9D3FEF7B9FD05F0C1FEFDF75E
:10431000A5FE704700000420A8FE00080000002051
:10432000101800201018002044720020FEE7000042
:1043300038B50E4B05460E4A188842F21073B3FB8F
:10434000F0F31068B0FBF3F000F084FA044658B9BB
:104350000F2D09D8024629464FF0FF3000F03AFAF7
:10436000044B20461D6038BD0120FCE7E01500200D
:1043700000000020E4150020074A032008B5136858
:1043800043F40073136000F013FA0F20FFF7D0FF1F
:10439000FEF784FA002008BD003C0240034A044BAB
:1043A00011681B880B441360704700BFFC7100202C
:1043B000E0150020014B1868704700BFFC71002019
:1043C00038B5074C2588854207D0064B20801868F1
:1043D000FFF7AEFF00B1258038BD0020FCE700BF2D
:1043E000E0150020E415002038B50446002800F050
:1043F0009B80056C25B9FEF779FA656484F83C501A
:10440000236CDB0600F18E80236C23F4885323F0A9
:10441000020343F002032364444B5A6822F44032FF
:104420005A605A6861680A435A60236821695A6869
:1044300022F480725A605A6842EA0122A1685A60E6
:104440005A6822F040725A605A680A43E1685A601A
:104450009A6822F400629A609A680A4334499A6022
:10446000A26A8A4252D0996821F070619960996875
:104470000A43E16A9A609A6822F040529A609A6808
:104480000A439A609A68A16922F002029A609A68C7
:1044900042EA41029A6094F82020002A3ED05A68ED
:1044A000616A42F4006201395A605A6822F460423B
:1044B0005A605A6842EA41325A600020DA6AE16979
:1044C00022F470020139DA62DA6A42EA015294F89F
:1044D0003010DA629A6822F400729A609A6842EAAE
:1044E000412261699A609A6822F480629A609A68AF
:1044F00042EA81229A606064236C23F0030343F054
:1045000001032364002384F83C3038BD9A6822F00C
:1045100070629A609A6822F04052B2E75A6822F4B8
:104520000062C9E70120EDE70120EEE7002301402A
:104530000100000F70477047704738B503680446A4
:1045400019685A688D072BD5900629D5226CD1069B
:1045500003D4226C42F4007222649A6812F0405F25
:1045600017D1A269AAB9DA6A12F4700F02D09A6858
:1045700052050ED45A6822F020025A60236C23F4AC
:1045800080732364236CDB0403D4236C43F00103A6
:1045900023642046FFF7CEFF23686FF012021A60F3
:1045A000236819685A684D0732D5100630D5226C39
:1045B000D10603D4226C42F4005222649A6812F4A9
:1045C000401F1ED19A6B12F4401F02D09A68520508
:1045D00017D45A68550514D49A6812F0405F10D168
:1045E000A26972B95A6822F080025A60236C23F4DF
:1045F00080532364236CD80503D4236C43F0010358
:104600002364204600F0D2F823686FF00C021A6091
:10461000236819685A68C9070FD555060DD51B6858
:10462000D8070AD5236C204643F480332364FFF770
:1046300082FF23686FF001021A60236819685A68C4
:1046400089060DD552010BD5626C6FF0200520460E
:1046500042F0020262641D60FFF76EFF23681D6076
:1046600038BD00000023F7B5019390F83C30012BD2
:1046700074D00D6801238A68AEB2092D80F83C30F1
:1046800006EB4604036831D9B5F1004F2ED01E3C2D
:104690004FF0070CDF680CFA04FC27EA0C07DF6018
:1046A0003D4FBD421DD1DC6844EA0264DC604968CC
:1046B000062901EB810227D8053A1F24596B944043
:1046C00006FA02F221EA04015963596B0A435A635C
:1046D000324A934234D0002380F83C30184603B06D
:1046E000F0BDDF6802FA04F43C43DFE74FF0070C4B
:1046F0001F690CFA04FC02FA04F427EA0C071F6194
:104700001F693C431C61D2E70C294FF01F010BD8F5
:10471000233A1C6B914006FA02F224EA0101196364
:10472000196B0A431A63D3E7413ADC6A914006FAEF
:1047300002F224EA0101D962D96A0A43DA62C7E7C0
:10474000B5F1004F0CD1164A536823F4400353606F
:10475000C1E7134A536843F48003F8E70220BEE739
:10476000122DF6D00C4B9D4201D0112DB3D10C4926
:104770009D424A6842F400024A60ACD1094B0A4AA1
:104780001B68B3FBF2F20A2353430193019B002BF6
:10479000A1D0019B013BF8E712000010002001406E
:1047A000002301400000002040420F00704700003D
:1047B000074A0002D36800F4E06023F4E0631B04BE
:1047C0001B0C43F0BF6343F400330343D3607047D3
:1047D00000ED00E0164B70B5DC684FF0FF36C4F317
:1047E0000224C4F10705231D042D28BF0425062B30
:1047F00006FA05F38CBF033C0024002821EA0303DA
:1048000003FA04F306FA04F422EA040443EA040374
:104810004FEA0313DBB206DB00F1604000F56140B4
:1048200080F8003370BD00F00F00024A1354F9E71E
:1048300000ED00E014ED00E0002808DB4209012350
:1048400000F01F0003FA00F0014B43F8220070470C
:1048500000E100E00138B0F1807F0AD2064BF02180
:10486000064A5860002082F82310072298601A60D8
:1048700070470120704700BF10E000E000ED00E04D
:10488000F0B596080B46056801EB8607BB4208D1D8
:1048900012F003021ED0012A14D111F826302B7019
:1048A00018E05C78043313F804CC240444EA0C6464
:1048B00013F801CC44EA0C0413F802CC44EA0C24AB
:1048C0002C60E3E7022A08D111F826205B7843EA3E
:1048D00002232B8003681868F0BD5A7811F826105F
:1048E00042EA01222A809B78D9E770B50068550812
:1048F00000239D4206D1D30702D531F8253003802D
:10490000006870BD01EB830431F8236001336488D3
:1049100044EA06440460ECE77047000010B5044622
:1049200008B9012010BD437F03F0FF0213B90277DD
:10493000FFF7F2FF022363772379E3B92368134A71
:104940005A619A6822F018029A6062792368D2B993
:104950004FF0FF321A6100209A68616922F060020C
:104960000A43A1699A609A6822F080020A439A6019
:1049700001236377D6E7D4E90212204600F02CF831
:104980000028E2D0CDE72269E4E700BFB71DC104EB
:10499000F8B50225044645770568AF6847F001077A
:1049A000AF60076A022F12D0032F04D0012F11D15C
:1049B000FFF766FF04E001EB8206B14203D12868ED
:1049C00001236377F8BD51F8043B2B60F5E7FFF74F
:1049D0008CFFF5E70020F3E71F2310B513F1FF3339
:1049E00006D321FA03F4E407F8D5082A14D002D834
:1049F0003AB101200DE0102A0CD0182AF9D1062B6B
:104A0000F7D800684161836823F018031A43826075
:104A1000002010BD072BF3E70F2BF1E703681821E7
:104A2000DAB223F47F73103A23F00303B2FBF1F2FE
:104A30000449032A895C88BF0433C1658365806D9E
:104A4000704700BF2CDD000870B50446FFF7B2FCCC
:104A50000546002C71D00023226884F834300223EC
:104A600084F83530136823F00103136021680B6864
:104A7000D8073CD40B68324DA0691D40D4E901230E
:104A80001343E26813432269134362691343E269E3
:104A900003431343226A1343626A042A43EA050369
:104AA00002BFD4E90B5635432B43042A0B604B69F4
:104AB00023F0070343EA02030BD1A26AE56A13431A
:104AC0003DB1F8B9012A2DD001D3022A01D1EA0162
:104AD0002BD44B612046FFF7A1FFE26D3F239340AB
:104AE000836000200123606584F8353009E0FFF71A
:104AF00061FC401B0528B9D920230320636584F895
:104B0000350070BDB0F5005F13D1032AE1D801A0D4
:104B100050F822F02B4B0008CF4A00082B4B00081E
:104B2000254B0008B5F1C07FD3D140230120636538
:104B3000E5E7022AF9D9032AC8E70120E1E700BF27
:104B40003F8010E070B590F83440012C35D001243E
:104B5000866D002580F8344090F83540012C4FF0E8
:104B6000020428D180F8354004684565256825F49D
:104B70008025256063608368402B19D1A260E160C5
:104B8000C26D3F239340B360236843F01603236054
:104B9000636943F080036361036C1BB1236843F0D6
:104BA000080323602368002043F00103236070BDE5
:104BB000A160E260E4E780F834500220F7E790F863
:104BC0003530022B03D080234365012070470268F3
:104BD000052380F835300020136823F001031360AB
:104BE000704700000023F7B5019308225B4B044691
:104BF000856D1F68C36D2E689A4032420CD00168E3
:104C00000868400708D5086820F004000860AA601A
:104C1000626D42F00102626501229A40324208D080
:104C200021684969090604D5AA60626D42F0020252
:104C3000626504229A40324208D0216809688807D8
:104C400004D5AA60626D42F00402626510229A40A7
:104C5000324210D02368196809070CD5AA601A6877
:104C6000500337D51B68190301D4236C00E0A36CF3
:104C70000BB120469847E16D20228A4032423AD05B
:104C800023681868C60636D5AA6094F83520052A28
:104C90001A6827D122F016021A605A6922F080029F
:104CA0005A61226C0AB9A26C1AB11A6822F0080281
:104CB0001A603F238B40AB60002384F8343001231B
:104CC00084F83530236D002B45D0204603B0BDE875
:104CD000F04018471A68D205C7D41A6822F00802B3
:104CE0001A60C2E7500327D51B68190331D4636CDF
:104CF0000BB120469847636D6BB3636DDA0719D526
:104D00000523226884F83530136823F0010313600B
:104D10004FF41653B7FBF3F7019B0133BB420193EA
:104D200002D81368DB07F7D4002384F8343001235A
:104D300084F83530E36CC6E71A6812F4807208D143
:104D4000196821F010011960012384F8342084F8D7
:104D50003530E36BCCE703B0F0BD00BF00000020AE
:104D60002DE9F04F0B6885B0DFF8A4810193002393
:104D7000654ADFF8A0910124019D9C402540AC428A
:104D800040F0AC804C684FEA430E032624F0100C30
:104D900006FA0EF60CF1FF37F643012F11D887689B
:104DA00007EA060ACF6807FA0EF747EA0A0787609C
:104DB000476827EA050AC4F300179F4047EA0A0735
:104DC0004760C768BCF1020F07EA060A8F6807FA56
:104DD0000EF747EA0A07C76016D14FEAD30A03F075
:104DE000070B4FF00F0C00EB8A0A4FEA8B0BDAF837
:104DF00020700CFA0BFC27EA0C0C0F6907FA0BF772
:104E000047EA0C07CAF8207007683E4004F0030721
:104E100007FA0EFE4EEA06060660E6005ED5D8F8F2
:104E2000446023F0030703F0030C4FF00F0E46F429
:104E3000804607F180474FEA8C0CC8F8446007F5BC
:104E40009C37D8F8446006F480460396039E0EFA19
:104E50000CF6D7F808A02AEA060E2C4EB04244D031
:104E600006F58066B04242D006F58066B04240D07A
:104E700006F58066B0423ED006F58066B0423CD072
:104E800048453CD006F50066B0423AD006F580664B
:104E9000B04214BF0826072606FA0CF614F4803F29
:104EA00046EA0E06BE606FEA050716680CBF3E4074
:104EB0002E4314F4003F166056680CBF3E402E434C
:104EC00014F4801F566096680CBF3E402E43A40227
:104ED0009660D66854BF3E402E43D6600133102BF7
:104EE0007FF449AF05B0BDE8F08F0026D4E7012676
:104EF000D2E70226D0E70326CEE70426CCE7052634
:104F0000CAE70626C8E700BF003C01400000024097
:104F100000380240001402400AB181617047090460
:104F2000FBE70000194B37B51A6C194C42F0805260
:104F30001A641B6C03F080530193019B236843F4B4
:104F400080332360FFF736FA05466368DA030CD531
:104F5000236843F400332360FFF72CFA0C4C05461A
:104F600063689B030AD5002006E0FFF723FA401B85
:104F7000B0F57A7FE9D9032003B030BDFFF71AFA04
:104F8000401BB0F57A7FEBD9F5E700BF003802404F
:104F9000007000402DE9F341044608B901203FE0CC
:104FA0000368D80710D42368990760D423681907C9
:104FB00000F1A58023685A0700F1C680A069002887
:104FC00040F0308100202BE0944B9A6802F00C02F4
:104FD000042A07D09A6802F00C02082A0AD15B68FA
:104FE0005A0207D58D4B1B689B03DCD56368002BE9
:104FF000D9D1D3E76368894DB3F5803F13D12B68CE
:1050000043F480332B60FFF7D5F9844D06462B68B7
:105010009F03C8D4FFF7CEF9801B6428F7D903207B
:1050200002B0BDE8F0819BB92B6823F480332B607C
:105030002B6823F480232B60FFF7BCF906462B680E
:105040009803B0D5FFF7B6F9801B6428F7D9E6E7D7
:10505000B3F5A02F2B6803D143F480232B60CEE758
:1050600023F480332B602B6823F48023CAE76B4B37
:105070009A6812F00C0F07D09A6802F00C02082A06
:1050800011D15B6859020ED4644B1A68920702D59D
:10509000E268012A82D11A68216922F0F80242EA04
:1050A000C1021A6082E7E3685C4DBBB12B6843F034
:1050B00001032B60FFF77EF906462B689F0707D593
:1050C0002B68226923F0F80343EAC2032B606DE7E3
:1050D000FFF770F9801B0228EFD9A0E72B6823F0B7
:1050E00001032B60FFF766F906462B6898077FF5EA
:1050F0005DAFFFF75FF9801B0228F6D98FE7636980
:10510000464D83B16B6F43F001036B67FFF752F9B4
:1051100006466B6F9B073FF54DAFFFF74BF9801BC2
:105120000228F6D97BE76B6F23F001036B67FFF76B
:1051300041F906466B6F9F077FF53CAFFFF73AF9E1
:10514000801B0228F6D96AE7344B1A6CD00027D4AA
:105150001A6C012642F080521A641B6C03F08053D3
:105160000193019B2E4D2B68D9051BD5A3682B4DB0
:10517000012B27D12B6F43F001032B6741F28835B8
:10518000FFF718F9254F80463B6F9B073FD5002E50
:105190003FF414AF214A136C23F0805313640DE7DE
:1051A0000026DFE72B6843F480732B60FFF702F9DA
:1051B00007462B68DA05D9D4FFF7FCF8C01B642832
:1051C000F7D92CE7ABB92B6F41F2883823F00103F4
:1051D0002B672B6F23F004032B67FFF7EBF80746D1
:1051E0002B6F9807D3D5FFF7E5F8C01B4045F7D9DB
:1051F00015E7052B2B6F03D143F004032B67B9E7A9
:1052000023F001032B672B6F23F00403B5E7FFF7AF
:10521000D1F8A0EB0800A842B6D900E70038024058
:1052200000700040384DAB6803F00C03082B41D0F0
:105230002B68022823F080732B602ED1FFF7BAF879
:1052400006462B68990122D4D4E907321343626AD7
:1052500043F0005343EA8213E26A43EA0263A26A1C
:10526000294C5208013A43EA02436B602B6843F031
:1052700080732B60FFF79EF8054623689A013FF57F
:10528000A1AEFFF797F8401B0228F6D9C7E6FFF753
:1052900091F8801B0228D4D9C1E6FFF78BF80446A9
:1052A0002B689B017FF58EAEFFF784F8001B022868
:1052B000F6D9B4E601286B683FF4B2AE03F480027D
:1052C000E1698A427FF46AAE03F03F02216A8A42B2
:1052D0007FF464AE47F6C072616A1A40B2EB811F78
:1052E0007FF45CAEA26A03F440315208013AB1EB9C
:1052F000024F7FF453AEE26A03F07063B3EB026FC8
:1053000014BF012000208BE600380240134908B585
:105310008B6803F00C03042B03D0082B03D0104838
:1053200000E0104808BD4A684B68496802F03F0237
:1053300013F48003C1F388111ABF0A4800230848F8
:10534000A1FB0001FBF7C8FC044B5B68C3F30143FE
:1053500001335B00B0FBF3F0E4E700BF003802402C
:105360000024F40040787D012DE9F0410D4604460B
:1053700010B90120BDE8F081454A136803F00F031E
:105380008B4228D321688F0730D4C80743D4404AC2
:10539000136803F00F03AB4266D8226851076FD43D
:1053A000130707D53B4A2169936823F4604343EA16
:1053B000C1039360FFF7AAFF364B374A9B68C3F3DC
:1053C0000313D35CD840354B1860354B1868FEF793
:1053D000AFFF0020CEE7136823F00F030B431360E9
:1053E000136803F00F038B42C3D1CBE711F0040F16
:1053F000284B03D09A6842F4E0529A600E0703D516
:105400009A6842F460429A609A68A06822F0F002BA
:1054100002439A60B9E761681E4B01291A681BD1E3
:1054200012F4003FA5D09A6841F28838194E22F054
:1054300003020A439A60FEF7BDFF0746B36862683D
:1054400003F00C03B3EB820FA1D0FEF7B3FFC01B38
:105450004045F3D903208DE7022902D112F0007FE5
:10546000E0E712F0020FDDE7136823F00F032B4390
:105470001360136803F00F03AB427FF47AAF8CE73D
:105480000449E0688B6823F4E05303438B6087E7AB
:10549000003C02400038024014DD000800000020FB
:1054A000E4150020044B054A9B68C3F38223D35CB8
:1054B000034A1068D84070470038024024DD0008D5
:1054C00000000020044B054A9B68C3F34233D35CC1
:1054D000034A1068D84070470038024024DD0008B5
:1054E000000000202DE9F7430268044612F001068F
:1054F0000BD0B94B996821F400019960C66A99688C
:105500003143B6FA86F67609996012F4002512D076
:10551000B149656BD1F88C30B5F5801F23F4401389
:1055200008BF012643EA050316BFB5FA85F5002535
:105530006D09C1F88C30D70210D5A748A16BD0F8FF
:105540008C30B1F5800F23F4400343EA0103C0F827
:105550008C3000F04B81002908BF0125900631D521
:105560009D4B9E4F1A6C42F080521A641B6C03F0E4
:1055700080530193019B3B6843F480733B60FEF7CB
:1055800019FF80463B68D90540F13281924F3B6F4D
:1055900013F4407340F03781A36A03F44072B2F50C
:1055A000407F8D4A40F05581916823F0704021F48E
:1055B000F81120F4407001439160C3F30B03116FA5
:1055C0000B4313672368DF060CD5834AD2F88C108F
:1055D00021F08071C2F88C10D2F88C10206B01433E
:1055E000C2F88C10580408D57B49E06DD1F89020A2
:1055F00022F440320243C1F89020190408D57649BC
:10560000206ED1F8902022F440220243C1F890206D
:10561000DA0308D57049606ED1F8902022F4401268
:105620000243C1F890205F0608D56B49E06BD1F8C2
:10563000902022F003020243C1F89020180608D5FA
:105640006549206CD1F8902022F00C020243C1F889
:105650009020D90508D56049606CD1F8902022F0DF
:1056600030020243C1F890209A0508D55A49A06C2F
:10567000D1F8902022F0C0020243C1F890205F05CB
:1056800008D55549E06CD1F8902022F440720243CD
:10569000C1F89020180508D54F49206DD1F8902009
:1056A00022F440620243C1F89020D90408D54A4947
:1056B000606DD1F8902022F440520243C1F890204E
:1056C0009A0408D54449A06DD1F8902022F44042B4
:1056D0000243C1F890209F020CD53F48616FD0F87B
:1056E0009020B1F1006F22F0006208BF01250A434B
:1056F000C0F89020580308D53749E06ED1F89020C3
:1057000022F040720243C1F89020190208D53249B4
:10571000A06FD1F8902022F080520243C1F890206F
:105720005A0108D52C49E06FD1F8902022F00052A0
:105730000243C1F89020002E40F08F80B3F1007F2B
:1057400000F08B80012D4FD1234D2B6823F0805327
:105750002B60FEF72FFE06462B689F0000F1E080CD
:105760002068050301D5636B1BB1C10218D5A36B7B
:10577000B3B91949D4E90453D1F888201B0602F4BF
:10578000403243EA85131343C1F88830D1F88C3096
:10579000226A23F4F853013A43EA0223C1F88C3019
:1057A000820210D5636FB3F1006F0CD10A49A3696F
:1057B000D1F8882020691B0402F0706243EA80134C
:1057C0001343C1F88830044C236843F080532360AE
:1057D000FEF7F0FD054603E000380240007000408F
:1057E00023689B0040F1A380002009E00126B5E674
:1057F000FEF7E0FDA0EB080064287FF6C3AE0320AF
:1058000003B0BDE8F083A26A02F4407293423FF411
:10581000C3AE3B6F3A6F23F4407342F480323A6771
:105820003A6F22F480323A673B673B6FDA077FF5C5
:10583000B3AEFEF7BFFD41F2883980463B6F9B0750
:105840003FF5AAAEFEF7B6FDA0EB08004845F5D936
:10585000D5E7916821F4F811AEE6384E336823F0AD
:1058600080633360FEF7A6FD074633681B0151D401
:105870002268D7070DD5E36A5BB9D6F88410D4E95E
:10588000010301F070611B0743EA80130B43C6F864
:105890008430100303D5636BB3F5801F05D0D102AC
:1058A00019D5A36BB3F5800F15D12449E368D1F85E
:1058B000840066681B0600F0E04043EA8613034359
:1058C000C1F88430D1F88C00E36920F01F00013B5F
:1058D0000343C1F88C3092010AD5E36862681B0665
:1058E00043EA8213A26843EA0273144AC2F884307E
:1058F000124E336843F080633360FEF75BFD07466A
:1059000033681B013FF51EAFFEF754FDC01B642832
:10591000F6D974E7FEF74EFDC01B6428A5D96EE7E3
:10592000FEF748FD801B64287FF616AF67E7FEF799
:1059300041FD401B64287FF653AF60E7003802400A
:10594000036A23F0010370B50362036A4268846945
:1059500023F002030D6824F4803424F073042C43F4
:105960008D682B430E4DA84202D00E4EB04211D18D
:1059700023F00803CE68A84243EA060323F0040399
:1059800002D0084DA84205D122F44072D1E9055653
:1059900035432A4342604A6884614263036270BDB2
:1059A0000000014000040140036A23F4807370B5D5
:1059B0000362036A4268C46923F400730D6824F427
:1059C000803424F073042C438D6843EA0523114D81
:1059D000A84203D005F58065A84214D1CD6823F410
:1059E000006343EA05230B4DA84223F4806303D0F0
:1059F00005F58065A84206D122F44052D1E905564A
:105A0000354342EA051242604A68C461C2630362D8
:105A100070BD00BF00000140036A23F4805330B51D
:105A20000362026A4468C36922F400520D6823F0DD
:105A3000807323F4E64343EA05238D6842EA053286
:105A4000084DA84203D005F58065A84204D124F48E
:105A500080444D6944EA85144460C3614B68036423
:105A6000026230BD00000140036A23F4803330B588
:105A70000362026A4468436D22F400320D6823F425
:105A8000803323F070032B438D6842EA0542094DB1
:105A9000A84203D005F58065A84204D124F48034DF
:105AA0004D6944EA0524446043654B68836502629E
:105AB00030BD00BF00000140036A23F4801330B5FD
:105AC0000362026A4468436D22F400120D6823F0F9
:105AD000807323F4E04343EA05238D6842EA0552CC
