:020000040800F2
:100000000000042065370008A52B0008AB2B000872
:10001000B12B0008B72B0008BD2B00080000000022
:1000200000000000000000000000000091770008C0
:10003000C32B00080000000031780008D12B000815
:10004000B5370008B5370008B5370008B5370008E0
:10005000B5370008B5370008B5370008B5370008D0
:10006000B5370008B5370008B5370008B5370008C0
:10007000ED2B0008B5370008012C0008B537000843
:10008000B5370008B5370008152C0008B53700084B
:10009000B5370008B5370008B5370008B537000890
:1000A000B5370008B5370008B5370008B537000880
:1000B000B5370008B5370008B5370008B537000870
:1000C000B5370008B5370008B5370008B537000860
:1000D000B5370008B5370008B5370008292C0008E7
:1000E000B5370008B5370008B5370008B537000840
:1000F000B5370008B5370008B5370008B537000830
:10010000B5370008B5370008B5370008B53700081F
:10011000B5370008B5370008B53700083D2C000892
:10012000B5370008B5370008512C0008B53700086E
:10013000B5370008000000000000000000000000CB
:10014000000000000000000000000000B5370008BB
:10015000B5370008B5370008652C0008B53700082A
:10016000B5370008B5370008B5370008B5370008BF
:10017000B5370008B5370008000000000000000097
:10018000B5370008B5370008B5370008B53700089F
:10019000B5370008B537000800000000B537000883
:1001A000000000000000000000000000B53700085B
:1001B000B5370008B5370008000000000000000057
:1001C000000000000000000000000000000000002F
:1001D000000000000000000000000000B53700082B
:1001E00010B5054C237833B9044B13B10448AFF371
:1001F00000800123237010BD3C020020000000009D
:10020000B8CD000808B5034B1BB103490348AFF351
:10021000008008BD0000000040020020B8CD0008AA
:10022000034613F8012B002AFBD1181A0138704736
:1002300001F0FF01102A2BDB10F0070F08D010F897
:10024000013B013A8B422DD010F0070F42B3F6D19B
:10025000F0B441EA012141EA014122F007047FF0B4
:1002600000070023F0E80256083C85EA010586EA0B
:10027000010685FA47F5A3FA87F586FA47F6A5FA47
:1002800087F68EB9EED1F0BC01F0FF0102F0070253
:1002900032B110F8013B013A83EA010313B1F8D1FE
:1002A0000020704701387047002D06BF35460338DF
:1002B000073815F0010F07D1013015F4807F02BF18
:1002C000013015F4C03F0130F0BC0138704700BF69
:1002D00081F0004102E000BF83F0004330B54FEAF7
:1002E00041044FEA430594EA050F08BF90EA020F64
:1002F0001FBF54EA000C55EA020C7FEA645C7FEAF7
:10030000655C00F0E2804FEA5454D4EB5555B8BF19
:100310006D420CDD2C4480EA020281EA030382EA8A
:10032000000083EA010180EA020281EA0303362D1C
:1003300088BF30BD11F0004F4FEA01314FF4801CEF
:100340004CEA113102D0404261EB410113F0004F01
:100350004FEA03334CEA133302D0524263EB4303B8
:1003600094EA050F00F0A780A4F10104D5F1200E56
:100370000DDB02FA0EFC22FA05F2801841F10001B1
:1003800003FA0EF2801843FA05F359410EE0A5F185
:1003900020050EF1200E012A03FA0EFC28BF4CF0B6
:1003A000020C43FA05F3C01851EBE37101F000456C
:1003B00007D54FF0000EDCF1000C7EEB00006EEB79
:1003C0000101B1F5801F1BD3B1F5001F0CD3490803
:1003D0005FEA30004FEA3C0C04F101044FEA44525A
:1003E00012F5800F80F09A80BCF1004F08BF5FEAE1
:1003F000500C50F1000041EB045141EA050130BDC1
:100400005FEA4C0C404141EB010111F4801FA4F163
:100410000104E9D191F0000F04BF01460020B1FAB8
:1004200081F308BF2033A3F10B03B3F120020CDAF0
:100430000C3208DD02F1140CC2F10C0201FA0CF0CE
:1004400021FA02F10CE002F11402D8BFC2F1200C33
:1004500001FA02F120FA0CFCDCBF41EA0C019040E9
:10046000E41AA2BF01EB0451294330BD6FEA040432
:100470001F3C1CDA0C340EDC04F11404C4F120021D
:1004800020FA04F001FA02F340EA030021FA04F32F
:1004900045EA030130BDC4F10C04C4F1200220FA86
:1004A00002F001FA04F340EA0300294630BD21FAC4
:1004B00004F0294630BD94F0000F83F4801306BF8A
:1004C00081F480110134013D4EE77FEA645C18BF7E
:1004D0007FEA655C29D094EA050F08BF90EA020F15
:1004E00005D054EA000C04BF1946104630BD91EA0D
:1004F000030F1EBF0021002030BD5FEA545C05D110
:100500004000494128BF41F0004130BD14F580044E
:100510003CBF01F5801130BD01F0004545F0FE41C2
:1005200041F470014FF0000030BD7FEA645C1ABFF7
:10053000194610467FEA655C1CBF0B46024650EA2E
:10054000013406BF52EA033591EA030F41F400215A
:1005500030BD00BF90F0000F04BF0021704730B5E0
:100560004FF4806404F132044FF000054FF00001B5
:1005700050E700BF90F0000F04BF0021704730B576
:100580004FF4806404F1320410F0004548BF40424B
:100590004FF000013EE700BF42004FEAE2014FEAA0
:1005A00031014FEA02701FBF12F07F4393F07F4F7B
:1005B00081F06051704732F07F4208BF704793F07E
:1005C0007F4F04BF41F40021704730B54FF4607491
:1005D00001F0004521F000411CE700BF50EA010294
:1005E00008BF704730B54FF000050AE050EA01023D
:1005F00008BF704730B511F0004502D5404261EBAD
:1006000041014FF4806404F132045FEA915C3FF4ED
:10061000D8AE4FF003025FEADC0C18BF03325FEA8A
:10062000DC0C18BF033202EBDC02C2F1200300FA3B
:1006300003FC20FA02F001FA03FE40EA0E0021FA60
:1006400002F11444BDE600BF70B54FF0FF0C4CF44E
:10065000E06C1CEA11541DBF1CEA135594EA0C0F00
:1006600095EA0C0F00F0DEF82C4481EA030621EA3B
:100670004C5123EA4C5350EA013518BF52EA033576
:1006800041F4801143F4801338D0A0FB02CE4FF028
:100690000005E1FB02E506F00042E0FB03E54FF058
:1006A0000006E1FB03569CF0000F18BF4EF0010E50
:1006B000A4F1FF04B6F5007F64F5407404D25FEA4C
:1006C0004E0E6D4146EB060642EAC62141EA5551FF
:1006D0004FEAC52040EA5E504FEACE2EB4F1FD0C41
:1006E00088BFBCF5E06F1ED8BEF1004F08BF5FEABF
:1006F000500E50F1000041EB045170BD06F0004671
:1007000046EA010140EA020081EA0301B4EB5C041D
:10071000C2BFD4EB0C0541EA045170BD41F4801115
:100720004FF0000E013C00F3AB8014F1360FDEBF3A
:10073000002001F0004170BDC4F10004203C35DA16
:100740000C341BDC04F11404C4F1200500FA05F399
:1007500020FA04F001FA05F240EA020001F000423A
:1007600021F0004110EBD37021FA04F642EB0601B0
:100770005EEA430E08BF20EAD37070BDC4F10C04DA
:10078000C4F1200500FA04F320FA05F001FA04F29E
:1007900040EA020001F0004110EBD37041F100018A
:1007A0005EEA430E08BF20EAD37070BDC4F1200595
:1007B00000FA05F24EEA020E20FA04F301FA05F2FD
:1007C00043EA020321FA04F001F0004121FA04F2A5
:1007D00020EA020000EBD3705EEA430E08BF20EA75
:1007E000D37070BD94F0000F0FD101F000464000AF
:1007F00041EB010111F4801F08BF013CF7D041EA31
:10080000060195F0000F18BF704703F00046520034
:1008100043EB030313F4801F08BF013DF7D043EA05
:100820000603704794EA0C0F0CEA135518BF95EABB
:100830000C0F0CD050EA410618BF52EA4306D1D142
:1008400081EA030101F000414FF0000070BD50EA61
:10085000410606BF1046194652EA430619D094EAEB
:100860000C0F02D150EA013613D195EA0C0F05D1D5
:1008700052EA03361CBF104619460AD181EA030129
:1008800001F0004141F0FE4141F470014FF00000E1
:1008900070BD41F0FE4141F4780170BD70B54FF07C
:1008A000FF0C4CF4E06C1CEA11541DBF1CEA1355FC
:1008B00094EA0C0F95EA0C0F00F0A7F8A4EB0504DE
:1008C00081EA030E52EA03354FEA013100F08880D5
:1008D0004FEA03334FF0805545EA131343EA12639E
:1008E0004FEA022245EA111545EA10654FEA002653
:1008F0000EF000419D4208BF964244F1FD0404F50C
:10090000407402D25B084FEA3202B61A65EB030567
:100910005B084FEA32024FF480104FF4002CB6EB24
:10092000020E75EB030E22BFB61A754640EA0C00A4
:100930005B084FEA3202B6EB020E75EB030E22BFE4
:10094000B61A754640EA5C005B084FEA3202B6EB25
:10095000020E75EB030E22BFB61A754640EA9C00E4
:100960005B084FEA3202B6EB020E75EB030E22BFB4
:10097000B61A754640EADC0055EA060E18D04FEA72
:10098000051545EA16754FEA06164FEAC30343EA12
:1009900052734FEAC2025FEA1C1CC0D111F4801FDF
:1009A0000BD141EA00014FF000004FF0004CB6E7D8
:1009B00011F4801F04BF01430020B4F1FD0C88BF77
:1009C000BCF5E06F3FF6AFAEB5EB030C04BFB6EB82
:1009D000020C5FEA500C50F1000041EB045170BD75
:1009E0000EF0004E4EEA113114EB5C04C2BFD4EBA2
:1009F0000C0541EA045170BD41F480114FF0000E26
:100A0000013C90E645EA060E8DE60CEA135594EAA1
:100A10000C0F08BF95EA0C0F3FF43BAF94EA0C0FA4
:100A20000AD150EA01347FF434AF95EA0C0F7FF419
:100A300025AF104619462CE795EA0C0F06D152EA6D
:100A400003353FF4FDAE1046194622E750EA410651
:100A500018BF52EA43067FF4C5AE50EA41047FF462
:100A60000DAF52EA43057FF4EBAE12E74FF0FF3CC7
:100A700006E000BF4FF0010C02E000BF4FF0010C98
:100A80004DF804CD4FEA410C7FEA6C5C4FEA430C11
:100A900018BF7FEA6C5C1BD001B050EA410C0CBF60
:100AA00052EA430C91EA030F02BF90EA020F0020C2
:100AB000704710F1000F91EA030F58BF994208BF29
:100AC00090422CBFD8176FEAE37040F001007047E6
:100AD0004FEA410C7FEA6C5C02D150EA013C07D13D
:100AE0004FEA430C7FEA6C5CD6D152EA033CD3D088
:100AF0005DF8040B704700BF8446104662468C4682
:100B00001946634600E000BF01B5FFF7B7FF0028B4
:100B100048BF10F1000F01BD4DF808EDFFF7F4FFDD
:100B20000CBF012000205DF808FB00BF4DF808ED68
:100B3000FFF7EAFF34BF012000205DF808FB00BF8B
:100B40004DF808EDFFF7E0FF94BF012000205DF8AD
:100B500008FB00BF4DF808EDFFF7CEFF94BF012062
:100B600000205DF808FB00BF4DF808EDFFF7C4FF5B
:100B700034BF012000205DF808FB00BF4FEA410CA4
:100B80007FEA6C5C02D150EA013C0AD14FEA430C87
:100B90007FEA6C5C02D152EA033C02D14FF00000C4
:100BA00070474FF0010070474FEA410212F5001202
:100BB00015D211D56FF47873B3EB625212D94FEAA4
:100BC000C12343F0004343EA505311F0004F23FA8E
:100BD00002F018BF404270474FF00000704750EAE3
:100BE000013005D111F0004008BF6FF000407047A0
:100BF0004FF00000704700BF4A0011D212F50012FA
:100C000011D20DD56FF47873B3EB62520ED44FEA64
:100C1000C12343F0004343EA505323FA02F07047E4
:100C20004FF00000704750EA013002D14FF0FF3022
:100C300070474FF0000070474FEA4102B2F1E043C5
:100C400024BFB3F5001CDCF1FE5C0DD901F0004CB3
:100C50004FEAC0024CEA5070B2F1004F40EB830003
:100C600008BF20F00100704711F0804F21D113F12F
:100C70003872BCBF01F00040704741F480114FEA68
:100C80005252C2F11802C2F1200C10FA0CF320FAF1
:100C900002F018BF40F001004FEAC1234FEAD3230E
:100CA00003FA0CFC40EA0C0023FA02F34FEA430378
:100CB000CCE77FEA625307D150EA01331EBF4FF001
:100CC000FE4040F44000704701F0004040F0FE401C
:100CD00040F40000704700BF53B94AB9002908BF6B
:100CE00000281CBF4FF0FF314FF0FF3000F072B909
:100CF000ADF1080C6DE904CE00F006F8DDF804E073
:100D0000DDE9022304B070472DE9F047089E044650
:100D10008846002B4BD18A42154667D9B2FA82F237
:100D20004AB1C2F1200701FA02F320FA07F7954011
:100D300047EA030894404FEA154E230CB8FBFEF730
:100D40001FFA85FC0EFB178843EA084307FB0CF1EA
:100D5000994209D9EB1807F1FF3080F01B819942C5
:100D600040F21881023F2B445B1AA4B2B3FBFEF0A1
:100D70000EFB103344EA034400FB0CFCA44509D9E4
:100D80002C1900F1FF3380F00781A44540F2048163
:100D900002382C4440EA0740A4EB0C0400271EB1A3
:100DA000D4400023C6E900433946BDE8F0878B42B2
:100DB00009D9002E00F0EB800027C6E90001384673
:100DC0003946BDE8F087B3FA83F7002F47D18B424D
:100DD00002D3824200F2FA80841A61EB03030120FD
:100DE0009846002EE0D0C6E90048DDE702B9FFDEF4
:100DF000B2FA82F2002A40F08F80491B4FEA154E6A
:100E00001FFA85F80127B1FBFEFC230C0EFB1C1119
:100E100043EA014308FB0CF1994207D9EB180CF1A6
:100E2000FF3002D2994200F2CD808446591AA3B213
:100E3000B1FBFEF00EFB101443EA044408FB00F87B
:100E4000A04507D92C1900F1FF3302D2A04500F2CA
:100E5000B6801846A4EB080440EA0C409FE7C7F1AF
:100E6000200CBB4022FA0CFE4EEA030E01FA07F4F6
:100E700020FA0CF521FA0CF34FEA1E482543B3FB88
:100E8000F8F92C0C08FB19331FFA8EFA44EA0343D5
:100E900009FB0AF49C4202FA07F200FA07F10BD9A7
:100EA0001EEB030309F1FF3080F087809C4240F283
:100EB0008480A9F1020973441B1BADB2B3FBF8F0A7
:100EC00008FB103345EA034400FB0AFAA24508D99F
:100ED0001EEB040400F1FF336BD2A24569D902383E
:100EE000744440EA0940A0FB0289A4EB0A044C4583
:100EF000C2464B4654D351D0002E69D0B1EB0A05FF
:100F000064EB030404FA0CFCFD40FC404CEA0505CC
:100F1000C6E90054002747E7C2F1200320FA03F78F
:100F2000954001FA02F021FA03F34FEA154E3843D7
:100F3000010CB3FBFEF71FFA85F80EFB173341EAED
:100F4000034107FB08F38B4204FA02F407D969183E
:100F500007F1FF3C2FD28B422DD9023F2944CB1AF7
:100F600081B2B3FBFEF00EFB103341EA034100FBFC
:100F700008F38B4207D9691800F1FF3C17D28B4266
:100F800015D902382944C91A40EA07473BE73746D2
:100F9000304609E70746E7E61846FBE64145ABD28F
:100FA000B8EB020A69EB0E0201381346A4E760466B
:100FB000E9E7184695E76746D1E781467CE70238BE
:100FC0002C4447E7ACF1020C2B442FE7384608E7E6
:100FD0003746E9E6704700BF80B588B002AF786059
:100FE0000123FB750023BB752B4B5B6A3B6140F211
:100FF000DE33FB81284B5B6ABB60FA7DBB7D9A4286
:1010000002D1012004F070FEFB7D012B3DD1396936
:10101000B86800F063FC0246204B9A4238D9BB689E
:101020003B6100F085FD01230093402380220021D5
:10103000002000F068FE1A4806F050FEFB895A1C9A
:10104000FA81184A0421042008F06AF806F0ECFD41
:101050000346191DB423144A042008F061F806F071
:10106000E3FD0346023359006423104A042008F0CC
:1010700057F80F4806F032FE0E4B0F4A3521042078
:1010800008F04EF800F0C8FC02E00123FB7500E018
:1010900000BFFB7DBB75ADE7000C0040E093040092
:1010A0002C000020DCCD0008E8CD0008F8CD0008B9
:1010B0003C00002008CE000810CE000880B582B0A9
:1010C00000AF7860054A0021054804F0B5FD0246EE
:1010D000044B1A60642004F007FEFBE778CE00089A
:1010E000D90F0008E455002080B485B000AF034656
:1010F000B9607A60FB7300BF1437BD465DF8047BAE
:101100007047000080B500AF874B1B6903F4807304
:10111000002B1DD1854B1B78322B12D9844B1B68B9
:10112000002B03D1834B1B68814A1360814B1A68E3
:101130007F4B1B68D31A804A1360804B01221A70C0
:1011400010E07A4B1B780133DAB2784B1A7009E061
:10115000774B00221A60754B00221A70734B1A7875
:10116000764B1A70704B1B6903F08003002B1DD166
:10117000734B1B78322B12D9724B1B68002B03D197
:101180006C4B1B686F4A13606A4B1A686D4B1B6887
:10119000D31A6D4A13606D4B01221A7010E0684B30
:1011A0001B780133DAB2664B1A7009E0654B0022F6
:1011B0001A60634B00221A70614B1A78634B1A70E5
:1011C000594B1B6903F04003002B1DD1604B1B786A
:1011D000322B12D95F4B1B68002B03D1554B1B6878
:1011E0005C4A1360534B1A685A4B1B68D31A5A4A0D
:1011F00013605A4B01221A7010E0554B1B780133D3
:10120000DAB2534B1A7009E0524B00221A60504B6D
:1012100000221A704E4B1A78504B1A704F4B1B78A5
:10122000DBB2002B00F0EA814D4B1B6903F0400359
:10123000002B34D04B4B1B78142B29D94A4B1B68FD
:10124000002B03D13B4B1B68474A1360394B1A688C
:10125000454B1B68D31A454A1360454B1B78DBB2DC
:10126000002B11D1434B1B78DBB2002B0CD1424B2E
:101270001B78DBB2002B07D1404B1B78DBB2002B75
:1012800002D13F4B01221A703B4B01221A7010E031
:10129000344B1B780133DAB2324B1A7009E0324B0F
:1012A00000221A602F4B00221A702E4B1A78324BF4
:1012B0001A702B4B1B6903F08003002B6AD0314B53
:1012C0001B78142B29D9304B1B68002B03D1194BE9
:1012D0001B682D4A1360174B1A682B4B1B68D31AD7
:1012E0002A4A1360224B1B78DBB2002B11D1214B11
:1012F0001B78DBB2002B0CD11F4B1B78DBB2002B11
:1013000007D11E4B1B78DBB2002B02D1204B0122F0
:101310001A701A4B01221A7046E01A4B1B780133DF
:10132000DAB2184B1A703FE000080240AC0200200D
:10133000A802002058020020A4020020A0020020E1
:10134000B8020020B4020020B0020020AD0200204C
:10135000C4020020C0020020BC020020B90200200C
:101360000004024084020020900200206C02002051
:101370005C0200205D0200205E0200205F0200206F
:101380007E020020850200209402002070020020CE
:101390007F0200207D4B00221A607D4B00221A70D4
:1013A0007B4B1A787B4B1A707B4B1B6903F0100345
:1013B000002B34D0794B1B78142B29D9784B1B6820
:1013C000002B03D1774B1B68754A1360754B1A6865
:1013D000734B1B68D31A744A1360744B1B78DBB2CF
:1013E000002B11D1724B1B78DBB2002B0CD1714B4F
:1013F0001B78DBB2002B07D1664B1B78DBB2002BCE
:1014000002D16D4B01221A70684B01221A7010E054
:10141000624B1B780133DAB2604B1A7009E0604B03
:1014200000221A605D4B00221A705C4B1A785F4BE9
:101430001A70594B1B6903F02003002B34D05F4B0B
:101440001B78142B29D95E4B1B68002B03D1554BFD
:101450001B685B4A1360534B1A68594B1B68D31ABD
:10146000584A1360514B1B78DBB2002B11D1504B03
:101470001B78DBB2002B0CD14E4B1B78DBB2002B60
:1014800007D1444B1B78DBB2002B02D14E4B01221B
:101490001A70474B01221A7010E0484B1B78013339
:1014A000DAB2464B1A7009E0454B00221A60434BF2
:1014B00000221A70414B1A783D4B1A70434B1B693E
:1014C00003F48053002B20D0414B1B78142B15D9EB
:1014D000404B1B68002B03D1324B1B683D4A136005
:1014E000304B1A683B4B1B68D31A3B4A13603B4B8B
:1014F00001221A703A4B01221A7010E0344B1B780B
:101500000133DAB2324B1A7009E0324B00221A6012
:101510002F4B00221A702E4B1A78314B1A70314B18
:101520001B6903F00403002B20D02F4B1B78142BD6
:1015300015D92E4B1B68002B03D11A4B1B682B4A65
:101540001360184B1A68294B1B68D31A284A13607A
:10155000284B01221A70284B01221A7010E0224BEE
:101560001B780133DAB2204B1A7009E01F4B0022BE
:101570001A601D4B00221A701B4B1A781E4B1A70F2
:101580004FF08043FF22DA6360E000BF9402002046
:10159000850200205F020020000402408202002039
:1015A0008802002058020020640200205C02002013
:1015B0005D0200205E0200207C02002083020020E9
:1015C0008C020020680200207D02002000080240FA
:1015D000870200209C020020780200208102002067
:1015E00061020020000C02408602002098020020C8
:1015F000740200208002002060020020304B002294
:101600001A70304B00221A702F4B00221A702F4B89
:1016100000221A702E4B00221A702E4B00221A70D4
:101620002D4B00221A702D4B00221A702C4B0022D9
:101630001A702C4B00221A702B4B00221A702B4B65
:1016400000221A704FF080430022DA63244B1B788B
:10165000DBB2002B0CBF01230023DBB21A464FF490
:101660008071234802F044FE1E4B1B78DBB2002B36
:101670000CBF01230023DBB21A464FF400411C4883
:1016800002F036FE184B1B78DBB2002B0CBF012397
:101690000023DBB21A464FF40051154802F028FE31
:1016A000124B1B78DBB2002B0CBF01230023DBB2F3
:1016B0001A464FF480510E4802F01AFE00BF80BD5A
:1016C00081020020800200207C0200207D02002098
:1016D0007E0200207F0200206102002060020020C4
:1016E0005C0200205D0200205E0200205F020020FC
:1016F0000004024080B582B000AF7860084B1B68E0
:10170000002B05D1074804F009FB0246044B1A6080
:10171000054A7B68136000BF0837BD4680BD00BF27
:10172000CC0200209CCE0008C802002080B584B006
:1017300000AF786039600023FB81194B1B68002BD8
:1017400005D1184804F0EAFA0246154B1A60164B08
:101750001B68002B17D0124B1B680021184604F0A1
:101760001FFBB860BB68002B0DD10F4B1B683A689C
:101770007968184602F036FB0346FB81084B1B686C
:10178000184604F03DFBFB895AB2FB891B0A9BB249
:101790005BB253405BB2DBB218461037BD4680BD2A
:1017A000CC0200209CCE0008C802002080B588B082
:1017B00000AF214B1B6C204A43F0080313641E4BFF
:1017C0001B6C03F008033B603B681C4B1C4A1A600F
:1017D00003F054F803465B001A4AA2FB03239B0C58
:1017E000194A1360154B00225A60144B00229A606C
:1017F000124B4FF0FF32DA60104B00221A610F4893
:1018000003F0B8FC4FF480533B6107F11003194615
:101810000A4803F0CFFD00237B600023FB603B1DE3
:101820001946064803F08EFE044803F059FB00BF3A
:101830002037BD4680BD00BF00380240D0020020E6
:10184000000C004083DE1B431003002080B584B0F1
:1018500000AF78600C4B5B6A4FF47A7202FB03F3C3
:10186000FB6000BF084B5B6A4FF47A7202FB03F324
:10187000F968184600F032F802467B689342F1D8C6
:1018800000BF1037BD4680BD000C004080B584B05D
:1018900000AF7860084B5B6AFB6000BF064B5B6A79
:1018A000F968184600F01AF802467B689342F5D8AA
:1018B00000BF1037BD4680BD000C004080B582B02F
:1018C00000AF78607B684FF47A7202FB03F318462E
:1018D000FFF7DCFF00BF0837BD4680BD80B483B092
:1018E00000AF786039607A683B689A4207D37A68BB
:1018F0003B68D21A094B1B68B2FBF3F307E07A6826
:101900003B68D31A5A1E054B1B68B2FBF3F318460B
:101910000C37BD465DF8047B704700BF1003002004
:1019200080B584B000AF0346FB71FA79FB79DB43E5
:10193000DBB21B041343FB6000220221144802F0B7
:10194000D7FC00220421134802F0D2FC012202211C
:10195000104802F0CDFC104AFB68936140F214502D
:10196000FFF774FF05F026FF01220221084802F06C
:10197000BFFC40F21450FFF769FF00220221044827
:1019800002F0B6FC05F03CFF00BF1037BD4680BD3D
:1019900000040240000802400000024080B584B00C
:1019A00000AF0346FB71FA79FB79DB43DBB21B0422
:1019B0001343FB6000220221144802F099FC00222C
:1019C0000421134802F094FC00220221104802F086
:1019D0008FFC104AFB68936140F21450FFF736FF0A
:1019E00005F0E8FE01220221084802F081FC40F2E5
:1019F0001450FFF72BFF00220221044802F078FC6C
:101A000005F0FEFE00BF1037BD4680BD0004024059
:101A1000000802400000024080B584B000AF0023FF
:101A2000FB6050E0012210212A4802F061FC0122F3
:101A30000121294802F05CFC4020FFF7AFFFFB6862
:101A4000DBB2483BDBB21846FFF7A8FF01221021AA
:101A5000204802F04DFC002201211F4802F048FC02
:101A60000023BB600CE01D4AFB68DB011A44BB6825
:101A700013441B781846FFF753FFBB680133BB6064
:101A8000BB683F2BEFDD00221021124802F030FC32
:101A900001220121104802F02BFC40237B600CE066
:101AA0000E4AFB68DB011A447B6813441B78184616
:101AB000FFF736FF7B6801337B607B687F2BEFDDB0
:101AC000FB680133FB60FB68072BABDD00BF103701
:101AD000BD4680BD0008024000040240E8550020D9
:101AE00080B500AF012210210F4802F001FC012255
:101AF00001210E4802F0FCFB3F20FFF74FFF402082
:101B0000FFF74CFFB820FFF749FFC020FFF746FF63
:101B100000221021044802F0EBFB002201210348BF
:101B200002F0E6FB00BF80BD000802400004024056
:101B300080B483B000AF00237B6013E000233B60E0
:101B40000AE00D4A7B68DB011A443B68134400221B
:101B50001A703B6801333B603B687F2BF1DD7B688B
:101B600001337B607B68072BE8DD00BF0C37BD4687
:101B70005DF8047B704700BFE855002080B483B057
:101B800000AF03460A46FB711346BB7197F9073055
:101B9000002B1FDBBB793F2B1CD8BB79DB08D8B2ED
:101BA0000246FB790E49D2010A4413441B785AB20B
:101BB000BB7903F00703012101FA03F35BB213437E
:101BC00059B20246FB79C8B20549D2010A4413440E
:101BD00002461A7000BF0C37BD465DF8047B7047A3
:101BE000E855002080B483B000AF03460A46FB717D
:101BF0001346BB7197F90730002B21DBBB793F2BD4
:101C00001ED8BB79DB08D8B20246FB790F49D20156
:101C10000A4413441B785AB2BB7903F0070301212D
:101C200001FA03F35BB2DB435BB2134059B20246E5
:101C3000FB79C8B20549D2010A44134402461A701E
:101C400000BF0C37BD465DF8047B7047E8550020A7
:101C500080B58CB000AFF860B9607A603B60BB6B58
:101C6000002B26D0BB68FB620023BB621CE0FB6834
:101C70007B6200233B620DE07B6ADBB2FA6AD2B280
:101C800011461846FFF77AFF3B6A01333B627B6AD5
:101C900001337B623A6A7B689A42EDDBBB6A0133AF
:101CA000BB62FB6A0133FB62BA6A3B689A42DEDBC5
:101CB00025E0BB68FB610023BB611CE0FB687B6126
:101CC00000233B610DE07B69DBB2FA69D2B21146B9
:101CD0001846FFF787FF3B6901333B617B6901339E
:101CE0007B613A697B689A42EDDBBB690133BB617A
:101CF000FB690133FB61BA693B689A42DEDB00BFD6
:101D00003037BD4680BD80B58CB000AFF860B9609B
:101D10007A603B607B68002B40F39A803B68002B25
:101D200040F39680BB6B002B49D0BB68FB6200235D
:101D3000BB621BE0FB68DBB2FA6AD2B211461846FE
:101D4000FFF71CFFFB68DAB27B68DBB21344DBB23F
:101D5000013BDBB2FA6AD2B211461846FFF70EFF1A
:101D6000BB6A0133BB62FB6A0133FB62BA6A3B6840
:101D70009A42DFDBFB687B6200233B621AE07B6AEE
:101D8000DBB2BA68D2B211461846FFF7F7FE7B6A9B
:101D9000D8B2BB68DAB23B68DBB21344DBB2013BBA
:101DA000DBB21946FFF7EAFE3B6A01333B627B6A0E
:101DB00001337B623A6A7B689A42E0DB48E0BB68A9
:101DC000FB610023BB611BE0FB68DBB2FA69D2B2A6
:101DD00011461846FFF706FFFB68DAB27B68DBB2F4
:101DE0001344DBB2013BDBB2FA69D2B211461846AA
:101DF000FFF7F8FEBB690133BB61FB690133FB618F
:101E0000BA693B689A42DFDBFB687B6100233B6178
:101E10001AE07B69DBB2BA68D2B211461846FFF706
:101E2000E1FE7B69D8B2BB68DAB23B68DBB213442F
:101E3000DBB2013BDBB21946FFF7D4FE3B6901334D
:101E40003B617B6901337B613A697B689A42E0DBE5
:101E500000BF3037BD4680BD80B500AF00220421F1
:101E60000F4802F045FA4FF4FA70FFF70FFD012218
:101E700004210B4802F03CFA0220FFF71FFDFFF798
:101E80002FFEFFF755FEFFF7C7FD402280210548D2
:101E900005F0DCFE002005F0B7FE00BF80BD00BFEE
:101EA00000040240511C000880B582B000AF786089
:101EB0007B68044A934201D1FFF724F900BF083739
:101EC000BD4680BD605D002080B500AF0E4805F0C6
:101ED00005FF0E4A04211E2007F042F90C4805F0C8
:101EE000FDFE0C4A2021002007F03AF90A4A2E2173
:101EF0000D2007F035F9FFF78FFD4FF47A70FFF7EB
:101F0000DDFC00BF80BD00BF5C00002050CE00089B
:101F10004C00002058CE000868CE000880B500AF05
:101F200001F06EFC00F056F800F0F0FA00F0ACFAA8
:101F300000F062F900F00CF900F0EEF900F044FA5C
:101F400000F072FA00F0D8F800F0B0F901F0AEF845
:101F50001648FFF7CFFBFFF729FC154802F0D8FF22
:101F60000821144803F0ECFAFFF776FFFFF7ACFF07
:101F700003F028FE104A0021104803F05DFE0246DF
:101F80000F4B1A600F4A01210F4803F055FE02461D
:101F90000E4B1A600B4A02210B4803F04DFE02461D
:101FA0000B4B1A6003F028FEFEE700BF0C5B00201D
:101FB000605D0020205D0020ACCE0008BD10000850
:101FC000E8590020D0CE0008DD320008185D00205E
:101FD0001C5D002080B5B4B000AF07F1A003302233
:101FE0000021184607F07BF907F18C0300221A60E4
:101FF0005A609A60DA601A6107F10C0380220021AE
:10200000184607F06CF93A4B1B6C394A43F0805381
:102010001364374B1B6C03F08053BB60BB68354BBC
:102020001B68344A43F440431360324B1B6803F48B
:1020300040437B607B680223C7F8A0300123C7F8C8
:10204000AC301023C7F8B0300223C7F8B8300023F3
:10205000C7F8BC300823C7F8C030D823C7F8C4304D
:102060000223C7F8C8300223C7F8CC3007F1A00319
:10207000184602F07BF90346002B01D000F052FB1A
:1020800002F03CF90346002B01D000F04BFB0F237C
:10209000C7F88C300223C7F890300023C7F894307B
:1020A0004FF4A053C7F898304FF48053C7F89C30D2
:1020B00007F18C030721184602F042FB0346002B70
:1020C00001D000F02FFB4FF4A073FB600023BB6432
:1020D00000233B6507F10C03184602F0EFFB0346B3
:1020E000002B01D000F01EFB00BFD037BD4680BDE5
:1020F000003802400070004080B500AF124B134A18
:102100001A60114B01221A710F4B01225A710E4BAA
:102110004AF201029A600C4B0822DA600A4B002254
:102120001A61094B20225A61074B80229A61064BA3
:1021300001221A62044801F01BFE0346002B01D065
:1021400000F0F0FA00BF80BD0C5B002000300240C0
:1021500080B584B000AF3B4600221A605A609A6096
:10216000DA60214B214A1A601F4B4FF480325A60CB
:102170001D4B00229A601C4B00221A611A4B002250
:102180009A61194B002283F82020174B0022DA6253
:10219000154B174A9A62144B0022DA60124B012247
:1021A000DA61114B002283F830200F4B01225A6173
:1021B0000D4801F043FB0346002B01D000F0B2FABA
:1021C0000C4B3B6001237B600023BB603B46194600
:1021D000054801F071FC0346002B01D000F0A2FA83
:1021E00000BF1037BD4680BDF05B002000200140DD
:1021F0000100000F1200001080B58AB000AF07F197
:102200001C0300221A605A609A603B4600221A6042
:102210005A609A60DA601A615A619A61224B4FF0F3
:1022200080421A60204B4FF4D3725A601E4B00223A
:102230009A601D4BFF22DA601B4B00221A611A4B79
:1022400000229A61184802F0AFFF0346002B01D02C
:1022500000F068FA0023FB6100237B6207F11C0396
:102260001946114803F06EF90346002B01D000F027
:1022700059FA60233B6000237B600023BB6000238E
:102280003B613B4608221946074803F003F8034622
:10229000002B01D000F046FA034800F0EDFA00BF31
:1022A0002837BD4680BD00BF205D002080B584B0CA
:1022B00000AF3B1D00221A605A609A60144B154A09
:1022C0001A60134B6B225A60114B00229A60104B1C
:1022D00040F2E732DA600E4B00229A610C4802F0BD
:1022E00049FF0346002B01D000F01CFA00237B605D
:1022F0000023FB603B1D1946054803F023F9034604
:10230000002B01D000F00EFA00BF1037BD4680BD93
:10231000605D00200014004080B588B000AF3B1D18
:1023200000221A605A609A60DA601A615A619A61F2
:10233000234B244A1A60224B42F62F225A60204B2C
:1023400000229A601E4B42F20F72DA601C4B002290
:102350001A611B4B00229A61194802F00BFF0346D9
:10236000002B01D000F0DEF9154802F01DFF0346F6
:10237000002B01D000F0D6F90821114802F02EFF01
:102380000346002B01D000F0CDF960237B604FF4B1
:102390007A63BB600023FB6000237B613B1D00224E
:1023A0001946074802F076FF0346002B01D000F0E3
:1023B000B9F9034800F060FA00BF2037BD4680BD80
:1023C000CC5A00200044014080B500AF134B144AA2
:1023D0001A60124B134A5A60104B00229A600F4B3E
:1023E0000022DA600D4B00221A610C4B0C225A615C
:1023F0000A4B00229A61094B0022DA61074B002246
:102400001A62064B00225A62044803F0ACFB0346F2
:10241000002B01D000F086F900BF80BD985C002041
:1024200000100140987F330080B500AF134B144A71
:102430001A60124B134A5A60104B00229A600F4BDD
:102440000022DA600D4B00221A610C4B0C225A61FB
:102450000A4B00229A61094B0022DA61074B0022E5
:102460001A62064B00225A62044803F07CFB0346C2
:10247000002B01D000F056F900BF80BD4C5A00205F
:102480000048004000A60E0080B582B000AF1E4B91
:102490001B6B1D4A43F4001313631B4B1B6B03F4AC
:1024A00000137B607B68184B1B6B174A43F4800357
:1024B0001363154B1B6B03F480033B603B680022E6
:1024C00009210C2001F0B0FB0C2001F0DFFB002201
:1024D00009210E2001F0A8FB0E2001F0D7FB0022FD
:1024E00008213A2001F0A0FB3A2001F0CFFB0022A6
:1024F0000821462001F098FB462001F0C7FB00BFF1
:102500000837BD4680BD00BF0038024080B58AB0A4
:1025100000AF07F1140300221A605A609A60DA6073
:102520001A617B4B1B6B7A4A43F001031363784BB0
:102530001B6B03F001033B613B69754B1B6B744ADA
:1025400043F002031363724B1B6B03F00203FB6047
:10255000FB686F4B1B6B6E4A43F0040313636C4BB9
:102560001B6B03F00403BB60BB68694B1B6B684AC1
:1025700043F008031363664B1B6B03F008037B6097
:102580007B6800221621634801F0B2FE002248F267
:10259000FF01614801F0ACFE01224FF400415F48A9
:1025A00001F0A6FE01224FF480515C4801F0A0FE2C
:1025B00001224FF48071594801F09AFE01224FF434
:1025C0000051564801F094FE00220721534801F0C3
:1025D0008FFE06237B610123BB610023FB61032384
:1025E0003B6207F1140319464A4801F0A5FD022396
:1025F0007B610123BB610023FB6103233B6207F185
:1026000014031946454801F097FD4FF431437B61AF
:102610001123BB610023FB6100233B6207F114031C
:1026200019463E4801F088FDFF237B610123BB6111
:102630000023FB6103233B6207F11403194636486C
:1026400001F07AFD10237B610123BB610023FB6154
:1026500003233B6207F1140319462E4801F06CFD79
:1026600005237B610123BB610023FB6103233B62E4
:1026700007F114031946294801F05EFD4FF48E530B
:102680007B610023BB610123FB6107F11403194641
:10269000204801F051FD4FF4C0537B610223BB6120
:1026A0000023FB6103233B620A237B6207F11403CF
:1026B0001946194801F040FD4FF400437B610123A6
:1026C000BB610023FB6100233B6207F11403194641
:1026D000114801F031FD04237B610023BB6101231C
:1026E000FB6107F1140319460D4801F025FDF023A5
:1026F0007B610023BB610123FB6107F114031946D1
:10270000064801F019FD00BF2837BD4680BD00BF57
:10271000003802400008024000000240000402406D
:10272000000C024080B400AF72B6FEE780B582B004
:1027300000AF114B1B6C104A43F0805313640E4BD7
:102740001B6C03F080537B607B680B4B5B6C0A4A0D
:1027500043F480435364084B5B6C03F480433B6059
:102760003B6800220F216FF0010001F05DFA00BF0D
:102770000837BD4680BD00BF0038024080B584B038
:1027800000AF78607B681B680D4A934213D10D4BF4
:102790005B6C0C4A43F4807353640A4B5B6C03F428
:1027A0008073FB60FB6800220521122001F03CFAD7
:1027B000122001F06BFA00BF1037BD4680BD00BF8C
:1027C000002001400038024080B485B000AF78603E
:1027D0007B681B68B3F1804F0BD1094B1B6C084A17
:1027E00043F001031364064B1B6C03F00103FB6011
:1027F000FB6800BF1437BD465DF8047B704700BF1F
:102800000038024080B584B000AF78607B681B68F8
:10281000164A934214D1164B1B6C154A43F0200301
:102820001364134B1B6C03F02003FB60FB68002256
:102830000221372001F0F8F9372001F027FA10E0E3
:102840007B681B680B4A93420BD1094B5B6C084AAF
:1028500043F400335364064B5B6C03F40033BB60FA
:10286000BB6800BF1037BD4680BD00BF00140040EC
:10287000003802400044014080B58AB000AF786063
:1028800007F1140300221A605A609A60DA601A6134
:102890007B681B68B3F1804F1DD1194B1B6B184A25
:1028A00043F002031363164B1B6B03F002033B61FF
:1028B0003B694FF480637B610223BB610023FB61B2
:1028C00000233B6201237B6207F1140319460D4884
:1028D00001F032FC10E07B681B680B4A93420BD17D
:1028E000074B1B6B064A43F002031363044B1B6B3D
:1028F00003F00203FB60FB6800BF2837BD4680BDC4
:1029000000380240000402400044014080B58CB011
:1029100000AF786007F11C0300221A605A609A60C9
:10292000DA601A617B681B68914A934240F08880A4
:10293000904B5B6C8F4A43F0100353648D4B5B6C80
:1029400003F01003BB61BB698A4B1B6B894A43F0E0
:1029500001031363874B1B6B03F001037B617B69EE
:102960004FF4C063FB6102233B6201237B620323BC
:10297000BB620723FB6207F11C0319467E4801F086
:10298000DBFB7E4B7E4A1A607C4B4FF000625A6044
:102990007A4B00229A60794B0022DA60774B4FF431
:1029A00080621A61754B00225A61744B00229A6151
:1029B000724B0022DA61714B4FF400321A626F4B96
:1029C00000225A626D4801F069FA0346002B01D0DB
:1029D000FFF7A8FE7B68694ADA66684A7B689363FA
:1029E000684B694A1A60674B4FF000625A60654B4A
:1029F00040229A60634B0022DA60624B4FF480629F
:102A00001A61604B00225A615E4B00229A615D4B55
:102A10000022DA615B4B4FF400321A62594B0022FC
:102A20005A62584801F03AFA0346002B01D0FFF7EA
:102A300079FE7B68534A9A66524A7B68936392E0B8
:102A40007B681B68514A934240F08D80494B1B6C58
:102A5000484A43F480231364464B1B6C03F48023E1
:102A60003B613B69434B1B6B424A43F004031363D6
:102A7000404B1B6B03F00403FB60FB684FF44063A7
:102A8000FB6102233B6201237B620323BB620723BA
:102A9000FB6207F11C0319463D4801F04DFB3D4B1D
:102AA0003D4A1A603B4B4FF000625A60394B00229E
:102AB0009A60384B0022DA60364B4FF480621A611C
:102AC000344B00225A61334B00229A61314B002271
:102AD000DA61304B00221A622E4B00225A622D48D6
:102AE00001F0DCF90346002B01D0FFF71BFE7B68E9
:102AF000284ADA66274A7B689363284B284A1A607B
:102B0000264B4FF000625A60244B40229A60234BC0
:102B10000022DA60214B4FF480621A611F4B0022C1
:102B20005A611E4B00229A611C4B0022DA611B4B3A
:102B300000221A62194B00225A62184801F0AEF9BD
:102B40000346002B01D0FFF7EDFD7B68134A9A6620
:102B5000124A7B68936300220521272001F064F864
:102B6000272001F093F800BF3037BD4680BD00BF7D
:102B7000001001400038024000000240385C002094
:102B800040640240905B0020B8640240004800406E
:102B900000080240EC59002028600240305B002011
:102BA0005860024080B400AFFEE780B400AFFEE79B
:102BB00080B400AFFEE780B400AFFEE780B400AFA2
:102BC000FEE780B400AF00BFBD465DF8047B7047F0
:102BD00080B500AF00F020FE04F086FA0346012B1A
:102BE00001D004F057FE00BF80BD000080B500AFEB
:102BF000024801F0E3F900BF80BD00BFEC5900209E
:102C000080B500AF024801F0D9F900BF80BD00BF18
:102C1000305B002080B500AF024800F0B8FE00BF76
:102C200080BD00BFF05B002080B500AF024802F01D
:102C3000EBFC00BF80BD00BF4C5A002080B500AF48
:102C4000024802F080F900BF80BD00BF605D002037
:102C500080B500AF024801F0B1F900BF80BD00BFF0
:102C6000385C002080B500AF024801F0A7F900BF32
:102C700080BD00BF905B002080B586B000AF78605B
:102C8000144A154BD31A7B617B693B61134B1B685C
:102C9000002B02D1114B124A1A60104B1A687B6844
:102CA00013443A699A4207D206F0E4FA02460C232A
:102CB00013604FF0FF3309E0084B1B68FB60074BC4
:102CC0001A687B681344054A1360FB681846183776
:102CD000BD4680BD00000420000400001403002055
:102CE0005864002080B400AF084BD3F88830074AFE
:102CF00043F47003C2F88830044B4FF000629A60CE
:102D000000BFBD465DF8047B704700BF00ED00E0EA
:102D100080B483B000AF0346FB71FB7903F0070377
:102D200018460C37BD465DF8047B704780B483B00D
:102D300000AF0346FB71FB79DB08DBB203F007034E
:102D400018460C37BD465DF8047B704780B586B0E9
:102D500000AF78600B467B8013467B707B68002B4E
:102D60003ED00823FB827B78DB005BB203F03C03A0
:102D70005BB243F003035BB27B7555233B73552372
:102D80007B737B7DBB73FB8ADBB2FB73FB8A1B0A05
:102D90009BB2DBB23B747B88DBB27B747B881B0A03
:102DA0009BB2DBB2BB7407F10C0307211846FEF798
:102DB000BDFC0346FB747B685B694FF0FF3118462E
:102DC00003F002FC07F10C0308221946786800F0B2
:102DD00036FC7B68586900230022002103F0E4F9E7
:102DE00000BF1837BD4680BD80B58CB000AFF8601D
:102DF000B9607A60FB7097F83830022B01D1724BC2
:102E0000BB6297F83830012B01D1704BBB6297F849
:102E10003830012BC0F2B980022B40F38680032B9F
:102E200040F0B3807B68002B4BD000237B620AE02C
:102E300007F114027B6A13441946F86800F03DFC60
:102E40007B6A01337B627B6A072BF1DD0023FB6227
:102E50000EE007F11E031946F86800F02EFC5C4BEB
:102E60001A68FB6A1344BA7F1A70FB6A0133FB626B
:102E70007B680A3BFA6A9A42EBD307F11E031946B4
:102E8000F86800F01AFC07F11E031946F86800F014
:102E900014FC4F4B1A68FB6A134400221A70BB6A79
:102EA000002B06D0BB689BB2FA781946B86AFFF7C8
:102EB0004DFF474B1968FB78FA6A1846FEF714F97C
:102EC0007CE00023FB6213E000233B620AE007F191
:102ED00014023B6A13441946F86800F0EEFB3B6AA3
:102EE00001333B623B6A072BF1DDFB6A0133FB6276
:102EF000FB6A072BE8D9374B1B889BB2002B5DD0B0
:102F0000354B1B889BB2002B58D0334B1B889BB290
:102F10001A46BB68934251D1304B1B889BB2002BA1
:102F20004CD12E4B01221A8048E07B680A2B02D933
:102F30007B68DBB200E00823FB77BB6A002B24D060
:102F4000FB685B694FF0FF31184603F03DFB00233F
:102F5000FB620EE007F11E031946F86800F0ADFBB6
:102F600007F11E031946B86A00F089FBFB6A0133BA
:102F7000FB62FB7FFA6A9A42ECD3FB685869002334
:102F80000022002103F010F919E07B680A2B02D916
:102F90007B68DBB200E00823FB770023FB6208E0DC
:102FA00007F11E031946F86800F087FBFB6A01333E
:102FB000FB62FB7FFA6A9A42F2D300E000BF00BFD7
:102FC0003037BD4680BD00BF3C5F0020585F002009
:102FD00008000020180300201A030020040000202D
:102FE00080B584B000AF7860396007F10F031A46EE
:102FF0003968786800F07FFBFB7B18461037BD46C8
:1030000080BD000080B584B000AF78600023FB7203
:103010000023FB600DE0F9687868FFF7E1FF0346E5
:1030200019460B4AFB6813440A461A70FB680133C1
:10303000FB60FB68062BEED907210548FEF776FBFF
:103040000346FB72FB7A18461037BD4680BD00BFB1
:103050001C03002080B584B000AF78603960002385
:10306000BB600023FB600DE0F9687868FFF7B8FFEC
:10307000034619460C4AFB6813440A461A70FB685B
:103080000133FB603B68023BFA689A42ECD33B6831
:10309000023B19460448FEF749FB0346BB60BB6888
:1030A00018461037BD4680BD1C03002080B500AF18
:1030B0004FF4C07301220D490D4800F0DBF94FF4C5
:1030C000C07301220B490C4800F0D4F94FF4C073CF
:1030D00001220A490A4800F0CDF94FF4C0730122D9
:1030E0000849094800F0C6F900BF80BD905F002084
:1030F0003C5F002010610020205F0020A05D0020C8
:10310000585F002090620020745F0020B0B58AB044
:1031100002AFF860B9607A603B600023FB617B68B6
:103120001B68BB61BB681B687B613B681B887B823B
:103130007B69002B43D0F86800F07EF90246BB693A
:10314000934200F2B780B969F868FFF783FF04463D
:10315000BB69023B1946F868FFF742FF03461D466C
:10316000BB69013B1946F868FFF73AFF03461B02AB
:103170002B449C421CD17C8A0221F868FFF730FF67
:1031800003461846FFF7C4FD0346DDB20221F86886
:10319000FFF726FF03461846FFF7C8FD0346DBB2DC
:1031A00000932B46BA692146F868FFF71DFE01E03F
:1031B0000123FB6100237B610023BB617AE0F86897
:1031C00000F03AF90346072B74D90021F868FFF79D
:1031D00007FF0346552B6BD10121F868FFF700FF6D
:1031E0000346552B64D1F868FFF70CFF03461C46D5
:1031F0000721F868FFF7F4FE03469C4254D10021F2
:10320000F868FFF7EDFE03463E2B4AD80321F86825
:10321000FFF7E6FE03461C460421F868FFF7E0FED0
:1032200003461B022344BB610521F868FFF7D8FE63
:1032300003469CB20621F868FFF7D2FE03469BB214
:103240001B029BB223447B827B8A002B26D0BB6966
:10325000B3F5C07F22D2BB690A2B02D901237B615F
:1032600025E07C8A0221F868FFF7BAFE034618467B
:10327000FFF74EFD0346DDB20221F868FFF7B0FE0E
:1032800003461846FFF752FD0346DBB200932B4678
:1032900000222146F868FFF7A7FD08E00123FB6143
:1032A00008E00123FB6105E00123FB6102E001E08E
:1032B0000123FB61FB69002B03D0F969F86800F07A
:1032C00040FABB687A691A607B68BA691A603B6821
:1032D0007A8A1A8000BF2037BD46B0BD80B588B05D
:1032E00000AF78607B68FB76FB7E012B01D10D4B34
:1032F000FB61FB7E022B01D10B4BFB6100237B6149
:1033000000233B610023FB8107F10E0307F110024C
:1033100007F11401F869FFF7F9FE012002F0E4FC5F
:10332000F2E700BF745F0020205F002080B483B00C
:1033300000AF78607B689A687B685B689A4205D3C7
:103340007B689A687B685B68D31A07E07B681A68B9
:103350007B685B68D21A7B689B68134418460C37FD
:10336000BD465DF8047B704790B583B000AF7860D0
:103370007B681C687868FFF7D9FF0346E31A184694
:103380000C37BD4690BD80B485B000AFF860B96021
:103390007A60BB681A687B681344FA681268B3FBEA
:1033A000F2F102FB01F29B1A18461437BD465DF894
:1033B000047B704780B584B000AFF860B9607A6074
:1033C0007A68B968F868FFF7DEFF0246BB681A60E2
:1033D00000BF1037BD4680BD80B483B000AF7860B9
:1033E0007B685A687B689B689A4214BF012300235C
:1033F000DBB218460C37BD465DF8047B704780B5DC
:1034000084B000AFF860B9607A60FB68DB684FF0A9
:10341000FF31184603F0D8F87A68B968F868FFF702
:10342000C9FFFB68D86800230022002102F0BCFE1F
:1034300000BF1037BD4680BD80B584B000AF786056
:103440007B681B694FF0FF31184603F0BDF87B68BD
:1034500004331846FFF76AFF0346FB607B68186970
:1034600000230022002102F09FFEFB68184610375F
:10347000BD4680BD80B584B000AFF860B9603B60E8
:103480001346FB71FB68BA681A603A68FB685A60B9
:10349000012002F078FF0246FB681A61012002F069
:1034A00072FF0246FB685A61FB6800229A60FB6863
:1034B0000022DA60FB6800225A76FB68FA791A76F5
:1034C00000BF1037BD4680BD80B582B000AF7860C8
:1034D00039607B681B6819467B68DB687A68127EF6
:1034E00002FB03F30B4418467B681B7E1A463968BF
:1034F00005F0EAFE00BF0837BD4680BD80B582B04A
:1035000000AF786039607B681B6819467B689B68F0
:103510007A68127E02FB03F30B4419467B681B7E1C
:103520001A46386805F0D0FE00BF0837BD4680BD9A
:1035300080B584B000AFF860B9607A60FB681B6842
:103540001A46FB681B7E1946BB6803FB01F3134454
:103550001946FB681B7E1A46786805F0B5FE00BF69
:103560001037BD4680BD80B584B000AF786039604B
:103570007B6804331846FFF7F7FE0346FB73FB7BBB
:10358000002B0CD039687868FFF79EFF7B68181D08
:103590007B680C3301221946FFF70CFF02E07B68C1
:1035A00001225A76FB7B18461037BD4680BD80B598
:1035B00084B000AF786039607B6804331846FFF749
:1035C0000BFF0346FB73FB7B002B0BD0396878683D
:1035D000FFF794FF7B68181D7B68083301221946AA
:1035E000FFF7E8FEFB7B18461037BD4680BD80B56F
:1035F00086B000AFF860B9607A6000233B6113E0E9
:10360000FB681B7E1A463B6903FB02F2BB6813444E
:103610001946F868FFF7A7FF0346FB75FB7D002BF3
:1036200007D03B6901333B613A697B689A42E7D333
:1036300000E000BFFB7D18461837BD4680BD80B551
:1036400086B000AFF860B9607A60FB681B694FF024
:10365000FF31184602F0B8FF7A68B968F868FFF7DA
:10366000C6FF0346FB75FB68186900230022002192
:1036700002F09AFDFB7D18461837BD4680BD80B527
:1036800084B000AF786039607B681B694FF0FF3110
:10369000184602F099FF39687868FFF764FF03461F
:1036A000FB737B68186900230022002102F07CFD77
:1036B000FB7B18461037BD4680BD80B584B000AF97
:1036C000786039607B681B694FF0FF31184602F063
:1036D0007BFF39687868FFF76AFF0346FB737B68F6
:1036E000186900230022002102F05EFDFB7B1846D2
:1036F0001037BD4680BD80B586B000AFF860B960B8
:103700007A60FB681B694FF0FF31184602F05CFFDE
:10371000FB68181DFB680833BA681946FFF733FECB
:1037200078617A687969F868FFF702FFFB681869C1
:1037300000230022002102F037FD00BF1837BD46EC
:1037400080BD80B582B000AF786039607B68181D9D
:103750007B6808333A681946FFF751FE00BF083707
:10376000BD4680BDDFF834D0002103E00C4B5B5830
:10377000435004310B480C4B42189A42F6D30B4A83
:1037800002E0002342F8043B094B9A42F9D3FFF7C9
:10379000A9FA05F075FDFEF7C1FB70470000042093
:1037A00088F00008000000203C0200203C020020BD
:1037B00058640020FEE7000038B50E4B05460E4A5F
:1037C00018784FF47A73B3FBF0F31068B0FBF3F0A2
:1037D00000F06AFA044658B90F2D09D80246294666
:1037E0004FF0FF3000F020FA044B20461D6038BD3A
:1037F0000120FCE70C000020000000201000002049
:1038000008B5032000F0FEF90F20FFF7D5FFFEF703
:103810008DFF002008BD0000034A044B11681B788F
:103820000B441360704700BF106400200C000020A0
:10383000014B1868704700BF1064002038B504467B
:10384000002800F09B80056C25B9FEF797FF6564A2
:1038500084F83C50236CDB0600F18E80236C23F44B
:10386000885323F0020343F002032364444B5A6855
:1038700022F440325A605A6861680A435A602368E9
:1038800021695A6822F480725A605A6842EA012219
:10389000A1685A605A6822F040725A605A680A4316
:1038A000E1685A609A6822F400629A609A680A4352
:1038B00034499A60A26A8A4252D0996821F07061B4
:1038C000996099680A43E16A9A609A6822F04052C6
:1038D0009A609A680A439A609A68A16922F0020283
:1038E0009A609A6842EA41029A6094F82020002A7D
:1038F0003ED05A68616A42F4006201395A605A68DF
:1039000022F460425A605A6842EA41325A6000200A
:10391000DA6AE16922F470020139DA62DA6A42EAAB
:10392000015294F83010DA629A6822F400729A60B8
:103930009A6842EA412261699A609A6822F4806238
:103940009A609A6842EA81229A606064236C23F04C
:10395000030343F001032364002384F83C3038BDA3
:103960009A6822F070629A609A6822F04052B2E738
:103970005A6822F40062C9E70120EDE70120EEE772
:10398000002301400100000F70477047704738B5B1
:103990000368044619685A688D072BD5900629D507
:1039A000226CD10603D4226C42F4007222649A681D
:1039B00012F0405F17D1A269AAB9DA6A12F4700F47
:1039C00002D09A6852050ED45A6822F020025A603A
:1039D000236C23F480732364236CDB0403D4236CF3
:1039E00043F0010323642046FFF7CEFF23686FF006
:1039F00012021A60236819685A684D0732D51006FA
:103A000030D5226CD10603D4226C42F400522264D9
:103A10009A6812F4401F1ED19A6B12F4401F02D014
:103A20009A68520517D45A68550514D49A6812F04A
:103A3000405F10D1A26972B95A6822F080025A60C0
:103A4000236C23F480532364236CD80503D4236CA4
:103A500043F001032364204600F0D2F823686FF09E
:103A60000C021A60236819685A68C9070FD55506F1
:103A70000DD51B68D8070AD5236C204643F4803344
:103A80002364FFF782FF23686FF001021A60236846
:103A900019685A6889060DD552010BD5626C6FF012
:103AA0002005204642F0020262641D60FFF76EFFAF
:103AB00023681D6038BD00000023F7B5019390F81E
:103AC0003C30012B74D00D6801238A68AEB2092DF9
:103AD00080F83C3006EB4604036831D9B5F1004F5D
:103AE0002ED01E3C4FF0070CDF680CFA04FC27EACE
:103AF0000C07DF603D4FBD421DD1DC6844EA026423
:103B0000DC604968062901EB810227D8053A1F24A9
:103B1000596B944006FA02F221EA04015963596B89
:103B20000A435A63324A934234D0002380F83C302F
:103B3000184603B0F0BDDF6802FA04F43C43DFE747
:103B40004FF0070C1F690CFA04FC02FA04F427EA90
:103B50000C071F611F693C431C61D2E70C294FF021
:103B60001F010BD8233A1C6B914006FA02F224EA9B
:103B700001011963196B0A431A63D3E7413ADC6AFE
:103B8000914006FA02F224EA0101D962D96A0A4395
:103B9000DA62C7E7B5F1004F0CD1164A536823F437
:103BA00040035360C1E7134A536843F48003F8E7C6
:103BB0000220BEE7122DF6D00C4B9D4201D0112DF4
:103BC000B3D10C499D424A6842F400024A60ACD12C
:103BD000094B0A4A1B68B3FBF2F20A2353430193D1
:103BE000019B002BA1D0019B013BF8E712000010C4
:103BF00000200140002301400000002040420F004F
:103C000070470000074A0002D36800F4E06023F424
:103C1000E0631B041B0C43F0BF6343F40033034316
:103C2000D360704700ED00E0164B70B5DC684FF0D4
:103C3000FF36C4F30224C4F10705231D042D28BF59
:103C40000425062B06FA05F38CBF033C002400284C
:103C500021EA030303FA04F306FA04F422EA040453
:103C600043EA04034FEA0313DBB206DB00F16040D2
:103C700000F5614080F8003370BD00F00F00024A8B
:103C80001354F9E700ED00E014ED00E0002808DB34
:103C90004209012300F01F0003FA00F0014B43F832
:103CA0002200704700E100E00138B0F1807F0AD2C5
:103CB000064BF021064A5860002082F823100722A4
:103CC00098601A6070470120704700BF10E000E064
:103CD00000ED00E0F0B596080B46056801EB86079D
:103CE000BB4208D112F003021ED0012A14D111F8F0
:103CF00026302B7018E05C78043313F804CC2404CD
:103D000044EA0C6413F801CC44EA0C0413F802CC26
:103D100044EA0C242C60E3E7022A08D111F826209B
:103D20005B7843EA02232B8003681868F0BD5A7859
:103D300011F8261042EA01222A809B78D9E770B553
:103D40000068550800239D4206D1D30702D531F8FB
:103D500025300380006870BD01EB830431F82360D7
:103D60000133648844EA06440460ECE770470000CD
:103D700010B5044608B9012010BD437F03F0FF02CF
:103D800013B90277FFF7F2FF022363772379E3B9D0
:103D90002368134A5A619A6822F018029A6062797D
:103DA0002368D2B94FF0FF321A6100209A68616926
:103DB00022F060020A43A1699A609A6822F08002A8
:103DC0000A439A6001236377D6E7D4E902122046BA
:103DD00000F02CF80028E2D0CDE72269E4E700BF2C
:103DE000B71DC104F8B50225044645770568AF68DC
:103DF00047F00107AF60076A022F12D0032F04D0EB
:103E0000012F11D1FFF766FF04E001EB8206B142FA
:103E100003D1286801236377F8BD51F8043B2B6078
:103E2000F5E7FFF78CFFF5E70020F3E71F2310B558
:103E300013F1FF3306D321FA03F4E407F8D5082A77
:103E400014D002D83AB101200DE0102A0CD0182A63
:103E5000F9D1062BF7D800684161836823F0180375
:103E60001A438260002010BD072BF3E70F2BF1E708
:103E700003681821DAB223F47F73103A23F00303A6
:103E8000B2FBF1F20449032A895C88BF0433C1659F
:103E90008365806D704700BF0CCF000870B5044685
:103EA000FFF7C6FC0546002C71D00023226884F879
:103EB0003430022384F83530136823F00103136093
:103EC00021680B68D8073CD40B68324DA0691D40AF
:103ED000D4E901231343E26813432269134362695F
:103EE0001343E26903431343226A1343626A042AB9
:103EF00043EA050302BFD4E90B5635432B43042A9A
:103F00000B604B6923F0070343EA02030BD1A26A5B
:103F1000E56A13433DB1F8B9012A2DD001D3022A35
:103F200001D1EA012BD44B612046FFF7A1FFE26DDE
:103F30003F239340836000200123606584F835307F
:103F400009E0FFF775FC401B0528B9D920230320A1
:103F5000636584F8350070BDB0F5005F13D1032AA6
:103F6000E1D801A050F822F07F3F0008233F00086D
:103F70007F3F0008793F0008B5F1C07FD3D14023CF
:103F800001206365E5E7022AF9D9032AC8E7012081
:103F9000E1E700BF3F8010E090F83530022B03D0FE
:103FA00080234365012070470268052380F835307F
:103FB0000020136823F00103136070470023F7B556
:103FC000019308225B4B0446856D1F68C36D2E6804
:103FD0009A4032420CD001680868400708D508684A
:103FE00020F004000860AA60626D42F00102626580
:103FF00001229A40324208D021684969090604D555
:10400000AA60626D42F00202626504229A40324266
:1040100008D021680968880704D5AA60626D42F05B
:104020000402626510229A40324210D02368196857
:1040300009070CD5AA601A68500337D51B68190305
:1040400001D4236C00E0A36C0BB120469847E16DCE
:1040500020228A4032423AD023681868C60636D5F4
:10406000AA6094F83520052A1A6827D122F0160292
:104070001A605A6922F080025A61226C0AB9A26C55
:104080001AB11A6822F008021A603F238B40AB6015
:10409000002384F83430012384F83530236D002B5D
:1040A00045D0204603B0BDE8F04018471A68D20555
:1040B000C7D41A6822F008021A60C2E7500327D555
:1040C0001B68190331D4636C0BB120469847636DAC
:1040D0006BB3636DDA0719D50523226884F8353090
:1040E000136823F0010313604FF41653B7FBF3F783
:1040F000019B0133BB42019302D81368DB07F7D45D
:10410000002384F83430012384F83530E36CC6E7AB
:104110001A6812F4807208D1196821F01001196030
:10412000012384F8342084F83530E36BCCE703B006
:10413000F0BD00BF000000202DE9F04F0B6885B0F6
:10414000DFF8A48101930023654ADFF8A0910124E0
:10415000019D9C402540AC4240F0AC804C684FEA49
:10416000430E032624F0100C06FA0EF60CF1FF376E
:10417000F643012F11D8876807EA060ACF6807FAC5
:104180000EF747EA0A078760476827EA050AC4F37B
:1041900000179F4047EA0A074760C768BCF1020F53
:1041A00007EA060A8F6807FA0EF747EA0A07C760A8
:1041B00016D14FEAD30A03F0070B4FF00F0C00EBB8
:1041C0008A0A4FEA8B0BDAF820700CFA0BFC27EA0C
:1041D0000C0C0F6907FA0BF747EA0C07CAF82070B6
:1041E00007683E4004F0030707FA0EFE4EEA060693
:1041F0000660E6005ED5D8F8446023F0030703F0BC
:10420000030C4FF00F0E46F4804607F180474FEA4B
:104210008C0CC8F8446007F59C37D8F8446006F465
:1042200080460396039E0EFA0CF6D7F808A02AEAF9
:10423000060E2C4EB04244D006F58066B04242D005
:1042400006F58066B04240D006F58066B0423ED0AA
:1042500006F58066B0423CD048453CD006F5006685
:10426000B0423AD006F58066B04214BF0826072651
:1042700006FA0CF614F4803F46EA0E06BE606FEABA
:10428000050716680CBF3E402E4314F4003F16602D
:1042900056680CBF3E402E4314F4801F566096684B
:1042A0000CBF3E402E43A4029660D66854BF3E40E9
:1042B0002E43D6600133102B7FF449AF05B0BDE823
:1042C000F08F0026D4E70126D2E70226D0E70326A6
:1042D000CEE70426CCE70526CAE70626C8E700BFD6
:1042E000003C01400000024000380240001402403F
:1042F0000AB1816170470904FBE70000194B37B52B
:104300001A6C194C42F080521A641B6C03F08053F3
:104310000193019B236843F480332360FFF788FAFD
:1043200005466368DA030CD5236843F40033236041
:10433000FFF77EFA0C4C054663689B030AD5002004
:1043400006E0FFF775FA401BB0F57A7FE9D9032044
:1043500003B030BDFFF76CFA401BB0F57A7FEBD9A4
:10436000F5E700BF00380240007000402DE9F3413E
:10437000044608B901203FE00368D80710D4236839
:10438000990760D42368190700F1A58023685A07AC
:1043900000F1C680A069002840F0308100202BE0A9
:1043A000944B9A6802F00C02042A07D09A6802F033
:1043B0000C02082A0AD15B685A0207D58D4B1B688C
:1043C0009B03DCD56368002BD9D1D3E76368894DA3
:1043D000B3F5803F13D12B6843F480332B60FFF794
:1043E00027FA844D06462B689F03C8D4FFF720FAAE
:1043F000801B6428F7D9032002B0BDE8F0819BB987
:104400002B6823F480332B602B6823F480232B60EC
:10441000FFF70EFA06462B689803B0D5FFF708FAA7
:10442000801B6428F7D9E6E7B3F5A02F2B6803D1EA
:1044300043F480232B60CEE723F480332B602B687A
:1044400023F48023CAE76B4B9A6812F00C0F07D055
:104450009A6802F00C02082A11D15B6859020ED446
:10446000644B1A68920702D5E268012A82D11A6861
:10447000216922F0F80242EAC1021A6082E7E36889
:104480005C4DBBB12B6843F001032B60FFF7D0F903
:1044900006462B689F0707D52B68226923F0F8038F
:1044A00043EAC2032B606DE7FFF7C2F9801B0228C5
:1044B000EFD9A0E72B6823F001032B60FFF7B8F9D1
:1044C00006462B6898077FF55DAFFFF7B1F9801BB3
:1044D0000228F6D98FE76369464D83B16B6F43F0CD
:1044E00001036B67FFF7A4F906466B6F9B073FF567
:1044F0004DAFFFF79DF9801B0228F6D97BE76B6F64
:1045000023F001036B67FFF793F906466B6F9F0774
:104510007FF53CAFFFF78CF9801B0228F6D96AE7DC
:10452000344B1A6CD00027D41A6C012642F080520A
:104530001A641B6C03F080530193019B2E4D2B6872
:10454000D9051BD5A3682B4D012B27D12B6F43F029
:1045500001032B6741F28835FFF76AF9254F804642
:104560003B6F9B073FD5002E3FF414AF214A136CDD
:1045700023F0805313640DE70026DFE72B6843F434
:1045800080732B60FFF754F907462B68DA05D9D4FE
:10459000FFF74EF9C01B6428F7D92CE7ABB92B6F96
:1045A00041F2883823F001032B672B6F23F00403BB
:1045B0002B67FFF73DF907462B6F9807D3D5FFF719
:1045C00037F9C01B4045F7D915E7052B2B6F03D1F1
:1045D00043F004032B67B9E723F001032B672B6F2C
:1045E00023F00403B5E7FFF723F9A0EB0800A84286
:1045F000B6D900E70038024000700040384DAB6883
:1046000003F00C03082B41D02B68022823F08073A1
:104610002B602ED1FFF70CF906462B68990122D4A6
:10462000D4E907321343626A43F0005343EA82132A
:10463000E26A43EA0263A26A294C5208013A43EA59
:1046400002436B602B6843F080732B60FFF7F0F838
:10465000054623689A013FF5A1AEFFF7E9F8401B34
:104660000228F6D9C7E6FFF7E3F8801B0228D4D961
:10467000C1E6FFF7DDF804462B689B017FF58EAE9F
:10468000FFF7D6F8001B0228F6D9B4E601286B68BC
:104690003FF4B2AE03F48002E1698A427FF46AAE6D
:1046A00003F03F02216A8A427FF464AE47F6C0728B
:1046B000616A1A40B2EB811F7FF45CAEA26A03F418
:1046C00040315208013AB1EB024F7FF453AEE26A37
:1046D00003F07063B3EB026F14BF012000208BE680
:1046E00000380240134908B58B6803F00C03042B13
:1046F00003D0082B03D0104800E0104808BD4A68DA
:104700004B68496802F03F0213F48003C1F388113B
:104710001ABF0A4800230848A1FB0001FCF7DCFA95
:10472000044B5B68C3F3014301335B00B0FBF3F060
:10473000E4E700BF003802400024F40040787D0127
:104740002DE9F0410D46044610B90120BDE8F08185
:10475000454A136803F00F038B4228D321688F0763
:1047600030D4C80743D4404A136803F00F03AB4268
:1047700066D8226851076FD4130707D53B4A2169D1
:10478000936823F4604343EAC1039360FFF7AAFFF1
:10479000364B374A9B68C3F30313D35CD840354B81
:1047A0001860354B1868FFF707F80020CEE713684C
:1047B00023F00F030B431360136803F00F038B42C6
:1047C000C3D1CBE711F0040F284B03D09A6842F411
:1047D000E0529A600E0703D59A6842F460429A60EC
:1047E0009A68A06822F0F00202439A60B9E7616813
:1047F0001E4B01291A681BD112F4003FA5D09A68FC
:1048000041F28838194E22F003020A439A60FFF7FA
:104810000FF80746B368626803F00C03B3EB820F2E
:10482000A1D0FFF705F8C01B4045F3D903208DE761
:10483000022902D112F0007FE0E712F0020FDDE75B
:10484000136823F00F032B431360136803F00F0367
:10485000AB427FF47AAF8CE70449E0688B6823F4BD
:10486000E05303438B6087E7003C0240003802407E
:10487000F4CE00080000002010000020044B054A80
:104880009B68C3F38223D35C034A1068D840704707
:104890000038024004CF000800000020044B054A05
:1048A0009B68C3F34233D35C034A1068D840704717
:1048B0000038024004CF0008000000202DE9F74333
:1048C0000268044612F001060BD0B94B996821F436
:1048D00000019960C66A99683143B6FA86F676098E
:1048E000996012F4002512D0B149656BD1F88C3073
:1048F000B5F5801F23F4401308BF012643EA0503E2
:1049000016BFB5FA85F500256D09C1F88C30D702C0
:1049100010D5A748A16BD0F88C30B1F5800F23F4E7
:10492000400343EA0103C0F88C3000F04B810029BA
:1049300008BF0125900631D59D4B9E4F1A6C42F061
:1049400080521A641B6C03F080530193019B3B68F7
:1049500043F480733B60FEF76BFF80463B68D905EC
:1049600040F13281924F3B6F13F4407340F0378136
:10497000A36A03F44072B2F5407F8D4A40F055813E
:10498000916823F0704021F4F81120F44070014345
:104990009160C3F30B03116F0B4313672368DF06AA
:1049A0000CD5834AD2F88C1021F08071C2F88C109B
:1049B000D2F88C10206B0143C2F88C10580408D533
:1049C0007B49E06DD1F8902022F440320243C1F8D7
:1049D0009020190408D57649206ED1F8902022F451
:1049E00040220243C1F89020DA0308D57049606E76
:1049F000D1F8902022F440120243C1F890205F06C3
:104A000008D56B49E06BD1F8902022F003020243F5
:104A1000C1F89020180608D56549206CD1F890207F
:104A200022F00C020243C1F89020D90508D5604954
:104A3000606CD1F8902022F030020243C1F890203F
:104A40009A0508D55A49A06CD1F8902022F0C002EE
:104A50000243C1F890205F0508D55549E06CD1F8B4
:104A6000902022F440720243C1F89020180508D526
:104A70004F49206DD1F8902022F440620243C1F8E2
:104A80009020D90408D54A49606DD1F8902022F4CD
:104A900040520243C1F890209A0408D54449A06DC1
:104AA000D1F8902022F440420243C1F890209F02A6
:104AB0000CD53F48616FD0F89020B1F1006F22F023
:104AC000006208BF01250A43C0F89020580308D5AA
:104AD0003749E06ED1F8902022F040720243C1F8CD
:104AE0009020190208D53249A06FD1F8902022F009
:104AF00080520243C1F890205A0108D52C49E06F3A
:104B0000D1F8902022F000520243C1F89020002EEC
:104B100040F08F80B3F1007F00F08B80012D4FD1EA
:104B2000234D2B6823F080532B60FEF781FE064651
:104B30002B689F0000F1E0802068050301D5636BBE
:104B40001BB1C10218D5A36BB3B91949D4E90453F9
:104B5000D1F888201B0602F4403243EA8513134340
:104B6000C1F88830D1F88C30226A23F4F853013A26
:104B700043EA0223C1F88C30820210D5636FB3F18F
:104B8000006F0CD10A49A369D1F8882020691B0461
:104B900002F0706243EA80131343C1F88830044C7A
:104BA000236843F080532360FEF742FE054603E08E
:104BB000003802400070004023689B0040F1A38051
:104BC000002009E00126B5E6FEF732FEA0EB080062
:104BD00064287FF6C3AE032003B0BDE8F083A26A69
:104BE00002F4407293423FF4C3AE3B6F3A6F23F43A
:104BF000407342F480323A673A6F22F480323A6767
:104C00003B673B6FDA077FF5B3AEFEF711FE41F26B
:104C1000883980463B6F9B073FF5AAAEFEF708FE3A
:104C2000A0EB08004845F5D9D5E7916821F4F811C3
:104C3000AEE6384E336823F080633360FEF7F8FD4C
:104C4000074633681B0151D42268D7070DD5E36AA4
:104C50005BB9D6F88410D4E9010301F070611B0739
:104C600043EA80130B43C6F88430100303D5636B0B
:104C7000B3F5801F05D0D10219D5A36BB3F5800F12
:104C800015D12449E368D1F8840066681B0600F05A
:104C9000E04043EA86130343C1F88430D1F88C0026
:104CA000E36920F01F00013B0343C1F88C309201FF
:104CB0000AD5E36862681B0643EA8213A26843EAE6
:104CC0000273144AC2F88430124E336843F0806392
:104CD0003360FEF7ADFD074633681B013FF51EAF9D
:104CE000FEF7A6FDC01B6428F6D974E7FEF7A0FD09
:104CF000C01B6428A5D96EE7FEF79AFD801B6428C7
:104D00007FF616AF67E7FEF793FD401B64287FF63A
:104D100053AF60E700380240036A23F0010370B527
:104D20000362036A4268846923F002030D6824F475
:104D3000803424F073042C438D682B430E4DA8421D
:104D400002D00E4EB04211D123F00803CE68A84223
:104D500043EA060323F0040302D0084DA84205D11C
:104D600022F44072D1E9055635432A4342604A682D
:104D700084614263036270BD000001400004014091
:104D8000036A23F4807370B50362036A4268C469DE
:104D900023F400730D6824F4803424F073042C434E
:104DA0008D6843EA0523114DA84203D005F58065BF
:104DB000A84214D1CD6823F4006343EA05230B4DC8
:104DC000A84223F4806303D005F58065A84206D18C
:104DD00022F44052D1E90556354342EA05124260B9
:104DE0004A68C461C263036270BD00BF0000014035
:104DF000036A23F4805330B50362026A4468C369CE
:104E000022F400520D6823F0807323F4E64343EA52
:104E100005238D6842EA0532084DA84203D005F506
:104E20008065A84204D124F480444D6944EA851485
:104E30004460C3614B680364026230BD00000140FE
:104E4000036A23F4803330B50362026A4468436D19
:104E500022F400320D6823F4803323F070032B43D7
:104E60008D6842EA0542094DA84203D005F58065E8
:104E7000A84204D124F480344D6944EA05244460F6
:104E800043654B688365026230BD00BF000001408E
:104E9000036A23F4801330B50362026A4468436DE9
:104EA00022F400120D6823F0807323F4E04343EAF8
:104EB00005238D6842EA0552084DA84203D005F546
:104EC0008065A84204D124F480244D6944EA8524F5
:104ED000446043654B68C365026230BD0000014019
:104EE0000223026880F83D30084B91680B40062B86
:104EF00006D0B3F5803F03D0136843F0010313607D
:104F0000012380F83D300020704700BF07000100FA
:104F10000368DA6842F00102DA60074A99680A40D9
:104F2000062A06D0B2F5803F03D01A6842F001028B
:104F30001A600020704700BF0700010070477047EB
:104F400070477047704703681A69910710B50446A7
:104F50000FD5DA6892070CD56FF002021A610122B0
:104F60009B690277990700F08580FFF7E9FF00232E
:104F7000237723681A69520710D5DA6850070DD5D0
:104F80006FF0040220461A6102229B69227713F413
:104F9000407F75D0FFF7D4FF0023237723681A6979
:104FA00011070FD5DA6812070CD56FF008022046FA
:104FB0001A610422DB6922779B0767D0FFF7C0FFE5
:104FC0000023237723681A69D00610D5DA68D10642
:104FD0000DD56FF0100220461A610822DB69227796
:104FE00013F4407F58D0FFF7ABFF002323772368EB
:104FF0001A69D20708D5DA68D00705D56FF0010223
:1050000020461A61FCF750FF23681A69110608D57B
:10501000DA68120605D56FF0800220461A6100F0AA
:10502000E0FA23681A69D00508D5DA68110605D5B3
:105030006FF4807220461A6100F0D4FA23681A696E
:10504000520608D5DA68500605D56FF040022046B2
:105050001A61FFF777FF23681A69910622D5DA688B
:1050600092061FD56FF0200220461A61BDE810405D
:1050700000F0B6BAFFF763FF2046FFF762FF76E75E
:10508000FFF75DFF2046FFF75CFF85E7FFF757FF5F
:105090002046FFF756FF93E7FFF751FF2046FFF743
:1050A00050FFA2E710BD0000304A0368904212D0C2
:1050B000B0F1804F0FD0A2F57C4290420BD002F5A8
:1050C0008062904207D002F58062904203D002F5E0
:1050D0007842904219D14A6823F070031343234A5F
:1050E000904229D0B0F1804F26D0A2F57C42904268
:1050F00022D002F5806290421ED002F5806290427A
:105100001AD002F57842904216D0194A904213D034
:1051100002F5806290420FD002F5806290420BD07F
:10512000A2F59832904207D002F58062904203D0F7
:1051300002F58062904203D123F44073CA6813439E
:105140004A6923F08003134303608B68C3620B68D2
:105150008362064B984203D003F58063984201D1E5
:105160000B69036301234361704700BF00000140E6
:105170000040014010B50446A0B190F83D3003F066
:10518000FF021BB980F83C20FDF73CFB022320689E
:10519000211D84F83D30FFF787FF0123002084F8AC
:1051A0003D3010BD0120FCE710B50446A0B190F8D9
:1051B0003D3003F0FF021BB980F83C20FDF704FBF3
:1051C00002232068211D84F83D30FFF76DFF012385
:1051D000002084F83D3010BD0120FCE738B50D46B5
:1051E0000446E0B190F83D3003F0FF021BB980F8AF
:1051F0003C20FFF7A3FE0223211D206884F83D30E8
:10520000FFF752FF236800201A6822F008021A6094
:10521000196829431960012384F83D3038BD012005
:10522000FCE70000036A23F0100370B50362036A11
:105230004268846923F020030D6824F0807424F40C
:10524000E64444EA05248D6843EA0513104DA8425C
:1052500003D005F58065A84214D1CD6823F0800302
:1052600043EA05130A4DA84223F0400303D005F595
:105270008065A84206D122F44062D1E90556354343
:1052800042EA850242604A6884618263036270BDBB
:105290000000014038B590F83C3004460220012B54
:1052A00010D00123082A84F83D0084F83C3043D014
:1052B00009D8FAB1042A2ED00123002084F83D3009
:1052C00084F83C0038BD102A47D0142A56D00C2A46
:1052D000F2D12068FFF78CFD23680969DA6942F48E
:1052E0000062DA61DA6922F48062DA61DA6942EA3C
:1052F000012230E02068FFF70FFD236809699A69F1
:1053000042F008029A619A6922F004029A619A694D
:105310000A439A61D0E72068FFF784FF2368096990
:105320009A6942F400629A619A6922F480629A61F1
:105330009A6942EA0122ECE72068FFF721FD236821
:105340000969DA6942F00802DA61DA6922F00402D6
:10535000DA61DA690A43DA61AEE72068FFF770FDC7
:10536000236809695A6D42F008025A655A6D22F0A5
:1053700004025A655A6D0A435A659DE72068FFF793
:1053800087FD236809695A6D42F400625A655A6DB7
:1053900022F480625A655A6D42EA0122ECE710B5A8
:1053A0000A43846842EA032324F47F44234383604E
:1053B00010BD000090F83C30012B70B504464FF052
:1053C000020017D084F83D000123206884F83C30A7
:1053D0008268414B134083600B68402B65D015D821
:1053E000102B0CD007D853B10123002084F83D3096
:1053F00084F83C0070BD202B01D0302BF4D18268A2
:1054000043F0070322F0700213431AE0602B34D0FC
:1054100019D8502BE8D14A68CE68016A056A21F094
:105420000A0125F001050A430562836923F0F003B0
:1054300043EA061383610262836823F0700343F03A
:1054400057038360D0E7702B0CD0B3F5005FCBD14E
:10545000CB68D1E90121FFF7A2FF2268936843F4EA
:10546000804308E0CB68D1E90121FFF798FF22686B
:10547000936843F077039360B6E74D68CE68016A9E
:1054800021F0100101628269036A22F4704223F064
:10549000A00342EA063243EA05138261036283688D
:1054A00023F0700343F06703CBE74A68CE68016AD4
:1054B000056A21F00A0125F001050A4305628369A6
:1054C00023F0F00343EA061383610262836823F04A
:1054D000700343F04703B4E78800FEFF01F01F01AB
:1054E000036A10B501248A408C4023EA0403036256
:1054F000036A1A43026210BD10B504460122006817
:10550000FFF7ECFF23680C4A934203D002F5806258
:10551000934203D15A6C42F400425A649968074A94
:105520000A40062A06D0B2F5803F03D01A6842F03E
:1055300001021A60002010BD0000014007000100B8
:10554000FFF7DABF90F83C30012B4FF0020370B543
:105550003ED080F83D30012203681E4D80F83C208B
:10556000AB425A689C6802D01B4EB34203D122F46E
:1055700070024E6832430E6822F07002AB4242EA7B
:1055800006025A6019D0B3F1804F16D0134A9342E5
:1055900013D002F5806293420FD002F580629342ED
:1055A0000BD002F57842934207D002F57052934235
:1055B00003D0A2F59432934204D1896824F080028A
:1055C0000A439A60012380F83D30002380F83C3084
:1055D000184670BD00000140000401400004004076
:1055E00070477047704703681A6822F490721A6017
:1055F0009A6822F001029A602023836700230366E1
:105600007047704770470000036870B5DA6940F66C
:105610000F061968044632429D6809D196066ED578
:105620008D066CD5036E002B64D0BDE87040184722
:1056300015F0010002D111F4907F60D0D60707D594
:10564000CD0505D501251D62E56F45F00105E5672E
:10565000960706D528B102251D62E56F45F00405C1
:10566000E567550706D528B104251D62E56F45F0AD
:105670000205E567160708D58D0600D428B1082075
:105680001862E06F40F00800E067100508D54E0191
:1056900006D54FF400601862E36F43F02003E36720
:1056A000E36F3BB3950605D5880603D5236E0BB192
:1056B0002046984722682046E56F9268510602D43A
:1056C00015F0280517D0FFF78EFF23689A68520659
:1056D0000DD59A68E06E22F040029A6038B1144B02
:1056E0000365FEF759FC28B1E06E036D9DE7204687
:1056F000FFF788FF70BDFFF785FFE567FAE716063D
:1057000006D50D0604D5636E002BF3D020468CE73A
:105710005006EFD54A06EDD51A68204622F0400221
:105720001A602023636700236366FFF76AFFE1E7DF
:105730003557000808B5806B0023A0F85A30A0F850
:105740005230FFF75FFF08BD38B5C26904460368F1
:10575000816800691D680143606901439A481143EB
:105760002840256A0143E0681960596821F44051D6
:1057700001435960A1699868294320F430600143CE
:10578000996092498B4218D1914B9249D3F890304D
:1057900003F00303CB5CB2F5004F40F0BD80082B53
:1057A00000F2AF80DFE813F09500AA00F900AD0029
:1057B0000501AD00AD00AD000B0187498B4206D15C
:1057C000834B8649D3F8903003F00C03E2E7844919
:1057D0008B4218D17E4BD3F8903003F03003102B5E
:1057E00000F0E48002D8002BD5D005E0202B00F09B
:1057F000D180302B00F0E080B2F5004F00F08180C6
:1058000001200023A9E077498B420DD1704BD3F8DA
:10581000903003F0C003402B00F0C880E3D9802B08
:1058200000F0B880C02BE5E76F498B4210D1684B80
:10583000D3F8903003F44073B3F5807F00F0B68066
:10584000D1D9B3F5007F00F0A580B3F5407FD1E753
:1058500066498B4214D15E4BD3F8903003F4406319
:10586000B3F5806F00F0A28003D8002BC4D10123D0
:1058700091E7B3F5006F00F08D80B3F5406FB9E7A5
:105880005B498B4213D1524BD3F8903003F4405311
:10589000B3F5805F00F08A8003D8002BACD10023E1
:1058A00079E7B3F5005F75D0B3F5405FA2E75149E2
:1058B0008B42A1D1464BD3F8903003F44043B3F56B
:1058C000804F73D08FD9B3F5004F63D0B3F5404FFD
:1058D00090E7FEF7D3FF61684A0802EB4003B3FB91
:1058E000F1F39BB20020A3F110014FF6EF72914249
:1058F0000AD901200023C4E9183338BDFEF7CEFFD2
:10590000E9E701200023EEE723F00F02C3F342038F
:1059100021681343CB60EDE7082B3FF671AF01A27E
:1059200052F823F0495900086D59000873590008CE
:10593000015800088559000801580008015800085E
:10594000015800088B590008FEF798FF626800EBC9
:105950005203B3FBF2F39BB20020A3F110014FF608
:10596000EF729142C5D82268D360C3E7FEF796FF75
:10597000ECE76068430803F5740303F51053B3FBC9
:10598000F0F3E8E7FEF7AEFEE0E76068430803F5F2
:105990000043F4E7B2F5004FEBD16068430803F130
:1059A000F47303F59043B3FBF0F39AE7B2F5004FBD
:1059B000E8D1FEF797FE8EE7B2F5004FE5D16068BB
:1059C000430803F58033EEE7F369FFEF0010014071
:1059D0000038024014CF00080044004018CF0008EF
:1059E00000480040004C00400050004000140140BE
:1059F00000780040007C0040436ADA0710B506D505
:105A00000168846A4A6822F4003222434A609C0793
:105A100006D50168C46A4A6822F4803222434A608B
:105A2000590706D50168046B4A6822F48022224394
:105A30004A601A0706D50168446B4A6822F400429E
:105A400022434A60DC0606D50168846B8A6822F42A
:105A5000805222438A60990606D50168C46B8A6821
:105A600022F4005222438A605A0610D50168046C61
:105A70004A68B4F5801F22F4801242EA04024A60A8
:105A800005D14A68446C22F4C00222434A601B06D6
:105A900006D50268816C536823F400230B435360DE
:105AA00010BD2DE9F041069D04460F461646984666
:105AB0002168CA6937EA02030CBF01220022B24200
:105AC00001D0002018E0681CF3D0FDF7B1FEA0EB78
:105AD0000800A8422068036800D87DB923F4D07379
